{
  "contractName": "CalcCodeHash",
  "abi": [
    {
      "inputs": [],
      "stateMutability": "nonpayable",
      "type": "constructor"
    },
    {
      "inputs": [],
      "name": "codeHash",
      "outputs": [
        {
          "internalType": "bytes32",
          "name": "",
          "type": "bytes32"
        }
      ],
      "stateMutability": "pure",
      "type": "function"
    },
    {
      "inputs": [
        {
          "internalType": "address",
          "name": "factory",
          "type": "address"
        },
        {
          "internalType": "address",
          "name": "tokenA",
          "type": "address"
        },
        {
          "internalType": "address",
          "name": "tokenB",
          "type": "address"
        }
      ],
      "name": "pairFor",
      "outputs": [
        {
          "internalType": "address",
          "name": "",
          "type": "address"
        }
      ],
      "stateMutability": "pure",
      "type": "function"
    }
  ],
  "bytecode": "0x608060405234801561001057600080fd5b50613102806100206000396000f3fe608060405234801561001057600080fd5b50600436106100365760003560e01c806318edaaf21461003b5780636d91c0e214610055575b600080fd5b6100436100a9565b60408051918252519081900360200190f35b61008d6004803603606081101561006b57600080fd5b506001600160a01b0381358116916020810135821691604090910135166100df565b604080516001600160a01b039092168252519081900360200190f35b60006060604051806020016100bd9061027c565b601f1982820381018352601f9091011660405280516020919091012091505090565b60006100ec8484846100f4565b949350505050565b600080600061010385856101b4565b604080516bffffffffffffffffffffffff19606094851b811660208084019190915293851b81166034830152825160288184030181526048830184528051908501206001600160f81b031960688401529a90941b9093166069840152607d8301989098527f4c861e095f1c6b63c757eec3212753c355890388fc13bc18223333f08190cc29609d808401919091528851808403909101815260bd909201909752805196019590952095945050505050565b600080826001600160a01b0316846001600160a01b031614156102085760405162461bcd60e51b81526004018080602001828103825260288152602001806130846028913960400191505060405180910390fd5b826001600160a01b0316846001600160a01b03161061022857828461022b565b83835b90925090506001600160a01b0382166102755760405162461bcd60e51b81526004018080602001828103825260218152602001806130ac6021913960400191505060405180910390fd5b9250929050565b612dfa8061028a8339019056fe60806040526001600c5534801561001557600080fd5b50604080518082018252600d81526c2bb4b73a32b939bbb0b8102b1960991b6020918201528151808301835260018152603160f81b9082015281517f8b73c3c69bb8fe3d512ecc4cf759cc79239f7b179b0ffacaa9a75d522b39400f818301527ff5fbf02ea4eaec08f295dc633055b1800f91ff02a4a8635bd60f504fa8c2c279818401527fc89efdaa54c0f20c7adf612882df0950f5a951637e0307cdcb4c672f298b8bc660608201524660808201523060a0808301919091528351808303909101815260c09091019092528151910120600355600580546001600160a01b03191633179055612cef8061010b6000396000f3fe608060405234801561001057600080fd5b50600436106101cf5760003560e01c80637464fc3d11610104578063ba9a7a56116100a2578063d21220a711610071578063d21220a714610624578063d505accf1461062c578063dd62ed3e1461067d578063fff6cae9146106ab576101cf565b8063ba9a7a56146105b6578063bc25cf77146105be578063c0c53b8b146105e4578063c45a01551461061c576101cf565b8063867f8a25116100de578063867f8a251461050f57806389afcb441461054357806395d89b4114610582578063a9059cbb1461058a576101cf565b80637464fc3d146104555780637ecebe001461045d57806380efebf214610483576101cf565b806330adf81f116101715780635909c0d51161014b5780635909c0d5146103f95780635a3d5493146104015780636a6278421461040957806370a082311461042f576101cf565b806330adf81f146103cb578063313ce567146103d35780633644e515146103f1576101cf565b8063095ea7b3116101ad578063095ea7b3146103175780630dfe16811461035757806318160ddd1461037b57806323b872dd14610395576101cf565b8063022c0d9f146101d457806306fdde03146102625780630902f1ac146102df575b600080fd5b610260600480360360808110156101ea57600080fd5b8135916020810135916001600160a01b03604083013516919081019060808101606082013564010000000081111561022157600080fd5b82018360208201111561023357600080fd5b8035906020019184600183028401116401000000008311171561025557600080fd5b5090925090506106b3565b005b61026a610c17565b6040805160208082528351818301528351919283929083019185019080838360005b838110156102a457818101518382015260200161028c565b50505050905090810190601f1680156102d15780820380516001836020036101000a031916815260200191505b509250505060405180910390f35b6102e7610c40565b604080516001600160701b03948516815292909316602083015263ffffffff168183015290519081900360600190f35b6103436004803603604081101561032d57600080fd5b506001600160a01b038135169060200135610c6a565b604080519115158252519081900360200190f35b61035f610c81565b604080516001600160a01b039092168252519081900360200190f35b610383610c90565b60408051918252519081900360200190f35b610343600480360360608110156103ab57600080fd5b506001600160a01b03813581169160208101359091169060400135610c96565b610383610d2a565b6103db610d4e565b6040805160ff9092168252519081900360200190f35b610383610d53565b610383610d59565b610383610d5f565b6103836004803603602081101561041f57600080fd5b50356001600160a01b0316610d65565b6103836004803603602081101561044557600080fd5b50356001600160a01b0316611091565b6103836110a3565b6103836004803603602081101561047357600080fd5b50356001600160a01b03166110a9565b6102606004803603608081101561049957600080fd5b8135916020810135916001600160a01b0360408301351691908101906080810160608201356401000000008111156104d057600080fd5b8201836020820111156104e257600080fd5b8035906020019184600183028401116401000000008311171561050457600080fd5b5090925090506110bb565b6102606004803603606081101561052557600080fd5b508035906001600160a01b03602082013581169160400135166115df565b6105696004803603602081101561055957600080fd5b50356001600160a01b03166118fb565b6040805192835260208301919091528051918290030190f35b61026a611cdf565b610343600480360360408110156105a057600080fd5b506001600160a01b038135169060200135611d01565b610383611d0e565b610260600480360360208110156105d457600080fd5b50356001600160a01b0316611d14565b610260600480360360608110156105fa57600080fd5b506001600160a01b038135811691602081013582169160409091013516611e7f565b61035f611f1d565b61035f611f2c565b610260600480360360e081101561064257600080fd5b506001600160a01b03813581169160208101359091169060408101359060608101359060ff6080820135169060a08101359060c00135611f3b565b6103836004803603604081101561069357600080fd5b506001600160a01b0381358116916020013516612140565b61026061215d565b600c54600114610701576040805162461bcd60e51b815260206004820152601460248201527315da5b9d195c9cddd85c158c8e881313d0d2d15160621b604482015290519081900360640190fd5b6000600c55600d546001600160a01b03163314610753576040805162461bcd60e51b81526020600482015260196024820152600080516020612c4b833981519152604482015290519081900360640190fd5b60008511806107625750600084115b61079d5760405162461bcd60e51b8152600401808060200182810382526028815260200180612ba76028913960400191505060405180910390fd5b6000806107a8610c40565b5091509150816001600160701b0316871080156107cd5750806001600160701b031686105b6108085760405162461bcd60e51b8152600401808060200182810382526024815260200180612c966024913960400191505060405180910390fd5b60065460075460009182916001600160a01b039182169190811690891682148015906108465750806001600160a01b0316896001600160a01b031614155b610897576040805162461bcd60e51b815260206004820152601860248201527f57696e7465727377617056323a20494e56414c49445f544f0000000000000000604482015290519081900360640190fd5b8a156108a8576108a8828a8d6122c2565b89156108b9576108b9818a8c6122c2565b861561096b57886001600160a01b031663b091493e338d8d8c8c6040518663ffffffff1660e01b815260040180866001600160a01b03168152602001858152602001848152602001806020018281038252848482818152602001925080828437600081840152601f19601f8201169050808301925050509650505050505050600060405180830381600087803b15801561095257600080fd5b505af1158015610966573d6000803e3d6000fd5b505050505b604080516370a0823160e01b815230600482015290516001600160a01b038416916370a08231916024808301926020929190829003018186803b1580156109b157600080fd5b505afa1580156109c5573d6000803e3d6000fd5b505050506040513d60208110156109db57600080fd5b5051604080516370a0823160e01b815230600482015290519195506001600160a01b038316916370a0823191602480820192602092909190829003018186803b158015610a2757600080fd5b505afa158015610a3b573d6000803e3d6000fd5b505050506040513d6020811015610a5157600080fd5b5051925060009150506001600160701b0385168a90038311610a74576000610a83565b89856001600160701b03160383035b9050600089856001600160701b0316038311610aa0576000610aaf565b89856001600160701b03160383035b90506000821180610ac05750600081115b610afb5760405162461bcd60e51b8152600401808060200182810382526027815260200180612bf86027913960400191505060405180910390fd5b6000610b1d610b0b84600561245c565b610b17876103e861245c565b906124bf565b90506000610b2f610b0b84600561245c565b9050610b54620f4240610b4e6001600160701b038b8116908b1661245c565b9061245c565b610b5e838361245c565b1015610ba3576040805162461bcd60e51b815260206004820152600f60248201526e57696e7465727377617056323a204b60881b604482015290519081900360640190fd5b5050610bb18484888861250f565b60408051838152602081018390528082018d9052606081018c905290516001600160a01b038b169133917fd78ad95fa46c994b6551d0da85fc275fe613ce37657fb8d5e3d130840159d8229181900360800190a350506001600c55505050505050505050565b6040518060400160405280600d81526020016c2bb4b73a32b939bbb0b8102b1960991b81525081565b6008546001600160701b0380821692600160701b830490911691600160e01b900463ffffffff1690565b6000610c773384846126d1565b5060015b92915050565b6006546001600160a01b031681565b60005481565b6001600160a01b038316600090815260026020908152604080832033845290915281205460001914610d15576001600160a01b0384166000908152600260209081526040808320338452909152902054610cf090836124bf565b6001600160a01b03851660009081526002602090815260408083203384529091529020555b610d20848484612733565b5060019392505050565b7f6e71edae12b1b97f4d1f60370fef10105fa2faae0126114a169c64845d6126c981565b601281565b60035481565b60095481565b600a5481565b6000600c54600114610db5576040805162461bcd60e51b815260206004820152601460248201527315da5b9d195c9cddd85c158c8e881313d0d2d15160621b604482015290519081900360640190fd5b6000600c55600d546001600160a01b03163314610e07576040805162461bcd60e51b81526020600482015260196024820152600080516020612c4b833981519152604482015290519081900360640190fd5b600080610e12610c40565b50600654604080516370a0823160e01b815230600482015290519395509193506000926001600160a01b03909116916370a08231916024808301926020929190829003018186803b158015610e6657600080fd5b505afa158015610e7a573d6000803e3d6000fd5b505050506040513d6020811015610e9057600080fd5b5051600754604080516370a0823160e01b815230600482015290519293506000926001600160a01b03909216916370a0823191602480820192602092909190829003018186803b158015610ee357600080fd5b505afa158015610ef7573d6000803e3d6000fd5b505050506040513d6020811015610f0d57600080fd5b505190506000610f26836001600160701b0387166124bf565b90506000610f3d836001600160701b0387166124bf565b90506000610f4b87876127e1565b60005490915080610f8257610f6e6103e8610b17610f69878761245c565b612921565b9850610f7d60006103e8612973565b610fc5565b610fc26001600160701b038916610f99868461245c565b81610fa057fe5b046001600160701b038916610fb5868561245c565b81610fbc57fe5b046129fd565b98505b600089116110045760405162461bcd60e51b815260040180806020018281038252602b815260200180612c6b602b913960400191505060405180910390fd5b61100e8a8a612973565b61101a86868a8a61250f565b811561104457600854611040906001600160701b0380821691600160701b90041661245c565b600b555b6040805185815260208101859052815133927f4c209b5fc8ad50758f13e2e1088ba56a560dff690a1c6fef26394f4c03821c4f928290030190a250506001600c5550949695505050505050565b60016020526000908152604090205481565b600b5481565b60046020526000908152604090205481565b600c54600114611109576040805162461bcd60e51b815260206004820152601460248201527315da5b9d195c9cddd85c158c8e881313d0d2d15160621b604482015290519081900360640190fd5b6000600c55600d546001600160a01b0316331461115b576040805162461bcd60e51b81526020600482015260196024820152600080516020612c4b833981519152604482015290519081900360640190fd5b600085118061116a5750600084115b6111a55760405162461bcd60e51b815260040180806020018281038252602d815260200180612b2e602d913960400191505060405180910390fd5b6000806111b0610c40565b5091509150816001600160701b0316871080156111d55750806001600160701b031686105b6112105760405162461bcd60e51b8152600401808060200182810382526029815260200180612bcf6029913960400191505060405180910390fd5b60065460075460009182916001600160a01b0391821691908116908916821480159061124e5750806001600160a01b0316896001600160a01b031614155b61129f576040805162461bcd60e51b815260206004820152601d60248201527f57696e7465727377617056323a20494e56414c49445f544f5f46524545000000604482015290519081900360640190fd5b8a156112b0576112b0828a8d6122c2565b89156112c1576112c1818a8c6122c2565b861561137357886001600160a01b031663b091493e338d8d8c8c6040518663ffffffff1660e01b815260040180866001600160a01b03168152602001858152602001848152602001806020018281038252848482818152602001925080828437600081840152601f19601f8201169050808301925050509650505050505050600060405180830381600087803b15801561135a57600080fd5b505af115801561136e573d6000803e3d6000fd5b505050505b604080516370a0823160e01b815230600482015290516001600160a01b038416916370a08231916024808301926020929190829003018186803b1580156113b957600080fd5b505afa1580156113cd573d6000803e3d6000fd5b505050506040513d60208110156113e357600080fd5b5051604080516370a0823160e01b815230600482015290519195506001600160a01b038316916370a0823191602480820192602092909190829003018186803b15801561142f57600080fd5b505afa158015611443573d6000803e3d6000fd5b505050506040513d602081101561145957600080fd5b5051925060009150506001600160701b0385168a9003831161147c57600061148b565b89856001600160701b03160383035b9050600089856001600160701b03160383116114a85760006114b7565b89856001600160701b03160383035b905060008211806114c85750600081115b6115035760405162461bcd60e51b815260040180806020018281038252602c815260200180612c1f602c913960400191505060405180910390fd5b6115196001600160701b0387811690871661245c565b611523858561245c565b101561156d576040805162461bcd60e51b815260206004820152601460248201527357696e7465727377617056323a204b5f4652454560601b604482015290519081900360640190fd5b6115798484888861250f565b60408051838152602081018390528082018d9052606081018c905290516001600160a01b038b169133917fa29d59799004561feab48c4d69d3d0f79d5ecbf793d5435479d41f41116946859181900360800190a350506001600c55505050505050505050565b600c5460011461162d576040805162461bcd60e51b815260206004820152601460248201527315da5b9d195c9cddd85c158c8e881313d0d2d15160621b604482015290519081900360640190fd5b6000600c55600d546001600160a01b0316331461167f576040805162461bcd60e51b81526020600482015260196024820152600080516020612c4b833981519152604482015290519081900360640190fd5b82158061169d5750806001600160a01b0316826001600160a01b0316145b156116a7576118f1565b6000806116b2610c40565b5060065491935091506001600160a01b038481169116148015906116e457506007546001600160a01b03848116911614155b611735576040805162461bcd60e51b815260206004820152601e60248201527f57696e7465727377617056322050414952203a20494e56414c49445f544f0000604482015290519081900360640190fd5b6006546001600160a01b038581169116148061175e57506007546001600160a01b038581169116145b6117995760405162461bcd60e51b8152600401808060200182810382526021815260200180612b866021913960400191505060405180910390fd5b6117a48484876122c2565b600654604080516370a0823160e01b815230600482015290516000926001600160a01b0316916370a08231916024808301926020929190829003018186803b1580156117ef57600080fd5b505afa158015611803573d6000803e3d6000fd5b505050506040513d602081101561181957600080fd5b5051600754604080516370a0823160e01b815230600482015290519293506000926001600160a01b03909216916370a0823191602480820192602092909190829003018186803b15801561186c57600080fd5b505afa158015611880573d6000803e3d6000fd5b505050506040513d602081101561189657600080fd5b505190506118a68282868661250f565b604080516001600160a01b038781168252602082018a90528251908916927f5554d176803e54cb8ba20fced920dedcdf6a684c71339d3fdc132fca23db6a9c928290030190a2505050505b50506001600c5550565b600080600c5460011461194c576040805162461bcd60e51b815260206004820152601460248201527315da5b9d195c9cddd85c158c8e881313d0d2d15160621b604482015290519081900360640190fd5b6000600c55600d546001600160a01b0316331461199e576040805162461bcd60e51b81526020600482015260196024820152600080516020612c4b833981519152604482015290519081900360640190fd5b6000806119a9610c40565b50600654600754604080516370a0823160e01b815230600482015290519496509294506001600160a01b039182169391169160009184916370a08231916024808301926020929190829003018186803b158015611a0557600080fd5b505afa158015611a19573d6000803e3d6000fd5b505050506040513d6020811015611a2f57600080fd5b5051604080516370a0823160e01b815230600482015290519192506000916001600160a01b038516916370a08231916024808301926020929190829003018186803b158015611a7d57600080fd5b505afa158015611a91573d6000803e3d6000fd5b505050506040513d6020811015611aa757600080fd5b505130600090815260016020526040812054919250611ac688886127e1565b60005490915080611ad7848761245c565b81611ade57fe5b049a5080611aec848661245c565b81611af357fe5b04995060008b118015611b06575060008a115b611b415760405162461bcd60e51b815260040180806020018281038252602b815260200180612b5b602b913960400191505060405180910390fd5b611b4b3084612a15565b611b56878d8d6122c2565b611b61868d8c6122c2565b604080516370a0823160e01b815230600482015290516001600160a01b038916916370a08231916024808301926020929190829003018186803b158015611ba757600080fd5b505afa158015611bbb573d6000803e3d6000fd5b505050506040513d6020811015611bd157600080fd5b5051604080516370a0823160e01b815230600482015290519196506001600160a01b038816916370a0823191602480820192602092909190829003018186803b158015611c1d57600080fd5b505afa158015611c31573d6000803e3d6000fd5b505050506040513d6020811015611c4757600080fd5b50519350611c5785858b8b61250f565b8115611c8157600854611c7d906001600160701b0380821691600160701b90041661245c565b600b555b604080518c8152602081018c905281516001600160a01b038f169233927fdccd412f0b1252819cb1fd330b93224ca42612892bb3f4f789976e6d81936496929081900390910190a35050505050505050506001600c81905550915091565b604051806040016040528060068152602001652ba72a16ab1960d11b81525081565b6000610c77338484612733565b6103e881565b600c54600114611d62576040805162461bcd60e51b815260206004820152601460248201527315da5b9d195c9cddd85c158c8e881313d0d2d15160621b604482015290519081900360640190fd5b6000600c55600654600754600854604080516370a0823160e01b815230600482015290516001600160a01b039485169490931692611e0b9285928792611e06926001600160701b03169185916370a0823191602480820192602092909190829003018186803b158015611dd457600080fd5b505afa158015611de8573d6000803e3d6000fd5b505050506040513d6020811015611dfe57600080fd5b5051906124bf565b6122c2565b6118f18184611e066008600e9054906101000a90046001600160701b03166001600160701b0316856001600160a01b03166370a08231306040518263ffffffff1660e01b815260040180826001600160a01b0316815260200191505060206040518083038186803b158015611dd457600080fd5b6005546001600160a01b03163314611ede576040805162461bcd60e51b815260206004820152601760248201527f57696e7465727377617056323a20464f5242494444454e000000000000000000604482015290519081900360640190fd5b600680546001600160a01b039485166001600160a01b0319918216179091556007805493851693821693909317909255600d8054919093169116179055565b6005546001600160a01b031681565b6007546001600160a01b031681565b42841015611f88576040805162461bcd60e51b815260206004820152601560248201527415da5b9d195c9cddd85c158c8e8811561412549151605a1b604482015290519081900360640190fd5b6003546001600160a01b0380891660008181526004602090815260408083208054600180820190925582517f6e71edae12b1b97f4d1f60370fef10105fa2faae0126114a169c64845d6126c98186015280840196909652958d166060860152608085018c905260a085019590955260c08085018b90528151808603909101815260e08501825280519083012061190160f01b6101008601526101028501969096526101228085019690965280518085039096018652610142840180825286519683019690962095839052610162840180825286905260ff89166101828501526101a284018890526101c28401879052519193926101e280820193601f1981019281900390910190855afa1580156120a3573d6000803e3d6000fd5b5050604051601f1901519150506001600160a01b038116158015906120d95750886001600160a01b0316816001600160a01b0316145b61212a576040805162461bcd60e51b815260206004820152601f60248201527f57696e7465727377617056323a20494e56414c49445f5349474e415455524500604482015290519081900360640190fd5b6121358989896126d1565b505050505050505050565b600260209081526000928352604080842090915290825290205481565b600c546001146121ab576040805162461bcd60e51b815260206004820152601460248201527315da5b9d195c9cddd85c158c8e881313d0d2d15160621b604482015290519081900360640190fd5b6000600c55600654604080516370a0823160e01b815230600482015290516122bb926001600160a01b0316916370a08231916024808301926020929190829003018186803b1580156121fc57600080fd5b505afa158015612210573d6000803e3d6000fd5b505050506040513d602081101561222657600080fd5b5051600754604080516370a0823160e01b815230600482015290516001600160a01b03909216916370a0823191602480820192602092909190829003018186803b15801561227357600080fd5b505afa158015612287573d6000803e3d6000fd5b505050506040513d602081101561229d57600080fd5b50516008546001600160701b0380821691600160701b90041661250f565b6001600c55565b604080518082018252601981527f7472616e7366657228616464726573732c75696e74323536290000000000000060209182015281516001600160a01b0385811660248301526044808301869052845180840390910181526064909201845291810180516001600160e01b031663a9059cbb60e01b1781529251815160009460609489169392918291908083835b6020831061236f5780518252601f199092019160209182019101612350565b6001836020036101000a0380198251168184511680821785525050505050509050019150506000604051808303816000865af19150503d80600081146123d1576040519150601f19603f3d011682016040523d82523d6000602084013e6123d6565b606091505b5091509150818015612404575080511580612404575080806020019051602081101561240157600080fd5b50515b612455576040805162461bcd60e51b815260206004820152601d60248201527f57696e7465727377617056323a205452414e534645525f4641494c4544000000604482015290519081900360640190fd5b5050505050565b60008115806124775750508082028282828161247457fe5b04145b610c7b576040805162461bcd60e51b815260206004820152601460248201527364732d6d6174682d6d756c2d6f766572666c6f7760601b604482015290519081900360640190fd5b80820382811115610c7b576040805162461bcd60e51b815260206004820152601560248201527464732d6d6174682d7375622d756e646572666c6f7760581b604482015290519081900360640190fd5b6001600160701b03841180159061252d57506001600160701b038311155b612577576040805162461bcd60e51b815260206004820152601660248201527557696e7465727377617056323a204f564552464c4f5760501b604482015290519081900360640190fd5b60085463ffffffff42811691600160e01b900481168203908116158015906125a757506001600160701b03841615155b80156125bb57506001600160701b03831615155b15612626578063ffffffff166125e3856125d486612aa7565b6001600160e01b031690612ab9565b600980546001600160e01b03929092169290920201905563ffffffff811661260e846125d487612aa7565b600a80546001600160e01b0392909216929092020190555b600880546dffffffffffffffffffffffffffff19166001600160701b03888116919091176dffffffffffffffffffffffffffff60701b1916600160701b8883168102919091176001600160e01b0316600160e01b63ffffffff871602179283905560408051848416815291909304909116602082015281517f1c411e9a96e071241c2f21f7726b17ae89e3cab4c78be50e062b03a9fffbbad1929181900390910190a1505050505050565b6001600160a01b03808416600081815260026020908152604080832094871680845294825291829020859055815185815291517f8c5be1e5ebec7d5bd14f71427d1e84f3dd0314c0f7b2291e5b200ac8c7c3b9259281900390910190a3505050565b6001600160a01b03831660009081526001602052604090205461275690826124bf565b6001600160a01b0380851660009081526001602052604080822093909355908416815220546127859082612ade565b6001600160a01b0380841660008181526001602090815260409182902094909455805185815290519193928716927fddf252ad1be2c89b69c2b068fc378daa952ba7f163c4a11628f55a4df523b3ef92918290030190a3505050565b600080600560009054906101000a90046001600160a01b03166001600160a01b031663017e7e586040518163ffffffff1660e01b815260040160206040518083038186803b15801561283257600080fd5b505afa158015612846573d6000803e3d6000fd5b505050506040513d602081101561285c57600080fd5b5051600b546001600160a01b03821615801594509192509061290d578015612908576000612899610f696001600160701b0388811690881661245c565b905060006128a683612921565b9050808211156129055760006128c86128bf84846124bf565b6000549061245c565b905060006128e1836128db86600261245c565b90612ade565b905060008183816128ee57fe5b0490508015612901576129018782612973565b5050505b50505b612919565b8015612919576000600b555b505092915050565b60006003821115612964575080600160028204015b8181101561295e5780915060028182858161294d57fe5b04018161295657fe5b049050612936565b5061296e565b811561296e575060015b919050565b6000546129809082612ade565b60009081556001600160a01b0383168152600160205260409020546129a59082612ade565b6001600160a01b03831660008181526001602090815260408083209490945583518581529351929391927fddf252ad1be2c89b69c2b068fc378daa952ba7f163c4a11628f55a4df523b3ef9281900390910190a35050565b6000818310612a0c5781612a0e565b825b9392505050565b6001600160a01b038216600090815260016020526040902054612a3890826124bf565b6001600160a01b03831660009081526001602052604081209190915554612a5f90826124bf565b60009081556040805183815290516001600160a01b038516917fddf252ad1be2c89b69c2b068fc378daa952ba7f163c4a11628f55a4df523b3ef919081900360200190a35050565b6001600160701b0316600160701b0290565b60006001600160701b0382166001600160e01b03841681612ad657fe5b049392505050565b80820182811015610c7b576040805162461bcd60e51b815260206004820152601460248201527364732d6d6174682d6164642d6f766572666c6f7760601b604482015290519081900360640190fdfe57696e7465727377617056323a20494e53554646494349454e545f4f55545055545f414d4f554e545f4652454557696e7465727377617056323a20494e53554646494349454e545f4c49515549444954595f4255524e454457696e7465727377617056322050414952203a20494e56414c49445f544f4b454e57696e7465727377617056323a20494e53554646494349454e545f4f55545055545f414d4f554e5457696e7465727377617056323a20494e53554646494349454e545f4c49515549444954595f4652454557696e7465727377617056323a20494e53554646494349454e545f494e5055545f414d4f554e5457696e7465727377617056323a20494e53554646494349454e545f494e5055545f414d4f554e545f4652454557696e7465727377617056323a204f4e4c595f524f555445520000000000000057696e7465727377617056323a20494e53554646494349454e545f4c49515549444954595f4d494e54454457696e7465727377617056323a20494e53554646494349454e545f4c4951554944495459a264697066735822122083274581b431e7d3bc6ecec27ccd71e07295ca978c9a4d83512d942be10f6da664736f6c6343000705003357696e7465727377617056324c6962726172793a204944454e544943414c5f41444452455353455357696e7465727377617056324c6962726172793a205a45524f5f41444452455353a26469706673582212205beb0cf9cbdf25f3cfde14910df3dcf2974f32da561d35d5deaec30ead5ffba664736f6c63430007050033",
  "immutableReferences": {},
  "source": "// SPDX-License-Identifier: MIT\n\npragma solidity ^0.7.0;\n\nimport \"../swap/WinterswapV2Pair.sol\";\nimport \"../swap/libraries/WinterswapV2Library.sol\";\n\ncontract CalcCodeHash {\n    constructor(){\n\n    }\n\n    function codeHash() pure external returns(bytes32){\n        bytes memory bytecode = type(WinterswapV2Pair).creationCode;\n        bytes32 ret;\n        assembly{\n            ret := keccak256(add(bytecode, 0x20), mload(bytecode))\n        }\n        return ret;\n    }\n\n    function pairFor(address factory, address tokenA, address tokenB) external pure returns (address){\n        return WinterswapV2Library.pairFor(factory,tokenA,tokenB);\n    }\n}\n",
  "sourcePath": "/home/lycrus/WebstormProjects/WinterSwap/contracts/test/CalcCodeHash.sol",
  "compiler": {
    "name": "solc",
    "version": "0.7.5+commit.eb77ed08.Emscripten.clang"
  },
  "schemaVersion": "3.3.2",
  "updatedAt": "2020-12-14T17:55:36.384Z",
  "devdoc": {
    "kind": "dev",
    "methods": {},
    "version": 1
  },
  "userdoc": {
    "kind": "user",
    "methods": {},
    "version": 1
  }
}