{
  "contractName": "Farm",
  "abi": [
    {
      "inputs": [
        {
          "internalType": "contract Snowball",
          "name": "_snowball",
          "type": "address"
        },
        {
          "internalType": "address",
          "name": "_devaddr",
          "type": "address"
        },
        {
          "internalType": "uint256",
          "name": "_snowballPerBlock",
          "type": "uint256"
        },
        {
          "internalType": "uint256",
          "name": "_startBlock",
          "type": "uint256"
        },
        {
          "internalType": "uint256",
          "name": "_bonusEndBlock",
          "type": "uint256"
        }
      ],
      "stateMutability": "nonpayable",
      "type": "constructor"
    },
    {
      "anonymous": false,
      "inputs": [
        {
          "indexed": true,
          "internalType": "address",
          "name": "user",
          "type": "address"
        },
        {
          "indexed": true,
          "internalType": "uint256",
          "name": "pid",
          "type": "uint256"
        },
        {
          "indexed": false,
          "internalType": "uint256",
          "name": "amount",
          "type": "uint256"
        }
      ],
      "name": "Deposit",
      "type": "event"
    },
    {
      "anonymous": false,
      "inputs": [
        {
          "indexed": true,
          "internalType": "address",
          "name": "user",
          "type": "address"
        },
        {
          "indexed": true,
          "internalType": "uint256",
          "name": "pid",
          "type": "uint256"
        },
        {
          "indexed": false,
          "internalType": "uint256",
          "name": "amount",
          "type": "uint256"
        }
      ],
      "name": "EmergencyWithdraw",
      "type": "event"
    },
    {
      "anonymous": false,
      "inputs": [
        {
          "indexed": true,
          "internalType": "address",
          "name": "previousOwner",
          "type": "address"
        },
        {
          "indexed": true,
          "internalType": "address",
          "name": "newOwner",
          "type": "address"
        }
      ],
      "name": "OwnershipTransferred",
      "type": "event"
    },
    {
      "anonymous": false,
      "inputs": [
        {
          "indexed": true,
          "internalType": "address",
          "name": "user",
          "type": "address"
        },
        {
          "indexed": true,
          "internalType": "uint256",
          "name": "pid",
          "type": "uint256"
        },
        {
          "indexed": false,
          "internalType": "uint256",
          "name": "amount",
          "type": "uint256"
        }
      ],
      "name": "Withdraw",
      "type": "event"
    },
    {
      "inputs": [],
      "name": "BONUS_MULTIPLIER",
      "outputs": [
        {
          "internalType": "uint256",
          "name": "",
          "type": "uint256"
        }
      ],
      "stateMutability": "view",
      "type": "function",
      "constant": true
    },
    {
      "inputs": [],
      "name": "bonusEndBlock",
      "outputs": [
        {
          "internalType": "uint256",
          "name": "",
          "type": "uint256"
        }
      ],
      "stateMutability": "view",
      "type": "function",
      "constant": true
    },
    {
      "inputs": [],
      "name": "devaddr",
      "outputs": [
        {
          "internalType": "address",
          "name": "",
          "type": "address"
        }
      ],
      "stateMutability": "view",
      "type": "function",
      "constant": true
    },
    {
      "inputs": [],
      "name": "owner",
      "outputs": [
        {
          "internalType": "address",
          "name": "",
          "type": "address"
        }
      ],
      "stateMutability": "view",
      "type": "function",
      "constant": true
    },
    {
      "inputs": [
        {
          "internalType": "uint256",
          "name": "",
          "type": "uint256"
        }
      ],
      "name": "poolInfo",
      "outputs": [
        {
          "internalType": "contract IHRC20",
          "name": "lpToken",
          "type": "address"
        },
        {
          "internalType": "uint256",
          "name": "allocPoint",
          "type": "uint256"
        },
        {
          "internalType": "uint256",
          "name": "lastRewardBlock",
          "type": "uint256"
        },
        {
          "internalType": "uint256",
          "name": "accSnowballPerShare",
          "type": "uint256"
        }
      ],
      "stateMutability": "view",
      "type": "function",
      "constant": true
    },
    {
      "inputs": [],
      "name": "renounceOwnership",
      "outputs": [],
      "stateMutability": "nonpayable",
      "type": "function"
    },
    {
      "inputs": [],
      "name": "snowball",
      "outputs": [
        {
          "internalType": "contract Snowball",
          "name": "",
          "type": "address"
        }
      ],
      "stateMutability": "view",
      "type": "function",
      "constant": true
    },
    {
      "inputs": [],
      "name": "snowballPerBlock",
      "outputs": [
        {
          "internalType": "uint256",
          "name": "",
          "type": "uint256"
        }
      ],
      "stateMutability": "view",
      "type": "function",
      "constant": true
    },
    {
      "inputs": [],
      "name": "startBlock",
      "outputs": [
        {
          "internalType": "uint256",
          "name": "",
          "type": "uint256"
        }
      ],
      "stateMutability": "view",
      "type": "function",
      "constant": true
    },
    {
      "inputs": [],
      "name": "totalAllocPoint",
      "outputs": [
        {
          "internalType": "uint256",
          "name": "",
          "type": "uint256"
        }
      ],
      "stateMutability": "view",
      "type": "function",
      "constant": true
    },
    {
      "inputs": [
        {
          "internalType": "address",
          "name": "newOwner",
          "type": "address"
        }
      ],
      "name": "transferOwnership",
      "outputs": [],
      "stateMutability": "nonpayable",
      "type": "function"
    },
    {
      "inputs": [
        {
          "internalType": "uint256",
          "name": "",
          "type": "uint256"
        },
        {
          "internalType": "address",
          "name": "",
          "type": "address"
        }
      ],
      "name": "userInfo",
      "outputs": [
        {
          "internalType": "uint256",
          "name": "amount",
          "type": "uint256"
        },
        {
          "internalType": "uint256",
          "name": "rewardDebt",
          "type": "uint256"
        }
      ],
      "stateMutability": "view",
      "type": "function",
      "constant": true
    },
    {
      "inputs": [],
      "name": "poolLength",
      "outputs": [
        {
          "internalType": "uint256",
          "name": "",
          "type": "uint256"
        }
      ],
      "stateMutability": "view",
      "type": "function",
      "constant": true
    },
    {
      "inputs": [
        {
          "internalType": "uint256",
          "name": "_allocPoint",
          "type": "uint256"
        },
        {
          "internalType": "contract IHRC20",
          "name": "_lpToken",
          "type": "address"
        },
        {
          "internalType": "bool",
          "name": "_withUpdate",
          "type": "bool"
        }
      ],
      "name": "add",
      "outputs": [],
      "stateMutability": "nonpayable",
      "type": "function"
    },
    {
      "inputs": [
        {
          "internalType": "uint256",
          "name": "_pid",
          "type": "uint256"
        },
        {
          "internalType": "uint256",
          "name": "_allocPoint",
          "type": "uint256"
        },
        {
          "internalType": "bool",
          "name": "_withUpdate",
          "type": "bool"
        }
      ],
      "name": "set",
      "outputs": [],
      "stateMutability": "nonpayable",
      "type": "function"
    },
    {
      "inputs": [
        {
          "internalType": "uint256",
          "name": "_from",
          "type": "uint256"
        },
        {
          "internalType": "uint256",
          "name": "_to",
          "type": "uint256"
        }
      ],
      "name": "getMultiplier",
      "outputs": [
        {
          "internalType": "uint256",
          "name": "",
          "type": "uint256"
        }
      ],
      "stateMutability": "view",
      "type": "function",
      "constant": true
    },
    {
      "inputs": [
        {
          "internalType": "uint256",
          "name": "_pid",
          "type": "uint256"
        },
        {
          "internalType": "address",
          "name": "_user",
          "type": "address"
        }
      ],
      "name": "pendingReward",
      "outputs": [
        {
          "internalType": "uint256",
          "name": "",
          "type": "uint256"
        }
      ],
      "stateMutability": "view",
      "type": "function",
      "constant": true
    },
    {
      "inputs": [],
      "name": "massUpdatePools",
      "outputs": [],
      "stateMutability": "nonpayable",
      "type": "function"
    },
    {
      "inputs": [
        {
          "internalType": "uint256",
          "name": "_pid",
          "type": "uint256"
        }
      ],
      "name": "updatePool",
      "outputs": [],
      "stateMutability": "nonpayable",
      "type": "function"
    },
    {
      "inputs": [
        {
          "internalType": "uint256",
          "name": "_pid",
          "type": "uint256"
        },
        {
          "internalType": "uint256",
          "name": "_amount",
          "type": "uint256"
        }
      ],
      "name": "deposit",
      "outputs": [],
      "stateMutability": "nonpayable",
      "type": "function"
    },
    {
      "inputs": [
        {
          "internalType": "uint256",
          "name": "_pid",
          "type": "uint256"
        },
        {
          "internalType": "uint256",
          "name": "_amount",
          "type": "uint256"
        }
      ],
      "name": "withdraw",
      "outputs": [],
      "stateMutability": "nonpayable",
      "type": "function"
    },
    {
      "inputs": [
        {
          "internalType": "uint256",
          "name": "_pid",
          "type": "uint256"
        }
      ],
      "name": "emergencyWithdraw",
      "outputs": [],
      "stateMutability": "nonpayable",
      "type": "function"
    },
    {
      "inputs": [
        {
          "internalType": "address",
          "name": "_devaddr",
          "type": "address"
        }
      ],
      "name": "dev",
      "outputs": [],
      "stateMutability": "nonpayable",
      "type": "function"
    }
  ],
  "bytecode": "0x6080604052600060075534801561001557600080fd5b50604051611905380380611905833981810160405260a081101561003857600080fd5b5080516020820151604083015160608401516080909401519293919290919060006100616100e9565b600080546001600160a01b0319166001600160a01b0383169081178255604051929350917f8be0079c531659141344cd1fd0a4f28419497f9722a3daafe3b4186f6b6457e0908290a350600180546001600160a01b039687166001600160a01b03199182161790915560028054959096169416939093179093556004556003556008556100ed565b3390565b611809806100fc6000396000f3fe608060405234801561001057600080fd5b506004361061014d5760003560e01c806364482f79116100c357806393f1a40b1161007c57806393f1a40b1461031c57806398969e8214610361578063d49e77cd1461038d578063d9f0abf514610395578063e2bbb1581461039d578063f2fde38b146103c05761014d565b806364482f7914610290578063715018a6146102bb5780638aa28550146102c35780638d88a90e146102cb5780638da5cb5b146102f15780638dbb1e3a146102f95761014d565b806328f2642f1161011557806328f2642f146101ff578063441a3e701461022357806348cd4cb11461024657806351eb05a61461024e5780635312ea8e1461026b578063630b5ba1146102885761014d565b8063081e3eda146101525780631526fe271461016c57806317caf6f1146101b95780631aed6553146101c15780631eaaa045146101c9575b600080fd5b61015a6103e6565b60408051918252519081900360200190f35b6101896004803603602081101561018257600080fd5b50356103ec565b604080516001600160a01b0390951685526020850193909352838301919091526060830152519081900360800190f35b61015a610430565b61015a610436565b6101fd600480360360608110156101df57600080fd5b508035906001600160a01b036020820135169060400135151561043c565b005b6102076105b7565b604080516001600160a01b039092168252519081900360200190f35b6101fd6004803603604081101561023957600080fd5b50803590602001356105c6565b61015a610725565b6101fd6004803603602081101561026457600080fd5b503561072b565b6101fd6004803603602081101561028157600080fd5b5035610952565b6101fd6109ee565b6101fd600480360360608110156102a657600080fd5b50803590602081013590604001351515610a11565b6101fd610ae2565b61015a610b84565b6101fd600480360360208110156102e157600080fd5b50356001600160a01b0316610b89565b610207610bf6565b61015a6004803603604081101561030f57600080fd5b5080359060200135610c05565b6103486004803603604081101561033257600080fd5b50803590602001356001600160a01b0316610c71565b6040805192835260208301919091528051918290030190f35b61015a6004803603604081101561037757600080fd5b50803590602001356001600160a01b0316610c95565b610207610df7565b61015a610e06565b6101fd600480360360408110156103b357600080fd5b5080359060200135610e0c565b6101fd600480360360208110156103d657600080fd5b50356001600160a01b0316610f1e565b60055490565b600581815481106103fc57600080fd5b600091825260209091206004909102018054600182015460028301546003909301546001600160a01b039092169350919084565b60075481565b60035481565b610444611016565b6000546001600160a01b03908116911614610494576040805162461bcd60e51b8152602060048201819052602482015260008051602061178a833981519152604482015290519081900360640190fd5b80156104a2576104a26109ee565b600060085443116104b5576008546104b7565b435b6007549091506104c7908561101a565b600755604080516080810182526001600160a01b0394851681526020810195865290810191825260006060820181815260058054600181018255925291517f036b6384b5eca791c62761152d0c79bb0604c104a5fb6f4eb0703f3154bb3db0600490920291820180546001600160a01b031916919096161790945593517f036b6384b5eca791c62761152d0c79bb0604c104a5fb6f4eb0703f3154bb3db1840155517f036b6384b5eca791c62761152d0c79bb0604c104a5fb6f4eb0703f3154bb3db28301555090517f036b6384b5eca791c62761152d0c79bb0604c104a5fb6f4eb0703f3154bb3db390910155565b6001546001600160a01b031681565b6000600583815481106105d557fe5b600091825260208083208684526006825260408085203386529092529220805460049092029092019250831115610648576040805162461bcd60e51b81526020600482015260126024820152711dda5d1a191c985dce881b9bdd0819dbdbd960721b604482015290519081900360640190fd5b6106518461072b565b600061068b826001015461068564e8d4a5100061067f8760030154876000015461107b90919063ffffffff16565b906110d4565b90611116565b9050801561069d5761069d3382611158565b83156106c75781546106af9085611116565b825582546106c7906001600160a01b031633866112e9565b600383015482546106e29164e8d4a510009161067f9161107b565b6001830155604080518581529051869133917ff279e6a1f5e320cca91135676d9cb6e44ca8a08c0b88342bcdb1144f6511b5689181900360200190a35050505050565b60085481565b60006005828154811061073a57fe5b906000526020600020906004020190508060020154431161075b575061094f565b8054604080516370a0823160e01b815230600482015290516000926001600160a01b0316916370a08231916024808301926020929190829003018186803b1580156107a557600080fd5b505afa1580156107b9573d6000803e3d6000fd5b505050506040513d60208110156107cf57600080fd5b50519050806107e557504360029091015561094f565b60006107f5836002015443610c05565b9050600061082260075461067f866001015461081c6004548761107b90919063ffffffff16565b9061107b565b6001546002549192506001600160a01b03908116916340c10f19911661084984600a6110d4565b6040518363ffffffff1660e01b815260040180836001600160a01b0316815260200182815260200192505050600060405180830381600087803b15801561088f57600080fd5b505af11580156108a3573d6000803e3d6000fd5b5050600154604080516340c10f1960e01b81523060048201526024810186905290516001600160a01b0390921693506340c10f19925060448082019260009290919082900301818387803b1580156108fa57600080fd5b505af115801561090e573d6000803e3d6000fd5b5050505061093c6109318461067f64e8d4a510008561107b90919063ffffffff16565b60038601549061101a565b6003850155505043600290920191909155505b50565b60006005828154811061096157fe5b6000918252602080832085845260068252604080852033808752935284208054858255600182019590955560049093020180549094509192916109b1916001600160a01b039190911690836112e9565b604080518281529051859133917fbb757047c2b5f3974fe26b7c10f732e7bce710b0952a71082702781e62ae05959181900360200190a350505050565b60055460005b81811015610a0d57610a058161072b565b6001016109f4565b5050565b610a19611016565b6000546001600160a01b03908116911614610a69576040805162461bcd60e51b8152602060048201819052602482015260008051602061178a833981519152604482015290519081900360640190fd5b8015610a7757610a776109ee565b610ab482610aae60058681548110610a8b57fe5b90600052602060002090600402016001015460075461111690919063ffffffff16565b9061101a565b6007819055508160058481548110610ac857fe5b906000526020600020906004020160010181905550505050565b610aea611016565b6000546001600160a01b03908116911614610b3a576040805162461bcd60e51b8152602060048201819052602482015260008051602061178a833981519152604482015290519081900360640190fd5b600080546040516001600160a01b03909116907f8be0079c531659141344cd1fd0a4f28419497f9722a3daafe3b4186f6b6457e0908390a3600080546001600160a01b0319169055565b600a81565b6002546001600160a01b03163314610bd4576040805162461bcd60e51b81526020600482015260096024820152686465763a207775743f60b81b604482015290519081900360640190fd5b600280546001600160a01b0319166001600160a01b0392909216919091179055565b6000546001600160a01b031690565b60006003548211610c2657610c1f600a61081c8486611116565b9050610c6b565b6003548310610c3957610c1f8284611116565b610c1f610c516003548461111690919063ffffffff16565b610aae600a61081c8760035461111690919063ffffffff16565b92915050565b60066020908152600092835260408084209091529082529020805460019091015482565b60008060058481548110610ca557fe5b600091825260208083208784526006825260408085206001600160a01b03898116875290845281862060049586029093016003810154815484516370a0823160e01b81523098810198909852935191985093969395939492909116926370a08231926024808301939192829003018186803b158015610d2357600080fd5b505afa158015610d37573d6000803e3d6000fd5b505050506040513d6020811015610d4d57600080fd5b5051600285015490915043118015610d6457508015155b15610dc4576000610d79856002015443610c05565b90506000610da060075461067f886001015461081c6004548761107b90919063ffffffff16565b9050610dbf610db88461067f8464e8d4a5100061107b565b859061101a565b935050505b610dec836001015461068564e8d4a5100061067f86886000015461107b90919063ffffffff16565b979650505050505050565b6002546001600160a01b031681565b60045481565b600060058381548110610e1b57fe5b60009182526020808320868452600682526040808520338652909252922060049091029091019150610e4c8461072b565b805415610e95576000610e81826001015461068564e8d4a5100061067f8760030154876000015461107b90919063ffffffff16565b90508015610e9357610e933382611158565b505b8215610ec1578154610eb2906001600160a01b031633308661133b565b8054610ebe908461101a565b81555b60038201548154610edc9164e8d4a510009161067f9161107b565b6001820155604080518481529051859133917f90890809c654f11d6e72a28fa60149770a0d11ec6c92319d6ceb2bb0a4ea1a159181900360200190a350505050565b610f26611016565b6000546001600160a01b03908116911614610f76576040805162461bcd60e51b8152602060048201819052602482015260008051602061178a833981519152604482015290519081900360640190fd5b6001600160a01b038116610fbb5760405162461bcd60e51b815260040180806020018281038252602681526020018061171d6026913960400191505060405180910390fd5b600080546040516001600160a01b03808516939216917f8be0079c531659141344cd1fd0a4f28419497f9722a3daafe3b4186f6b6457e091a3600080546001600160a01b0319166001600160a01b0392909216919091179055565b3390565b600082820183811015611074576040805162461bcd60e51b815260206004820152601b60248201527f536166654d6174683a206164646974696f6e206f766572666c6f770000000000604482015290519081900360640190fd5b9392505050565b60008261108a57506000610c6b565b8282028284828161109757fe5b04146110745760405162461bcd60e51b81526004018080602001828103825260218152602001806117696021913960400191505060405180910390fd5b600061107483836040518060400160405280601a81526020017f536166654d6174683a206469766973696f6e206279207a65726f00000000000081525061139b565b600061107483836040518060400160405280601e81526020017f536166654d6174683a207375627472616374696f6e206f766572666c6f77000081525061143d565b600154604080516370a0823160e01b815230600482015290516000926001600160a01b0316916370a08231916024808301926020929190829003018186803b1580156111a357600080fd5b505afa1580156111b7573d6000803e3d6000fd5b505050506040513d60208110156111cd57600080fd5b5051905080821115611261576001546040805163a9059cbb60e01b81526001600160a01b038681166004830152602482018590529151919092169163a9059cbb9160448083019260209291908290030181600087803b15801561122f57600080fd5b505af1158015611243573d6000803e3d6000fd5b505050506040513d602081101561125957600080fd5b506112e49050565b6001546040805163a9059cbb60e01b81526001600160a01b038681166004830152602482018690529151919092169163a9059cbb9160448083019260209291908290030181600087803b1580156112b757600080fd5b505af11580156112cb573d6000803e3d6000fd5b505050506040513d60208110156112e157600080fd5b50505b505050565b604080516001600160a01b038416602482015260448082018490528251808303909101815260649091019091526020810180516001600160e01b031663a9059cbb60e01b1790526112e4908490611497565b604080516001600160a01b0380861660248301528416604482015260648082018490528251808303909101815260849091019091526020810180516001600160e01b03166323b872dd60e01b179052611395908590611497565b50505050565b600081836114275760405162461bcd60e51b81526004018080602001828103825283818151815260200191508051906020019080838360005b838110156113ec5781810151838201526020016113d4565b50505050905090810190601f1680156114195780820380516001836020036101000a031916815260200191505b509250505060405180910390fd5b50600083858161143357fe5b0495945050505050565b6000818484111561148f5760405162461bcd60e51b81526020600482018181528351602484015283519092839260449091019190850190808383600083156113ec5781810151838201526020016113d4565b505050900390565b60606114ec826040518060400160405280602081526020017f5361666548524332303a206c6f772d6c6576656c2063616c6c206661696c6564815250856001600160a01b03166115489092919063ffffffff16565b8051909150156112e45780806020019051602081101561150b57600080fd5b50516112e45760405162461bcd60e51b815260040180806020018281038252602a8152602001806117aa602a913960400191505060405180910390fd5b6060611557848460008561155f565b949350505050565b6060824710156115a05760405162461bcd60e51b81526004018080602001828103825260268152602001806117436026913960400191505060405180910390fd5b6115a9856116b0565b6115fa576040805162461bcd60e51b815260206004820152601d60248201527f416464726573733a2063616c6c20746f206e6f6e2d636f6e7472616374000000604482015290519081900360640190fd5b60006060866001600160a01b031685876040518082805190602001908083835b602083106116395780518252601f19909201916020918201910161161a565b6001836020036101000a03801982511681845116808217855250505050505090500191505060006040518083038185875af1925050503d806000811461169b576040519150601f19603f3d011682016040523d82523d6000602084013e6116a0565b606091505b5091509150610dec8282866116b6565b3b151590565b606083156116c5575081611074565b8251156116d55782518084602001fd5b60405162461bcd60e51b81526020600482018181528451602484015284518593919283926044019190850190808383600083156113ec5781810151838201526020016113d456fe4f776e61626c653a206e6577206f776e657220697320746865207a65726f2061646472657373416464726573733a20696e73756666696369656e742062616c616e636520666f722063616c6c536166654d6174683a206d756c7469706c69636174696f6e206f766572666c6f774f776e61626c653a2063616c6c6572206973206e6f7420746865206f776e65725361666548524332303a204852433230206f7065726174696f6e20646964206e6f742073756363656564a26469706673582212202b0d72573e31d0648009db8db227117ee9a1dfe800b546d5f977b7b6b729a4e464736f6c63430007050033",
  "immutableReferences": {},
  "source": "// SPDX-License-Identifier: MIT\n\npragma solidity ^0.7.0;\n\nimport \"../openzeppelin/token/HRC20/IHRC20.sol\";\nimport \"../openzeppelin/token/HRC20/SafeHRC20.sol\";\nimport \"../openzeppelin/utils/EnumerableSet.sol\";\nimport \"../openzeppelin/math/SafeMath.sol\";\nimport \"../openzeppelin/access/Ownable.sol\";\nimport \"../snowball/Snowball.sol\";\n\n// Farm is the generator of Snowball. He can make Snowball and he is a fair guy.\n//\n// Note that it's ownable and the owner wields tremendous power. The ownership\n// will be transferred to a governance smart contract once Snowball is sufficiently\n// distributed and the community can show to govern itself.\n//\n// Have fun reading it. Hopefully it's bug-free. God bless.\ncontract Farm is Ownable {\n    using SafeMath for uint256;\n    using SafeHRC20 for IHRC20;\n\n    // Info of each user.\n    struct UserInfo {\n        uint256 amount;     // How many LP tokens the user has provided.\n        uint256 rewardDebt; // Reward debt. See explanation below.\n        //\n        // We do some fancy math here. Basically, any point in time, the amount of Snowballs\n        // entitled to a user but is pending to be distributed is:\n        //\n        //   pending reward = (user.amount * pool.accSnowballPerShare) - user.rewardDebt\n        //\n        // Whenever a user deposits or withdraws LP tokens to a pool. Here's what happens:\n        //   1. The pool's `accSnowballPerShare` (and `lastRewardBlock`) gets updated.\n        //   2. User receives the pending reward sent to his/her address.\n        //   3. User's `amount` gets updated.\n        //   4. User's `rewardDebt` gets updated.\n    }\n\n    // Info of each pool.\n    struct PoolInfo {\n        IHRC20 lpToken;           // Address of LP token contract.\n        uint256 allocPoint;       // How many allocation points assigned to this pool. Snowball to distribute per block.\n        uint256 lastRewardBlock;  // Last block number that Snowball distribution occurs.\n        uint256 accSnowballPerShare; // Accumulated Snowball per share, times 1e12. See below.\n    }\n\n    // The Snowball TOKEN!\n    Snowball public snowball;\n    // Dev address.\n    address public devaddr;\n    // Block number when bonus Snowball period ends.\n    uint256 public bonusEndBlock;\n    // Snowball tokens created per block.\n    uint256 public snowballPerBlock;\n    // Bonus muliplier for early snowball makers.\n    uint256 public constant BONUS_MULTIPLIER = 10;\n\n    // Info of each pool.\n    PoolInfo[] public poolInfo;\n    // Info of each user that stakes LP tokens.\n    mapping (uint256 => mapping (address => UserInfo)) public userInfo;\n    // Total allocation points. Must be the sum of all allocation points in all pools.\n    uint256 public totalAllocPoint = 0;\n    // The block number when Snowball mining starts.\n    uint256 public startBlock;\n\n    event Deposit(address indexed user, uint256 indexed pid, uint256 amount);\n    //f279e6a1f5e320cca91135676d9cb6e44ca8a08c0b88342bcdb1144f6511b568\n    event Withdraw(address indexed user, uint256 indexed pid, uint256 amount);\n    event EmergencyWithdraw(address indexed user, uint256 indexed pid, uint256 amount);\n\n    constructor(\n        Snowball _snowball,\n        address _devaddr,\n        uint256 _snowballPerBlock,\n        uint256 _startBlock,\n        uint256 _bonusEndBlock\n    ) {\n        snowball = _snowball;\n        devaddr = _devaddr;\n        snowballPerBlock = _snowballPerBlock;\n        bonusEndBlock = _bonusEndBlock;\n        startBlock = _startBlock;\n    }\n\n    function poolLength() external view returns (uint256) {\n        return poolInfo.length;\n    }\n\n    // Add a new lp to the pool. Can only be called by the owner.\n    // XXX DO NOT add the same LP token more than once. Rewards will be messed up if you do.\n    function add(uint256 _allocPoint, IHRC20 _lpToken, bool _withUpdate) public onlyOwner {\n        if (_withUpdate) {\n            massUpdatePools();\n        }\n        uint256 lastRewardBlock = block.number > startBlock ? block.number : startBlock;\n        totalAllocPoint = totalAllocPoint.add(_allocPoint);\n        poolInfo.push(PoolInfo({\n            lpToken: _lpToken,\n            allocPoint: _allocPoint,\n            lastRewardBlock: lastRewardBlock,\n            accSnowballPerShare: 0\n        }));\n    }\n\n    // Update the given pool's Snowball allocation point. Can only be called by the owner.\n    function set(uint256 _pid, uint256 _allocPoint, bool _withUpdate) public onlyOwner {\n        if (_withUpdate) {\n            massUpdatePools();\n        }\n        totalAllocPoint = totalAllocPoint.sub(poolInfo[_pid].allocPoint).add(_allocPoint);\n        poolInfo[_pid].allocPoint = _allocPoint;\n    }\n\n    // Return reward multiplier over the given _from to _to block.\n    function getMultiplier(uint256 _from, uint256 _to) public view returns (uint256) {\n        if (_to <= bonusEndBlock) {\n            return _to.sub(_from).mul(BONUS_MULTIPLIER);\n        } else if (_from >= bonusEndBlock) {\n            return _to.sub(_from);\n        } else {\n            return bonusEndBlock.sub(_from).mul(BONUS_MULTIPLIER).add(\n                _to.sub(bonusEndBlock)\n            );\n        }\n    }\n\n    // View function to see pending Snowball on frontend.\n    //pendingSnowBall\n    function pendingReward(uint256 _pid, address _user) external view returns (uint256) {\n        PoolInfo storage pool = poolInfo[_pid];\n        UserInfo storage user = userInfo[_pid][_user];\n        uint256 accSnowballPerShare = pool.accSnowballPerShare;\n        uint256 lpSupply = pool.lpToken.balanceOf(address(this));\n        if (block.number > pool.lastRewardBlock && lpSupply != 0) {\n            uint256 multiplier = getMultiplier(pool.lastRewardBlock, block.number);\n            uint256 snowballReward = multiplier.mul(snowballPerBlock).mul(pool.allocPoint).div(totalAllocPoint);\n            accSnowballPerShare = accSnowballPerShare.add(snowballReward.mul(1e12).div(lpSupply));\n        }\n        return user.amount.mul(accSnowballPerShare).div(1e12).sub(user.rewardDebt);\n    }\n\n    // Update reward variables for all pools. Be careful of gas spending!\n    function massUpdatePools() public {\n        uint256 length = poolInfo.length;\n        for (uint256 pid = 0; pid < length; ++pid) {\n            updatePool(pid);\n        }\n    }\n\n    // Update reward variables of the given pool to be up-to-date.\n    function updatePool(uint256 _pid) public {\n        PoolInfo storage pool = poolInfo[_pid];\n        if (block.number <= pool.lastRewardBlock) {\n            return;\n        }\n        uint256 lpSupply = pool.lpToken.balanceOf(address(this));\n        if (lpSupply == 0) {\n            pool.lastRewardBlock = block.number;\n            return;\n        }\n        uint256 multiplier = getMultiplier(pool.lastRewardBlock, block.number);\n        uint256 snowballReward = multiplier.mul(snowballPerBlock).mul(pool.allocPoint).div(totalAllocPoint);\n        snowball.mint(devaddr, snowballReward.div(10));\n        snowball.mint(address(this), snowballReward);\n        pool.accSnowballPerShare = pool.accSnowballPerShare.add(snowballReward.mul(1e12).div(lpSupply));\n        pool.lastRewardBlock = block.number;\n    }\n\n    //e2bbb158ea830e9efa91fa2a38c9708f9f6109a6c571d6a762b53a83776a3d67\n    // Deposit LP tokens to MasterChef for Snowball allocation.\n    function deposit(uint256 _pid, uint256 _amount) public {\n        PoolInfo storage pool = poolInfo[_pid];\n        UserInfo storage user = userInfo[_pid][msg.sender];\n        updatePool(_pid);\n        if (user.amount > 0) {\n            uint256 pending = user.amount.mul(pool.accSnowballPerShare).div(1e12).sub(user.rewardDebt);\n            if(pending > 0) {\n                safeSnowballTransfer(msg.sender, pending);\n            }\n        }\n        if(_amount > 0) {\n            pool.lpToken.safeTransferFrom(address(msg.sender), address(this), _amount);\n            user.amount = user.amount.add(_amount);\n        }\n        user.rewardDebt = user.amount.mul(pool.accSnowballPerShare).div(1e12);\n        emit Deposit(msg.sender, _pid, _amount);\n    }\n\n    //441a3e70c6f476810f346a8a9bd493b00e9afd2ba1ab35eca9005dfd312435a9\n    // Withdraw LP tokens from MasterChef.\n    function withdraw(uint256 _pid, uint256 _amount) public {\n        PoolInfo storage pool = poolInfo[_pid];\n        UserInfo storage user = userInfo[_pid][msg.sender];\n        require(user.amount >= _amount, \"withdraw: not good\");\n        updatePool(_pid);\n        uint256 pending = user.amount.mul(pool.accSnowballPerShare).div(1e12).sub(user.rewardDebt);\n        if(pending > 0) {\n            safeSnowballTransfer(msg.sender, pending);\n        }\n        if(_amount > 0) {\n            user.amount = user.amount.sub(_amount);\n            pool.lpToken.safeTransfer(address(msg.sender), _amount);\n        }\n        user.rewardDebt = user.amount.mul(pool.accSnowballPerShare).div(1e12);\n        emit Withdraw(msg.sender, _pid, _amount);\n    }\n\n    // Withdraw without caring about rewards. EMERGENCY ONLY.\n    function emergencyWithdraw(uint256 _pid) public {\n        PoolInfo storage pool = poolInfo[_pid];\n        UserInfo storage user = userInfo[_pid][msg.sender];\n        uint256 amount = user.amount;\n        user.amount = 0;\n        user.rewardDebt = 0;\n        pool.lpToken.safeTransfer(address(msg.sender), amount);\n        emit EmergencyWithdraw(msg.sender, _pid, amount);\n    }\n\n    // Safe Snowball transfer function, just in case if rounding error causes pool to not have enough Snowball.\n    function safeSnowballTransfer(address _to, uint256 _amount) internal {\n        uint256 snowballBalance = snowball.balanceOf(address(this));\n        if (_amount > snowballBalance) {\n            snowball.transfer(_to, snowballBalance);\n        } else {\n            snowball.transfer(_to, _amount);\n        }\n    }\n\n    // Update dev address by the previous dev.\n    function dev(address _devaddr) public {\n        require(msg.sender == devaddr, \"dev: wut?\");\n        devaddr = _devaddr;\n    }\n}\n",
  "sourcePath": "/home/lycrus/WebstormProjects/WinterSwap/contracts/farm/Farm.sol",
  "compiler": {
    "name": "solc",
    "version": "0.7.5+commit.eb77ed08.Emscripten.clang"
  },
  "schemaVersion": "3.3.2",
  "updatedAt": "2020-12-21T12:07:24.702Z",
  "networkType": "ethereum",
  "devdoc": {
    "kind": "dev",
    "methods": {
      "owner()": {
        "details": "Returns the address of the current owner."
      },
      "renounceOwnership()": {
        "details": "Leaves the contract without owner. It will not be possible to call `onlyOwner` functions anymore. Can only be called by the current owner. NOTE: Renouncing ownership will leave the contract without an owner, thereby removing any functionality that is only available to the owner."
      },
      "transferOwnership(address)": {
        "details": "Transfers ownership of the contract to a new account (`newOwner`). Can only be called by the current owner."
      }
    },
    "version": 1
  },
  "userdoc": {
    "kind": "user",
    "methods": {},
    "version": 1
  }
}