{
  "contractName": "Lottery",
  "abi": [
    {
      "inputs": [
        {
          "internalType": "uint256",
          "name": "_startBlock",
          "type": "uint256"
        },
        {
          "internalType": "uint256",
          "name": "_period",
          "type": "uint256"
        },
        {
          "internalType": "uint256",
          "name": "_extraBonusEndBlock",
          "type": "uint256"
        },
        {
          "internalType": "uint256",
          "name": "_price",
          "type": "uint256"
        },
        {
          "internalType": "uint256",
          "name": "_periodBonus",
          "type": "uint256"
        },
        {
          "internalType": "contract Snowball",
          "name": "_snowball",
          "type": "address"
        }
      ],
      "stateMutability": "nonpayable",
      "type": "constructor"
    },
    {
      "anonymous": false,
      "inputs": [
        {
          "indexed": true,
          "internalType": "uint256",
          "name": "term",
          "type": "uint256"
        },
        {
          "indexed": false,
          "internalType": "address",
          "name": "buyer",
          "type": "address"
        },
        {
          "indexed": false,
          "internalType": "uint256",
          "name": "tickets",
          "type": "uint256"
        }
      ],
      "name": "Buy",
      "type": "event"
    },
    {
      "anonymous": false,
      "inputs": [
        {
          "indexed": true,
          "internalType": "uint256",
          "name": "term",
          "type": "uint256"
        },
        {
          "indexed": false,
          "internalType": "address",
          "name": "winner",
          "type": "address"
        }
      ],
      "name": "Draw",
      "type": "event"
    },
    {
      "inputs": [],
      "name": "BONUS_MULTIPLIER",
      "outputs": [
        {
          "internalType": "uint256",
          "name": "",
          "type": "uint256"
        }
      ],
      "stateMutability": "view",
      "type": "function",
      "constant": true
    },
    {
      "inputs": [
        {
          "internalType": "uint256",
          "name": "",
          "type": "uint256"
        },
        {
          "internalType": "uint256",
          "name": "",
          "type": "uint256"
        }
      ],
      "name": "buyerRecord",
      "outputs": [
        {
          "internalType": "address",
          "name": "",
          "type": "address"
        }
      ],
      "stateMutability": "view",
      "type": "function",
      "constant": true
    },
    {
      "inputs": [
        {
          "internalType": "uint256",
          "name": "",
          "type": "uint256"
        }
      ],
      "name": "drawRecord",
      "outputs": [
        {
          "internalType": "address",
          "name": "winner",
          "type": "address"
        },
        {
          "internalType": "uint256",
          "name": "award",
          "type": "uint256"
        },
        {
          "internalType": "uint256",
          "name": "bonus",
          "type": "uint256"
        }
      ],
      "stateMutability": "view",
      "type": "function",
      "constant": true
    },
    {
      "inputs": [],
      "name": "extraBonusEndBlock",
      "outputs": [
        {
          "internalType": "uint256",
          "name": "",
          "type": "uint256"
        }
      ],
      "stateMutability": "view",
      "type": "function",
      "constant": true
    },
    {
      "inputs": [],
      "name": "firstTermToDraw",
      "outputs": [
        {
          "internalType": "uint256",
          "name": "",
          "type": "uint256"
        }
      ],
      "stateMutability": "view",
      "type": "function",
      "constant": true
    },
    {
      "inputs": [],
      "name": "period",
      "outputs": [
        {
          "internalType": "uint256",
          "name": "",
          "type": "uint256"
        }
      ],
      "stateMutability": "view",
      "type": "function",
      "constant": true
    },
    {
      "inputs": [],
      "name": "periodBonus",
      "outputs": [
        {
          "internalType": "uint256",
          "name": "",
          "type": "uint256"
        }
      ],
      "stateMutability": "view",
      "type": "function",
      "constant": true
    },
    {
      "inputs": [],
      "name": "price",
      "outputs": [
        {
          "internalType": "uint256",
          "name": "",
          "type": "uint256"
        }
      ],
      "stateMutability": "view",
      "type": "function",
      "constant": true
    },
    {
      "inputs": [],
      "name": "snowball",
      "outputs": [
        {
          "internalType": "contract Snowball",
          "name": "",
          "type": "address"
        }
      ],
      "stateMutability": "view",
      "type": "function",
      "constant": true
    },
    {
      "inputs": [],
      "name": "startBlock",
      "outputs": [
        {
          "internalType": "uint256",
          "name": "",
          "type": "uint256"
        }
      ],
      "stateMutability": "view",
      "type": "function",
      "constant": true
    },
    {
      "inputs": [
        {
          "internalType": "uint256",
          "name": "number",
          "type": "uint256"
        }
      ],
      "name": "buyTickets",
      "outputs": [],
      "stateMutability": "nonpayable",
      "type": "function"
    },
    {
      "inputs": [],
      "name": "draw",
      "outputs": [],
      "stateMutability": "nonpayable",
      "type": "function"
    },
    {
      "inputs": [],
      "name": "notify",
      "outputs": [],
      "stateMutability": "nonpayable",
      "type": "function"
    }
  ],
  "bytecode": "0x61012060405234801561001157600080fd5b50604051610fd3380380610fd3833981810160405260c081101561003457600080fd5b50805160208201516040830151606084015160808086015160a096870151918690529584905260c083905260e0829052610100869052600180546001600160a01b0319166001600160a01b03909216919091179055929391929091610ed96100fa600039806102cf52806102f852806104c952508061027d5280610382528061057152806106c05250806102a7528061068f52508061074d528061077652806107dd5250806101db52806104fc528061066b528061079b52806108055250610ed96000f3fe608060405234801561001057600080fd5b50600436106100cf5760003560e01c8063899f58981161008c578063aad97c4911610066578063aad97c4914610161578063b971ece414610169578063ce512e951461018c578063ef78d4fd146101d1576100cf565b8063899f5898146101495780638aa2855014610151578063a035b1fe14610159576100cf565b80630eecae21146100d4578063210c07dc146100de57806328f2642f146100f85780632f3666371461011c57806348cd4cb1146101395780634a78f6ad14610141575b600080fd5b6100dc6101d9565b005b6100e66104c7565b60408051918252519081900360200190f35b6101006104eb565b604080516001600160a01b039092168252519081900360200190f35b6100dc6004803603602081101561013257600080fd5b50356104fa565b6100e6610669565b6100e661068d565b6100dc6106b1565b6100e66106b9565b6100e66106be565b6100e66106e2565b6101006004803603604081101561017f57600080fd5b50803590602001356106e8565b6101a9600480360360208110156101a257600080fd5b5035610720565b604080516001600160a01b039094168452602084019290925282820152519081900360600190f35b6100e661074b565b7f0000000000000000000000000000000000000000000000000000000000000000431015610206576104c5565b60006102114361076f565b9050600054811161022257506104c5565b6000545b8181116104c25760008181526002602052604090205461024c57600181016000556104ba565b6000610257826107cd565b9050600061026482610830565b600084815260026020526040812054919250906102a1907f0000000000000000000000000000000000000000000000000000000000000000610842565b905060007f00000000000000000000000000000000000000000000000000000000000000008411156102f3577f000000000000000000000000000000000000000000000000000000000000000061031e565b61031e7f0000000000000000000000000000000000000000000000000000000000000000600a610842565b60008681526002602052604081208054929350909161033e9086906108a4565b8154811061034857fe5b600091825260208083209091015488835260029091526040909120546001546001600160a01b03928316935090916103ab9116836103a6847f0000000000000000000000000000000000000000000000000000000000000000610842565b6108e6565b600154604080516340c10f1960e01b81526001600160a01b03858116600483015260248201879052915191909216916340c10f1991604480830192600092919082900301818387803b15801561040057600080fd5b505af1158015610414573d6000803e3d6000fd5b5050604080516001600160a01b038616815290518a93507fc41816115fa1bcec19c79512b6fbb5b88fe30c0036f40828b1a10609ec94348292509081900360200190a250604080516060810182526001600160a01b039283168152602080820195865281830194855260008981526003909152918220905181546001600160a01b0319169316929092178255925160018083019190915591516002909101558401905550505b600101610226565b50505b565b7f000000000000000000000000000000000000000000000000000000000000000081565b6001546001600160a01b031681565b7f00000000000000000000000000000000000000000000000000000000000000004310156105595760405162461bcd60e51b8152600401808060200182810382526022815260200180610dea6022913960400191505060405180910390fd5b60015461059a906001600160a01b03163330610595857f0000000000000000000000000000000000000000000000000000000000000000610842565b610a50565b60006105a54361076f565b90506000548110156105e85760405162461bcd60e51b8152600401808060200182810382526053815260200180610e0c6053913960600191505060405180910390fd5b60005b8281101561062a5760008281526002602090815260408220805460018181018355918452919092200180546001600160a01b03191633179055016105eb565b506040805133815260208101849052815183927f3b599f6217e39be59216b60e543ce0d4c7d534fe64dd9d962334924e7819894e928290030190a25050565b7f000000000000000000000000000000000000000000000000000000000000000081565b7f000000000000000000000000000000000000000000000000000000000000000081565b6104c56101d9565b600a81565b7f000000000000000000000000000000000000000000000000000000000000000081565b60005481565b6002602052816000526040600020818154811061070457600080fd5b6000918252602090912001546001600160a01b03169150829050565b6003602052600090815260409020805460018201546002909201546001600160a01b03909116919083565b7f000000000000000000000000000000000000000000000000000000000000000081565b60006107c57f00000000000000000000000000000000000000000000000000000000000000006107bf847f0000000000000000000000000000000000000000000000000000000000000000610bad565b90610bef565b90505b919050565b60006107c5600161082a610803857f00000000000000000000000000000000000000000000000000000000000000008401610842565b7f000000000000000000000000000000000000000000000000000000000000000090610c31565b90610bad565b60008140806107c557505043406107c8565b6000826108515750600061089e565b8282028284828161085e57fe5b041461089b5760405162461bcd60e51b8152600401808060200182810382526021815260200180610e5f6021913960400191505060405180910390fd5b90505b92915050565b600061089b83836040518060400160405280601881526020017f536166654d6174683a206d6f64756c6f206279207a65726f0000000000000000815250610c8b565b604080516001600160a01b038481166024830152604480830185905283518084039091018152606490920183526020820180516001600160e01b031663a9059cbb60e01b178152925182516000946060949389169392918291908083835b602083106109635780518252601f199092019160209182019101610944565b6001836020036101000a0380198251168184511680821785525050505050509050019150506000604051808303816000865af19150503d80600081146109c5576040519150601f19603f3d011682016040523d82523d6000602084013e6109ca565b606091505b50915091508180156109f85750805115806109f857508080602001905160208110156109f557600080fd5b50515b610a49576040805162461bcd60e51b815260206004820152601f60248201527f5472616e7366657248656c7065723a205452414e534645525f4641494c454400604482015290519081900360640190fd5b5050505050565b604080516001600160a01b0385811660248301528481166044830152606480830185905283518084039091018152608490920183526020820180516001600160e01b03166323b872dd60e01b17815292518251600094606094938a169392918291908083835b60208310610ad55780518252601f199092019160209182019101610ab6565b6001836020036101000a0380198251168184511680821785525050505050509050019150506000604051808303816000865af19150503d8060008114610b37576040519150601f19603f3d011682016040523d82523d6000602084013e610b3c565b606091505b5091509150818015610b6a575080511580610b6a5750808060200190516020811015610b6757600080fd5b50515b610ba55760405162461bcd60e51b8152600401808060200182810382526024815260200180610e806024913960400191505060405180910390fd5b505050505050565b600061089b83836040518060400160405280601e81526020017f536166654d6174683a207375627472616374696f6e206f766572666c6f770000815250610d2a565b600061089b83836040518060400160405280601a81526020017f536166654d6174683a206469766973696f6e206279207a65726f000000000000815250610d84565b60008282018381101561089b576040805162461bcd60e51b815260206004820152601b60248201527f536166654d6174683a206164646974696f6e206f766572666c6f770000000000604482015290519081900360640190fd5b60008183610d175760405162461bcd60e51b81526004018080602001828103825283818151815260200191508051906020019080838360005b83811015610cdc578181015183820152602001610cc4565b50505050905090810190601f168015610d095780820380516001836020036101000a031916815260200191505b509250505060405180910390fd5b50828481610d2157fe5b06949350505050565b60008184841115610d7c5760405162461bcd60e51b8152602060048201818152835160248401528351909283926044909101919085019080838360008315610cdc578181015183820152602001610cc4565b505050900390565b60008183610dd35760405162461bcd60e51b8152602060048201818152835160248401528351909283926044909101919085019080838360008315610cdc578181015183820152602001610cc4565b506000838581610ddf57fe5b049594505050505056fe4c6f74746572792c206c6f747465727920646f6573206e6f74206f70656e207965744c6f74746572793a2066697273745465726d546f447261772073686f756c6420626520657175616c206f7220736d616c6c207468616e2063757272656e74207465726d2c2074686174277320737472616e6765536166654d6174683a206d756c7469706c69636174696f6e206f766572666c6f775472616e7366657248656c7065723a205452414e534645525f46524f4d5f4641494c4544a264697066735822122080d84989d57729b44f72f5f3c2e1633e23d4b911760f57b0fd3a238a8d65d0b564736f6c63430007050033",
  "immutableReferences": {
    "838": [
      {
        "length": 32,
        "start": 475
      },
      {
        "length": 32,
        "start": 1276
      },
      {
        "length": 32,
        "start": 1643
      },
      {
        "length": 32,
        "start": 1947
      },
      {
        "length": 32,
        "start": 2053
      }
    ],
    "840": [
      {
        "length": 32,
        "start": 1869
      },
      {
        "length": 32,
        "start": 1910
      },
      {
        "length": 32,
        "start": 2013
      }
    ],
    "842": [
      {
        "length": 32,
        "start": 679
      },
      {
        "length": 32,
        "start": 1679
      }
    ],
    "847": [
      {
        "length": 32,
        "start": 637
      },
      {
        "length": 32,
        "start": 898
      },
      {
        "length": 32,
        "start": 1393
      },
      {
        "length": 32,
        "start": 1728
      }
    ],
    "849": [
      {
        "length": 32,
        "start": 719
      },
      {
        "length": 32,
        "start": 760
      },
      {
        "length": 32,
        "start": 1225
      }
    ]
  },
  "source": "// SPDX-License-Identifier: GPL-3.0-or-later\n\npragma solidity ^0.7.0;\n\nimport \"../openzeppelin/math/SafeMath.sol\";\nimport \"../swap/libraries/TransferHelper.sol\";\nimport \"../snowball/Snowball.sol\";\n\n// one address can only buy one ticket in one term, we don't recommend use multiple accounts to participate,\n// winner could take all paid snowballs plus additional bonus, which is related to bonus, bonus_multiplier and extraBonusEndBlock\ncontract Lottery {\n    using SafeMath for uint256;\n\n    // The block number when Snowball mining starts.\n    uint256 public immutable startBlock;\n    // How long a term lasts, in blocks\n    uint256 public immutable period;\n    // Block number when bonus Snowball period ends.\n    uint256 public immutable extraBonusEndBlock;\n    // Bonus muliplier for early snowball makers.\n    uint256 public constant BONUS_MULTIPLIER = 10;\n    // Ticket price\n    uint256 public immutable price;\n    // Bonus for a term\n    uint256 public immutable periodBonus;\n    // Starts at 0\n    uint256 public firstTermToDraw;\n\n    Snowball public snowball;\n\n    //term => buyers\n    mapping(uint256 => address[]) public buyerRecord;\n    //term => winner index\n    mapping(uint256 => DrawInfo) public drawRecord;\n\n    struct DrawInfo{\n        address winner;\n        uint256 award;\n        uint256 bonus;\n    }\n\n    event Buy(uint256 indexed term, address buyer, uint256 tickets);\n    event Draw(uint256 indexed term, address winner);\n    //extraBonusEndBlock should be times of term since startBlock\n    constructor(uint256 _startBlock, uint256 _period, uint256 _extraBonusEndBlock, uint256 _price, uint256 _periodBonus, Snowball _snowball){\n        startBlock = _startBlock;\n        period = _period;\n        extraBonusEndBlock = _extraBonusEndBlock;\n        price = _price;\n        periodBonus = _periodBonus;\n        snowball = _snowball;\n    }\n\n    // you can only buy the current term;\n    function buyTickets(uint256 number) started external{\n        TransferHelper.safeTransferFrom(address(snowball),msg.sender,address(this), number.mul(price));\n        uint256 term = calcTerm(block.number);\n        require(term >= firstTermToDraw, \"Lottery: firstTermToDraw should be equal or small than current term, that's strange\");\n        for(uint256 i = 0; i < number; i ++){\n            buyerRecord[term].push(msg.sender);\n        }\n        emit Buy(term, msg.sender, number);\n    }\n\n    //the pseudoRandom, is up to the POA miner of Heco chain, which has almost no individual interest\n    //thus we can trust the Heco miners\n    //do NOT use this pserdoRandom in Pow and Pos permission election blockchains\n    function draw() public{\n        if(block.number < startBlock) {\n            return;\n        }\n\n        uint256 currentTerm = calcTerm(block.number);\n        if (currentTerm <= firstTermToDraw){\n            return;\n        }\n        for(uint256 term = firstTermToDraw ; term <= currentTerm ; term ++){\n\n            //if(gasleft() < 500000)\n            if(buyerRecord[term].length==0){\n                firstTermToDraw = term + 1;\n                continue;\n            }\n\n            uint256 lastBlockOfTerm = calcLastBlockNum(term);\n            uint256 pseudoRandom = getBlockHash(lastBlockOfTerm);\n\n            uint256 totalAward = buyerRecord[term].length.mul(price);\n            uint256 bonus = lastBlockOfTerm <= extraBonusEndBlock ? periodBonus.mul(BONUS_MULTIPLIER):periodBonus;\n\n\n            address winner = buyerRecord[term][pseudoRandom.mod(buyerRecord[term].length)];\n            //?\n            uint256 tickets = buyerRecord[term].length;\n\n            TransferHelper.safeTransfer(\n                address(snowball),\n                winner,\n                tickets.mul(price)\n            );\n\n\n            snowball.mint(winner, bonus);\n\n            emit Draw(term, winner);\n            //no back-end servers, filtering log by indexed key is a little annoying, for now, save them in the storage and remove later\n            drawRecord[term] = DrawInfo(winner, totalAward, bonus);\n\n            firstTermToDraw = term + 1;\n        }\n    }\n\n    function notify() external{\n        draw();\n    }\n\n    function getBlockHash(uint256 blocknum) internal view returns(uint256){\n        uint256 hash = uint256(blockhash(blocknum));\n        if(hash == 0){\n            return  uint256(blockhash(block.number));\n        }\n        return hash;\n    }\n\n\n    function calcTerm(uint256 blocknum) view internal returns(uint256){\n        return (blocknum.sub(startBlock)).div(period);\n    }\n\n    function calcLastBlockNum(uint256 term) view internal returns(uint256){\n        return startBlock.add(term.mul(period+1)).sub(1) ;\n    }\n\n    modifier started(){\n        require(block.number >= startBlock, \"Lottery, lottery does not open yet\");\n        _;\n    }\n}\n",
  "sourcePath": "/home/lycrus/WebstormProjects/WinterSwap/contracts/lottery/Lottery.sol",
  "compiler": {
    "name": "solc",
    "version": "0.7.5+commit.eb77ed08.Emscripten.clang"
  },
  "schemaVersion": "3.3.2",
  "updatedAt": "2020-12-15T12:04:12.586Z",
  "networkType": "ethereum",
  "devdoc": {
    "kind": "dev",
    "methods": {},
    "version": 1
  },
  "userdoc": {
    "kind": "user",
    "methods": {},
    "version": 1
  }
}