{
  "contractName": "Lottery",
  "abi": [
    {
      "inputs": [
        {
          "internalType": "uint256",
          "name": "_startBlock",
          "type": "uint256"
        },
        {
          "internalType": "uint256",
          "name": "_period",
          "type": "uint256"
        },
        {
          "internalType": "uint256",
          "name": "_extraBonusEndBlock",
          "type": "uint256"
        },
        {
          "internalType": "uint256",
          "name": "_price",
          "type": "uint256"
        },
        {
          "internalType": "uint256",
          "name": "_periodBonus",
          "type": "uint256"
        },
        {
          "internalType": "contract Snowball",
          "name": "_snowball",
          "type": "address"
        }
      ],
      "stateMutability": "nonpayable",
      "type": "constructor"
    },
    {
      "anonymous": false,
      "inputs": [
        {
          "indexed": true,
          "internalType": "uint256",
          "name": "term",
          "type": "uint256"
        },
        {
          "indexed": false,
          "internalType": "address",
          "name": "buyer",
          "type": "address"
        },
        {
          "indexed": false,
          "internalType": "uint256",
          "name": "tickets",
          "type": "uint256"
        }
      ],
      "name": "Buy",
      "type": "event"
    },
    {
      "anonymous": false,
      "inputs": [
        {
          "indexed": true,
          "internalType": "uint256",
          "name": "term",
          "type": "uint256"
        },
        {
          "indexed": false,
          "internalType": "address",
          "name": "winner",
          "type": "address"
        }
      ],
      "name": "Draw",
      "type": "event"
    },
    {
      "inputs": [],
      "name": "BONUS_MULTIPLIER",
      "outputs": [
        {
          "internalType": "uint256",
          "name": "",
          "type": "uint256"
        }
      ],
      "stateMutability": "view",
      "type": "function"
    },
    {
      "inputs": [
        {
          "internalType": "uint256",
          "name": "",
          "type": "uint256"
        },
        {
          "internalType": "uint256",
          "name": "",
          "type": "uint256"
        }
      ],
      "name": "buyerRecord",
      "outputs": [
        {
          "internalType": "address",
          "name": "",
          "type": "address"
        }
      ],
      "stateMutability": "view",
      "type": "function"
    },
    {
      "inputs": [
        {
          "internalType": "uint256",
          "name": "",
          "type": "uint256"
        }
      ],
      "name": "drawRecord",
      "outputs": [
        {
          "internalType": "address",
          "name": "winner",
          "type": "address"
        },
        {
          "internalType": "uint256",
          "name": "award",
          "type": "uint256"
        },
        {
          "internalType": "uint256",
          "name": "bonus",
          "type": "uint256"
        }
      ],
      "stateMutability": "view",
      "type": "function"
    },
    {
      "inputs": [],
      "name": "extraBonusEndBlock",
      "outputs": [
        {
          "internalType": "uint256",
          "name": "",
          "type": "uint256"
        }
      ],
      "stateMutability": "view",
      "type": "function"
    },
    {
      "inputs": [],
      "name": "firstTermToDraw",
      "outputs": [
        {
          "internalType": "uint256",
          "name": "",
          "type": "uint256"
        }
      ],
      "stateMutability": "view",
      "type": "function"
    },
    {
      "inputs": [],
      "name": "period",
      "outputs": [
        {
          "internalType": "uint256",
          "name": "",
          "type": "uint256"
        }
      ],
      "stateMutability": "view",
      "type": "function"
    },
    {
      "inputs": [],
      "name": "periodBonus",
      "outputs": [
        {
          "internalType": "uint256",
          "name": "",
          "type": "uint256"
        }
      ],
      "stateMutability": "view",
      "type": "function"
    },
    {
      "inputs": [],
      "name": "price",
      "outputs": [
        {
          "internalType": "uint256",
          "name": "",
          "type": "uint256"
        }
      ],
      "stateMutability": "view",
      "type": "function"
    },
    {
      "inputs": [],
      "name": "snowball",
      "outputs": [
        {
          "internalType": "contract Snowball",
          "name": "",
          "type": "address"
        }
      ],
      "stateMutability": "view",
      "type": "function"
    },
    {
      "inputs": [],
      "name": "startBlock",
      "outputs": [
        {
          "internalType": "uint256",
          "name": "",
          "type": "uint256"
        }
      ],
      "stateMutability": "view",
      "type": "function"
    },
    {
      "inputs": [
        {
          "internalType": "uint256",
          "name": "number",
          "type": "uint256"
        }
      ],
      "name": "buyTickets",
      "outputs": [],
      "stateMutability": "nonpayable",
      "type": "function"
    },
    {
      "inputs": [],
      "name": "draw",
      "outputs": [],
      "stateMutability": "nonpayable",
      "type": "function"
    },
    {
      "inputs": [],
      "name": "notify",
      "outputs": [],
      "stateMutability": "nonpayable",
      "type": "function"
    }
  ],
  "bytecode": "0x61012060405234801561001157600080fd5b50604051610fe3380380610fe3833981810160405260c081101561003457600080fd5b50805160208201516040830151606084015160808086015160a096870151918690529584905260c083905260e0829052610100869052600180546001600160a01b0319166001600160a01b03909216919091179055929391929091610ee96100fa600039806102df528061030852806104d952508061028d5280610392528061058152806106d05250806102b7528061069f52508061075d528061078652806107ed5250806101db528061050c528061067b52806107ab52806108155250610ee96000f3fe608060405234801561001057600080fd5b50600436106100cf5760003560e01c8063899f58981161008c578063aad97c4911610066578063aad97c4914610161578063b971ece414610169578063ce512e951461018c578063ef78d4fd146101d1576100cf565b8063899f5898146101495780638aa2855014610151578063a035b1fe14610159576100cf565b80630eecae21146100d4578063210c07dc146100de57806328f2642f146100f85780632f3666371461011c57806348cd4cb1146101395780634a78f6ad14610141575b600080fd5b6100dc6101d9565b005b6100e66104d7565b60408051918252519081900360200190f35b6101006104fb565b604080516001600160a01b039092168252519081900360200190f35b6100dc6004803603602081101561013257600080fd5b503561050a565b6100e6610679565b6100e661069d565b6100dc6106c1565b6100e66106c9565b6100e66106ce565b6100e66106f2565b6101006004803603604081101561017f57600080fd5b50803590602001356106f8565b6101a9600480360360208110156101a257600080fd5b5035610730565b604080516001600160a01b039094168452602084019290925282820152519081900360600190f35b6100e661075b565b7f0000000000000000000000000000000000000000000000000000000000000000431015610206576104d5565b60006102114361077f565b9050600054811161022257506104d5565b6000545b8181116104d257620f42405a101561023d576104d2565b60008181526002602052604090205461025c57600181016000556104ca565b6000610267826107dd565b9050600061027482610840565b600084815260026020526040812054919250906102b1907f0000000000000000000000000000000000000000000000000000000000000000610852565b905060007f0000000000000000000000000000000000000000000000000000000000000000841115610303577f000000000000000000000000000000000000000000000000000000000000000061032e565b61032e7f0000000000000000000000000000000000000000000000000000000000000000600a610852565b60008681526002602052604081208054929350909161034e9086906108b4565b8154811061035857fe5b600091825260208083209091015488835260029091526040909120546001546001600160a01b03928316935090916103bb9116836103b6847f0000000000000000000000000000000000000000000000000000000000000000610852565b6108f6565b600154604080516340c10f1960e01b81526001600160a01b03858116600483015260248201879052915191909216916340c10f1991604480830192600092919082900301818387803b15801561041057600080fd5b505af1158015610424573d6000803e3d6000fd5b5050604080516001600160a01b038616815290518a93507fc41816115fa1bcec19c79512b6fbb5b88fe30c0036f40828b1a10609ec94348292509081900360200190a250604080516060810182526001600160a01b039283168152602080820195865281830194855260008981526003909152918220905181546001600160a01b0319169316929092178255925160018083019190915591516002909101558401905550505b600101610226565b50505b565b7f000000000000000000000000000000000000000000000000000000000000000081565b6001546001600160a01b031681565b7f00000000000000000000000000000000000000000000000000000000000000004310156105695760405162461bcd60e51b8152600401808060200182810382526022815260200180610dfa6022913960400191505060405180910390fd5b6001546105aa906001600160a01b031633306105a5857f0000000000000000000000000000000000000000000000000000000000000000610852565b610a60565b60006105b54361077f565b90506000548110156105f85760405162461bcd60e51b8152600401808060200182810382526053815260200180610e1c6053913960600191505060405180910390fd5b60005b8281101561063a5760008281526002602090815260408220805460018181018355918452919092200180546001600160a01b03191633179055016105fb565b506040805133815260208101849052815183927f3b599f6217e39be59216b60e543ce0d4c7d534fe64dd9d962334924e7819894e928290030190a25050565b7f000000000000000000000000000000000000000000000000000000000000000081565b7f000000000000000000000000000000000000000000000000000000000000000081565b6104d56101d9565b600a81565b7f000000000000000000000000000000000000000000000000000000000000000081565b60005481565b6002602052816000526040600020818154811061071457600080fd5b6000918252602090912001546001600160a01b03169150829050565b6003602052600090815260409020805460018201546002909201546001600160a01b03909116919083565b7f000000000000000000000000000000000000000000000000000000000000000081565b60006107d57f00000000000000000000000000000000000000000000000000000000000000006107cf847f0000000000000000000000000000000000000000000000000000000000000000610bbd565b90610bff565b90505b919050565b60006107d5600161083a610813857f00000000000000000000000000000000000000000000000000000000000000008401610852565b7f000000000000000000000000000000000000000000000000000000000000000090610c41565b90610bbd565b60008140806107d557505043406107d8565b600082610861575060006108ae565b8282028284828161086e57fe5b04146108ab5760405162461bcd60e51b8152600401808060200182810382526021815260200180610e6f6021913960400191505060405180910390fd5b90505b92915050565b60006108ab83836040518060400160405280601881526020017f536166654d6174683a206d6f64756c6f206279207a65726f0000000000000000815250610c9b565b604080516001600160a01b038481166024830152604480830185905283518084039091018152606490920183526020820180516001600160e01b031663a9059cbb60e01b178152925182516000946060949389169392918291908083835b602083106109735780518252601f199092019160209182019101610954565b6001836020036101000a0380198251168184511680821785525050505050509050019150506000604051808303816000865af19150503d80600081146109d5576040519150601f19603f3d011682016040523d82523d6000602084013e6109da565b606091505b5091509150818015610a08575080511580610a085750808060200190516020811015610a0557600080fd5b50515b610a59576040805162461bcd60e51b815260206004820152601f60248201527f5472616e7366657248656c7065723a205452414e534645525f4641494c454400604482015290519081900360640190fd5b5050505050565b604080516001600160a01b0385811660248301528481166044830152606480830185905283518084039091018152608490920183526020820180516001600160e01b03166323b872dd60e01b17815292518251600094606094938a169392918291908083835b60208310610ae55780518252601f199092019160209182019101610ac6565b6001836020036101000a0380198251168184511680821785525050505050509050019150506000604051808303816000865af19150503d8060008114610b47576040519150601f19603f3d011682016040523d82523d6000602084013e610b4c565b606091505b5091509150818015610b7a575080511580610b7a5750808060200190516020811015610b7757600080fd5b50515b610bb55760405162461bcd60e51b8152600401808060200182810382526024815260200180610e906024913960400191505060405180910390fd5b505050505050565b60006108ab83836040518060400160405280601e81526020017f536166654d6174683a207375627472616374696f6e206f766572666c6f770000815250610d3a565b60006108ab83836040518060400160405280601a81526020017f536166654d6174683a206469766973696f6e206279207a65726f000000000000815250610d94565b6000828201838110156108ab576040805162461bcd60e51b815260206004820152601b60248201527f536166654d6174683a206164646974696f6e206f766572666c6f770000000000604482015290519081900360640190fd5b60008183610d275760405162461bcd60e51b81526004018080602001828103825283818151815260200191508051906020019080838360005b83811015610cec578181015183820152602001610cd4565b50505050905090810190601f168015610d195780820380516001836020036101000a031916815260200191505b509250505060405180910390fd5b50828481610d3157fe5b06949350505050565b60008184841115610d8c5760405162461bcd60e51b8152602060048201818152835160248401528351909283926044909101919085019080838360008315610cec578181015183820152602001610cd4565b505050900390565b60008183610de35760405162461bcd60e51b8152602060048201818152835160248401528351909283926044909101919085019080838360008315610cec578181015183820152602001610cd4565b506000838581610def57fe5b049594505050505056fe4c6f74746572792c206c6f747465727920646f6573206e6f74206f70656e207965744c6f74746572793a2066697273745465726d546f447261772073686f756c6420626520657175616c206f7220736d616c6c207468616e2063757272656e74207465726d2c2074686174277320737472616e6765536166654d6174683a206d756c7469706c69636174696f6e206f766572666c6f775472616e7366657248656c7065723a205452414e534645525f46524f4d5f4641494c4544a264697066735822122089c44dc661e1fc851bb32aee68caa518d279a5145e0f8394f23d0b8e15ad128b64736f6c63430007050033",
  "immutableReferences": {
    "838": [
      {
        "length": 32,
        "start": 475
      },
      {
        "length": 32,
        "start": 1292
      },
      {
        "length": 32,
        "start": 1659
      },
      {
        "length": 32,
        "start": 1963
      },
      {
        "length": 32,
        "start": 2069
      }
    ],
    "840": [
      {
        "length": 32,
        "start": 1885
      },
      {
        "length": 32,
        "start": 1926
      },
      {
        "length": 32,
        "start": 2029
      }
    ],
    "842": [
      {
        "length": 32,
        "start": 695
      },
      {
        "length": 32,
        "start": 1695
      }
    ],
    "847": [
      {
        "length": 32,
        "start": 653
      },
      {
        "length": 32,
        "start": 914
      },
      {
        "length": 32,
        "start": 1409
      },
      {
        "length": 32,
        "start": 1744
      }
    ],
    "849": [
      {
        "length": 32,
        "start": 735
      },
      {
        "length": 32,
        "start": 776
      },
      {
        "length": 32,
        "start": 1241
      }
    ]
  },
  "source": "// SPDX-License-Identifier: GPL-3.0-or-later\n\npragma solidity ^0.7.0;\n\nimport \"../openzeppelin/math/SafeMath.sol\";\nimport \"../swap/libraries/TransferHelper.sol\";\nimport \"../snowball/Snowball.sol\";\n\n// one address can only buy one ticket in one term, we don't recommend use multiple accounts to participate,\n// winner could take all paid snowballs plus additional bonus, which is related to bonus, bonus_multiplier and extraBonusEndBlock\ncontract Lottery {\n    using SafeMath for uint256;\n\n    // The block number when Snowball mining starts.\n    uint256 public immutable startBlock;\n    // How long a term lasts, in blocks\n    uint256 public immutable period;\n    // Block number when bonus Snowball period ends.\n    uint256 public immutable extraBonusEndBlock;\n    // Bonus muliplier for early snowball makers.\n    uint256 public constant BONUS_MULTIPLIER = 10;\n    // Ticket price\n    uint256 public immutable price;\n    // Bonus for a term\n    uint256 public immutable periodBonus;\n    // Starts at 0\n    uint256 public firstTermToDraw;\n\n    Snowball public snowball;\n\n    //term => buyers\n    mapping(uint256 => address[]) public buyerRecord;\n    //term => winner index\n    mapping(uint256 => DrawInfo) public drawRecord;\n\n    struct DrawInfo{\n        address winner;\n        uint256 award;\n        uint256 bonus;\n    }\n\n    event Buy(uint256 indexed term, address buyer, uint256 tickets);\n    event Draw(uint256 indexed term, address winner);\n    //extraBonusEndBlock should be times of term since startBlock\n    constructor(uint256 _startBlock, uint256 _period, uint256 _extraBonusEndBlock, uint256 _price, uint256 _periodBonus, Snowball _snowball){\n        startBlock = _startBlock;\n        period = _period;\n        extraBonusEndBlock = _extraBonusEndBlock;\n        price = _price;\n        periodBonus = _periodBonus;\n        snowball = _snowball;\n    }\n\n    // you can only buy the current term;\n    function buyTickets(uint256 number) started external{\n        TransferHelper.safeTransferFrom(address(snowball),msg.sender,address(this), number.mul(price));\n        uint256 term = calcTerm(block.number);\n        require(term >= firstTermToDraw, \"Lottery: firstTermToDraw should be equal or small than current term, that's strange\");\n        for(uint256 i = 0; i < number; i ++){\n            buyerRecord[term].push(msg.sender);\n        }\n        emit Buy(term, msg.sender, number);\n    }\n\n    //the pseudoRandom, is up to the POA miner of Heco chain, which has almost no individual interest\n    //thus we can trust the Heco miners\n    //do NOT use this pserdoRandom in Pow and Pos permission election blockchains\n    function draw() public{\n        if(block.number < startBlock) {\n            return;\n        }\n\n        uint256 currentTerm = calcTerm(block.number);\n        if (currentTerm <= firstTermToDraw){\n            return;\n        }\n        for(uint256 term = firstTermToDraw ; term <= currentTerm ; term ++){\n\n            if(gasleft() < 1000000){\n                break;\n            }\n            if(buyerRecord[term].length==0){\n                firstTermToDraw = term + 1;\n                continue;\n            }\n\n            uint256 lastBlockOfTerm = calcLastBlockNum(term);\n            uint256 pseudoRandom = getBlockHash(lastBlockOfTerm);\n\n            uint256 totalAward = buyerRecord[term].length.mul(price);\n            uint256 bonus = lastBlockOfTerm <= extraBonusEndBlock ? periodBonus.mul(BONUS_MULTIPLIER):periodBonus;\n\n\n            address winner = buyerRecord[term][pseudoRandom.mod(buyerRecord[term].length)];\n            //?\n            uint256 tickets = buyerRecord[term].length;\n\n            TransferHelper.safeTransfer(\n                address(snowball),\n                winner,\n                tickets.mul(price)\n            );\n\n\n            snowball.mint(winner, bonus);\n\n            emit Draw(term, winner);\n            //no back-end servers, filtering log by indexed key is a little annoying, for now, save them in the storage and remove later\n            drawRecord[term] = DrawInfo(winner, totalAward, bonus);\n\n            firstTermToDraw = term + 1;\n        }\n    }\n\n    function notify() external{\n        draw();\n    }\n\n    function getBlockHash(uint256 blocknum) internal view returns(uint256){\n        uint256 hash = uint256(blockhash(blocknum));\n        if(hash == 0){\n            return  uint256(blockhash(block.number));\n        }\n        return hash;\n    }\n\n\n    function calcTerm(uint256 blocknum) view internal returns(uint256){\n        return (blocknum.sub(startBlock)).div(period);\n    }\n\n    function calcLastBlockNum(uint256 term) view internal returns(uint256){\n        return startBlock.add(term.mul(period+1)).sub(1) ;\n    }\n\n    modifier started(){\n        require(block.number >= startBlock, \"Lottery, lottery does not open yet\");\n        _;\n    }\n}\n",
  "sourcePath": "/home/lycrus/WebstormProjects/WinterSwap/contracts/lottery/Lottery.sol",
  "compiler": {
    "name": "solc",
    "version": "0.7.5+commit.eb77ed08.Emscripten.clang"
  },
  "schemaVersion": "3.3.2",
  "updatedAt": "2020-12-21T12:07:24.708Z",
  "networkType": "ethereum",
  "devdoc": {
    "kind": "dev",
    "methods": {},
    "version": 1
  },
  "userdoc": {
    "kind": "user",
    "methods": {},
    "version": 1
  }
}