{
  "contractName": "Snowball",
  "abi": [
    {
      "inputs": [
        {
          "internalType": "address",
          "name": "dev",
          "type": "address"
        },
        {
          "internalType": "uint256",
          "name": "amount",
          "type": "uint256"
        },
        {
          "internalType": "contract IWNS",
          "name": "_wns",
          "type": "address"
        }
      ],
      "stateMutability": "nonpayable",
      "type": "constructor"
    },
    {
      "anonymous": false,
      "inputs": [
        {
          "indexed": true,
          "internalType": "address",
          "name": "owner",
          "type": "address"
        },
        {
          "indexed": true,
          "internalType": "address",
          "name": "spender",
          "type": "address"
        },
        {
          "indexed": false,
          "internalType": "uint256",
          "name": "value",
          "type": "uint256"
        }
      ],
      "name": "Approval",
      "type": "event"
    },
    {
      "anonymous": false,
      "inputs": [
        {
          "indexed": true,
          "internalType": "address",
          "name": "from",
          "type": "address"
        },
        {
          "indexed": true,
          "internalType": "address",
          "name": "to",
          "type": "address"
        },
        {
          "indexed": false,
          "internalType": "uint256",
          "name": "value",
          "type": "uint256"
        }
      ],
      "name": "Transfer",
      "type": "event"
    },
    {
      "inputs": [
        {
          "internalType": "address",
          "name": "owner",
          "type": "address"
        },
        {
          "internalType": "address",
          "name": "spender",
          "type": "address"
        }
      ],
      "name": "allowance",
      "outputs": [
        {
          "internalType": "uint256",
          "name": "",
          "type": "uint256"
        }
      ],
      "stateMutability": "view",
      "type": "function",
      "constant": true
    },
    {
      "inputs": [
        {
          "internalType": "address",
          "name": "spender",
          "type": "address"
        },
        {
          "internalType": "uint256",
          "name": "amount",
          "type": "uint256"
        }
      ],
      "name": "approve",
      "outputs": [
        {
          "internalType": "bool",
          "name": "",
          "type": "bool"
        }
      ],
      "stateMutability": "nonpayable",
      "type": "function"
    },
    {
      "inputs": [
        {
          "internalType": "address",
          "name": "account",
          "type": "address"
        }
      ],
      "name": "balanceOf",
      "outputs": [
        {
          "internalType": "uint256",
          "name": "",
          "type": "uint256"
        }
      ],
      "stateMutability": "view",
      "type": "function",
      "constant": true
    },
    {
      "inputs": [],
      "name": "cap",
      "outputs": [
        {
          "internalType": "uint256",
          "name": "",
          "type": "uint256"
        }
      ],
      "stateMutability": "view",
      "type": "function",
      "constant": true
    },
    {
      "inputs": [],
      "name": "decimals",
      "outputs": [
        {
          "internalType": "uint8",
          "name": "",
          "type": "uint8"
        }
      ],
      "stateMutability": "view",
      "type": "function",
      "constant": true
    },
    {
      "inputs": [
        {
          "internalType": "address",
          "name": "spender",
          "type": "address"
        },
        {
          "internalType": "uint256",
          "name": "subtractedValue",
          "type": "uint256"
        }
      ],
      "name": "decreaseAllowance",
      "outputs": [
        {
          "internalType": "bool",
          "name": "",
          "type": "bool"
        }
      ],
      "stateMutability": "nonpayable",
      "type": "function"
    },
    {
      "inputs": [
        {
          "internalType": "address",
          "name": "spender",
          "type": "address"
        },
        {
          "internalType": "uint256",
          "name": "addedValue",
          "type": "uint256"
        }
      ],
      "name": "increaseAllowance",
      "outputs": [
        {
          "internalType": "bool",
          "name": "",
          "type": "bool"
        }
      ],
      "stateMutability": "nonpayable",
      "type": "function"
    },
    {
      "inputs": [],
      "name": "name",
      "outputs": [
        {
          "internalType": "string",
          "name": "",
          "type": "string"
        }
      ],
      "stateMutability": "view",
      "type": "function",
      "constant": true
    },
    {
      "inputs": [],
      "name": "symbol",
      "outputs": [
        {
          "internalType": "string",
          "name": "",
          "type": "string"
        }
      ],
      "stateMutability": "view",
      "type": "function",
      "constant": true
    },
    {
      "inputs": [],
      "name": "totalSupply",
      "outputs": [
        {
          "internalType": "uint256",
          "name": "",
          "type": "uint256"
        }
      ],
      "stateMutability": "view",
      "type": "function",
      "constant": true
    },
    {
      "inputs": [
        {
          "internalType": "address",
          "name": "recipient",
          "type": "address"
        },
        {
          "internalType": "uint256",
          "name": "amount",
          "type": "uint256"
        }
      ],
      "name": "transfer",
      "outputs": [
        {
          "internalType": "bool",
          "name": "",
          "type": "bool"
        }
      ],
      "stateMutability": "nonpayable",
      "type": "function"
    },
    {
      "inputs": [
        {
          "internalType": "address",
          "name": "sender",
          "type": "address"
        },
        {
          "internalType": "address",
          "name": "recipient",
          "type": "address"
        },
        {
          "internalType": "uint256",
          "name": "amount",
          "type": "uint256"
        }
      ],
      "name": "transferFrom",
      "outputs": [
        {
          "internalType": "bool",
          "name": "",
          "type": "bool"
        }
      ],
      "stateMutability": "nonpayable",
      "type": "function"
    },
    {
      "inputs": [],
      "name": "init",
      "outputs": [],
      "stateMutability": "nonpayable",
      "type": "function"
    },
    {
      "inputs": [
        {
          "internalType": "address",
          "name": "_to",
          "type": "address"
        },
        {
          "internalType": "uint256",
          "name": "_amount",
          "type": "uint256"
        }
      ],
      "name": "mint",
      "outputs": [],
      "stateMutability": "nonpayable",
      "type": "function"
    }
  ],
  "bytecode": "0x60806040523480156200001157600080fd5b50604051620011ea380380620011ea833981810160405260608110156200003757600080fd5b50805160208083015160409384015184518086018652600881526714db9bddd8985b1b60c21b818501908152865180880190975260038088526229a72160e91b9588019590955281519596939592946a084595161401484a000000949293620000a192906200038d565b508051620000b79060049060208401906200038d565b50506005805460ff1916601217905550806200011a576040805162461bcd60e51b815260206004820152601560248201527f48524332304361707065643a2063617020697320300000000000000000000000604482015290519081900360640190fd5b6006556001600160a01b038316158015906200013557508115155b15620001475762000147838362000170565b600980546001600160a01b0319166001600160a01b039290921691909117905550620004399050565b6001600160a01b038216620001cc576040805162461bcd60e51b815260206004820152601f60248201527f48524332303a206d696e7420746f20746865207a65726f206164647265737300604482015290519081900360640190fd5b620001da600083836200027f565b620001f6816002546200032560201b620007841790919060201c565b6002556001600160a01b03821660009081526020818152604090912054620002299183906200078462000325821b17901c565b6001600160a01b0383166000818152602081815260408083209490945583518581529351929391927fddf252ad1be2c89b69c2b068fc378daa952ba7f163c4a11628f55a4df523b3ef9281900390910190a35050565b620002978383836200032060201b620007e51760201c565b6001600160a01b0383166200032057600654620002cc82620002b862000387565b6200032560201b620007841790919060201c565b111562000320576040805162461bcd60e51b815260206004820152601960248201527f48524332304361707065643a2063617020657863656564656400000000000000604482015290519081900360640190fd5b505050565b60008282018381101562000380576040805162461bcd60e51b815260206004820152601b60248201527f536166654d6174683a206164646974696f6e206f766572666c6f770000000000604482015290519081900360640190fd5b9392505050565b60025490565b828054600181600116156101000203166002900490600052602060002090601f016020900481019282620003c5576000855562000410565b82601f10620003e057805160ff191683800117855562000410565b8280016001018555821562000410579182015b8281111562000410578251825591602001919060010190620003f3565b506200041e92915062000422565b5090565b5b808211156200041e576000815560010162000423565b610da180620004496000396000f3fe608060405234801561001057600080fd5b50600436106100ea5760003560e01c806340c10f191161008c578063a457c2d711610066578063a457c2d7146102aa578063a9059cbb146102d6578063dd62ed3e14610302578063e1c7392a14610330576100ea565b806340c10f191461024e57806370a082311461027c57806395d89b41146102a2576100ea565b806323b872dd116100c857806323b872dd146101c6578063313ce567146101fc578063355274ea1461021a5780633950935114610222576100ea565b806306fdde03146100ef578063095ea7b31461016c57806318160ddd146101ac575b600080fd5b6100f7610338565b6040805160208082528351818301528351919283929083019185019080838360005b83811015610131578181015183820152602001610119565b50505050905090810190601f16801561015e5780820380516001836020036101000a031916815260200191505b509250505060405180910390f35b6101986004803603604081101561018257600080fd5b506001600160a01b0381351690602001356103ce565b604080519115158252519081900360200190f35b6101b46103eb565b60408051918252519081900360200190f35b610198600480360360608110156101dc57600080fd5b506001600160a01b038135811691602081013590911690604001356103f1565b610204610478565b6040805160ff9092168252519081900360200190f35b6101b4610481565b6101986004803603604081101561023857600080fd5b506001600160a01b038135169060200135610487565b61027a6004803603604081101561026457600080fd5b506001600160a01b0381351690602001356104d5565b005b6101b46004803603602081101561029257600080fd5b50356001600160a01b0316610541565b6100f761055c565b610198600480360360408110156102c057600080fd5b506001600160a01b0381351690602001356105bd565b610198600480360360408110156102ec57600080fd5b506001600160a01b038135169060200135610625565b6101b46004803603604081101561031857600080fd5b506001600160a01b0381358116916020013516610639565b61027a610664565b60038054604080516020601f60026000196101006001881615020190951694909404938401819004810282018101909252828152606093909290918301828280156103c45780601f10610399576101008083540402835291602001916103c4565b820191906000526020600020905b8154815290600101906020018083116103a757829003601f168201915b5050505050905090565b60006103e26103db6107ea565b84846107ee565b50600192915050565b60025490565b60006103fe8484846108da565b61046e8461040a6107ea565b61046985604051806060016040528060288152602001610cd0602891396001600160a01b038a166000908152600160205260408120906104486107ea565b6001600160a01b031681526020810191909152604001600020549190610a35565b6107ee565b5060019392505050565b60055460ff1690565b60065490565b60006103e26104946107ea565b8461046985600160006104a56107ea565b6001600160a01b03908116825260208083019390935260409182016000908120918c168152925290205490610784565b6007546001600160a01b03163314806104f857506008546001600160a01b031633145b6105335760405162461bcd60e51b815260040180806020018281038252602d815260200180610d1b602d913960400191505060405180910390fd5b61053d8282610acc565b5050565b6001600160a01b031660009081526020819052604090205490565b60048054604080516020601f60026000196101006001881615020190951694909404938401819004810282018101909252828152606093909290918301828280156103c45780601f10610399576101008083540402835291602001916103c4565b60006103e26105ca6107ea565b8461046985604051806060016040528060258152602001610cab60259139600160006105f46107ea565b6001600160a01b03908116825260208083019390935260409182016000908120918d16815292529020549190610a35565b60006103e26106326107ea565b84846108da565b6001600160a01b03918216600090815260016020908152604080832093909416825291909152205490565b600960009054906101000a90046001600160a01b03166001600160a01b03166336e9332d6040518163ffffffff1660e01b815260040160206040518083038186803b1580156106b257600080fd5b505afa1580156106c6573d6000803e3d6000fd5b505050506040513d60208110156106dc57600080fd5b5051600780546001600160a01b0319166001600160a01b0392831617905560095460408051635d09d2b960e11b81529051919092169163ba13a572916004808301926020929190829003018186803b15801561073757600080fd5b505afa15801561074b573d6000803e3d6000fd5b505050506040513d602081101561076157600080fd5b5051600880546001600160a01b0319166001600160a01b03909216919091179055565b6000828201838110156107de576040805162461bcd60e51b815260206004820152601b60248201527f536166654d6174683a206164646974696f6e206f766572666c6f770000000000604482015290519081900360640190fd5b9392505050565b505050565b3390565b6001600160a01b0383166108335760405162461bcd60e51b8152600401808060200182810382526024815260200180610d486024913960400191505060405180910390fd5b6001600160a01b0382166108785760405162461bcd60e51b8152600401808060200182810382526022815260200180610c3e6022913960400191505060405180910390fd5b6001600160a01b03808416600081815260016020908152604080832094871680845294825291829020859055815185815291517f8c5be1e5ebec7d5bd14f71427d1e84f3dd0314c0f7b2291e5b200ac8c7c3b9259281900390910190a3505050565b6001600160a01b03831661091f5760405162461bcd60e51b8152600401808060200182810382526025815260200180610c606025913960400191505060405180910390fd5b6001600160a01b0382166109645760405162461bcd60e51b8152600401808060200182810382526023815260200180610cf86023913960400191505060405180910390fd5b61096f838383610bbc565b6109ac81604051806060016040528060268152602001610c85602691396001600160a01b0386166000908152602081905260409020549190610a35565b6001600160a01b0380851660009081526020819052604080822093909355908416815220546109db9082610784565b6001600160a01b038084166000818152602081815260409182902094909455805185815290519193928716927fddf252ad1be2c89b69c2b068fc378daa952ba7f163c4a11628f55a4df523b3ef92918290030190a3505050565b60008184841115610ac45760405162461bcd60e51b81526004018080602001828103825283818151815260200191508051906020019080838360005b83811015610a89578181015183820152602001610a71565b50505050905090810190601f168015610ab65780820380516001836020036101000a031916815260200191505b509250505060405180910390fd5b505050900390565b6001600160a01b038216610b27576040805162461bcd60e51b815260206004820152601f60248201527f48524332303a206d696e7420746f20746865207a65726f206164647265737300604482015290519081900360640190fd5b610b3360008383610bbc565b600254610b409082610784565b6002556001600160a01b038216600090815260208190526040902054610b669082610784565b6001600160a01b0383166000818152602081815260408083209490945583518581529351929391927fddf252ad1be2c89b69c2b068fc378daa952ba7f163c4a11628f55a4df523b3ef9281900390910190a35050565b610bc78383836107e5565b6001600160a01b0383166107e557600654610bea82610be46103eb565b90610784565b11156107e5576040805162461bcd60e51b815260206004820152601960248201527f48524332304361707065643a2063617020657863656564656400000000000000604482015290519081900360640190fdfe48524332303a20617070726f766520746f20746865207a65726f206164647265737348524332303a207472616e736665722066726f6d20746865207a65726f206164647265737348524332303a207472616e7366657220616d6f756e7420657863656564732062616c616e636548524332303a2064656372656173656420616c6c6f77616e63652062656c6f77207a65726f48524332303a207472616e7366657220616d6f756e74206578636565647320616c6c6f77616e636548524332303a207472616e7366657220746f20746865207a65726f20616464726573735065726d69747465643a2063616c6c6572206973206e656974686572206661726d206e6f72206c6f747465727948524332303a20617070726f76652066726f6d20746865207a65726f2061646472657373a2646970667358221220158835d6c2590eaea94b2824421d80acf806ad1e022e5c0a4e7a68b0597ac51164736f6c63430007050033",
  "immutableReferences": {},
  "source": "// SPDX-License-Identifier: MIT\n\npragma solidity ^0.7.0;\n\nimport \"../openzeppelin/token/HRC20/HRC20Capped.sol\";\nimport \"../wns/IWNS.sol\";\n\ncontract Snowball is HRC20Capped {\n\n    uint256 constant __cap__ = 10000000*10**18;\n\n    address farm;\n    address lottery;\n    IWNS wns;\n\n    modifier onlyPermitted() {\n        require(msg.sender == farm || msg.sender == lottery, \"Permitted: caller is neither farm nor lottery\");\n        _;\n    }\n\n    constructor(address dev, uint256 amount, IWNS _wns) HRC20Capped(__cap__) HRC20(\"Snowball\",\"SNB\"){\n        if(dev != address(0) && amount !=0){\n            _mint(dev, amount);\n        }\n        wns = _wns;\n    }\n\n    function init() external{\n        farm = wns.farm();\n        lottery = wns.lottery();\n    }\n\n    /// @notice Creates `_amount` token to `_to`. Must only be called by the owner (Farm).\n    function mint(address _to, uint256 _amount) public onlyPermitted {\n        _mint(_to, _amount);\n    }\n}\n",
  "sourcePath": "/home/lycrus/WebstormProjects/WinterSwap/contracts/snowball/Snowball.sol",
  "compiler": {
    "name": "solc",
    "version": "0.7.5+commit.eb77ed08.Emscripten.clang"
  },
  "schemaVersion": "3.3.2",
  "updatedAt": "2020-12-15T12:04:12.571Z",
  "networkType": "ethereum",
  "devdoc": {
    "kind": "dev",
    "methods": {
      "allowance(address,address)": {
        "details": "See {IHRC20-allowance}."
      },
      "approve(address,uint256)": {
        "details": "See {IHRC20-approve}. Requirements: - `spender` cannot be the zero address."
      },
      "balanceOf(address)": {
        "details": "See {IHRC20-balanceOf}."
      },
      "cap()": {
        "details": "Returns the cap on the token's total supply."
      },
      "decimals()": {
        "details": "Returns the number of decimals used to get its user representation. For example, if `decimals` equals `2`, a balance of `505` tokens should be displayed to a user as `5,05` (`505 / 10 ** 2`). Tokens usually opt for a value of 18, imitating the relationship between Ether and Wei. This is the value {HRC20} uses, unless {_setupDecimals} is called. NOTE: This information is only used for _display_ purposes: it in no way affects any of the arithmetic of the contract, including {IHRC20-balanceOf} and {IHRC20-transfer}."
      },
      "decreaseAllowance(address,uint256)": {
        "details": "Atomically decreases the allowance granted to `spender` by the caller. This is an alternative to {approve} that can be used as a mitigation for problems described in {IHRC20-approve}. Emits an {Approval} event indicating the updated allowance. Requirements: - `spender` cannot be the zero address. - `spender` must have allowance for the caller of at least `subtractedValue`."
      },
      "increaseAllowance(address,uint256)": {
        "details": "Atomically increases the allowance granted to `spender` by the caller. This is an alternative to {approve} that can be used as a mitigation for problems described in {IHRC20-approve}. Emits an {Approval} event indicating the updated allowance. Requirements: - `spender` cannot be the zero address."
      },
      "name()": {
        "details": "Returns the name of the token."
      },
      "symbol()": {
        "details": "Returns the symbol of the token, usually a shorter version of the name."
      },
      "totalSupply()": {
        "details": "See {IHRC20-totalSupply}."
      },
      "transfer(address,uint256)": {
        "details": "See {IHRC20-transfer}. Requirements: - `recipient` cannot be the zero address. - the caller must have a balance of at least `amount`."
      },
      "transferFrom(address,address,uint256)": {
        "details": "See {IHRC20-transferFrom}. Emits an {Approval} event indicating the updated allowance. This is not required by the EIP. See the note at the beginning of {HRC20}. Requirements: - `sender` and `recipient` cannot be the zero address. - `sender` must have a balance of at least `amount`. - the caller must have allowance for ``sender``'s tokens of at least `amount`."
      }
    },
    "version": 1
  },
  "userdoc": {
    "kind": "user",
    "methods": {
      "mint(address,uint256)": {
        "notice": "Creates `_amount` token to `_to`. Must only be called by the owner (Farm)."
      }
    },
    "version": 1
  }
}