{
  "contractName": "Snowball",
  "abi": [
    {
      "inputs": [
        {
          "internalType": "address",
          "name": "dev",
          "type": "address"
        }
      ],
      "stateMutability": "nonpayable",
      "type": "constructor"
    },
    {
      "anonymous": false,
      "inputs": [
        {
          "indexed": true,
          "internalType": "address",
          "name": "owner",
          "type": "address"
        },
        {
          "indexed": true,
          "internalType": "address",
          "name": "spender",
          "type": "address"
        },
        {
          "indexed": false,
          "internalType": "uint256",
          "name": "value",
          "type": "uint256"
        }
      ],
      "name": "Approval",
      "type": "event"
    },
    {
      "anonymous": false,
      "inputs": [
        {
          "indexed": true,
          "internalType": "address",
          "name": "previousOwner",
          "type": "address"
        },
        {
          "indexed": true,
          "internalType": "address",
          "name": "newOwner",
          "type": "address"
        }
      ],
      "name": "OwnershipTransferred",
      "type": "event"
    },
    {
      "anonymous": false,
      "inputs": [
        {
          "indexed": true,
          "internalType": "address",
          "name": "from",
          "type": "address"
        },
        {
          "indexed": true,
          "internalType": "address",
          "name": "to",
          "type": "address"
        },
        {
          "indexed": false,
          "internalType": "uint256",
          "name": "value",
          "type": "uint256"
        }
      ],
      "name": "Transfer",
      "type": "event"
    },
    {
      "inputs": [
        {
          "internalType": "address",
          "name": "owner",
          "type": "address"
        },
        {
          "internalType": "address",
          "name": "spender",
          "type": "address"
        }
      ],
      "name": "allowance",
      "outputs": [
        {
          "internalType": "uint256",
          "name": "",
          "type": "uint256"
        }
      ],
      "stateMutability": "view",
      "type": "function",
      "constant": true
    },
    {
      "inputs": [
        {
          "internalType": "address",
          "name": "spender",
          "type": "address"
        },
        {
          "internalType": "uint256",
          "name": "amount",
          "type": "uint256"
        }
      ],
      "name": "approve",
      "outputs": [
        {
          "internalType": "bool",
          "name": "",
          "type": "bool"
        }
      ],
      "stateMutability": "nonpayable",
      "type": "function"
    },
    {
      "inputs": [
        {
          "internalType": "address",
          "name": "account",
          "type": "address"
        }
      ],
      "name": "balanceOf",
      "outputs": [
        {
          "internalType": "uint256",
          "name": "",
          "type": "uint256"
        }
      ],
      "stateMutability": "view",
      "type": "function",
      "constant": true
    },
    {
      "inputs": [],
      "name": "cap",
      "outputs": [
        {
          "internalType": "uint256",
          "name": "",
          "type": "uint256"
        }
      ],
      "stateMutability": "view",
      "type": "function",
      "constant": true
    },
    {
      "inputs": [],
      "name": "decimals",
      "outputs": [
        {
          "internalType": "uint8",
          "name": "",
          "type": "uint8"
        }
      ],
      "stateMutability": "view",
      "type": "function",
      "constant": true
    },
    {
      "inputs": [
        {
          "internalType": "address",
          "name": "spender",
          "type": "address"
        },
        {
          "internalType": "uint256",
          "name": "subtractedValue",
          "type": "uint256"
        }
      ],
      "name": "decreaseAllowance",
      "outputs": [
        {
          "internalType": "bool",
          "name": "",
          "type": "bool"
        }
      ],
      "stateMutability": "nonpayable",
      "type": "function"
    },
    {
      "inputs": [
        {
          "internalType": "address",
          "name": "spender",
          "type": "address"
        },
        {
          "internalType": "uint256",
          "name": "addedValue",
          "type": "uint256"
        }
      ],
      "name": "increaseAllowance",
      "outputs": [
        {
          "internalType": "bool",
          "name": "",
          "type": "bool"
        }
      ],
      "stateMutability": "nonpayable",
      "type": "function"
    },
    {
      "inputs": [],
      "name": "name",
      "outputs": [
        {
          "internalType": "string",
          "name": "",
          "type": "string"
        }
      ],
      "stateMutability": "view",
      "type": "function",
      "constant": true
    },
    {
      "inputs": [],
      "name": "owner",
      "outputs": [
        {
          "internalType": "address",
          "name": "",
          "type": "address"
        }
      ],
      "stateMutability": "view",
      "type": "function",
      "constant": true
    },
    {
      "inputs": [],
      "name": "renounceOwnership",
      "outputs": [],
      "stateMutability": "nonpayable",
      "type": "function"
    },
    {
      "inputs": [],
      "name": "symbol",
      "outputs": [
        {
          "internalType": "string",
          "name": "",
          "type": "string"
        }
      ],
      "stateMutability": "view",
      "type": "function",
      "constant": true
    },
    {
      "inputs": [],
      "name": "totalSupply",
      "outputs": [
        {
          "internalType": "uint256",
          "name": "",
          "type": "uint256"
        }
      ],
      "stateMutability": "view",
      "type": "function",
      "constant": true
    },
    {
      "inputs": [
        {
          "internalType": "address",
          "name": "recipient",
          "type": "address"
        },
        {
          "internalType": "uint256",
          "name": "amount",
          "type": "uint256"
        }
      ],
      "name": "transfer",
      "outputs": [
        {
          "internalType": "bool",
          "name": "",
          "type": "bool"
        }
      ],
      "stateMutability": "nonpayable",
      "type": "function"
    },
    {
      "inputs": [
        {
          "internalType": "address",
          "name": "sender",
          "type": "address"
        },
        {
          "internalType": "address",
          "name": "recipient",
          "type": "address"
        },
        {
          "internalType": "uint256",
          "name": "amount",
          "type": "uint256"
        }
      ],
      "name": "transferFrom",
      "outputs": [
        {
          "internalType": "bool",
          "name": "",
          "type": "bool"
        }
      ],
      "stateMutability": "nonpayable",
      "type": "function"
    },
    {
      "inputs": [
        {
          "internalType": "address",
          "name": "newOwner",
          "type": "address"
        }
      ],
      "name": "transferOwnership",
      "outputs": [],
      "stateMutability": "nonpayable",
      "type": "function"
    },
    {
      "inputs": [
        {
          "internalType": "address",
          "name": "_to",
          "type": "address"
        },
        {
          "internalType": "uint256",
          "name": "_amount",
          "type": "uint256"
        }
      ],
      "name": "mint",
      "outputs": [],
      "stateMutability": "nonpayable",
      "type": "function"
    }
  ],
  "bytecode": "0x60806040523480156200001157600080fd5b506040516200131438038062001314833981810160405260208110156200003757600080fd5b5051604080518082018252600881526714db9bddd8985b1b60c21b6020828101918252835180850190945260038085526229a72160e91b9185019190915282516a084595161401484a0000009492620000919291620003a4565b508051620000a7906004906020840190620003a4565b50506005805460ff1916601217905550806200010a576040805162461bcd60e51b815260206004820152601560248201527f48524332304361707065643a2063617020697320300000000000000000000000604482015290519081900360640190fd5b60065560006200011962000183565b600780546001600160a01b0319166001600160a01b038316908117909155604051919250906000907f8be0079c531659141344cd1fd0a4f28419497f9722a3daafe3b4186f6b6457e0908290a3506200017c81683635c9adc5dea0000062000187565b5062000450565b3390565b6001600160a01b038216620001e3576040805162461bcd60e51b815260206004820152601f60248201527f48524332303a206d696e7420746f20746865207a65726f206164647265737300604482015290519081900360640190fd5b620001f16000838362000296565b6200020d816002546200033c60201b6200089e1790919060201c565b6002556001600160a01b03821660009081526020818152604090912054620002409183906200089e6200033c821b17901c565b6001600160a01b0383166000818152602081815260408083209490945583518581529351929391927fddf252ad1be2c89b69c2b068fc378daa952ba7f163c4a11628f55a4df523b3ef9281900390910190a35050565b620002ae8383836200033760201b620008ff1760201c565b6001600160a01b0383166200033757600654620002e382620002cf6200039e565b6200033c60201b6200089e1790919060201c565b111562000337576040805162461bcd60e51b815260206004820152601960248201527f48524332304361707065643a2063617020657863656564656400000000000000604482015290519081900360640190fd5b505050565b60008282018381101562000397576040805162461bcd60e51b815260206004820152601b60248201527f536166654d6174683a206164646974696f6e206f766572666c6f770000000000604482015290519081900360640190fd5b9392505050565b60025490565b828054600181600116156101000203166002900490600052602060002090601f016020900481019282620003dc576000855562000427565b82601f10620003f757805160ff191683800117855562000427565b8280016001018555821562000427579182015b82811115620004275782518255916020019190600101906200040a565b506200043592915062000439565b5090565b5b808211156200043557600081556001016200043a565b610eb480620004606000396000f3fe608060405234801561001057600080fd5b50600436106101005760003560e01c806370a0823111610097578063a457c2d711610066578063a457c2d7146102ec578063a9059cbb14610318578063dd62ed3e14610344578063f2fde38b1461037257610100565b806370a0823114610292578063715018a6146102b85780638da5cb5b146102c057806395d89b41146102e457610100565b8063313ce567116100d3578063313ce56714610212578063355274ea14610230578063395093511461023857806340c10f191461026457610100565b806306fdde0314610105578063095ea7b31461018257806318160ddd146101c257806323b872dd146101dc575b600080fd5b61010d610398565b6040805160208082528351818301528351919283929083019185019080838360005b8381101561014757818101518382015260200161012f565b50505050905090810190601f1680156101745780820380516001836020036101000a031916815260200191505b509250505060405180910390f35b6101ae6004803603604081101561019857600080fd5b506001600160a01b03813516906020013561042e565b604080519115158252519081900360200190f35b6101ca61044b565b60408051918252519081900360200190f35b6101ae600480360360608110156101f257600080fd5b506001600160a01b03813581169160208101359091169060400135610451565b61021a6104d8565b6040805160ff9092168252519081900360200190f35b6101ca6104e1565b6101ae6004803603604081101561024e57600080fd5b506001600160a01b0381351690602001356104e7565b6102906004803603604081101561027a57600080fd5b506001600160a01b038135169060200135610535565b005b6101ca600480360360208110156102a857600080fd5b50356001600160a01b03166105ad565b6102906105c8565b6102c861067c565b604080516001600160a01b039092168252519081900360200190f35b61010d61068b565b6101ae6004803603604081101561030257600080fd5b506001600160a01b0381351690602001356106ec565b6101ae6004803603604081101561032e57600080fd5b506001600160a01b038135169060200135610754565b6101ca6004803603604081101561035a57600080fd5b506001600160a01b0381358116916020013516610768565b6102906004803603602081101561038857600080fd5b50356001600160a01b0316610793565b60038054604080516020601f60026000196101006001881615020190951694909404938401819004810282018101909252828152606093909290918301828280156104245780601f106103f957610100808354040283529160200191610424565b820191906000526020600020905b81548152906001019060200180831161040757829003601f168201915b5050505050905090565b600061044261043b610904565b8484610908565b50600192915050565b60025490565b600061045e8484846109f4565b6104ce8461046a610904565b6104c985604051806060016040528060288152602001610e10602891396001600160a01b038a166000908152600160205260408120906104a8610904565b6001600160a01b031681526020810191909152604001600020549190610b4f565b610908565b5060019392505050565b60055460ff1690565b60065490565b60006104426104f4610904565b846104c98560016000610505610904565b6001600160a01b03908116825260208083019390935260409182016000908120918c16815292529020549061089e565b61053d610904565b6007546001600160a01b0390811691161461059f576040805162461bcd60e51b815260206004820181905260248201527f4f776e61626c653a2063616c6c6572206973206e6f7420746865206f776e6572604482015290519081900360640190fd5b6105a98282610be6565b5050565b6001600160a01b031660009081526020819052604090205490565b6105d0610904565b6007546001600160a01b03908116911614610632576040805162461bcd60e51b815260206004820181905260248201527f4f776e61626c653a2063616c6c6572206973206e6f7420746865206f776e6572604482015290519081900360640190fd5b6007546040516000916001600160a01b0316907f8be0079c531659141344cd1fd0a4f28419497f9722a3daafe3b4186f6b6457e0908390a3600780546001600160a01b0319169055565b6007546001600160a01b031690565b60048054604080516020601f60026000196101006001881615020190951694909404938401819004810282018101909252828152606093909290918301828280156104245780601f106103f957610100808354040283529160200191610424565b60006104426106f9610904565b846104c985604051806060016040528060258152602001610deb6025913960016000610723610904565b6001600160a01b03908116825260208083019390935260409182016000908120918d16815292529020549190610b4f565b6000610442610761610904565b84846109f4565b6001600160a01b03918216600090815260016020908152604080832093909416825291909152205490565b61079b610904565b6007546001600160a01b039081169116146107fd576040805162461bcd60e51b815260206004820181905260248201527f4f776e61626c653a2063616c6c6572206973206e6f7420746865206f776e6572604482015290519081900360640190fd5b6001600160a01b0381166108425760405162461bcd60e51b8152600401808060200182810382526026815260200180610d7a6026913960400191505060405180910390fd5b6007546040516001600160a01b038084169216907f8be0079c531659141344cd1fd0a4f28419497f9722a3daafe3b4186f6b6457e090600090a3600780546001600160a01b0319166001600160a01b0392909216919091179055565b6000828201838110156108f8576040805162461bcd60e51b815260206004820152601b60248201527f536166654d6174683a206164646974696f6e206f766572666c6f770000000000604482015290519081900360640190fd5b9392505050565b505050565b3390565b6001600160a01b03831661094d5760405162461bcd60e51b8152600401808060200182810382526024815260200180610e5b6024913960400191505060405180910390fd5b6001600160a01b0382166109925760405162461bcd60e51b8152600401808060200182810382526022815260200180610d586022913960400191505060405180910390fd5b6001600160a01b03808416600081815260016020908152604080832094871680845294825291829020859055815185815291517f8c5be1e5ebec7d5bd14f71427d1e84f3dd0314c0f7b2291e5b200ac8c7c3b9259281900390910190a3505050565b6001600160a01b038316610a395760405162461bcd60e51b8152600401808060200182810382526025815260200180610da06025913960400191505060405180910390fd5b6001600160a01b038216610a7e5760405162461bcd60e51b8152600401808060200182810382526023815260200180610e386023913960400191505060405180910390fd5b610a89838383610cd6565b610ac681604051806060016040528060268152602001610dc5602691396001600160a01b0386166000908152602081905260409020549190610b4f565b6001600160a01b038085166000908152602081905260408082209390935590841681522054610af5908261089e565b6001600160a01b038084166000818152602081815260409182902094909455805185815290519193928716927fddf252ad1be2c89b69c2b068fc378daa952ba7f163c4a11628f55a4df523b3ef92918290030190a3505050565b60008184841115610bde5760405162461bcd60e51b81526004018080602001828103825283818151815260200191508051906020019080838360005b83811015610ba3578181015183820152602001610b8b565b50505050905090810190601f168015610bd05780820380516001836020036101000a031916815260200191505b509250505060405180910390fd5b505050900390565b6001600160a01b038216610c41576040805162461bcd60e51b815260206004820152601f60248201527f48524332303a206d696e7420746f20746865207a65726f206164647265737300604482015290519081900360640190fd5b610c4d60008383610cd6565b600254610c5a908261089e565b6002556001600160a01b038216600090815260208190526040902054610c80908261089e565b6001600160a01b0383166000818152602081815260408083209490945583518581529351929391927fddf252ad1be2c89b69c2b068fc378daa952ba7f163c4a11628f55a4df523b3ef9281900390910190a35050565b610ce18383836108ff565b6001600160a01b0383166108ff57600654610d0482610cfe61044b565b9061089e565b11156108ff576040805162461bcd60e51b815260206004820152601960248201527f48524332304361707065643a2063617020657863656564656400000000000000604482015290519081900360640190fdfe48524332303a20617070726f766520746f20746865207a65726f20616464726573734f776e61626c653a206e6577206f776e657220697320746865207a65726f206164647265737348524332303a207472616e736665722066726f6d20746865207a65726f206164647265737348524332303a207472616e7366657220616d6f756e7420657863656564732062616c616e636548524332303a2064656372656173656420616c6c6f77616e63652062656c6f77207a65726f48524332303a207472616e7366657220616d6f756e74206578636565647320616c6c6f77616e636548524332303a207472616e7366657220746f20746865207a65726f206164647265737348524332303a20617070726f76652066726f6d20746865207a65726f2061646472657373a26469706673582212201311f0b3789d87f46553c073eee3d7c94183ccbe5289120024c13ba1c2f281df64736f6c63430007050033",
  "immutableReferences": {},
  "source": "// SPDX-License-Identifier: MIT\n\npragma solidity ^0.7.0;\n\nimport \"../openzeppelin/token/HRC20/HRC20Capped.sol\";\nimport \"../openzeppelin/access/Ownable.sol\";\n\ncontract Snowball is HRC20Capped, Ownable {\n\n    uint256 constant __cap__ = 1000000000000000000*10000000;\n\n    constructor(address dev) HRC20Capped(__cap__) HRC20(\"Snowball\",\"SNB\"){\n        _mint(dev, 1000000000000000000*1000);\n    }\n\n    /// @notice Creates `_amount` token to `_to`. Must only be called by the owner (Farm).\n    function mint(address _to, uint256 _amount) public onlyOwner {\n        _mint(_to, _amount);\n    }\n}\n",
  "sourcePath": "/home/lycrus/WebstormProjects/WinterSwap/contracts/snowball/Snowball.sol",
  "compiler": {
    "name": "solc",
    "version": "0.7.5+commit.eb77ed08.Emscripten.clang"
  },
  "schemaVersion": "3.3.2",
  "updatedAt": "2020-12-14T18:08:05.838Z",
  "networkType": "ethereum",
  "devdoc": {
    "kind": "dev",
    "methods": {
      "allowance(address,address)": {
        "details": "See {IHRC20-allowance}."
      },
      "approve(address,uint256)": {
        "details": "See {IHRC20-approve}. Requirements: - `spender` cannot be the zero address."
      },
      "balanceOf(address)": {
        "details": "See {IHRC20-balanceOf}."
      },
      "cap()": {
        "details": "Returns the cap on the token's total supply."
      },
      "decimals()": {
        "details": "Returns the number of decimals used to get its user representation. For example, if `decimals` equals `2`, a balance of `505` tokens should be displayed to a user as `5,05` (`505 / 10 ** 2`). Tokens usually opt for a value of 18, imitating the relationship between Ether and Wei. This is the value {HRC20} uses, unless {_setupDecimals} is called. NOTE: This information is only used for _display_ purposes: it in no way affects any of the arithmetic of the contract, including {IHRC20-balanceOf} and {IHRC20-transfer}."
      },
      "decreaseAllowance(address,uint256)": {
        "details": "Atomically decreases the allowance granted to `spender` by the caller. This is an alternative to {approve} that can be used as a mitigation for problems described in {IHRC20-approve}. Emits an {Approval} event indicating the updated allowance. Requirements: - `spender` cannot be the zero address. - `spender` must have allowance for the caller of at least `subtractedValue`."
      },
      "increaseAllowance(address,uint256)": {
        "details": "Atomically increases the allowance granted to `spender` by the caller. This is an alternative to {approve} that can be used as a mitigation for problems described in {IHRC20-approve}. Emits an {Approval} event indicating the updated allowance. Requirements: - `spender` cannot be the zero address."
      },
      "name()": {
        "details": "Returns the name of the token."
      },
      "owner()": {
        "details": "Returns the address of the current owner."
      },
      "renounceOwnership()": {
        "details": "Leaves the contract without owner. It will not be possible to call `onlyOwner` functions anymore. Can only be called by the current owner. NOTE: Renouncing ownership will leave the contract without an owner, thereby removing any functionality that is only available to the owner."
      },
      "symbol()": {
        "details": "Returns the symbol of the token, usually a shorter version of the name."
      },
      "totalSupply()": {
        "details": "See {IHRC20-totalSupply}."
      },
      "transfer(address,uint256)": {
        "details": "See {IHRC20-transfer}. Requirements: - `recipient` cannot be the zero address. - the caller must have a balance of at least `amount`."
      },
      "transferFrom(address,address,uint256)": {
        "details": "See {IHRC20-transferFrom}. Emits an {Approval} event indicating the updated allowance. This is not required by the EIP. See the note at the beginning of {HRC20}. Requirements: - `sender` and `recipient` cannot be the zero address. - `sender` must have a balance of at least `amount`. - the caller must have allowance for ``sender``'s tokens of at least `amount`."
      },
      "transferOwnership(address)": {
        "details": "Transfers ownership of the contract to a new account (`newOwner`). Can only be called by the current owner."
      }
    },
    "version": 1
  },
  "userdoc": {
    "kind": "user",
    "methods": {
      "mint(address,uint256)": {
        "notice": "Creates `_amount` token to `_to`. Must only be called by the owner (Farm)."
      }
    },
    "version": 1
  }
}