{
  "contractName": "Snowman",
  "abi": [
    {
      "inputs": [
        {
          "internalType": "contract IWNS",
          "name": "_wns",
          "type": "address"
        }
      ],
      "stateMutability": "nonpayable",
      "type": "constructor"
    },
    {
      "anonymous": false,
      "inputs": [
        {
          "indexed": true,
          "internalType": "address",
          "name": "owner",
          "type": "address"
        },
        {
          "indexed": true,
          "internalType": "address",
          "name": "spender",
          "type": "address"
        },
        {
          "indexed": false,
          "internalType": "uint256",
          "name": "value",
          "type": "uint256"
        }
      ],
      "name": "Approval",
      "type": "event"
    },
    {
      "anonymous": false,
      "inputs": [
        {
          "indexed": true,
          "internalType": "address",
          "name": "from",
          "type": "address"
        },
        {
          "indexed": true,
          "internalType": "address",
          "name": "to",
          "type": "address"
        },
        {
          "indexed": false,
          "internalType": "uint256",
          "name": "value",
          "type": "uint256"
        }
      ],
      "name": "Transfer",
      "type": "event"
    },
    {
      "inputs": [
        {
          "internalType": "address",
          "name": "owner",
          "type": "address"
        },
        {
          "internalType": "address",
          "name": "spender",
          "type": "address"
        }
      ],
      "name": "allowance",
      "outputs": [
        {
          "internalType": "uint256",
          "name": "",
          "type": "uint256"
        }
      ],
      "stateMutability": "view",
      "type": "function",
      "constant": true
    },
    {
      "inputs": [
        {
          "internalType": "address",
          "name": "spender",
          "type": "address"
        },
        {
          "internalType": "uint256",
          "name": "amount",
          "type": "uint256"
        }
      ],
      "name": "approve",
      "outputs": [
        {
          "internalType": "bool",
          "name": "",
          "type": "bool"
        }
      ],
      "stateMutability": "nonpayable",
      "type": "function"
    },
    {
      "inputs": [
        {
          "internalType": "address",
          "name": "account",
          "type": "address"
        }
      ],
      "name": "balanceOf",
      "outputs": [
        {
          "internalType": "uint256",
          "name": "",
          "type": "uint256"
        }
      ],
      "stateMutability": "view",
      "type": "function",
      "constant": true
    },
    {
      "inputs": [],
      "name": "decimals",
      "outputs": [
        {
          "internalType": "uint8",
          "name": "",
          "type": "uint8"
        }
      ],
      "stateMutability": "view",
      "type": "function",
      "constant": true
    },
    {
      "inputs": [
        {
          "internalType": "address",
          "name": "spender",
          "type": "address"
        },
        {
          "internalType": "uint256",
          "name": "subtractedValue",
          "type": "uint256"
        }
      ],
      "name": "decreaseAllowance",
      "outputs": [
        {
          "internalType": "bool",
          "name": "",
          "type": "bool"
        }
      ],
      "stateMutability": "nonpayable",
      "type": "function"
    },
    {
      "inputs": [
        {
          "internalType": "address",
          "name": "spender",
          "type": "address"
        },
        {
          "internalType": "uint256",
          "name": "addedValue",
          "type": "uint256"
        }
      ],
      "name": "increaseAllowance",
      "outputs": [
        {
          "internalType": "bool",
          "name": "",
          "type": "bool"
        }
      ],
      "stateMutability": "nonpayable",
      "type": "function"
    },
    {
      "inputs": [],
      "name": "name",
      "outputs": [
        {
          "internalType": "string",
          "name": "",
          "type": "string"
        }
      ],
      "stateMutability": "view",
      "type": "function",
      "constant": true
    },
    {
      "inputs": [],
      "name": "symbol",
      "outputs": [
        {
          "internalType": "string",
          "name": "",
          "type": "string"
        }
      ],
      "stateMutability": "view",
      "type": "function",
      "constant": true
    },
    {
      "inputs": [],
      "name": "totalSupply",
      "outputs": [
        {
          "internalType": "uint256",
          "name": "",
          "type": "uint256"
        }
      ],
      "stateMutability": "view",
      "type": "function",
      "constant": true
    },
    {
      "inputs": [
        {
          "internalType": "address",
          "name": "recipient",
          "type": "address"
        },
        {
          "internalType": "uint256",
          "name": "amount",
          "type": "uint256"
        }
      ],
      "name": "transfer",
      "outputs": [
        {
          "internalType": "bool",
          "name": "",
          "type": "bool"
        }
      ],
      "stateMutability": "nonpayable",
      "type": "function"
    },
    {
      "inputs": [
        {
          "internalType": "address",
          "name": "sender",
          "type": "address"
        },
        {
          "internalType": "address",
          "name": "recipient",
          "type": "address"
        },
        {
          "internalType": "uint256",
          "name": "amount",
          "type": "uint256"
        }
      ],
      "name": "transferFrom",
      "outputs": [
        {
          "internalType": "bool",
          "name": "",
          "type": "bool"
        }
      ],
      "stateMutability": "nonpayable",
      "type": "function"
    },
    {
      "inputs": [],
      "name": "init",
      "outputs": [],
      "stateMutability": "nonpayable",
      "type": "function"
    },
    {
      "inputs": [
        {
          "internalType": "uint256",
          "name": "_amount_snowball",
          "type": "uint256"
        }
      ],
      "name": "stake",
      "outputs": [],
      "stateMutability": "nonpayable",
      "type": "function"
    },
    {
      "inputs": [
        {
          "internalType": "uint256",
          "name": "_amount_snowman",
          "type": "uint256"
        }
      ],
      "name": "refund",
      "outputs": [],
      "stateMutability": "nonpayable",
      "type": "function"
    }
  ],
  "bytecode": "0x60806040523480156200001157600080fd5b50604051620012ad380380620012ad833981810160405260208110156200003757600080fd5b5051604080518082018252600781526629b737bbb6b0b760c91b60208281019182528351808501909452600380855262534e4d60e81b918501919091528251929392620000859290620000d5565b5080516200009b906004906020840190620000d5565b5050600580546001600160a01b0390931661010002610100600160a81b031960ff1990941660121793909316929092179091555062000181565b828054600181600116156101000203166002900490600052602060002090601f0160209004810192826200010d576000855562000158565b82601f106200012857805160ff191683800117855562000158565b8280016001018555821562000158579182015b82811115620001585782518255916020019190600101906200013b565b50620001669291506200016a565b5090565b5b808211156200016657600081556001016200016b565b61111c80620001916000396000f3fe608060405234801561001057600080fd5b50600436106100ea5760003560e01c806370a082311161008c578063a694fc3a11610066578063a694fc3a146102bf578063a9059cbb146102dc578063dd62ed3e14610308578063e1c7392a14610336576100ea565b806370a082311461026557806395d89b411461028b578063a457c2d714610293576100ea565b806323b872dd116100c857806323b872dd146101c6578063278ecde1146101fc578063313ce5671461021b5780633950935114610239576100ea565b806306fdde03146100ef578063095ea7b31461016c57806318160ddd146101ac575b600080fd5b6100f761033e565b6040805160208082528351818301528351919283929083019185019080838360005b83811015610131578181015183820152602001610119565b50505050905090810190601f16801561015e5780820380516001836020036101000a031916815260200191505b509250505060405180910390f35b6101986004803603604081101561018257600080fd5b506001600160a01b0381351690602001356103d4565b604080519115158252519081900360200190f35b6101b46103f2565b60408051918252519081900360200190f35b610198600480360360608110156101dc57600080fd5b506001600160a01b038135811691602081013590911690604001356103f8565b6102196004803603602081101561021257600080fd5b503561047f565b005b6102236105ae565b6040805160ff9092168252519081900360200190f35b6101986004803603604081101561024f57600080fd5b506001600160a01b0381351690602001356105b7565b6101b46004803603602081101561027b57600080fd5b50356001600160a01b0316610605565b6100f7610620565b610198600480360360408110156102a957600080fd5b506001600160a01b038135169060200135610681565b610219600480360360208110156102d557600080fd5b50356106e9565b610198600480360360408110156102f257600080fd5b506001600160a01b038135169060200135610836565b6101b46004803603604081101561031e57600080fd5b506001600160a01b038135811691602001351661084a565b610219610875565b60038054604080516020601f60026000196101006001881615020190951694909404938401819004810282018101909252828152606093909290918301828280156103ca5780601f1061039f576101008083540402835291602001916103ca565b820191906000526020600020905b8154815290600101906020018083116103ad57829003601f168201915b5050505050905090565b60006103e86103e1610910565b8484610914565b5060015b92915050565b60025490565b6000610405848484610a00565b61047584610411610910565b61047085604051806060016040528060288152602001611014602891396001600160a01b038a1660009081526001602052604081209061044f610910565b6001600160a01b031681526020810191909152604001600020549190610b5b565b610914565b5060019392505050565b60006104896103f2565b600654604080516370a0823160e01b8152306004820152905192935060009261051d928592610517926001600160a01b03909216916370a0823191602480820192602092909190829003018186803b1580156104e457600080fd5b505afa1580156104f8573d6000803e3d6000fd5b505050506040513d602081101561050e57600080fd5b50518690610bf2565b90610c52565b90506105293384610c94565b6006546040805163a9059cbb60e01b81523360048201526024810184905290516001600160a01b039092169163a9059cbb916044808201926020929091908290030181600087803b15801561057d57600080fd5b505af1158015610591573d6000803e3d6000fd5b505050506040513d60208110156105a757600080fd5b5050505050565b60055460ff1690565b60006103e86105c4610910565b8461047085600160006105d5610910565b6001600160a01b03908116825260208083019390935260409182016000908120918c168152925290205490610d90565b6001600160a01b031660009081526020819052604090205490565b60048054604080516020601f60026000196101006001881615020190951694909404938401819004810282018101909252828152606093909290918301828280156103ca5780601f1061039f576101008083540402835291602001916103ca565b60006103e861068e610910565b8461047085604051806060016040528060258152602001610fef60259139600160006106b8610910565b6001600160a01b03908116825260208083019390935260409182016000908120918d16815292529020549190610b5b565b600654604080516323b872dd60e01b81523360048201523060248201526044810184905290516001600160a01b03909216916323b872dd916064808201926020929091908290030181600087803b15801561074357600080fd5b505af1158015610757573d6000803e3d6000fd5b505050506040513d602081101561076d57600080fd5b5050600654604080516370a0823160e01b815230600482015290516000926001600160a01b0316916370a08231916024808301926020929190829003018186803b1580156107ba57600080fd5b505afa1580156107ce573d6000803e3d6000fd5b505050506040513d60208110156107e457600080fd5b5051905060006107f26103f2565b90508015806107ff575081155b156108135761080e3384610dea565b610831565b6000610823836105178685610bf2565b905061082f3382610dea565b505b505050565b60006103e8610843610910565b8484610a00565b6001600160a01b03918216600090815260016020908152604080832093909416825291909152205490565b600560019054906101000a90046001600160a01b03166001600160a01b03166328f2642f6040518163ffffffff1660e01b815260040160206040518083038186803b1580156108c357600080fd5b505afa1580156108d7573d6000803e3d6000fd5b505050506040513d60208110156108ed57600080fd5b5051600680546001600160a01b0319166001600160a01b03909216919091179055565b3390565b6001600160a01b0383166109595760405162461bcd60e51b81526004018080602001828103825260248152602001806110c36024913960400191505060405180910390fd5b6001600160a01b03821661099e5760405162461bcd60e51b8152600401808060200182810382526022815260200180610f826022913960400191505060405180910390fd5b6001600160a01b03808416600081815260016020908152604080832094871680845294825291829020859055815185815291517f8c5be1e5ebec7d5bd14f71427d1e84f3dd0314c0f7b2291e5b200ac8c7c3b9259281900390910190a3505050565b6001600160a01b038316610a455760405162461bcd60e51b8152600401808060200182810382526025815260200180610fa46025913960400191505060405180910390fd5b6001600160a01b038216610a8a5760405162461bcd60e51b815260040180806020018281038252602381526020018061107e6023913960400191505060405180910390fd5b610a95838383610831565b610ad281604051806060016040528060268152602001610fc9602691396001600160a01b0386166000908152602081905260409020549190610b5b565b6001600160a01b038085166000908152602081905260408082209390935590841681522054610b019082610d90565b6001600160a01b038084166000818152602081815260409182902094909455805185815290519193928716927fddf252ad1be2c89b69c2b068fc378daa952ba7f163c4a11628f55a4df523b3ef92918290030190a3505050565b60008184841115610bea5760405162461bcd60e51b81526004018080602001828103825283818151815260200191508051906020019080838360005b83811015610baf578181015183820152602001610b97565b50505050905090810190601f168015610bdc5780820380516001836020036101000a031916815260200191505b509250505060405180910390fd5b505050900390565b600082610c01575060006103ec565b82820282848281610c0e57fe5b0414610c4b5760405162461bcd60e51b815260040180806020018281038252602181526020018061105d6021913960400191505060405180910390fd5b9392505050565b6000610c4b83836040518060400160405280601a81526020017f536166654d6174683a206469766973696f6e206279207a65726f000000000000815250610eda565b6001600160a01b038216610cd95760405162461bcd60e51b815260040180806020018281038252602181526020018061103c6021913960400191505060405180910390fd5b610ce582600083610831565b610d22816040518060600160405280602281526020016110a1602291396001600160a01b0385166000908152602081905260409020549190610b5b565b6001600160a01b038316600090815260208190526040902055600254610d489082610f3f565b6002556040805182815290516000916001600160a01b038516917fddf252ad1be2c89b69c2b068fc378daa952ba7f163c4a11628f55a4df523b3ef9181900360200190a35050565b600082820183811015610c4b576040805162461bcd60e51b815260206004820152601b60248201527f536166654d6174683a206164646974696f6e206f766572666c6f770000000000604482015290519081900360640190fd5b6001600160a01b038216610e45576040805162461bcd60e51b815260206004820152601f60248201527f48524332303a206d696e7420746f20746865207a65726f206164647265737300604482015290519081900360640190fd5b610e5160008383610831565b600254610e5e9082610d90565b6002556001600160a01b038216600090815260208190526040902054610e849082610d90565b6001600160a01b0383166000818152602081815260408083209490945583518581529351929391927fddf252ad1be2c89b69c2b068fc378daa952ba7f163c4a11628f55a4df523b3ef9281900390910190a35050565b60008183610f295760405162461bcd60e51b8152602060048201818152835160248401528351909283926044909101919085019080838360008315610baf578181015183820152602001610b97565b506000838581610f3557fe5b0495945050505050565b6000610c4b83836040518060400160405280601e81526020017f536166654d6174683a207375627472616374696f6e206f766572666c6f770000815250610b5b56fe48524332303a20617070726f766520746f20746865207a65726f206164647265737348524332303a207472616e736665722066726f6d20746865207a65726f206164647265737348524332303a207472616e7366657220616d6f756e7420657863656564732062616c616e636548524332303a2064656372656173656420616c6c6f77616e63652062656c6f77207a65726f48524332303a207472616e7366657220616d6f756e74206578636565647320616c6c6f77616e636548524332303a206275726e2066726f6d20746865207a65726f2061646472657373536166654d6174683a206d756c7469706c69636174696f6e206f766572666c6f7748524332303a207472616e7366657220746f20746865207a65726f206164647265737348524332303a206275726e20616d6f756e7420657863656564732062616c616e636548524332303a20617070726f76652066726f6d20746865207a65726f2061646472657373a26469706673582212202d1ee2456ad0e7582fbcb2d06788d0ddecab3f704528b71f30447988dbf3441564736f6c63430007050033",
  "immutableReferences": {},
  "source": "// SPDX-License-Identifier: MIT\n\npragma solidity ^0.7.0;\n\nimport \"../openzeppelin/token/HRC20/HRC20.sol\";\nimport \"../wns/IWNS.sol\";\n\ncontract Snowman is HRC20(\"Snowman\",\"SNM\") {\n    using SafeMath for uint256;\n\n    IWNS wns;\n    address snowball;\n\n    // Define the Sushi token contract\n    constructor(IWNS _wns) {\n        wns = _wns;\n    }\n\n    function init() external{\n        snowball = wns.snowball();\n    }\n\n    //snowball is 'growing', swap_fee will be converted into snowball and xfer into snowman factory\n    function stake(uint256 _amount_snowball) public {\n        IHRC20(snowball).transferFrom(msg.sender, address(this), _amount_snowball);\n        // Gets the amount of snowball locked in the contract\n        uint256 totalSnowball = IHRC20(snowball).balanceOf(address(this));\n        // Gets the amount of snowman in existence\n        uint256 totalSnowman = totalSupply();\n        // init rate is 1:1\n        if (totalSnowman == 0 || totalSnowball == 0) {\n            _mint(msg.sender, _amount_snowball);\n        }\n        else {\n            // amount / totalSnowball    *  totalSnowman\n            uint256 to_mint = _amount_snowball.mul(totalSnowman).div(totalSnowball);\n            _mint(msg.sender, to_mint);\n        }\n    }\n\n    function refund(uint256 _amount_snowman) public {\n        uint256 totalSnowman = totalSupply();\n\n        uint256 to_return = _amount_snowman.mul(IHRC20(snowball).balanceOf(address(this))).div(totalSnowman);\n        _burn(msg.sender, _amount_snowman);\n\n        IHRC20(snowball).transfer(msg.sender, to_return);\n    }\n}\n",
  "sourcePath": "/home/lycrus/WebstormProjects/WinterSwap/contracts/snowman/Snowman.sol",
  "compiler": {
    "name": "solc",
    "version": "0.7.5+commit.eb77ed08.Emscripten.clang"
  },
  "schemaVersion": "3.3.2",
  "updatedAt": "2020-12-21T12:07:24.697Z",
  "networkType": "ethereum",
  "devdoc": {
    "kind": "dev",
    "methods": {
      "allowance(address,address)": {
        "details": "See {IHRC20-allowance}."
      },
      "approve(address,uint256)": {
        "details": "See {IHRC20-approve}. Requirements: - `spender` cannot be the zero address."
      },
      "balanceOf(address)": {
        "details": "See {IHRC20-balanceOf}."
      },
      "decimals()": {
        "details": "Returns the number of decimals used to get its user representation. For example, if `decimals` equals `2`, a balance of `505` tokens should be displayed to a user as `5,05` (`505 / 10 ** 2`). Tokens usually opt for a value of 18, imitating the relationship between Ether and Wei. This is the value {HRC20} uses, unless {_setupDecimals} is called. NOTE: This information is only used for _display_ purposes: it in no way affects any of the arithmetic of the contract, including {IHRC20-balanceOf} and {IHRC20-transfer}."
      },
      "decreaseAllowance(address,uint256)": {
        "details": "Atomically decreases the allowance granted to `spender` by the caller. This is an alternative to {approve} that can be used as a mitigation for problems described in {IHRC20-approve}. Emits an {Approval} event indicating the updated allowance. Requirements: - `spender` cannot be the zero address. - `spender` must have allowance for the caller of at least `subtractedValue`."
      },
      "increaseAllowance(address,uint256)": {
        "details": "Atomically increases the allowance granted to `spender` by the caller. This is an alternative to {approve} that can be used as a mitigation for problems described in {IHRC20-approve}. Emits an {Approval} event indicating the updated allowance. Requirements: - `spender` cannot be the zero address."
      },
      "name()": {
        "details": "Returns the name of the token."
      },
      "symbol()": {
        "details": "Returns the symbol of the token, usually a shorter version of the name."
      },
      "totalSupply()": {
        "details": "See {IHRC20-totalSupply}."
      },
      "transfer(address,uint256)": {
        "details": "See {IHRC20-transfer}. Requirements: - `recipient` cannot be the zero address. - the caller must have a balance of at least `amount`."
      },
      "transferFrom(address,address,uint256)": {
        "details": "See {IHRC20-transferFrom}. Emits an {Approval} event indicating the updated allowance. This is not required by the EIP. See the note at the beginning of {HRC20}. Requirements: - `sender` and `recipient` cannot be the zero address. - `sender` must have a balance of at least `amount`. - the caller must have allowance for ``sender``'s tokens of at least `amount`."
      }
    },
    "version": 1
  },
  "userdoc": {
    "kind": "user",
    "methods": {},
    "version": 1
  }
}