{
  "contractName": "SnowmanFactory",
  "abi": [
    {
      "inputs": [
        {
          "internalType": "contract IHRC20",
          "name": "_snowball",
          "type": "address"
        }
      ],
      "stateMutability": "nonpayable",
      "type": "constructor"
    },
    {
      "anonymous": false,
      "inputs": [
        {
          "indexed": true,
          "internalType": "address",
          "name": "owner",
          "type": "address"
        },
        {
          "indexed": true,
          "internalType": "address",
          "name": "spender",
          "type": "address"
        },
        {
          "indexed": false,
          "internalType": "uint256",
          "name": "value",
          "type": "uint256"
        }
      ],
      "name": "Approval",
      "type": "event"
    },
    {
      "anonymous": false,
      "inputs": [
        {
          "indexed": true,
          "internalType": "address",
          "name": "from",
          "type": "address"
        },
        {
          "indexed": true,
          "internalType": "address",
          "name": "to",
          "type": "address"
        },
        {
          "indexed": false,
          "internalType": "uint256",
          "name": "value",
          "type": "uint256"
        }
      ],
      "name": "Transfer",
      "type": "event"
    },
    {
      "inputs": [
        {
          "internalType": "address",
          "name": "owner",
          "type": "address"
        },
        {
          "internalType": "address",
          "name": "spender",
          "type": "address"
        }
      ],
      "name": "allowance",
      "outputs": [
        {
          "internalType": "uint256",
          "name": "",
          "type": "uint256"
        }
      ],
      "stateMutability": "view",
      "type": "function"
    },
    {
      "inputs": [
        {
          "internalType": "address",
          "name": "spender",
          "type": "address"
        },
        {
          "internalType": "uint256",
          "name": "amount",
          "type": "uint256"
        }
      ],
      "name": "approve",
      "outputs": [
        {
          "internalType": "bool",
          "name": "",
          "type": "bool"
        }
      ],
      "stateMutability": "nonpayable",
      "type": "function"
    },
    {
      "inputs": [
        {
          "internalType": "address",
          "name": "account",
          "type": "address"
        }
      ],
      "name": "balanceOf",
      "outputs": [
        {
          "internalType": "uint256",
          "name": "",
          "type": "uint256"
        }
      ],
      "stateMutability": "view",
      "type": "function"
    },
    {
      "inputs": [],
      "name": "decimals",
      "outputs": [
        {
          "internalType": "uint8",
          "name": "",
          "type": "uint8"
        }
      ],
      "stateMutability": "view",
      "type": "function"
    },
    {
      "inputs": [
        {
          "internalType": "address",
          "name": "spender",
          "type": "address"
        },
        {
          "internalType": "uint256",
          "name": "subtractedValue",
          "type": "uint256"
        }
      ],
      "name": "decreaseAllowance",
      "outputs": [
        {
          "internalType": "bool",
          "name": "",
          "type": "bool"
        }
      ],
      "stateMutability": "nonpayable",
      "type": "function"
    },
    {
      "inputs": [
        {
          "internalType": "address",
          "name": "spender",
          "type": "address"
        },
        {
          "internalType": "uint256",
          "name": "addedValue",
          "type": "uint256"
        }
      ],
      "name": "increaseAllowance",
      "outputs": [
        {
          "internalType": "bool",
          "name": "",
          "type": "bool"
        }
      ],
      "stateMutability": "nonpayable",
      "type": "function"
    },
    {
      "inputs": [],
      "name": "name",
      "outputs": [
        {
          "internalType": "string",
          "name": "",
          "type": "string"
        }
      ],
      "stateMutability": "view",
      "type": "function"
    },
    {
      "inputs": [],
      "name": "snowball",
      "outputs": [
        {
          "internalType": "contract IHRC20",
          "name": "",
          "type": "address"
        }
      ],
      "stateMutability": "view",
      "type": "function"
    },
    {
      "inputs": [],
      "name": "symbol",
      "outputs": [
        {
          "internalType": "string",
          "name": "",
          "type": "string"
        }
      ],
      "stateMutability": "view",
      "type": "function"
    },
    {
      "inputs": [],
      "name": "totalSupply",
      "outputs": [
        {
          "internalType": "uint256",
          "name": "",
          "type": "uint256"
        }
      ],
      "stateMutability": "view",
      "type": "function"
    },
    {
      "inputs": [
        {
          "internalType": "address",
          "name": "recipient",
          "type": "address"
        },
        {
          "internalType": "uint256",
          "name": "amount",
          "type": "uint256"
        }
      ],
      "name": "transfer",
      "outputs": [
        {
          "internalType": "bool",
          "name": "",
          "type": "bool"
        }
      ],
      "stateMutability": "nonpayable",
      "type": "function"
    },
    {
      "inputs": [
        {
          "internalType": "address",
          "name": "sender",
          "type": "address"
        },
        {
          "internalType": "address",
          "name": "recipient",
          "type": "address"
        },
        {
          "internalType": "uint256",
          "name": "amount",
          "type": "uint256"
        }
      ],
      "name": "transferFrom",
      "outputs": [
        {
          "internalType": "bool",
          "name": "",
          "type": "bool"
        }
      ],
      "stateMutability": "nonpayable",
      "type": "function"
    },
    {
      "inputs": [
        {
          "internalType": "uint256",
          "name": "_amount_snowball",
          "type": "uint256"
        }
      ],
      "name": "stake",
      "outputs": [],
      "stateMutability": "nonpayable",
      "type": "function"
    },
    {
      "inputs": [
        {
          "internalType": "uint256",
          "name": "_amount_snowman",
          "type": "uint256"
        }
      ],
      "name": "refund",
      "outputs": [],
      "stateMutability": "nonpayable",
      "type": "function"
    }
  ],
  "bytecode": "0x60806040523480156200001157600080fd5b506040516200126938038062001269833981810160405260208110156200003757600080fd5b5051604080518082018252600f81526e536e6f776d616e20466163746f727960881b60208281019182528351808501909452600380855262534e4d60e81b9185019190915282519293926200008d9290620000dd565b508051620000a3906004906020840190620000dd565b5050600580546001600160a01b0390931661010002610100600160a81b031960ff1990941660121793909316929092179091555062000189565b828054600181600116156101000203166002900490600052602060002090601f01602090048101928262000115576000855562000160565b82601f106200013057805160ff191683800117855562000160565b8280016001018555821562000160579182015b828111156200016057825182559160200191906001019062000143565b506200016e92915062000172565b5090565b5b808211156200016e576000815560010162000173565b6110d080620001996000396000f3fe608060405234801561001057600080fd5b50600436106100ea5760003560e01c8063395093511161008c578063a457c2d711610066578063a457c2d7146102b7578063a694fc3a146102e3578063a9059cbb14610300578063dd62ed3e1461032c576100ea565b8063395093511461025d57806370a082311461028957806395d89b41146102af576100ea565b806323b872dd116100c857806323b872dd146101c6578063278ecde1146101fc57806328f2642f1461021b578063313ce5671461023f576100ea565b806306fdde03146100ef578063095ea7b31461016c57806318160ddd146101ac575b600080fd5b6100f761035a565b6040805160208082528351818301528351919283929083019185019080838360005b83811015610131578181015183820152602001610119565b50505050905090810190601f16801561015e5780820380516001836020036101000a031916815260200191505b509250505060405180910390f35b6101986004803603604081101561018257600080fd5b506001600160a01b0381351690602001356103f0565b604080519115158252519081900360200190f35b6101b461040e565b60408051918252519081900360200190f35b610198600480360360608110156101dc57600080fd5b506001600160a01b03813581169160208101359091169060400135610414565b6102196004803603602081101561021257600080fd5b503561049b565b005b6102236105e0565b604080516001600160a01b039092168252519081900360200190f35b6102476105f4565b6040805160ff9092168252519081900360200190f35b6101986004803603604081101561027357600080fd5b506001600160a01b0381351690602001356105fd565b6101b46004803603602081101561029f57600080fd5b50356001600160a01b031661064b565b6100f7610666565b610198600480360360408110156102cd57600080fd5b506001600160a01b0381351690602001356106c7565b610219600480360360208110156102f957600080fd5b503561072f565b6101986004803603604081101561031657600080fd5b506001600160a01b038135169060200135610885565b6101b46004803603604081101561034257600080fd5b506001600160a01b0381358116916020013516610899565b60038054604080516020601f60026000196101006001881615020190951694909404938401819004810282018101909252828152606093909290918301828280156103e65780601f106103bb576101008083540402835291602001916103e6565b820191906000526020600020905b8154815290600101906020018083116103c957829003601f168201915b5050505050905090565b60006104046103fd6108c4565b84846108c8565b5060015b92915050565b60025490565b60006104218484846109b4565b6104918461042d6108c4565b61048c85604051806060016040528060288152602001610fc8602891396001600160a01b038a1660009081526001602052604081209061046b6108c4565b6001600160a01b031681526020810191909152604001600020549190610b0f565b6108c8565b5060019392505050565b60006104a561040e565b9050600061054b82610545600560019054906101000a90046001600160a01b03166001600160a01b03166370a08231306040518263ffffffff1660e01b815260040180826001600160a01b0316815260200191505060206040518083038186803b15801561051257600080fd5b505afa158015610526573d6000803e3d6000fd5b505050506040513d602081101561053c57600080fd5b50518690610ba6565b90610c06565b90506105573384610c48565b6005546040805163a9059cbb60e01b81523360048201526024810184905290516101009092046001600160a01b03169163a9059cbb916044808201926020929091908290030181600087803b1580156105af57600080fd5b505af11580156105c3573d6000803e3d6000fd5b505050506040513d60208110156105d957600080fd5b5050505050565b60055461010090046001600160a01b031681565b60055460ff1690565b600061040461060a6108c4565b8461048c856001600061061b6108c4565b6001600160a01b03908116825260208083019390935260409182016000908120918c168152925290205490610d44565b6001600160a01b031660009081526020819052604090205490565b60048054604080516020601f60026000196101006001881615020190951694909404938401819004810282018101909252828152606093909290918301828280156103e65780601f106103bb576101008083540402835291602001916103e6565b60006104046106d46108c4565b8461048c85604051806060016040528060258152602001610fa360259139600160006106fe6108c4565b6001600160a01b03908116825260208083019390935260409182016000908120918d16815292529020549190610b0f565b600554604080516323b872dd60e01b81523360048201523060248201526044810184905290516101009092046001600160a01b0316916323b872dd916064808201926020929091908290030181600087803b15801561078d57600080fd5b505af11580156107a1573d6000803e3d6000fd5b505050506040513d60208110156107b757600080fd5b5050600554604080516370a0823160e01b8152306004820152905160009261010090046001600160a01b0316916370a08231916024808301926020929190829003018186803b15801561080957600080fd5b505afa15801561081d573d6000803e3d6000fd5b505050506040513d602081101561083357600080fd5b50519050600061084161040e565b905080158061084e575081155b156108625761085d3384610d9e565b610880565b6000610872836105458685610ba6565b905061087e3382610d9e565b505b505050565b60006104046108926108c4565b84846109b4565b6001600160a01b03918216600090815260016020908152604080832093909416825291909152205490565b3390565b6001600160a01b03831661090d5760405162461bcd60e51b81526004018080602001828103825260248152602001806110776024913960400191505060405180910390fd5b6001600160a01b0382166109525760405162461bcd60e51b8152600401808060200182810382526022815260200180610f366022913960400191505060405180910390fd5b6001600160a01b03808416600081815260016020908152604080832094871680845294825291829020859055815185815291517f8c5be1e5ebec7d5bd14f71427d1e84f3dd0314c0f7b2291e5b200ac8c7c3b9259281900390910190a3505050565b6001600160a01b0383166109f95760405162461bcd60e51b8152600401808060200182810382526025815260200180610f586025913960400191505060405180910390fd5b6001600160a01b038216610a3e5760405162461bcd60e51b81526004018080602001828103825260238152602001806110326023913960400191505060405180910390fd5b610a49838383610880565b610a8681604051806060016040528060268152602001610f7d602691396001600160a01b0386166000908152602081905260409020549190610b0f565b6001600160a01b038085166000908152602081905260408082209390935590841681522054610ab59082610d44565b6001600160a01b038084166000818152602081815260409182902094909455805185815290519193928716927fddf252ad1be2c89b69c2b068fc378daa952ba7f163c4a11628f55a4df523b3ef92918290030190a3505050565b60008184841115610b9e5760405162461bcd60e51b81526004018080602001828103825283818151815260200191508051906020019080838360005b83811015610b63578181015183820152602001610b4b565b50505050905090810190601f168015610b905780820380516001836020036101000a031916815260200191505b509250505060405180910390fd5b505050900390565b600082610bb557506000610408565b82820282848281610bc257fe5b0414610bff5760405162461bcd60e51b81526004018080602001828103825260218152602001806110116021913960400191505060405180910390fd5b9392505050565b6000610bff83836040518060400160405280601a81526020017f536166654d6174683a206469766973696f6e206279207a65726f000000000000815250610e8e565b6001600160a01b038216610c8d5760405162461bcd60e51b8152600401808060200182810382526021815260200180610ff06021913960400191505060405180910390fd5b610c9982600083610880565b610cd681604051806060016040528060228152602001611055602291396001600160a01b0385166000908152602081905260409020549190610b0f565b6001600160a01b038316600090815260208190526040902055600254610cfc9082610ef3565b6002556040805182815290516000916001600160a01b038516917fddf252ad1be2c89b69c2b068fc378daa952ba7f163c4a11628f55a4df523b3ef9181900360200190a35050565b600082820183811015610bff576040805162461bcd60e51b815260206004820152601b60248201527f536166654d6174683a206164646974696f6e206f766572666c6f770000000000604482015290519081900360640190fd5b6001600160a01b038216610df9576040805162461bcd60e51b815260206004820152601f60248201527f48524332303a206d696e7420746f20746865207a65726f206164647265737300604482015290519081900360640190fd5b610e0560008383610880565b600254610e129082610d44565b6002556001600160a01b038216600090815260208190526040902054610e389082610d44565b6001600160a01b0383166000818152602081815260408083209490945583518581529351929391927fddf252ad1be2c89b69c2b068fc378daa952ba7f163c4a11628f55a4df523b3ef9281900390910190a35050565b60008183610edd5760405162461bcd60e51b8152602060048201818152835160248401528351909283926044909101919085019080838360008315610b63578181015183820152602001610b4b565b506000838581610ee957fe5b0495945050505050565b6000610bff83836040518060400160405280601e81526020017f536166654d6174683a207375627472616374696f6e206f766572666c6f770000815250610b0f56fe48524332303a20617070726f766520746f20746865207a65726f206164647265737348524332303a207472616e736665722066726f6d20746865207a65726f206164647265737348524332303a207472616e7366657220616d6f756e7420657863656564732062616c616e636548524332303a2064656372656173656420616c6c6f77616e63652062656c6f77207a65726f48524332303a207472616e7366657220616d6f756e74206578636565647320616c6c6f77616e636548524332303a206275726e2066726f6d20746865207a65726f2061646472657373536166654d6174683a206d756c7469706c69636174696f6e206f766572666c6f7748524332303a207472616e7366657220746f20746865207a65726f206164647265737348524332303a206275726e20616d6f756e7420657863656564732062616c616e636548524332303a20617070726f76652066726f6d20746865207a65726f2061646472657373a26469706673582212207109da3a88dd1631fb0cc35148dce1b4bfb5d55acd71329eb7ace3ad132f167564736f6c63430007050033",
  "immutableReferences": {},
  "source": "// SPDX-License-Identifier: MIT\n\npragma solidity ^0.7.0;\n\nimport \"../openzeppelin/token/HRC20/HRC20.sol\";\n\ncontract SnowmanFactory is HRC20(\"Snowman Factory\",\"SNM\") {\n    using SafeMath for uint256;\n    IHRC20 public snowball;\n\n    // Define the Sushi token contract\n    constructor(IHRC20 _snowball) {\n        snowball = _snowball;\n    }\n\n    //snowball is 'growing', swap_fee will be converted into snowball and xfer into snowman factory\n    function stake(uint256 _amount_snowball) public {\n\n        snowball.transferFrom(msg.sender, address(this), _amount_snowball);\n        // Gets the amount of snowball locked in the contract\n        uint256 totalSnowball = snowball.balanceOf(address(this));\n        // Gets the amount of snowman in existence\n        uint256 totalSnowman = totalSupply();\n        // init rate is 1:1\n        if (totalSnowman == 0 || totalSnowball == 0) {\n            _mint(msg.sender, _amount_snowball);\n        }\n        else {\n            // amount / totalSnowball    *  totalSnowman\n            uint256 to_mint = _amount_snowball.mul(totalSnowman).div(totalSnowball);\n            _mint(msg.sender, to_mint);\n        }\n    }\n\n    function refund(uint256 _amount_snowman) public {\n\n        uint256 totalSnowman = totalSupply();\n\n        uint256 to_return = _amount_snowman.mul(snowball.balanceOf(address(this))).div(totalSnowman);\n        _burn(msg.sender, _amount_snowman);\n\n        snowball.transfer(msg.sender, to_return);\n    }\n}\n",
  "sourcePath": "/home/lycrus/WebstormProjects/WinterSwap/contracts/snowman/SnowmanFactory.sol",
  "compiler": {
    "name": "solc",
    "version": "0.7.5+commit.eb77ed08.Emscripten.clang"
  },
  "schemaVersion": "3.3.2",
  "updatedAt": "2020-12-14T15:54:35.105Z",
  "devdoc": {
    "kind": "dev",
    "methods": {
      "allowance(address,address)": {
        "details": "See {IHRC20-allowance}."
      },
      "approve(address,uint256)": {
        "details": "See {IHRC20-approve}. Requirements: - `spender` cannot be the zero address."
      },
      "balanceOf(address)": {
        "details": "See {IHRC20-balanceOf}."
      },
      "decimals()": {
        "details": "Returns the number of decimals used to get its user representation. For example, if `decimals` equals `2`, a balance of `505` tokens should be displayed to a user as `5,05` (`505 / 10 ** 2`). Tokens usually opt for a value of 18, imitating the relationship between Ether and Wei. This is the value {HRC20} uses, unless {_setupDecimals} is called. NOTE: This information is only used for _display_ purposes: it in no way affects any of the arithmetic of the contract, including {IHRC20-balanceOf} and {IHRC20-transfer}."
      },
      "decreaseAllowance(address,uint256)": {
        "details": "Atomically decreases the allowance granted to `spender` by the caller. This is an alternative to {approve} that can be used as a mitigation for problems described in {IHRC20-approve}. Emits an {Approval} event indicating the updated allowance. Requirements: - `spender` cannot be the zero address. - `spender` must have allowance for the caller of at least `subtractedValue`."
      },
      "increaseAllowance(address,uint256)": {
        "details": "Atomically increases the allowance granted to `spender` by the caller. This is an alternative to {approve} that can be used as a mitigation for problems described in {IHRC20-approve}. Emits an {Approval} event indicating the updated allowance. Requirements: - `spender` cannot be the zero address."
      },
      "name()": {
        "details": "Returns the name of the token."
      },
      "symbol()": {
        "details": "Returns the symbol of the token, usually a shorter version of the name."
      },
      "totalSupply()": {
        "details": "See {IHRC20-totalSupply}."
      },
      "transfer(address,uint256)": {
        "details": "See {IHRC20-transfer}. Requirements: - `recipient` cannot be the zero address. - the caller must have a balance of at least `amount`."
      },
      "transferFrom(address,address,uint256)": {
        "details": "See {IHRC20-transferFrom}. Emits an {Approval} event indicating the updated allowance. This is not required by the EIP. See the note at the beginning of {HRC20}. Requirements: - `sender` and `recipient` cannot be the zero address. - `sender` must have a balance of at least `amount`. - the caller must have allowance for ``sender``'s tokens of at least `amount`."
      }
    },
    "version": 1
  },
  "userdoc": {
    "kind": "user",
    "methods": {},
    "version": 1
  }
}