{
  "contractName": "WinterswapV2Factory",
  "abi": [
    {
      "inputs": [
        {
          "internalType": "address",
          "name": "_feeToSetter",
          "type": "address"
        }
      ],
      "stateMutability": "nonpayable",
      "type": "constructor"
    },
    {
      "anonymous": false,
      "inputs": [
        {
          "indexed": true,
          "internalType": "address",
          "name": "token0",
          "type": "address"
        },
        {
          "indexed": true,
          "internalType": "address",
          "name": "token1",
          "type": "address"
        },
        {
          "indexed": false,
          "internalType": "address",
          "name": "pair",
          "type": "address"
        },
        {
          "indexed": false,
          "internalType": "uint256",
          "name": "",
          "type": "uint256"
        }
      ],
      "name": "PairCreated",
      "type": "event"
    },
    {
      "inputs": [
        {
          "internalType": "uint256",
          "name": "",
          "type": "uint256"
        }
      ],
      "name": "allPairs",
      "outputs": [
        {
          "internalType": "address",
          "name": "",
          "type": "address"
        }
      ],
      "stateMutability": "view",
      "type": "function",
      "constant": true
    },
    {
      "inputs": [],
      "name": "feeTo",
      "outputs": [
        {
          "internalType": "address",
          "name": "",
          "type": "address"
        }
      ],
      "stateMutability": "view",
      "type": "function",
      "constant": true
    },
    {
      "inputs": [],
      "name": "feeToSetter",
      "outputs": [
        {
          "internalType": "address",
          "name": "",
          "type": "address"
        }
      ],
      "stateMutability": "view",
      "type": "function",
      "constant": true
    },
    {
      "inputs": [
        {
          "internalType": "address",
          "name": "",
          "type": "address"
        },
        {
          "internalType": "address",
          "name": "",
          "type": "address"
        }
      ],
      "name": "getPair",
      "outputs": [
        {
          "internalType": "address",
          "name": "",
          "type": "address"
        }
      ],
      "stateMutability": "view",
      "type": "function",
      "constant": true
    },
    {
      "inputs": [],
      "name": "allPairsLength",
      "outputs": [
        {
          "internalType": "uint256",
          "name": "",
          "type": "uint256"
        }
      ],
      "stateMutability": "view",
      "type": "function",
      "constant": true
    },
    {
      "inputs": [
        {
          "internalType": "address",
          "name": "tokenA",
          "type": "address"
        },
        {
          "internalType": "address",
          "name": "tokenB",
          "type": "address"
        }
      ],
      "name": "createPair",
      "outputs": [
        {
          "internalType": "address",
          "name": "pair",
          "type": "address"
        }
      ],
      "stateMutability": "nonpayable",
      "type": "function"
    },
    {
      "inputs": [
        {
          "internalType": "address",
          "name": "_feeTo",
          "type": "address"
        }
      ],
      "name": "setFeeTo",
      "outputs": [],
      "stateMutability": "nonpayable",
      "type": "function"
    },
    {
      "inputs": [
        {
          "internalType": "address",
          "name": "_feeToSetter",
          "type": "address"
        }
      ],
      "name": "setFeeToSetter",
      "outputs": [],
      "stateMutability": "nonpayable",
      "type": "function"
    }
  ],
  "bytecode": "0x608060405234801561001057600080fd5b506040516129ff3803806129ff8339818101604052602081101561003357600080fd5b5051600180546001600160a01b0319166001600160a01b0390921691909117905561299c806100636000396000f3fe608060405234801561001057600080fd5b50600436106100885760003560e01c8063a2e74af61161005b578063a2e74af6146100f0578063c9c6539614610118578063e6a4390514610146578063f46901ed1461017457610088565b8063017e7e581461008d578063094b7415146100b15780631e3dd18b146100b9578063574f2ba3146100d6575b600080fd5b61009561019a565b604080516001600160a01b039092168252519081900360200190f35b6100956101a9565b610095600480360360208110156100cf57600080fd5b50356101b8565b6100de6101e2565b60408051918252519081900360200190f35b6101166004803603602081101561010657600080fd5b50356001600160a01b03166101e8565b005b6100956004803603604081101561012e57600080fd5b506001600160a01b0381358116916020013516610263565b6100956004803603604081101561015c57600080fd5b506001600160a01b038135811691602001351661057f565b6101166004803603602081101561018a57600080fd5b50356001600160a01b03166105a5565b6000546001600160a01b031681565b6001546001600160a01b031681565b600381815481106101c857600080fd5b6000918252602090912001546001600160a01b0316905081565b60035490565b6001546001600160a01b03163314610241576040805162461bcd60e51b81526020600482015260176024820152762bb4b73a32b939bbb0b82b191d102327a92124a22222a760491b604482015290519081900360640190fd5b600180546001600160a01b0319166001600160a01b0392909216919091179055565b6000816001600160a01b0316836001600160a01b031614156102b65760405162461bcd60e51b81526004018080602001828103825260218152602001806129466021913960400191505060405180910390fd5b600080836001600160a01b0316856001600160a01b0316106102d95783856102dc565b84845b90925090506001600160a01b03821661033c576040805162461bcd60e51b815260206004820152601a60248201527f57696e7465727377617056323a205a45524f5f41444452455353000000000000604482015290519081900360640190fd5b6001600160a01b038281166000908152600260209081526040808320858516845290915290205416156103b6576040805162461bcd60e51b815260206004820152601960248201527f57696e7465727377617056323a20504149525f45584953545300000000000000604482015290519081900360640190fd5b6060604051806020016103c890610620565b6020820181038252601f19601f8201166040525090506000838360405160200180836001600160a01b031660601b8152601401826001600160a01b031660601b815260140192505050604051602081830303815290604052805190602001209050808251602084016000f59450846001600160a01b031663485cc95585856040518363ffffffff1660e01b815260040180836001600160a01b03168152602001826001600160a01b0316815260200192505050600060405180830381600087803b15801561049557600080fd5b505af11580156104a9573d6000803e3d6000fd5b505050506001600160a01b0384811660008181526002602081815260408084208987168086529083528185208054978d166001600160a01b031998891681179091559383528185208686528352818520805488168517905560038054600181018255958190527fc2575a0e9e593c00f959f8c92f12db2869c3395a3b0502d05e2516446f71f85b90950180549097168417909655925483519283529082015281517f0d3648bd0f6ba80134a33ba9275ac585d9d315f0ad8355cddefde31afa28d0e9929181900390910190a35050505092915050565b60026020908152600092835260408084209091529082529020546001600160a01b031681565b6001546001600160a01b031633146105fe576040805162461bcd60e51b81526020600482015260176024820152762bb4b73a32b939bbb0b82b191d102327a92124a22222a760491b604482015290519081900360640190fd5b600080546001600160a01b0319166001600160a01b0392909216919091179055565b6123188061062e8339019056fe60806040526001600c5534801561001557600080fd5b50604080518082018252600d81526c2bb4b73a32b939bbb0b8102b1960991b6020918201528151808301835260018152603160f81b9082015281517f8b73c3c69bb8fe3d512ecc4cf759cc79239f7b179b0ffacaa9a75d522b39400f818301527ff5fbf02ea4eaec08f295dc633055b1800f91ff02a4a8635bd60f504fa8c2c279818401527fc89efdaa54c0f20c7adf612882df0950f5a951637e0307cdcb4c672f298b8bc660608201524660808201523060a0808301919091528351808303909101815260c09091019092528151910120600355600580546001600160a01b0319163317905561220d8061010b6000396000f3fe608060405234801561001057600080fd5b50600436106101a95760003560e01c80636a627842116100f9578063ba9a7a5611610097578063d21220a711610071578063d21220a714610534578063d505accf1461053c578063dd62ed3e1461058d578063fff6cae9146105bb576101a9565b8063ba9a7a56146104fe578063bc25cf7714610506578063c45a01551461052c576101a9565b80637ecebe00116100d35780637ecebe001461046557806389afcb441461048b57806395d89b41146104ca578063a9059cbb146104d2576101a9565b80636a6278421461041157806370a08231146104375780637464fc3d1461045d576101a9565b806323b872dd116101665780633644e515116101405780633644e515146103cb578063485cc955146103d35780635909c0d5146104015780635a3d549314610409576101a9565b806323b872dd1461036f57806330adf81f146103a5578063313ce567146103ad576101a9565b8063022c0d9f146101ae57806306fdde031461023c5780630902f1ac146102b9578063095ea7b3146102f15780630dfe16811461033157806318160ddd14610355575b600080fd5b61023a600480360360808110156101c457600080fd5b8135916020810135916001600160a01b0360408301351691908101906080810160608201356401000000008111156101fb57600080fd5b82018360208201111561020d57600080fd5b8035906020019184600183028401116401000000008311171561022f57600080fd5b5090925090506105c3565b005b610244610ad9565b6040805160208082528351818301528351919283929083019185019080838360005b8381101561027e578181015183820152602001610266565b50505050905090810190601f1680156102ab5780820380516001836020036101000a031916815260200191505b509250505060405180910390f35b6102c1610b02565b604080516001600160701b03948516815292909316602083015263ffffffff168183015290519081900360600190f35b61031d6004803603604081101561030757600080fd5b506001600160a01b038135169060200135610b2c565b604080519115158252519081900360200190f35b610339610b43565b604080516001600160a01b039092168252519081900360200190f35b61035d610b52565b60408051918252519081900360200190f35b61031d6004803603606081101561038557600080fd5b506001600160a01b03813581169160208101359091169060400135610b58565b61035d610bec565b6103b5610c10565b6040805160ff9092168252519081900360200190f35b61035d610c15565b61023a600480360360408110156103e957600080fd5b506001600160a01b0381358116916020013516610c1b565b61035d610ca8565b61035d610cae565b61035d6004803603602081101561042757600080fd5b50356001600160a01b0316610cb4565b61035d6004803603602081101561044d57600080fd5b50356001600160a01b0316610f93565b61035d610fa5565b61035d6004803603602081101561047b57600080fd5b50356001600160a01b0316610fab565b6104b1600480360360208110156104a157600080fd5b50356001600160a01b0316610fbd565b6040805192835260208301919091528051918290030190f35b610244611354565b61031d600480360360408110156104e857600080fd5b506001600160a01b038135169060200135611376565b61035d611383565b61023a6004803603602081101561051c57600080fd5b50356001600160a01b0316611389565b6103396114fe565b61033961150d565b61023a600480360360e081101561055257600080fd5b506001600160a01b03813581169160208101359091169060408101359060608101359060ff6080820135169060a08101359060c0013561151c565b61035d600480360360408110156105a357600080fd5b506001600160a01b0381358116916020013516611721565b61023a61173e565b600c54600114610611576040805162461bcd60e51b815260206004820152601460248201527315da5b9d195c9cddd85c158c8e881313d0d2d15160621b604482015290519081900360640190fd5b6000600c55841515806106245750600084115b61065f5760405162461bcd60e51b815260040180806020018281038252602881526020018061213a6028913960400191505060405180910390fd5b60008061066a610b02565b5091509150816001600160701b03168710801561068f5750806001600160701b031686105b6106ca5760405162461bcd60e51b81526004018080602001828103825260248152602001806121b46024913960400191505060405180910390fd5b60065460075460009182916001600160a01b039182169190811690891682148015906107085750806001600160a01b0316896001600160a01b031614155b610759576040805162461bcd60e51b815260206004820152601860248201527f57696e7465727377617056323a20494e56414c49445f544f0000000000000000604482015290519081900360640190fd5b8a1561076a5761076a828a8d6118a3565b891561077b5761077b818a8c6118a3565b861561082d57886001600160a01b031663b091493e338d8d8c8c6040518663ffffffff1660e01b815260040180866001600160a01b03168152602001858152602001848152602001806020018281038252848482818152602001925080828437600081840152601f19601f8201169050808301925050509650505050505050600060405180830381600087803b15801561081457600080fd5b505af1158015610828573d6000803e3d6000fd5b505050505b604080516370a0823160e01b815230600482015290516001600160a01b038416916370a08231916024808301926020929190829003018186803b15801561087357600080fd5b505afa158015610887573d6000803e3d6000fd5b505050506040513d602081101561089d57600080fd5b5051604080516370a0823160e01b815230600482015290519195506001600160a01b038316916370a0823191602480820192602092909190829003018186803b1580156108e957600080fd5b505afa1580156108fd573d6000803e3d6000fd5b505050506040513d602081101561091357600080fd5b5051925060009150506001600160701b0385168a90038311610936576000610945565b89856001600160701b03160383035b9050600089856001600160701b0316038311610962576000610971565b89856001600160701b03160383035b905060008211806109825750600081115b6109bd5760405162461bcd60e51b81526004018080602001828103825260278152602001806121626027913960400191505060405180910390fd5b60006109df6109cd846003611a3d565b6109d9876103e8611a3d565b90611aa0565b905060006109f16109cd846003611a3d565b9050610a16620f4240610a106001600160701b038b8116908b16611a3d565b90611a3d565b610a208383611a3d565b1015610a65576040805162461bcd60e51b815260206004820152600f60248201526e57696e7465727377617056323a204b60881b604482015290519081900360640190fd5b5050610a7384848888611af0565b60408051838152602081018390528082018d9052606081018c905290516001600160a01b038b169133917fd78ad95fa46c994b6551d0da85fc275fe613ce37657fb8d5e3d130840159d8229181900360800190a350506001600c55505050505050505050565b6040518060400160405280600d81526020016c2bb4b73a32b939bbb0b8102b1960991b81525081565b6008546001600160701b0380821692600160701b830490911691600160e01b900463ffffffff1690565b6000610b39338484611cb2565b5060015b92915050565b6006546001600160a01b031681565b60005481565b6001600160a01b038316600090815260026020908152604080832033845290915281205460001914610bd7576001600160a01b0384166000908152600260209081526040808320338452909152902054610bb29083611aa0565b6001600160a01b03851660009081526002602090815260408083203384529091529020555b610be2848484611d14565b5060019392505050565b7f6e71edae12b1b97f4d1f60370fef10105fa2faae0126114a169c64845d6126c981565b601281565b60035481565b6005546001600160a01b03163314610c7a576040805162461bcd60e51b815260206004820152601760248201527f57696e7465727377617056323a20464f5242494444454e000000000000000000604482015290519081900360640190fd5b600680546001600160a01b039384166001600160a01b03199182161790915560078054929093169116179055565b60095481565b600a5481565b6000600c54600114610d04576040805162461bcd60e51b815260206004820152601460248201527315da5b9d195c9cddd85c158c8e881313d0d2d15160621b604482015290519081900360640190fd5b6000600c81905580610d14610b02565b50600654604080516370a0823160e01b815230600482015290519395509193506000926001600160a01b03909116916370a08231916024808301926020929190829003018186803b158015610d6857600080fd5b505afa158015610d7c573d6000803e3d6000fd5b505050506040513d6020811015610d9257600080fd5b5051600754604080516370a0823160e01b815230600482015290519293506000926001600160a01b03909216916370a0823191602480820192602092909190829003018186803b158015610de557600080fd5b505afa158015610df9573d6000803e3d6000fd5b505050506040513d6020811015610e0f57600080fd5b505190506000610e28836001600160701b038716611aa0565b90506000610e3f836001600160701b038716611aa0565b90506000610e4d8787611dc2565b60005490915080610e8457610e706103e86109d9610e6b8787611a3d565b611f02565b9850610e7f60006103e8611f54565b610ec7565b610ec46001600160701b038916610e9b8684611a3d565b81610ea257fe5b046001600160701b038916610eb78685611a3d565b81610ebe57fe5b04611fde565b98505b60008911610f065760405162461bcd60e51b815260040180806020018281038252602b815260200180612189602b913960400191505060405180910390fd5b610f108a8a611f54565b610f1c86868a8a611af0565b8115610f4657600854610f42906001600160701b0380821691600160701b900416611a3d565b600b555b6040805185815260208101859052815133927f4c209b5fc8ad50758f13e2e1088ba56a560dff690a1c6fef26394f4c03821c4f928290030190a250506001600c5550949695505050505050565b60016020526000908152604090205481565b600b5481565b60046020526000908152604090205481565b600080600c5460011461100e576040805162461bcd60e51b815260206004820152601460248201527315da5b9d195c9cddd85c158c8e881313d0d2d15160621b604482015290519081900360640190fd5b6000600c8190558061101e610b02565b50600654600754604080516370a0823160e01b815230600482015290519496509294506001600160a01b039182169391169160009184916370a08231916024808301926020929190829003018186803b15801561107a57600080fd5b505afa15801561108e573d6000803e3d6000fd5b505050506040513d60208110156110a457600080fd5b5051604080516370a0823160e01b815230600482015290519192506000916001600160a01b038516916370a08231916024808301926020929190829003018186803b1580156110f257600080fd5b505afa158015611106573d6000803e3d6000fd5b505050506040513d602081101561111c57600080fd5b50513060009081526001602052604081205491925061113b8888611dc2565b6000549091508061114c8487611a3d565b8161115357fe5b049a50806111618486611a3d565b8161116857fe5b04995060008b11801561117b575060008a115b6111b65760405162461bcd60e51b815260040180806020018281038252602b81526020018061210f602b913960400191505060405180910390fd5b6111c03084611ff6565b6111cb878d8d6118a3565b6111d6868d8c6118a3565b604080516370a0823160e01b815230600482015290516001600160a01b038916916370a08231916024808301926020929190829003018186803b15801561121c57600080fd5b505afa158015611230573d6000803e3d6000fd5b505050506040513d602081101561124657600080fd5b5051604080516370a0823160e01b815230600482015290519196506001600160a01b038816916370a0823191602480820192602092909190829003018186803b15801561129257600080fd5b505afa1580156112a6573d6000803e3d6000fd5b505050506040513d60208110156112bc57600080fd5b505193506112cc85858b8b611af0565b81156112f6576008546112f2906001600160701b0380821691600160701b900416611a3d565b600b555b604080518c8152602081018c905281516001600160a01b038f169233927fdccd412f0b1252819cb1fd330b93224ca42612892bb3f4f789976e6d81936496929081900390910190a35050505050505050506001600c81905550915091565b604051806040016040528060068152602001652ba72a16ab1960d11b81525081565b6000610b39338484611d14565b6103e881565b600c546001146113d7576040805162461bcd60e51b815260206004820152601460248201527315da5b9d195c9cddd85c158c8e881313d0d2d15160621b604482015290519081900360640190fd5b6000600c55600654600754600854604080516370a0823160e01b815230600482015290516001600160a01b039485169490931692611480928592879261147b926001600160701b03169185916370a0823191602480820192602092909190829003018186803b15801561144957600080fd5b505afa15801561145d573d6000803e3d6000fd5b505050506040513d602081101561147357600080fd5b505190611aa0565b6118a3565b6114f4818461147b6008600e9054906101000a90046001600160701b03166001600160701b0316856001600160a01b03166370a08231306040518263ffffffff1660e01b815260040180826001600160a01b0316815260200191505060206040518083038186803b15801561144957600080fd5b50506001600c5550565b6005546001600160a01b031681565b6007546001600160a01b031681565b42841015611569576040805162461bcd60e51b815260206004820152601560248201527415da5b9d195c9cddd85c158c8e8811561412549151605a1b604482015290519081900360640190fd5b6003546001600160a01b0380891660008181526004602090815260408083208054600180820190925582517f6e71edae12b1b97f4d1f60370fef10105fa2faae0126114a169c64845d6126c98186015280840196909652958d166060860152608085018c905260a085019590955260c08085018b90528151808603909101815260e08501825280519083012061190160f01b6101008601526101028501969096526101228085019690965280518085039096018652610142840180825286519683019690962095839052610162840180825286905260ff89166101828501526101a284018890526101c28401879052519193926101e280820193601f1981019281900390910190855afa158015611684573d6000803e3d6000fd5b5050604051601f1901519150506001600160a01b038116158015906116ba5750886001600160a01b0316816001600160a01b0316145b61170b576040805162461bcd60e51b815260206004820152601f60248201527f57696e7465727377617056323a20494e56414c49445f5349474e415455524500604482015290519081900360640190fd5b611716898989611cb2565b505050505050505050565b600260209081526000928352604080842090915290825290205481565b600c5460011461178c576040805162461bcd60e51b815260206004820152601460248201527315da5b9d195c9cddd85c158c8e881313d0d2d15160621b604482015290519081900360640190fd5b6000600c55600654604080516370a0823160e01b8152306004820152905161189c926001600160a01b0316916370a08231916024808301926020929190829003018186803b1580156117dd57600080fd5b505afa1580156117f1573d6000803e3d6000fd5b505050506040513d602081101561180757600080fd5b5051600754604080516370a0823160e01b815230600482015290516001600160a01b03909216916370a0823191602480820192602092909190829003018186803b15801561185457600080fd5b505afa158015611868573d6000803e3d6000fd5b505050506040513d602081101561187e57600080fd5b50516008546001600160701b0380821691600160701b900416611af0565b6001600c55565b604080518082018252601981527f7472616e7366657228616464726573732c75696e74323536290000000000000060209182015281516001600160a01b0385811660248301526044808301869052845180840390910181526064909201845291810180516001600160e01b031663a9059cbb60e01b1781529251815160009460609489169392918291908083835b602083106119505780518252601f199092019160209182019101611931565b6001836020036101000a0380198251168184511680821785525050505050509050019150506000604051808303816000865af19150503d80600081146119b2576040519150601f19603f3d011682016040523d82523d6000602084013e6119b7565b606091505b50915091508180156119e55750805115806119e557508080602001905160208110156119e257600080fd5b50515b611a36576040805162461bcd60e51b815260206004820152601d60248201527f57696e7465727377617056323a205452414e534645525f4641494c4544000000604482015290519081900360640190fd5b5050505050565b6000811580611a5857505080820282828281611a5557fe5b04145b610b3d576040805162461bcd60e51b815260206004820152601460248201527364732d6d6174682d6d756c2d6f766572666c6f7760601b604482015290519081900360640190fd5b80820382811115610b3d576040805162461bcd60e51b815260206004820152601560248201527464732d6d6174682d7375622d756e646572666c6f7760581b604482015290519081900360640190fd5b6001600160701b038411801590611b0e57506001600160701b038311155b611b58576040805162461bcd60e51b815260206004820152601660248201527557696e7465727377617056323a204f564552464c4f5760501b604482015290519081900360640190fd5b60085463ffffffff42811691600160e01b90048116820390811615801590611b8857506001600160701b03841615155b8015611b9c57506001600160701b03831615155b15611c07578063ffffffff16611bc485611bb586612088565b6001600160e01b03169061209a565b600980546001600160e01b03929092169290920201905563ffffffff8116611bef84611bb587612088565b600a80546001600160e01b0392909216929092020190555b600880546dffffffffffffffffffffffffffff19166001600160701b03888116919091176dffffffffffffffffffffffffffff60701b1916600160701b8883168102919091176001600160e01b0316600160e01b63ffffffff871602179283905560408051848416815291909304909116602082015281517f1c411e9a96e071241c2f21f7726b17ae89e3cab4c78be50e062b03a9fffbbad1929181900390910190a1505050505050565b6001600160a01b03808416600081815260026020908152604080832094871680845294825291829020859055815185815291517f8c5be1e5ebec7d5bd14f71427d1e84f3dd0314c0f7b2291e5b200ac8c7c3b9259281900390910190a3505050565b6001600160a01b038316600090815260016020526040902054611d379082611aa0565b6001600160a01b038085166000908152600160205260408082209390935590841681522054611d6690826120bf565b6001600160a01b0380841660008181526001602090815260409182902094909455805185815290519193928716927fddf252ad1be2c89b69c2b068fc378daa952ba7f163c4a11628f55a4df523b3ef92918290030190a3505050565b600080600560009054906101000a90046001600160a01b03166001600160a01b031663017e7e586040518163ffffffff1660e01b815260040160206040518083038186803b158015611e1357600080fd5b505afa158015611e27573d6000803e3d6000fd5b505050506040513d6020811015611e3d57600080fd5b5051600b546001600160a01b038216158015945091925090611eee578015611ee9576000611e7a610e6b6001600160701b03888116908816611a3d565b90506000611e8783611f02565b905080821115611ee6576000611ea9611ea08484611aa0565b60005490611a3d565b90506000611ec283611ebc866005611a3d565b906120bf565b90506000818381611ecf57fe5b0490508015611ee257611ee28782611f54565b5050505b50505b611efa565b8015611efa576000600b555b505092915050565b60006003821115611f45575080600160028204015b81811015611f3f57809150600281828581611f2e57fe5b040181611f3757fe5b049050611f17565b50611f4f565b8115611f4f575060015b919050565b600054611f6190826120bf565b60009081556001600160a01b038316815260016020526040902054611f8690826120bf565b6001600160a01b03831660008181526001602090815260408083209490945583518581529351929391927fddf252ad1be2c89b69c2b068fc378daa952ba7f163c4a11628f55a4df523b3ef9281900390910190a35050565b6000818310611fed5781611fef565b825b9392505050565b6001600160a01b0382166000908152600160205260409020546120199082611aa0565b6001600160a01b038316600090815260016020526040812091909155546120409082611aa0565b60009081556040805183815290516001600160a01b038516917fddf252ad1be2c89b69c2b068fc378daa952ba7f163c4a11628f55a4df523b3ef919081900360200190a35050565b6001600160701b0316600160701b0290565b60006001600160701b0382166001600160e01b038416816120b757fe5b049392505050565b80820182811015610b3d576040805162461bcd60e51b815260206004820152601460248201527364732d6d6174682d6164642d6f766572666c6f7760601b604482015290519081900360640190fdfe57696e7465727377617056323a20494e53554646494349454e545f4c49515549444954595f4255524e454457696e7465727377617056323a20494e53554646494349454e545f4f55545055545f414d4f554e5457696e7465727377617056323a20494e53554646494349454e545f494e5055545f414d4f554e5457696e7465727377617056323a20494e53554646494349454e545f4c49515549444954595f4d494e54454457696e7465727377617056323a20494e53554646494349454e545f4c4951554944495459a2646970667358221220b489298d3be7559b81608288206242b07708607773468e0d79239c3a2f3dda7c64736f6c6343000705003357696e7465727377617056323a204944454e544943414c5f414444524553534553a26469706673582212204dfce2c14c44f9b4d7c0609ee8c80ec0e469cf29f2ccd71f9750d22b79f6256f64736f6c63430007050033",
  "immutableReferences": {},
  "source": "// SPDX-License-Identifier: GPL-3.0-or-later\n\npragma solidity ^0.7.0;\n\nimport './interfaces/IWinterswapV2Factory.sol';\nimport './WinterswapV2Pair.sol';\n\ncontract WinterswapV2Factory is IWinterswapV2Factory {\n    address override public feeTo;\n    address override public feeToSetter;\n\n    mapping(address => mapping(address => address)) override public getPair;\n    address[] override public allPairs;\n\n    constructor(address _feeToSetter) {\n        feeToSetter = _feeToSetter;\n    }\n\n    function allPairsLength() override external view returns (uint) {\n        return allPairs.length;\n    }\n\n    function createPair(address tokenA, address tokenB) override external returns (address pair) {\n        require(tokenA != tokenB, 'WinterswapV2: IDENTICAL_ADDRESSES');\n        (address token0, address token1) = tokenA < tokenB ? (tokenA, tokenB) : (tokenB, tokenA);\n        require(token0 != address(0), 'WinterswapV2: ZERO_ADDRESS');\n        require(getPair[token0][token1] == address(0), 'WinterswapV2: PAIR_EXISTS'); // single check is sufficient\n        bytes memory bytecode = type(WinterswapV2Pair).creationCode;\n        bytes32 salt = keccak256(abi.encodePacked(token0, token1));\n        assembly {\n            pair := create2(0, add(bytecode, 32), mload(bytecode), salt)\n        }\n        IWinterswapV2Pair(pair).initialize(token0, token1);\n        getPair[token0][token1] = pair;\n        getPair[token1][token0] = pair; // populate mapping in the reverse direction\n        allPairs.push(pair);\n        emit PairCreated(token0, token1, pair, allPairs.length);\n    }\n\n    function setFeeTo(address _feeTo) override external {\n        require(msg.sender == feeToSetter, 'WinterswapV2: FORBIDDEN');\n        feeTo = _feeTo;\n    }\n\n    function setFeeToSetter(address _feeToSetter) override external {\n        require(msg.sender == feeToSetter, 'WinterswapV2: FORBIDDEN');\n        feeToSetter = _feeToSetter;\n    }\n}\n",
  "sourcePath": "/home/lycrus/WebstormProjects/WinterSwap/contracts/swap/WinterswapV2Factory.sol",
  "compiler": {
    "name": "solc",
    "version": "0.7.5+commit.eb77ed08.Emscripten.clang"
  },
  "schemaVersion": "3.3.2",
  "updatedAt": "2020-12-13T09:14:03.337Z",
  "networkType": "ethereum",
  "devdoc": {
    "kind": "dev",
    "methods": {},
    "version": 1
  },
  "userdoc": {
    "kind": "user",
    "methods": {},
    "version": 1
  }
}