{
  "contractName": "WinterswapV2Router02",
  "abi": [
    {
      "inputs": [
        {
          "internalType": "contract IWNS",
          "name": "_wns",
          "type": "address"
        }
      ],
      "stateMutability": "nonpayable",
      "type": "constructor"
    },
    {
      "inputs": [],
      "name": "WHT",
      "outputs": [
        {
          "internalType": "address",
          "name": "",
          "type": "address"
        }
      ],
      "stateMutability": "view",
      "type": "function",
      "constant": true
    },
    {
      "inputs": [],
      "name": "factory",
      "outputs": [
        {
          "internalType": "address",
          "name": "",
          "type": "address"
        }
      ],
      "stateMutability": "view",
      "type": "function",
      "constant": true
    },
    {
      "inputs": [],
      "name": "snowball",
      "outputs": [
        {
          "internalType": "address",
          "name": "",
          "type": "address"
        }
      ],
      "stateMutability": "view",
      "type": "function",
      "constant": true
    },
    {
      "inputs": [],
      "name": "snowman",
      "outputs": [
        {
          "internalType": "address",
          "name": "",
          "type": "address"
        }
      ],
      "stateMutability": "view",
      "type": "function",
      "constant": true
    },
    {
      "stateMutability": "payable",
      "type": "receive",
      "payable": true
    },
    {
      "inputs": [],
      "name": "ETH",
      "outputs": [
        {
          "internalType": "address",
          "name": "",
          "type": "address"
        }
      ],
      "stateMutability": "view",
      "type": "function",
      "constant": true
    },
    {
      "inputs": [],
      "name": "init",
      "outputs": [],
      "stateMutability": "nonpayable",
      "type": "function"
    },
    {
      "inputs": [
        {
          "internalType": "address",
          "name": "tokenA",
          "type": "address"
        },
        {
          "internalType": "address",
          "name": "tokenB",
          "type": "address"
        },
        {
          "internalType": "uint256",
          "name": "amountADesired",
          "type": "uint256"
        },
        {
          "internalType": "uint256",
          "name": "amountBDesired",
          "type": "uint256"
        },
        {
          "internalType": "uint256",
          "name": "amountAMin",
          "type": "uint256"
        },
        {
          "internalType": "uint256",
          "name": "amountBMin",
          "type": "uint256"
        },
        {
          "internalType": "address",
          "name": "to",
          "type": "address"
        },
        {
          "internalType": "uint256",
          "name": "deadline",
          "type": "uint256"
        }
      ],
      "name": "addLiquidity",
      "outputs": [
        {
          "internalType": "uint256",
          "name": "amountA",
          "type": "uint256"
        },
        {
          "internalType": "uint256",
          "name": "amountB",
          "type": "uint256"
        },
        {
          "internalType": "uint256",
          "name": "liquidity",
          "type": "uint256"
        }
      ],
      "stateMutability": "nonpayable",
      "type": "function"
    },
    {
      "inputs": [
        {
          "internalType": "address",
          "name": "token",
          "type": "address"
        },
        {
          "internalType": "uint256",
          "name": "amountTokenDesired",
          "type": "uint256"
        },
        {
          "internalType": "uint256",
          "name": "amountTokenMin",
          "type": "uint256"
        },
        {
          "internalType": "uint256",
          "name": "amountETHMin",
          "type": "uint256"
        },
        {
          "internalType": "address",
          "name": "to",
          "type": "address"
        },
        {
          "internalType": "uint256",
          "name": "deadline",
          "type": "uint256"
        }
      ],
      "name": "addLiquidityETH",
      "outputs": [
        {
          "internalType": "uint256",
          "name": "amountToken",
          "type": "uint256"
        },
        {
          "internalType": "uint256",
          "name": "amountETH",
          "type": "uint256"
        },
        {
          "internalType": "uint256",
          "name": "liquidity",
          "type": "uint256"
        }
      ],
      "stateMutability": "payable",
      "type": "function",
      "payable": true
    },
    {
      "inputs": [
        {
          "internalType": "address",
          "name": "tokenA",
          "type": "address"
        },
        {
          "internalType": "address",
          "name": "tokenB",
          "type": "address"
        },
        {
          "internalType": "uint256",
          "name": "liquidity",
          "type": "uint256"
        },
        {
          "internalType": "uint256",
          "name": "amountAMin",
          "type": "uint256"
        },
        {
          "internalType": "uint256",
          "name": "amountBMin",
          "type": "uint256"
        },
        {
          "internalType": "address",
          "name": "to",
          "type": "address"
        },
        {
          "internalType": "uint256",
          "name": "deadline",
          "type": "uint256"
        }
      ],
      "name": "removeLiquidity",
      "outputs": [
        {
          "internalType": "uint256",
          "name": "amountA",
          "type": "uint256"
        },
        {
          "internalType": "uint256",
          "name": "amountB",
          "type": "uint256"
        }
      ],
      "stateMutability": "nonpayable",
      "type": "function"
    },
    {
      "inputs": [
        {
          "internalType": "address",
          "name": "token",
          "type": "address"
        },
        {
          "internalType": "uint256",
          "name": "liquidity",
          "type": "uint256"
        },
        {
          "internalType": "uint256",
          "name": "amountTokenMin",
          "type": "uint256"
        },
        {
          "internalType": "uint256",
          "name": "amountETHMin",
          "type": "uint256"
        },
        {
          "internalType": "address",
          "name": "to",
          "type": "address"
        },
        {
          "internalType": "uint256",
          "name": "deadline",
          "type": "uint256"
        }
      ],
      "name": "removeLiquidityETH",
      "outputs": [
        {
          "internalType": "uint256",
          "name": "amountToken",
          "type": "uint256"
        },
        {
          "internalType": "uint256",
          "name": "amountETH",
          "type": "uint256"
        }
      ],
      "stateMutability": "nonpayable",
      "type": "function"
    },
    {
      "inputs": [
        {
          "internalType": "address",
          "name": "tokenA",
          "type": "address"
        },
        {
          "internalType": "address",
          "name": "tokenB",
          "type": "address"
        },
        {
          "internalType": "uint256",
          "name": "liquidity",
          "type": "uint256"
        },
        {
          "internalType": "uint256",
          "name": "amountAMin",
          "type": "uint256"
        },
        {
          "internalType": "uint256",
          "name": "amountBMin",
          "type": "uint256"
        },
        {
          "internalType": "address",
          "name": "to",
          "type": "address"
        },
        {
          "internalType": "uint256",
          "name": "deadline",
          "type": "uint256"
        },
        {
          "internalType": "bool",
          "name": "approveMax",
          "type": "bool"
        },
        {
          "internalType": "uint8",
          "name": "v",
          "type": "uint8"
        },
        {
          "internalType": "bytes32",
          "name": "r",
          "type": "bytes32"
        },
        {
          "internalType": "bytes32",
          "name": "s",
          "type": "bytes32"
        }
      ],
      "name": "removeLiquidityWithPermit",
      "outputs": [
        {
          "internalType": "uint256",
          "name": "amountA",
          "type": "uint256"
        },
        {
          "internalType": "uint256",
          "name": "amountB",
          "type": "uint256"
        }
      ],
      "stateMutability": "nonpayable",
      "type": "function"
    },
    {
      "inputs": [
        {
          "internalType": "address",
          "name": "token",
          "type": "address"
        },
        {
          "internalType": "uint256",
          "name": "liquidity",
          "type": "uint256"
        },
        {
          "internalType": "uint256",
          "name": "amountTokenMin",
          "type": "uint256"
        },
        {
          "internalType": "uint256",
          "name": "amountETHMin",
          "type": "uint256"
        },
        {
          "internalType": "address",
          "name": "to",
          "type": "address"
        },
        {
          "internalType": "uint256",
          "name": "deadline",
          "type": "uint256"
        },
        {
          "internalType": "bool",
          "name": "approveMax",
          "type": "bool"
        },
        {
          "internalType": "uint8",
          "name": "v",
          "type": "uint8"
        },
        {
          "internalType": "bytes32",
          "name": "r",
          "type": "bytes32"
        },
        {
          "internalType": "bytes32",
          "name": "s",
          "type": "bytes32"
        }
      ],
      "name": "removeLiquidityETHWithPermit",
      "outputs": [
        {
          "internalType": "uint256",
          "name": "amountToken",
          "type": "uint256"
        },
        {
          "internalType": "uint256",
          "name": "amountETH",
          "type": "uint256"
        }
      ],
      "stateMutability": "nonpayable",
      "type": "function"
    },
    {
      "inputs": [
        {
          "internalType": "uint256",
          "name": "amountIn",
          "type": "uint256"
        },
        {
          "internalType": "uint256",
          "name": "amountOutMin",
          "type": "uint256"
        },
        {
          "internalType": "address[]",
          "name": "path",
          "type": "address[]"
        },
        {
          "internalType": "address",
          "name": "to",
          "type": "address"
        },
        {
          "internalType": "uint256",
          "name": "deadline",
          "type": "uint256"
        }
      ],
      "name": "swapExactTokensForTokens",
      "outputs": [
        {
          "internalType": "uint256[]",
          "name": "amounts",
          "type": "uint256[]"
        }
      ],
      "stateMutability": "nonpayable",
      "type": "function"
    },
    {
      "inputs": [
        {
          "internalType": "uint256",
          "name": "amountOut",
          "type": "uint256"
        },
        {
          "internalType": "uint256",
          "name": "amountInMax",
          "type": "uint256"
        },
        {
          "internalType": "address[]",
          "name": "path",
          "type": "address[]"
        },
        {
          "internalType": "address",
          "name": "to",
          "type": "address"
        },
        {
          "internalType": "uint256",
          "name": "deadline",
          "type": "uint256"
        }
      ],
      "name": "swapTokensForExactTokens",
      "outputs": [
        {
          "internalType": "uint256[]",
          "name": "amounts",
          "type": "uint256[]"
        }
      ],
      "stateMutability": "nonpayable",
      "type": "function"
    },
    {
      "inputs": [
        {
          "internalType": "uint256",
          "name": "amountOutMin",
          "type": "uint256"
        },
        {
          "internalType": "address[]",
          "name": "path",
          "type": "address[]"
        },
        {
          "internalType": "address",
          "name": "to",
          "type": "address"
        },
        {
          "internalType": "uint256",
          "name": "deadline",
          "type": "uint256"
        }
      ],
      "name": "swapExactETHForTokens",
      "outputs": [
        {
          "internalType": "uint256[]",
          "name": "amounts",
          "type": "uint256[]"
        }
      ],
      "stateMutability": "payable",
      "type": "function",
      "payable": true
    },
    {
      "inputs": [
        {
          "internalType": "uint256",
          "name": "amountOut",
          "type": "uint256"
        },
        {
          "internalType": "uint256",
          "name": "amountInMax",
          "type": "uint256"
        },
        {
          "internalType": "address[]",
          "name": "path",
          "type": "address[]"
        },
        {
          "internalType": "address",
          "name": "to",
          "type": "address"
        },
        {
          "internalType": "uint256",
          "name": "deadline",
          "type": "uint256"
        }
      ],
      "name": "swapTokensForExactETH",
      "outputs": [
        {
          "internalType": "uint256[]",
          "name": "amounts",
          "type": "uint256[]"
        }
      ],
      "stateMutability": "nonpayable",
      "type": "function"
    },
    {
      "inputs": [
        {
          "internalType": "uint256",
          "name": "amountIn",
          "type": "uint256"
        },
        {
          "internalType": "uint256",
          "name": "amountOutMin",
          "type": "uint256"
        },
        {
          "internalType": "address[]",
          "name": "path",
          "type": "address[]"
        },
        {
          "internalType": "address",
          "name": "to",
          "type": "address"
        },
        {
          "internalType": "uint256",
          "name": "deadline",
          "type": "uint256"
        }
      ],
      "name": "swapExactTokensForETH",
      "outputs": [
        {
          "internalType": "uint256[]",
          "name": "amounts",
          "type": "uint256[]"
        }
      ],
      "stateMutability": "nonpayable",
      "type": "function"
    },
    {
      "inputs": [
        {
          "internalType": "uint256",
          "name": "amountOut",
          "type": "uint256"
        },
        {
          "internalType": "address[]",
          "name": "path",
          "type": "address[]"
        },
        {
          "internalType": "address",
          "name": "to",
          "type": "address"
        },
        {
          "internalType": "uint256",
          "name": "deadline",
          "type": "uint256"
        }
      ],
      "name": "swapETHForExactTokens",
      "outputs": [
        {
          "internalType": "uint256[]",
          "name": "amounts",
          "type": "uint256[]"
        }
      ],
      "stateMutability": "payable",
      "type": "function",
      "payable": true
    },
    {
      "inputs": [
        {
          "internalType": "uint256",
          "name": "amountA",
          "type": "uint256"
        },
        {
          "internalType": "uint256",
          "name": "reserveA",
          "type": "uint256"
        },
        {
          "internalType": "uint256",
          "name": "reserveB",
          "type": "uint256"
        }
      ],
      "name": "quote",
      "outputs": [
        {
          "internalType": "uint256",
          "name": "amountB",
          "type": "uint256"
        }
      ],
      "stateMutability": "pure",
      "type": "function",
      "constant": true
    },
    {
      "inputs": [
        {
          "internalType": "uint256",
          "name": "amountIn",
          "type": "uint256"
        },
        {
          "internalType": "uint256",
          "name": "reserveIn",
          "type": "uint256"
        },
        {
          "internalType": "uint256",
          "name": "reserveOut",
          "type": "uint256"
        }
      ],
      "name": "getAmountOut",
      "outputs": [
        {
          "internalType": "uint256",
          "name": "amountOut",
          "type": "uint256"
        }
      ],
      "stateMutability": "pure",
      "type": "function",
      "constant": true
    },
    {
      "inputs": [
        {
          "internalType": "uint256",
          "name": "amountOut",
          "type": "uint256"
        },
        {
          "internalType": "uint256",
          "name": "reserveIn",
          "type": "uint256"
        },
        {
          "internalType": "uint256",
          "name": "reserveOut",
          "type": "uint256"
        }
      ],
      "name": "getAmountIn",
      "outputs": [
        {
          "internalType": "uint256",
          "name": "amountIn",
          "type": "uint256"
        }
      ],
      "stateMutability": "pure",
      "type": "function",
      "constant": true
    },
    {
      "inputs": [
        {
          "internalType": "uint256",
          "name": "amountIn",
          "type": "uint256"
        },
        {
          "internalType": "address[]",
          "name": "path",
          "type": "address[]"
        }
      ],
      "name": "getAmountsOut",
      "outputs": [
        {
          "internalType": "uint256[]",
          "name": "amounts",
          "type": "uint256[]"
        }
      ],
      "stateMutability": "view",
      "type": "function",
      "constant": true
    },
    {
      "inputs": [
        {
          "internalType": "uint256",
          "name": "amountOut",
          "type": "uint256"
        },
        {
          "internalType": "address[]",
          "name": "path",
          "type": "address[]"
        }
      ],
      "name": "getAmountsIn",
      "outputs": [
        {
          "internalType": "uint256[]",
          "name": "amounts",
          "type": "uint256[]"
        }
      ],
      "stateMutability": "view",
      "type": "function",
      "constant": true
    },
    {
      "inputs": [
        {
          "internalType": "address",
          "name": "tokenA",
          "type": "address"
        },
        {
          "internalType": "address",
          "name": "tokenB",
          "type": "address"
        }
      ],
      "name": "pairFor",
      "outputs": [
        {
          "internalType": "address",
          "name": "pair",
          "type": "address"
        }
      ],
      "stateMutability": "view",
      "type": "function",
      "constant": true
    },
    {
      "inputs": [],
      "name": "pairCodeHash",
      "outputs": [
        {
          "internalType": "bytes32",
          "name": "",
          "type": "bytes32"
        }
      ],
      "stateMutability": "pure",
      "type": "function",
      "constant": true
    }
  ],
  "bytecode": "0x608060405234801561001057600080fd5b50604051613cd0380380613cd08339818101604052602081101561003357600080fd5b5051600480546001600160a01b0319166001600160a01b03909216919091179055613c6d806100636000396000f3fe60806040526004361061016a5760003560e01c806385f8c259116100d1578063c45a01551161008a578063e1c7392a11610064578063e1c7392a14610963578063e8e3370014610978578063f305d719146109f8578063fb3bdb4114610a3e57610185565b8063c45a015514610826578063d06ca61f1461083b578063ded9382a146108f057610185565b806385f8c259146106775780638803dbee146106ad57806396ed28f9146107435780639aab92481461077e578063ad615dec14610793578063baa2abde146107c957610185565b806338ed17391161012357806338ed1739146104885780634a25d94a1461051e5780635cb48592146105b45780636b9c1856146105c95780637ff36ab5146105de5780638322fff21461066257610185565b806302751cec1461018a578063054d50d4146101f657806318cbafe51461023e5780631f00ca74146103245780632195995c146103d957806328f2642f1461045757610185565b36610185576000546001600160a01b0316331461018357fe5b005b600080fd5b34801561019657600080fd5b506101dd600480360360c08110156101ad57600080fd5b506001600160a01b0381358116916020810135916040820135916060810135916080820135169060a00135610ac2565b6040805192835260208301919091528051918290030190f35b34801561020257600080fd5b5061022c6004803603606081101561021957600080fd5b5080359060208101359060400135610bab565b60408051918252519081900360200190f35b34801561024a57600080fd5b506102d4600480360360a081101561026157600080fd5b813591602081013591810190606081016040820135600160201b81111561028757600080fd5b82018360208201111561029957600080fd5b803590602001918460208302840111600160201b831117156102ba57600080fd5b91935091506001600160a01b038135169060200135610bc0565b60408051602080825283518183015283519192839290830191858101910280838360005b838110156103105781810151838201526020016102f8565b505050509050019250505060405180910390f35b34801561033057600080fd5b506102d46004803603604081101561034757600080fd5b81359190810190604081016020820135600160201b81111561036857600080fd5b82018360208201111561037a57600080fd5b803590602001918460208302840111600160201b8311171561039b57600080fd5b919080806020026020016040519081016040528093929190818152602001838360200280828437600092019190915250929550610f14945050505050565b3480156103e557600080fd5b506101dd60048036036101608110156103fd57600080fd5b506001600160a01b038135811691602081013582169160408201359160608101359160808201359160a08101359091169060c08101359060e081013515159060ff6101008201351690610120810135906101400135610f37565b34801561046357600080fd5b5061046c61101f565b604080516001600160a01b039092168252519081900360200190f35b34801561049457600080fd5b506102d4600480360360a08110156104ab57600080fd5b813591602081013591810190606081016040820135600160201b8111156104d157600080fd5b8201836020820111156104e357600080fd5b803590602001918460208302840111600160201b8311171561050457600080fd5b91935091506001600160a01b03813516906020013561102e565b34801561052a57600080fd5b506102d4600480360360a081101561054157600080fd5b813591602081013591810190606081016040820135600160201b81111561056757600080fd5b82018360208201111561057957600080fd5b803590602001918460208302840111600160201b8311171561059a57600080fd5b91935091506001600160a01b0381351690602001356111a4565b3480156105c057600080fd5b5061046c61133d565b3480156105d557600080fd5b5061046c61134c565b6102d4600480360360808110156105f457600080fd5b81359190810190604081016020820135600160201b81111561061557600080fd5b82018360208201111561062757600080fd5b803590602001918460208302840111600160201b8311171561064857600080fd5b91935091506001600160a01b03813516906020013561135b565b34801561066e57600080fd5b5061046c6116bb565b34801561068357600080fd5b5061022c6004803603606081101561069a57600080fd5b50803590602081013590604001356116ca565b3480156106b957600080fd5b506102d4600480360360a08110156106d057600080fd5b813591602081013591810190606081016040820135600160201b8111156106f657600080fd5b82018360208201111561070857600080fd5b803590602001918460208302840111600160201b8311171561072957600080fd5b91935091506001600160a01b0381351690602001356116d7565b34801561074f57600080fd5b5061046c6004803603604081101561076657600080fd5b506001600160a01b03813581169160200135166117fb565b34801561078a57600080fd5b5061022c611815565b34801561079f57600080fd5b5061022c600480360360608110156107b657600080fd5b5080359060208101359060400135611824565b3480156107d557600080fd5b506101dd600480360360e08110156107ec57600080fd5b506001600160a01b038135811691602081013582169160408201359160608101359160808201359160a08101359091169060c00135611831565b34801561083257600080fd5b5061046c611a62565b34801561084757600080fd5b506102d46004803603604081101561085e57600080fd5b81359190810190604081016020820135600160201b81111561087f57600080fd5b82018360208201111561089157600080fd5b803590602001918460208302840111600160201b831117156108b257600080fd5b919080806020026020016040519081016040528093929190818152602001838360200280828437600092019190915250929550611a71945050505050565b3480156108fc57600080fd5b506101dd600480360361014081101561091457600080fd5b506001600160a01b0381358116916020810135916040820135916060810135916080820135169060a08101359060c081013515159060ff60e08201351690610100810135906101200135611a8b565b34801561096f57600080fd5b50610183611b87565b34801561098457600080fd5b506109da600480360361010081101561099c57600080fd5b506001600160a01b038135811691602081013582169160408201359160608101359160808201359160a08101359160c0820135169060e00135611da5565b60408051938452602084019290925282820152519081900360600190f35b6109da600480360360c0811015610a0e57600080fd5b506001600160a01b0381358116916020810135916040820135916060810135916080820135169060a00135611ec5565b6102d460048036036080811015610a5457600080fd5b81359190810190604081016020820135600160201b811115610a7557600080fd5b820183602082011115610a8757600080fd5b803590602001918460208302840111600160201b83111715610aa857600080fd5b91935091506001600160a01b0381351690602001356120ed565b6000808242811015610b09576040805162461bcd60e51b815260206004820152601b6024820152600080516020613a06833981519152604482015290519081900360640190fd5b600054610b25908a906001600160a01b03168a8a8a308a611831565b9093509150610b35898685612422565b6000805460408051632e1a7d4d60e01b81526004810186905290516001600160a01b0390921692632e1a7d4d9260248084019382900301818387803b158015610b7d57600080fd5b505af1158015610b91573d6000803e3d6000fd5b50505050610b9f858361258c565b50965096945050505050565b6000610bb8848484612684565b949350505050565b60608142811015610c06576040805162461bcd60e51b815260206004820152601b6024820152600080516020613a06833981519152604482015290519081900360640190fd5b60028514610c455760405162461bcd60e51b815260040180806020018281038252602f8152602001806139a4602f913960400191505060405180910390fd5b6000546001600160a01b031686866000198101818110610c6157fe5b905060200201356001600160a01b03166001600160a01b031614610cba576040805162461bcd60e51b81526020600482018190526024820152600080516020613c18833981519152604482015290519081900360640190fd5b6001546040805160208089028281018201909352888252610d04936001600160a01b0316928c92918b918b9182919085019084908082843760009201919091525061275c92505050565b91508682600184510381518110610d1757fe5b60200260200101511015610d5c5760405162461bcd60e51b815260040180806020018281038252602e815260200180613a26602e913960400191505060405180910390fd5b610def86866000818110610d6c57fe5b905060200201356001600160a01b031633610dd5600160009054906101000a90046001600160a01b03168a8a6000818110610da357fe5b905060200201356001600160a01b03168b8b6001818110610dc057fe5b905060200201356001600160a01b0316612892565b85600081518110610de257fe5b6020026020010151612953565b610e2e82878780806020026020016040519081016040528093929190818152602001838360200280828437600092019190915250309250612ab0915050565b60005482516001600160a01b0390911690632e1a7d4d9084906000198101908110610e5557fe5b60200260200101516040518263ffffffff1660e01b815260040180828152602001915050600060405180830381600087803b158015610e9357600080fd5b505af1158015610ea7573d6000803e3d6000fd5b50505050610ecc8483600185510381518110610ebf57fe5b602002602001015161258c565b610f0982878780806020026020016040519081016040528093929190818152602001838360200280828437600092019190915250612cca92505050565b509695505050505050565b600154606090610f2e906001600160a01b0316848461311e565b90505b92915050565b60015460009081908190610f55906001600160a01b03168f8f612892565b9050600087610f64578c610f68565b6000195b6040805163d505accf60e01b815233600482015230602482015260448101839052606481018c905260ff8a16608482015260a4810189905260c4810188905290519192506001600160a01b0384169163d505accf9160e48082019260009290919082900301818387803b158015610fde57600080fd5b505af1158015610ff2573d6000803e3d6000fd5b505050506110058f8f8f8f8f8f8f611831565b809450819550505050509b509b9950505050505050505050565b6002546001600160a01b031681565b60608142811015611074576040805162461bcd60e51b815260206004820152601b6024820152600080516020613a06833981519152604482015290519081900360640190fd5b600285146110b35760405162461bcd60e51b815260040180806020018281038252602f8152602001806139a4602f913960400191505060405180910390fd5b60015460408051602080890282810182019093528882526110fd936001600160a01b0316928c92918b918b9182919085019084908082843760009201919091525061275c92505050565b9150868260018451038151811061111057fe5b602002602001015110156111555760405162461bcd60e51b815260040180806020018281038252602e815260200180613a26602e913960400191505060405180910390fd5b61116586866000818110610d6c57fe5b610ecc82878780806020026020016040519081016040528093929190818152602001838360200280828437600092019190915250899250612ab0915050565b606081428110156111ea576040805162461bcd60e51b815260206004820152601b6024820152600080516020613a06833981519152604482015290519081900360640190fd5b600285146112295760405162461bcd60e51b815260040180806020018281038252602f8152602001806139a4602f913960400191505060405180910390fd5b6000546001600160a01b03168686600019810181811061124557fe5b905060200201356001600160a01b03166001600160a01b03161461129e576040805162461bcd60e51b81526020600482018190526024820152600080516020613c18833981519152604482015290519081900360640190fd5b60015460408051602080890282810182019093528882526112e8936001600160a01b0316928c92918b918b9182919085019084908082843760009201919091525061311e92505050565b915086826000815181106112f857fe5b60200260200101511115610d5c5760405162461bcd60e51b815260040180806020018281038252602a815260200180613acb602a913960400191505060405180910390fd5b6000546001600160a01b031681565b6003546001600160a01b031681565b606081428110156113a1576040805162461bcd60e51b815260206004820152601b6024820152600080516020613a06833981519152604482015290519081900360640190fd5b600285146113e05760405162461bcd60e51b815260040180806020018281038252602f8152602001806139a4602f913960400191505060405180910390fd5b600080546001600160a01b03169087908790816113f957fe5b905060200201356001600160a01b03166001600160a01b031614611452576040805162461bcd60e51b81526020600482018190526024820152600080516020613c18833981519152604482015290519081900360640190fd5b600154604080516020808902828101820190935288825261149c936001600160a01b0316923492918b918b9182919085019084908082843760009201919091525061275c92505050565b915086826001845103815181106114af57fe5b602002602001015110156114f45760405162461bcd60e51b815260040180806020018281038252602e815260200180613a26602e913960400191505060405180910390fd5b6000805483516001600160a01b039091169163d0e30db09185919061151557fe5b60200260200101516040518263ffffffff1660e01b81526004016000604051808303818588803b15801561154857600080fd5b505af115801561155c573d6000803e3d6000fd5b5050600080546001546001600160a01b03918216955063a9059cbb94506115a8935016908a908a908161158b57fe5b905060200201356001600160a01b03168a8a6001818110610dc057fe5b846000815181106115b557fe5b60200260200101516040518363ffffffff1660e01b815260040180836001600160a01b0316815260200182815260200192505050602060405180830381600087803b15801561160357600080fd5b505af1158015611617573d6000803e3d6000fd5b505050506040513d602081101561162d57600080fd5b505161163557fe5b61167482878780806020026020016040519081016040528093929190818152602001838360200280828437600092019190915250899250612ab0915050565b6116b182878780806020026020016040519081016040528093929190818152602001838360200280828437600092019190915250612cca92505050565b5095945050505050565b6000546001600160a01b031690565b6000610bb8848484613240565b6060814281101561171d576040805162461bcd60e51b815260206004820152601b6024820152600080516020613a06833981519152604482015290519081900360640190fd5b6002851461175c5760405162461bcd60e51b815260040180806020018281038252602f8152602001806139a4602f913960400191505060405180910390fd5b60015460408051602080890282810182019093528882526117a6936001600160a01b0316928c92918b918b9182919085019084908082843760009201919091525061311e92505050565b915086826000815181106117b657fe5b602002602001015111156111555760405162461bcd60e51b815260040180806020018281038252602a815260200180613acb602a913960400191505060405180910390fd5b600154600090610f2e906001600160a01b03168484612892565b600061181f613318565b905090565b6000610bb884848461333c565b6000808242811015611878576040805162461bcd60e51b815260206004820152601b6024820152600080516020613a06833981519152604482015290519081900360640190fd5b600154600090611892906001600160a01b03168c8c612892565b604080516323b872dd60e01b81523360048201526001600160a01b03831660248201819052604482018d9052915192935090916323b872dd916064808201926020929091908290030181600087803b1580156118ed57600080fd5b505af1158015611901573d6000803e3d6000fd5b505050506040513d602081101561191757600080fd5b50506040805163226bf2d160e21b81526001600160a01b03888116600483015282516000938493928616926389afcb44926024808301939282900301818787803b15801561196457600080fd5b505af1158015611978573d6000803e3d6000fd5b505050506040513d604081101561198e57600080fd5b508051602090910151909250905060006119a88e8e6133e2565b509050806001600160a01b03168e6001600160a01b0316146119cb5781836119ce565b82825b90975095508a871015611a125760405162461bcd60e51b8152600401808060200182810382526029815260200180613ba86029913960400191505060405180910390fd5b89861015611a515760405162461bcd60e51b8152600401808060200182810382526029815260200180613b206029913960400191505060405180910390fd5b505050505097509795505050505050565b6001546001600160a01b031681565b600154606090610f2e906001600160a01b0316848461275c565b6000806000611ac3600160009054906101000a90046001600160a01b03168e60008054906101000a90046001600160a01b0316612892565b9050600087611ad2578c611ad6565b6000195b6040805163d505accf60e01b815233600482015230602482015260448101839052606481018c905260ff8a16608482015260a4810189905260c4810188905290519192506001600160a01b0384169163d505accf9160e48082019260009290919082900301818387803b158015611b4c57600080fd5b505af1158015611b60573d6000803e3d6000fd5b50505050611b728e8e8e8e8e8e610ac2565b909f909e509c50505050505050505050505050565b600480546040805163785f349960e01b815290516001600160a01b039092169263785f3499928282019260209290829003018186803b158015611bc957600080fd5b505afa158015611bdd573d6000803e3d6000fd5b505050506040513d6020811015611bf357600080fd5b5051600080546001600160a01b0319166001600160a01b03928316179055600480546040805163cad631b560e01b81529051919093169263cad631b59281810192602092909190829003018186803b158015611c4e57600080fd5b505afa158015611c62573d6000803e3d6000fd5b505050506040513d6020811015611c7857600080fd5b5051600180546001600160a01b0319166001600160a01b0392831617905560048054604080516328f2642f60e01b8152905191909316926328f2642f9281810192602092909190829003018186803b158015611cd357600080fd5b505afa158015611ce7573d6000803e3d6000fd5b505050506040513d6020811015611cfd57600080fd5b5051600280546001600160a01b0319166001600160a01b0392831617905560048054604080516335ce0c2b60e11b815290519190931692636b9c18569281810192602092909190829003018186803b158015611d5857600080fd5b505afa158015611d6c573d6000803e3d6000fd5b505050506040513d6020811015611d8257600080fd5b5051600380546001600160a01b0319166001600160a01b03909216919091179055565b60008060008342811015611dee576040805162461bcd60e51b815260206004820152601b6024820152600080516020613a06833981519152604482015290519081900360640190fd5b611dfc8c8c8c8c8c8c6134aa565b6001549195509350600090611e1b906001600160a01b03168e8e612892565b9050611e298d338388612953565b611e358c338387612953565b806001600160a01b0316636a627842886040518263ffffffff1660e01b815260040180826001600160a01b03168152602001915050602060405180830381600087803b158015611e8457600080fd5b505af1158015611e98573d6000803e3d6000fd5b505050506040513d6020811015611eae57600080fd5b5051949d939c50939a509198505050505050505050565b60008060008342811015611f0e576040805162461bcd60e51b815260206004820152601b6024820152600080516020613a06833981519152604482015290519081900360640190fd5b600054611f29908b906001600160a01b03168b348c8c6134aa565b600154600080549397509195509091611f50916001600160a01b03908116918e9116612892565b9050611f5e8b338388612953565b60008054906101000a90046001600160a01b03166001600160a01b031663d0e30db0856040518263ffffffff1660e01b81526004016000604051808303818588803b158015611fac57600080fd5b505af1158015611fc0573d6000803e3d6000fd5b5050600080546040805163a9059cbb60e01b81526001600160a01b038881166004830152602482018c9052915191909216955063a9059cbb94506044808301945060209391928390030190829087803b15801561201c57600080fd5b505af1158015612030573d6000803e3d6000fd5b505050506040513d602081101561204657600080fd5b505161204e57fe5b806001600160a01b0316636a627842886040518263ffffffff1660e01b815260040180826001600160a01b03168152602001915050602060405180830381600087803b15801561209d57600080fd5b505af11580156120b1573d6000803e3d6000fd5b505050506040513d60208110156120c757600080fd5b50519250348410156120df576120df3385340361258c565b505096509650969350505050565b60608142811015612133576040805162461bcd60e51b815260206004820152601b6024820152600080516020613a06833981519152604482015290519081900360640190fd5b600285146121725760405162461bcd60e51b815260040180806020018281038252602f8152602001806139a4602f913960400191505060405180910390fd5b600080546001600160a01b031690879087908161218b57fe5b905060200201356001600160a01b03166001600160a01b0316146121e4576040805162461bcd60e51b81526020600482018190526024820152600080516020613c18833981519152604482015290519081900360640190fd5b600154604080516020808902828101820190935288825261222e936001600160a01b0316928b92918b918b9182919085019084908082843760009201919091525061311e92505050565b9150348260008151811061223e57fe5b602002602001015111156122835760405162461bcd60e51b815260040180806020018281038252602a815260200180613acb602a913960400191505060405180910390fd5b6000805483516001600160a01b039091169163d0e30db0918591906122a457fe5b60200260200101516040518263ffffffff1660e01b81526004016000604051808303818588803b1580156122d757600080fd5b505af11580156122eb573d6000803e3d6000fd5b5050600080546001546001600160a01b03918216955063a9059cbb945061231a935016908a908a908161158b57fe5b8460008151811061232757fe5b60200260200101516040518363ffffffff1660e01b815260040180836001600160a01b0316815260200182815260200192505050602060405180830381600087803b15801561237557600080fd5b505af1158015612389573d6000803e3d6000fd5b505050506040513d602081101561239f57600080fd5b50516123a757fe5b6123e682878780806020026020016040519081016040528093929190818152602001838360200280828437600092019190915250899250612ab0915050565b816000815181106123f357fe5b602002602001015134111561167457611674338360008151811061241357fe5b6020026020010151340361258c565b604080516001600160a01b038481166024830152604480830185905283518084039091018152606490920183526020820180516001600160e01b031663a9059cbb60e01b178152925182516000946060949389169392918291908083835b6020831061249f5780518252601f199092019160209182019101612480565b6001836020036101000a0380198251168184511680821785525050505050509050019150506000604051808303816000865af19150503d8060008114612501576040519150601f19603f3d011682016040523d82523d6000602084013e612506565b606091505b5091509150818015612534575080511580612534575080806020019051602081101561253157600080fd5b50515b612585576040805162461bcd60e51b815260206004820152601f60248201527f5472616e7366657248656c7065723a205452414e534645525f4641494c454400604482015290519081900360640190fd5b5050505050565b604080516000808252602082019092526001600160a01b0384169083906040518082805190602001908083835b602083106125d85780518252601f1990920191602091820191016125b9565b6001836020036101000a03801982511681845116808217855250505050505090500191505060006040518083038185875af1925050503d806000811461263a576040519150601f19603f3d011682016040523d82523d6000602084013e61263f565b606091505b505090508061267f5760405162461bcd60e51b8152600401808060200182810382526023815260200180613bf56023913960400191505060405180910390fd5b505050565b60008084116126c45760405162461bcd60e51b815260040180806020018281038252602e815260200180613a54602e913960400191505060405180910390fd5b6000831180156126d45750600082115b61270f5760405162461bcd60e51b815260040180806020018281038252602b815260200180613af5602b913960400191505060405180910390fd5b600061271d856103e36136cf565b9050600061272b82856136cf565b905060006127458361273f886103e86136cf565b90613732565b905080828161275057fe5b04979650505050505050565b606060028251101561279f5760405162461bcd60e51b8152600401808060200182810382526021815260200180613aaa6021913960400191505060405180910390fd5b815167ffffffffffffffff811180156127b757600080fd5b506040519080825280602002602001820160405280156127e1578160200160208202803683370190505b50905082816000815181106127f257fe5b60200260200101818152505060005b600183510381101561288a576000806128448786858151811061282057fe5b602002602001015187866001018151811061283757fe5b6020026020010151613781565b9150915061286684848151811061285757fe5b60200260200101518383612684565b84846001018151811061287557fe5b60209081029190910101525050600101612801565b509392505050565b60008060006128a185856133e2565b9150915085828260405160200180836001600160a01b031660601b8152601401826001600160a01b031660601b815260140192505050604051602081830303815290604052805190602001206128f5613318565b60405160200180806001600160f81b0319815250600101846001600160a01b031660601b815260140183815260200182815260200193505050506040516020818303038152906040528051906020012060001c925050509392505050565b604080516001600160a01b0385811660248301528481166044830152606480830185905283518084039091018152608490920183526020820180516001600160e01b03166323b872dd60e01b17815292518251600094606094938a169392918291908083835b602083106129d85780518252601f1990920191602091820191016129b9565b6001836020036101000a0380198251168184511680821785525050505050509050019150506000604051808303816000865af19150503d8060008114612a3a576040519150601f19603f3d011682016040523d82523d6000602084013e612a3f565b606091505b5091509150818015612a6d575080511580612a6d5750808060200190516020811015612a6a57600080fd5b50515b612aa85760405162461bcd60e51b8152600401808060200182810382526024815260200180613bd16024913960400191505060405180910390fd5b505050505050565b60005b6001835103811015612cc457600080848381518110612ace57fe5b6020026020010151858460010181518110612ae557fe5b6020026020010151915091506000612afd83836133e2565b5090506000878560010181518110612b1157fe5b60200260200101519050600080836001600160a01b0316866001600160a01b031614612b3f57826000612b43565b6000835b91509150600060028a51038810612b5a5788612b8b565b6001548a51612b8b916001600160a01b03169088908d9060028d01908110612b7e57fe5b6020026020010151612892565b600154909150612ba5906001600160a01b03168888612892565b6001600160a01b031663022c0d9f84848460006040519080825280601f01601f191660200182016040528015612be2576020820181803683370190505b506040518563ffffffff1660e01b815260040180858152602001848152602001836001600160a01b0316815260200180602001828103825283818151815260200191508051906020019080838360005b83811015612c4a578181015183820152602001612c32565b50505050905090810190601f168015612c775780820380516001836020036101000a031916815260200191505b5095505050505050600060405180830381600087803b158015612c9957600080fd5b505af1158015612cad573d6000803e3d6000fd5b505060019099019850612ab3975050505050505050565b50505050565b60005b600182510381101561267f5760006103e8612d056002868581518110612cef57fe5b60200260200101516136cf90919063ffffffff16565b81612d0c57fe5b60025485519290910492506001600160a01b031690849084908110612d2d57fe5b60200260200101516001600160a01b03161415612e21576000612d82600160009054906101000a90046001600160a01b0316858581518110612d6b57fe5b6020026020010151868660010181518110612b7e57fe5b9050806001600160a01b031663867f8a2583868681518110612da057fe5b6020908102919091010151600354604080516001600160e01b031960e087901b16815260048101949094526001600160a01b0392831660248501529116604483015251606480830192600092919082900301818387803b158015612e0357600080fd5b505af1158015612e17573d6000803e3d6000fd5b5050505050613111565b6000612e48600160009054906101000a90046001600160a01b0316858581518110612d6b57fe5b9050806001600160a01b031663867f8a2583868681518110612e6657fe5b6020026020010151306040518463ffffffff1660e01b815260040180848152602001836001600160a01b03168152602001826001600160a01b031681526020019350505050600060405180830381600087803b158015612ec557600080fd5b505af1158015612ed9573d6000803e3d6000fd5b50505050600080858581518110612eec57fe5b6020908102919091018101516002546001546040805163e6a4390560e01b81526001600160a01b038086166004830152938416602482018190529151949750909550600094919092169263e6a43905926044808201939291829003018186803b158015612f5857600080fd5b505afa158015612f6c573d6000803e3d6000fd5b505050506040513d6020811015612f8257600080fd5b505190506001600160a01b038116612f9f5750505050505061311a565b6001546000908190612fbb906001600160a01b03168686613781565b915091506000612fcc88848461384f565b90506000612fda87876133e2565b509050600080826001600160a01b0316896001600160a01b03161461300157836000613005565b6000845b915091506130158930898e612953565b6003546040805160008082526020820192839052634077f5f960e11b835260248201868152604483018690526001600160a01b0394851660648401819052608060848501908152845160a48601819052968e16966380efebf2968a968a969495909490939260c4860192918190849084905b8381101561309f578181015183820152602001613087565b50505050905090810190601f1680156130cc5780820380516001836020036101000a031916815260200191505b5095505050505050600060405180830381600087803b1580156130ee57600080fd5b505af1158015613102573d6000803e3d6000fd5b50505050505050505050505050505b50600101612ccd565b5050565b60606002825110156131615760405162461bcd60e51b8152600401808060200182810382526021815260200180613aaa6021913960400191505060405180910390fd5b815167ffffffffffffffff8111801561317957600080fd5b506040519080825280602002602001820160405280156131a3578160200160208202803683370190505b50905082816001835103815181106131b757fe5b60209081029190910101528151600019015b801561288a576000806131f9878660018603815181106131e557fe5b602002602001015187868151811061283757fe5b9150915061321b84848151811061320c57fe5b60200260200101518383613240565b84600185038151811061322a57fe5b60209081029190910101525050600019016131c9565b60008084116132805760405162461bcd60e51b815260040180806020018281038252602f815260200180613b49602f913960400191505060405180910390fd5b6000831180156132905750600082115b6132cb5760405162461bcd60e51b815260040180806020018281038252602b815260200180613af5602b913960400191505060405180910390fd5b60006132e36103e86132dd86886136cf565b906136cf565b905060006132f76103e36132dd868961390a565b905061330e600182848161330757fe5b0490613732565b9695505050505050565b7f4421d659392be89878d405a5f25502fcd5da43219b8087d1d54c3aaf9ad8478d90565b600080841161337c5760405162461bcd60e51b8152600401808060200182810382526028815260200180613a826028913960400191505060405180910390fd5b60008311801561338c5750600082115b6133c75760405162461bcd60e51b815260040180806020018281038252602b815260200180613af5602b913960400191505060405180910390fd5b826133d285846136cf565b816133d957fe5b04949350505050565b600080826001600160a01b0316846001600160a01b031614156134365760405162461bcd60e51b815260040180806020018281038252602881526020018061395b6028913960400191505060405180910390fd5b826001600160a01b0316846001600160a01b031610613456578284613459565b83835b90925090506001600160a01b0382166134a35760405162461bcd60e51b81526004018080602001828103825260218152602001806139836021913960400191505060405180910390fd5b9250929050565b6001546040805163e6a4390560e01b81526001600160a01b038981166004830152888116602483015291516000938493849391169163e6a4390591604480820192602092909190829003018186803b15801561350557600080fd5b505afa158015613519573d6000803e3d6000fd5b505050506040513d602081101561352f57600080fd5b50516001600160a01b031614156135c457600154604080516364e329cb60e11b81526001600160a01b038b811660048301528a811660248301529151919092169163c9c653969160448083019260209291908290030181600087803b15801561359757600080fd5b505af11580156135ab573d6000803e3d6000fd5b505050506040513d60208110156135c157600080fd5b50505b60015460009081906135e0906001600160a01b03168b8b613781565b915091508160001480156135f2575080155b15613602578793508692506136c2565b600061360f89848461333c565b905087811161366257858110156136575760405162461bcd60e51b8152600401808060200182810382526029815260200180613b206029913960400191505060405180910390fd5b8894509250826136c0565b600061366f89848661333c565b90508981111561367b57fe5b878110156136ba5760405162461bcd60e51b8152600401808060200182810382526029815260200180613ba86029913960400191505060405180910390fd5b94508793505b505b5050965096945050505050565b60008115806136ea575050808202828282816136e757fe5b04145b610f31576040805162461bcd60e51b815260206004820152601460248201527364732d6d6174682d6d756c2d6f766572666c6f7760601b604482015290519081900360640190fd5b80820182811015610f31576040805162461bcd60e51b815260206004820152601460248201527364732d6d6174682d6164642d6f766572666c6f7760601b604482015290519081900360640190fd5b600080600061379085856133e2565b5090506000806137a1888888612892565b6001600160a01b0316630902f1ac6040518163ffffffff1660e01b815260040160606040518083038186803b1580156137d957600080fd5b505afa1580156137ed573d6000803e3d6000fd5b505050506040513d606081101561380357600080fd5b5080516020909101516dffffffffffffffffffffffffffff91821693501690506001600160a01b038781169084161461383d578082613840565b81815b90999098509650505050505050565b600080841161388f5760405162461bcd60e51b81526004018080602001828103825260338152602001806139d36033913960400191505060405180910390fd5b60008311801561389f5750600082115b6138da5760405162461bcd60e51b8152600401808060200182810382526030815260200180613b786030913960400191505060405180910390fd5b60006138e685846136cf565b905060006138f48587613732565b90508082816138ff57fe5b049695505050505050565b80820382811115610f31576040805162461bcd60e51b815260206004820152601560248201527464732d6d6174682d7375622d756e646572666c6f7760581b604482015290519081900360640190fdfe57696e7465727377617056324c6962726172793a204944454e544943414c5f41444452455353455357696e7465727377617056324c6962726172793a205a45524f5f4144445245535357696e746572737761705632526f757465723a20535741505f4c454e4754485f49535f4c494d495445445f544f5f3257696e7465727377617056324c6962726172793a20494e53554646494349454e545f494e5055545f414d4f554e545f4652454557696e746572737761705632526f757465723a2045585049524544000000000057696e746572737761705632526f757465723a20494e53554646494349454e545f4f55545055545f414d4f554e5457696e7465727377617056324c6962726172793a20494e53554646494349454e545f494e5055545f414d4f554e5457696e7465727377617056324c6962726172793a20494e53554646494349454e545f414d4f554e5457696e7465727377617056324c6962726172793a20494e56414c49445f5041544857696e746572737761705632526f757465723a204558434553534956455f494e5055545f414d4f554e5457696e7465727377617056324c6962726172793a20494e53554646494349454e545f4c495155494449545957696e746572737761705632526f757465723a20494e53554646494349454e545f425f414d4f554e5457696e7465727377617056324c6962726172793a20494e53554646494349454e545f4f55545055545f414d4f554e5457696e7465727377617056324c6962726172793a20494e53554646494349454e545f4c49515549444954595f4652454557696e746572737761705632526f757465723a20494e53554646494349454e545f415f414d4f554e545472616e7366657248656c7065723a205452414e534645525f46524f4d5f4641494c45445472616e7366657248656c7065723a205748545f5452414e534645525f4641494c454457696e746572737761705632526f757465723a20494e56414c49445f50415448a264697066735822122078eecab850ff8807ed928516226416602994febbc1ade561f1ad7c33cd3c874264736f6c63430007050033",
  "immutableReferences": {},
  "source": "// SPDX-License-Identifier: GPL-3.0-or-later\n\npragma solidity ^0.7.0;\n\nimport './interfaces/IWinterswapV2Factory.sol';\nimport './libraries/TransferHelper.sol';\n\nimport './interfaces/IWinterswapV2Router02.sol';\nimport './libraries/WinterswapV2Library.sol';\nimport './libraries/SafeMathSwap.sol';\nimport '../openzeppelin/token/HRC20/IHRC20.sol';\nimport '../wht/IWHT.sol';\nimport '../wns/IWNS.sol';\nimport \"../snowball/Snowball.sol\";\nimport \"../snowman/Snowman.sol\";\n\ncontract WinterswapV2Router02 is IWinterswapV2Router01 {\n    using SafeMathSwap for uint;\n\n\n    uint256 constant PERMILLE = 1000;\n    uint256 constant SWAP_FEE_PERMILLE = 5;\n    uint256 constant SWAP_FEE_TO_GOV_PERMILLE = 2;\n\n    //except for WHT, due to 2300 :)\n    address public WHT;\n    address public override factory;\n    address public snowball;\n    address public snowman;\n\n    IWNS wns;\n\n    function ETH() override public view returns (address){\n        return WHT;\n    }\n\n    modifier ensure(uint deadline) {\n        require(deadline >= block.timestamp, 'WinterswapV2Router: EXPIRED');\n        _;\n    }\n\n    constructor(IWNS _wns) {\n        wns = _wns;\n    }\n\n    function init() external{\n        WHT = wns.wht();\n        factory = wns.swap_factory();\n        snowball = wns.snowball();\n        snowman = wns.snowman();\n    }\n\n    receive() external payable {\n        assert(msg.sender == WHT); // only accept WHT via fallback from the WHT contract\n    }\n\n    // **** ADD LIQUIDITY ****\n    function _addLiquidity(\n        address tokenA,\n        address tokenB,\n        uint amountADesired,\n        uint amountBDesired,\n        uint amountAMin,\n        uint amountBMin\n    ) internal virtual returns (uint amountA, uint amountB) {\n        // create the pair if it doesn't exist yet\n        if (IWinterswapV2Factory(factory).getPair(tokenA, tokenB) == address(0)) {\n            IWinterswapV2Factory(factory).createPair(tokenA, tokenB);\n        }\n\n        (uint reserveA, uint reserveB) = WinterswapV2Library.getReserves(factory, tokenA, tokenB);\n        if (reserveA == 0 && reserveB == 0) {\n            (amountA, amountB) = (amountADesired, amountBDesired);\n        } else {\n            uint amountBOptimal = WinterswapV2Library.quote(amountADesired, reserveA, reserveB);\n            if (amountBOptimal <= amountBDesired) {\n                require(amountBOptimal >= amountBMin, 'WinterswapV2Router: INSUFFICIENT_B_AMOUNT');\n                (amountA, amountB) = (amountADesired, amountBOptimal);\n            } else {\n                uint amountAOptimal = WinterswapV2Library.quote(amountBDesired, reserveB, reserveA);\n                assert(amountAOptimal <= amountADesired);\n                require(amountAOptimal >= amountAMin, 'WinterswapV2Router: INSUFFICIENT_A_AMOUNT');\n                (amountA, amountB) = (amountAOptimal, amountBDesired);\n            }\n        }\n    }\n    function addLiquidity(\n        address tokenA,\n        address tokenB,\n        uint amountADesired,\n        uint amountBDesired,\n        uint amountAMin,\n        uint amountBMin,\n        address to,\n        uint deadline\n    ) external virtual override ensure(deadline) returns (uint amountA, uint amountB, uint liquidity) {\n        (amountA, amountB) = _addLiquidity(tokenA, tokenB, amountADesired, amountBDesired, amountAMin, amountBMin);\n        address pair = WinterswapV2Library.pairFor(factory, tokenA, tokenB);\n        TransferHelper.safeTransferFrom(tokenA, msg.sender, pair, amountA);\n        TransferHelper.safeTransferFrom(tokenB, msg.sender, pair, amountB);\n        liquidity = IWinterswapV2Pair(pair).mint(to);\n    }\n    function addLiquidityETH(\n        address token,\n        uint amountTokenDesired,\n        uint amountTokenMin,\n        uint amountETHMin,\n        address to,\n        uint deadline\n    ) external virtual override payable ensure(deadline) returns (uint amountToken, uint amountETH, uint liquidity) {\n        (amountToken, amountETH) = _addLiquidity(\n            token,\n            WHT,\n            amountTokenDesired,\n            msg.value,\n            amountTokenMin,\n            amountETHMin\n        );\n        address pair = WinterswapV2Library.pairFor(factory, token, WHT);\n        TransferHelper.safeTransferFrom(token, msg.sender, pair, amountToken);\n        IWHT(WHT).deposit{value: amountETH}();\n        assert(IWHT(WHT).transfer(pair, amountETH));\n        liquidity = IWinterswapV2Pair(pair).mint(to);\n        // refund dust eth, if any\n        if (msg.value > amountETH) TransferHelper.safeTransferWHT(msg.sender, msg.value - amountETH);\n    }\n\n    // **** REMOVE LIQUIDITY ****\n    function removeLiquidity(\n        address tokenA,\n        address tokenB,\n        uint liquidity,\n        uint amountAMin,\n        uint amountBMin,\n        address to,\n        uint deadline\n    ) public virtual override ensure(deadline) returns (uint amountA, uint amountB) {\n        address pair = WinterswapV2Library.pairFor(factory, tokenA, tokenB);\n        IWinterswapV2Pair(pair).transferFrom(msg.sender, pair, liquidity); // send liquidity to pair\n        (uint amount0, uint amount1) = IWinterswapV2Pair(pair).burn(to);\n        (address token0,) = WinterswapV2Library.sortTokens(tokenA, tokenB);\n        (amountA, amountB) = tokenA == token0 ? (amount0, amount1) : (amount1, amount0);\n        require(amountA >= amountAMin, 'WinterswapV2Router: INSUFFICIENT_A_AMOUNT');\n        require(amountB >= amountBMin, 'WinterswapV2Router: INSUFFICIENT_B_AMOUNT');\n    }\n    function removeLiquidityETH(\n        address token,\n        uint liquidity,\n        uint amountTokenMin,\n        uint amountETHMin,\n        address to,\n        uint deadline\n    ) public virtual override ensure(deadline) returns (uint amountToken, uint amountETH) {\n        (amountToken, amountETH) = removeLiquidity(\n            token,\n            WHT,\n            liquidity,\n            amountTokenMin,\n            amountETHMin,\n            address(this),\n            deadline\n        );\n        TransferHelper.safeTransfer(token, to, amountToken);\n        IWHT(WHT).withdraw(amountETH);\n        TransferHelper.safeTransferWHT(to, amountETH);\n    }\n    function removeLiquidityWithPermit(\n        address tokenA,\n        address tokenB,\n        uint liquidity,\n        uint amountAMin,\n        uint amountBMin,\n        address to,\n        uint deadline,\n        bool approveMax, uint8 v, bytes32 r, bytes32 s\n    ) external virtual override returns (uint amountA, uint amountB) {\n        address pair = WinterswapV2Library.pairFor(factory, tokenA, tokenB);\n        uint value = approveMax ? uint(-1) : liquidity;\n        IWinterswapV2Pair(pair).permit(msg.sender, address(this), value, deadline, v, r, s);\n        (amountA, amountB) = removeLiquidity(tokenA, tokenB, liquidity, amountAMin, amountBMin, to, deadline);\n    }\n    function removeLiquidityETHWithPermit(\n        address token,\n        uint liquidity,\n        uint amountTokenMin,\n        uint amountETHMin,\n        address to,\n        uint deadline,\n        bool approveMax, uint8 v, bytes32 r, bytes32 s\n    ) external virtual override returns (uint amountToken, uint amountETH) {\n        address pair = WinterswapV2Library.pairFor(factory, token, WHT);\n        uint value = approveMax ? uint(-1) : liquidity;\n        IWinterswapV2Pair(pair).permit(msg.sender, address(this), value, deadline, v, r, s);\n        (amountToken, amountETH) = removeLiquidityETH(token, liquidity, amountTokenMin, amountETHMin, to, deadline);\n    }\n\n    // **** REMOVE LIQUIDITY (supporting fee-on-transfer tokens) ****\n//    function removeLiquidityETHSupportingFeeOnTransferTokens(\n//        address token,\n//        uint liquidity,\n//        uint amountTokenMin,\n//        uint amountETHMin,\n//        address to,\n//        uint deadline\n//    ) public virtual override ensure(deadline) returns (uint amountETH) {\n//        (, amountETH) = removeLiquidity(\n//            token,\n//            WHT,\n//            liquidity,\n//            amountTokenMin,\n//            amountETHMin,\n//            address(this),\n//            deadline\n//        );\n//        TransferHelper.safeTransfer(token, to, IHRC20(token).balanceOf(address(this)));\n//        IWHT(WHT).withdraw(amountETH);\n//        TransferHelper.safeTransferWHT(to, amountETH);\n//    }\n//    function removeLiquidityETHWithPermitSupportingFeeOnTransferTokens(\n//        address token,\n//        uint liquidity,\n//        uint amountTokenMin,\n//        uint amountETHMin,\n//        address to,\n//        uint deadline,\n//        bool approveMax, uint8 v, bytes32 r, bytes32 s\n//    ) external virtual override returns (uint amountETH) {\n//        address pair = WinterswapV2Library.pairFor(factory, token, WHT);\n//        uint value = approveMax ? uint(-1) : liquidity;\n//        IWinterswapV2Pair(pair).permit(msg.sender, address(this), value, deadline, v, r, s);\n//        amountETH = removeLiquidityETHSupportingFeeOnTransferTokens(\n//            token, liquidity, amountTokenMin, amountETHMin, to, deadline\n//        );\n//    }\n\n    // **** SWAP ****\n    // requires the initial amount to have already been sent to the first pair\n    function _swap(uint[] memory amounts, address[] memory path, address _to) internal virtual {\n        for (uint i; i < path.length - 1; i++) {\n            (address input, address output) = (path[i], path[i + 1]);\n            (address token0,) = WinterswapV2Library.sortTokens(input, output);\n            uint amountOut = amounts[i + 1];\n            (uint amount0Out, uint amount1Out) = input == token0 ? (uint(0), amountOut) : (amountOut, uint(0));\n            address to = i < path.length - 2 ? WinterswapV2Library.pairFor(factory, output, path[i + 2]) : _to;\n            IWinterswapV2Pair(WinterswapV2Library.pairFor(factory, input, output)).swap(\n                amount0Out, amount1Out, to, new bytes(0)\n            );\n        }\n    }\n    // transfer the 2/1000 of the 5/1000 from the pair to the snow factory\n    // limited to Router\n    function _swapFee(uint[] memory amounts, address[] memory path) internal virtual {\n        for (uint i; i < path.length - 1; i++) {\n            uint fee = amounts[i].mul(SWAP_FEE_TO_GOV_PERMILLE) / PERMILLE;\n\n            if(path[i] == snowball){\n                //transfer snowball to snowman_factory\n                address pair = WinterswapV2Library.pairFor(factory, path[i], path[i + 1]);\n                IWinterswapV2Pair(pair).transfer_tx_fee(fee,path[i],snowman);\n            }else{\n                //swap the token to snowball and then transfer to snowman_factory\n                //maybe the pair is XXXtoken<>snowball, we still need get it back and then swap_free it again\n                //because get it back will update the K\n                address pair = WinterswapV2Library.pairFor(factory, path[i], path[i + 1]);\n                //token,from,to,value\n                //this will update reserves and the K\n                IWinterswapV2Pair(pair).transfer_tx_fee(fee,path[i],address(this));\n\n                //now swap_free into snowball\n                (address input, address output) = (path[i], snowball);\n\n                IWinterswapV2Pair pair_free = IWinterswapV2Pair(IWinterswapV2Factory(factory).getPair(input, output));\n                if (address(pair_free) == address(0)) {\n                    return;\n                }\n\n                (uint reserveIn, uint reserveOut) = WinterswapV2Library.getReserves(factory, input, output);\n                uint amountOut = WinterswapV2Library.getAmountOutFree(fee, reserveIn, reserveOut);\n                (address token0,) = WinterswapV2Library.sortTokens(input, output);\n                (uint amount0Out, uint amount1Out) = input == token0 ? (uint(0), amountOut) : (amountOut, uint(0));\n                TransferHelper.safeTransferFrom(\n                    input, address(this), address(pair_free), fee\n                );\n                pair_free.swap_free(\n                    amount0Out, amount1Out, snowman, new bytes(0)\n                );\n            }\n\n        }\n    }\n    function swapExactTokensForTokens(\n        uint amountIn,\n        uint amountOutMin,\n        address[] calldata path,\n        address to,\n        uint deadline\n    ) external virtual override ensure(deadline) returns (uint[] memory amounts) {\n        require(path.length == 2, \"WinterswapV2Router: SWAP_LENGTH_IS_LIMITED_TO_2\");\n        amounts = WinterswapV2Library.getAmountsOut(factory, amountIn, path);\n        require(amounts[amounts.length - 1] >= amountOutMin, 'WinterswapV2Router: INSUFFICIENT_OUTPUT_AMOUNT');\n        TransferHelper.safeTransferFrom(\n            path[0], msg.sender, WinterswapV2Library.pairFor(factory, path[0], path[1]), amounts[0]\n        );\n        _swap(amounts, path, to);\n        _swapFee(amounts, path);\n    }\n    function swapTokensForExactTokens(\n        uint amountOut,\n        uint amountInMax,\n        address[] calldata path,\n        address to,\n        uint deadline\n    ) external virtual override ensure(deadline) returns (uint[] memory amounts) {\n        require(path.length == 2, \"WinterswapV2Router: SWAP_LENGTH_IS_LIMITED_TO_2\");\n        amounts = WinterswapV2Library.getAmountsIn(factory, amountOut, path);\n        require(amounts[0] <= amountInMax, 'WinterswapV2Router: EXCESSIVE_INPUT_AMOUNT');\n        TransferHelper.safeTransferFrom(\n            path[0], msg.sender, WinterswapV2Library.pairFor(factory, path[0], path[1]), amounts[0]\n        );\n        _swap(amounts, path, to);\n        _swapFee(amounts, path);\n    }\n    function swapExactETHForTokens(uint amountOutMin, address[] calldata path, address to, uint deadline)\n        external\n        virtual\n        override\n        payable\n        ensure(deadline)\n        returns (uint[] memory amounts)\n    {\n        require(path.length == 2, \"WinterswapV2Router: SWAP_LENGTH_IS_LIMITED_TO_2\");\n        require(path[0] == WHT, 'WinterswapV2Router: INVALID_PATH');\n        amounts = WinterswapV2Library.getAmountsOut(factory, msg.value, path);\n        require(amounts[amounts.length - 1] >= amountOutMin, 'WinterswapV2Router: INSUFFICIENT_OUTPUT_AMOUNT');\n        IWHT(WHT).deposit{value: amounts[0]}();\n        assert(IWHT(WHT).transfer(WinterswapV2Library.pairFor(factory, path[0], path[1]), amounts[0]));\n        _swap(amounts, path, to);\n        _swapFee(amounts, path);\n    }\n    function swapTokensForExactETH(uint amountOut, uint amountInMax, address[] calldata path, address to, uint deadline)\n        external\n        virtual\n        override\n        ensure(deadline)\n        returns (uint[] memory amounts)\n    {\n        require(path.length == 2, \"WinterswapV2Router: SWAP_LENGTH_IS_LIMITED_TO_2\");\n        require(path[path.length - 1] == WHT, 'WinterswapV2Router: INVALID_PATH');\n        amounts = WinterswapV2Library.getAmountsIn(factory, amountOut, path);\n        require(amounts[0] <= amountInMax, 'WinterswapV2Router: EXCESSIVE_INPUT_AMOUNT');\n        TransferHelper.safeTransferFrom(\n            path[0], msg.sender, WinterswapV2Library.pairFor(factory, path[0], path[1]), amounts[0]\n        );\n        _swap(amounts, path, address(this));\n        IWHT(WHT).withdraw(amounts[amounts.length - 1]);\n        TransferHelper.safeTransferWHT(to, amounts[amounts.length - 1]);\n        _swapFee(amounts, path);\n    }\n    function swapExactTokensForETH(uint amountIn, uint amountOutMin, address[] calldata path, address to, uint deadline)\n        external\n        virtual\n        override\n        ensure(deadline)\n        returns (uint[] memory amounts)\n    {\n        require(path.length == 2, \"WinterswapV2Router: SWAP_LENGTH_IS_LIMITED_TO_2\");\n        require(path[path.length - 1] == WHT, 'WinterswapV2Router: INVALID_PATH');\n        amounts = WinterswapV2Library.getAmountsOut(factory, amountIn, path);\n        require(amounts[amounts.length - 1] >= amountOutMin, 'WinterswapV2Router: INSUFFICIENT_OUTPUT_AMOUNT');\n        TransferHelper.safeTransferFrom(\n            path[0], msg.sender, WinterswapV2Library.pairFor(factory, path[0], path[1]), amounts[0]\n        );\n        _swap(amounts, path, address(this));\n        IWHT(WHT).withdraw(amounts[amounts.length - 1]);\n        TransferHelper.safeTransferWHT(to, amounts[amounts.length - 1]);\n        _swapFee(amounts, path);\n    }\n    function swapETHForExactTokens(uint amountOut, address[] calldata path, address to, uint deadline)\n        external\n        virtual\n        override\n        payable\n        ensure(deadline)\n        returns (uint[] memory amounts)\n    {\n        require(path.length == 2, \"WinterswapV2Router: SWAP_LENGTH_IS_LIMITED_TO_2\");\n        require(path[0] == WHT, 'WinterswapV2Router: INVALID_PATH');\n        amounts = WinterswapV2Library.getAmountsIn(factory, amountOut, path);\n        require(amounts[0] <= msg.value, 'WinterswapV2Router: EXCESSIVE_INPUT_AMOUNT');\n        IWHT(WHT).deposit{value: amounts[0]}();\n        assert(IWHT(WHT).transfer(WinterswapV2Library.pairFor(factory, path[0], path[1]), amounts[0]));\n        _swap(amounts, path, to);\n        // refund dust eth, if any\n        if (msg.value > amounts[0]) TransferHelper.safeTransferWHT(msg.sender, msg.value - amounts[0]);\n        _swapFee(amounts, path);\n    }\n\n    // **** SWAP (supporting fee-on-transfer tokens) ****\n    // requires the initial amount to have already been sent to the first pair\n//    function _swapSupportingFeeOnTransferTokens(address[] memory path, address _to) internal virtual {\n//        for (uint i; i < path.length - 1; i++) {\n//            (address input, address output) = (path[i], path[i + 1]);\n//            (address token0,) = WinterswapV2Library.sortTokens(input, output);\n//            IWinterswapV2Pair pair = IWinterswapV2Pair(WinterswapV2Library.pairFor(factory, input, output));\n//            uint amountInput;\n//            uint amountOutput;\n//            { // scope to avoid stack too deep errors\n//            (uint reserve0, uint reserve1,) = pair.getReserves();\n//            (uint reserveInput, uint reserveOutput) = input == token0 ? (reserve0, reserve1) : (reserve1, reserve0);\n//            amountInput = IHRC20(input).balanceOf(address(pair)).sub(reserveInput);\n//            amountOutput = WinterswapV2Library.getAmountOut(amountInput, reserveInput, reserveOutput);\n//            }\n//            (uint amount0Out, uint amount1Out) = input == token0 ? (uint(0), amountOutput) : (amountOutput, uint(0));\n//            address to = i < path.length - 2 ? WinterswapV2Library.pairFor(factory, output, path[i + 2]) : _to;\n//            pair.swap(amount0Out, amount1Out, to, new bytes(0));\n//        }\n//    }\n//    function swapExactTokensForTokensSupportingFeeOnTransferTokens(\n//        uint amountIn,\n//        uint amountOutMin,\n//        address[] calldata path,\n//        address to,\n//        uint deadline\n//    ) external virtual override ensure(deadline) {\n//        TransferHelper.safeTransferFrom(\n//            path[0], msg.sender, WinterswapV2Library.pairFor(factory, path[0], path[1]), amountIn\n//        );\n//        uint balanceBefore = IHRC20(path[path.length - 1]).balanceOf(to);\n//        _swapSupportingFeeOnTransferTokens(path, to);\n//        require(\n//            IHRC20(path[path.length - 1]).balanceOf(to).sub(balanceBefore) >= amountOutMin,\n//            'WinterswapV2Router: INSUFFICIENT_OUTPUT_AMOUNT'\n//        );\n//\n//    }\n//    function swapExactETHForTokensSupportingFeeOnTransferTokens(\n//        uint amountOutMin,\n//        address[] calldata path,\n//        address to,\n//        uint deadline\n//    )\n//        external\n//        virtual\n//        override\n//        payable\n//        ensure(deadline)\n//    {\n//        require(path[0] == WHT, 'WinterswapV2Router: INVALID_PATH');\n//        uint amountIn = msg.value;\n//        IWHT(WHT).deposit{value: amountIn}();\n//        assert(IWHT(WHT).transfer(WinterswapV2Library.pairFor(factory, path[0], path[1]), amountIn));\n//        uint balanceBefore = IHRC20(path[path.length - 1]).balanceOf(to);\n//        _swapSupportingFeeOnTransferTokens(path, to);\n//        require(\n//            IHRC20(path[path.length - 1]).balanceOf(to).sub(balanceBefore) >= amountOutMin,\n//            'WinterswapV2Router: INSUFFICIENT_OUTPUT_AMOUNT'\n//        );\n//    }\n//    function swapExactTokensForETHSupportingFeeOnTransferTokens(\n//        uint amountIn,\n//        uint amountOutMin,\n//        address[] calldata path,\n//        address to,\n//        uint deadline\n//    )\n//        external\n//        virtual\n//        override\n//        ensure(deadline)\n//    {\n//        require(path[path.length - 1] == WHT, 'WinterswapV2Router: INVALID_PATH');\n//        TransferHelper.safeTransferFrom(\n//            path[0], msg.sender, WinterswapV2Library.pairFor(factory, path[0], path[1]), amountIn\n//        );\n//        _swapSupportingFeeOnTransferTokens(path, address(this));\n//        uint amountOut = IHRC20(WHT).balanceOf(address(this));\n//        require(amountOut >= amountOutMin, 'WinterswapV2Router: INSUFFICIENT_OUTPUT_AMOUNT');\n//        IWHT(WHT).withdraw(amountOut);\n//        TransferHelper.safeTransferWHT(to, amountOut);\n//    }\n\n    // **** LIBRARY FUNCTIONS ****\n    function quote(uint amountA, uint reserveA, uint reserveB) public pure virtual override returns (uint amountB) {\n        return WinterswapV2Library.quote(amountA, reserveA, reserveB);\n    }\n\n    function getAmountOut(uint amountIn, uint reserveIn, uint reserveOut)\n        public\n        pure\n        virtual\n        override\n        returns (uint amountOut)\n    {\n        return WinterswapV2Library.getAmountOut(amountIn, reserveIn, reserveOut);\n    }\n\n    function getAmountIn(uint amountOut, uint reserveIn, uint reserveOut)\n        public\n        pure\n        virtual\n        override\n        returns (uint amountIn)\n    {\n        return WinterswapV2Library.getAmountIn(amountOut, reserveIn, reserveOut);\n    }\n\n    function getAmountsOut(uint amountIn, address[] memory path)\n        public\n        view\n        virtual\n        override\n        returns (uint[] memory amounts)\n    {\n        return WinterswapV2Library.getAmountsOut(factory, amountIn, path);\n    }\n\n    function getAmountsIn(uint amountOut, address[] memory path)\n        public\n        view\n        virtual\n        override\n        returns (uint[] memory amounts)\n    {\n        return WinterswapV2Library.getAmountsIn(factory, amountOut, path);\n    }\n\n    function pairFor(address tokenA, address tokenB) external view override returns (address pair){\n        return WinterswapV2Library.pairFor(factory, tokenA, tokenB);\n    }\n\n    function pairCodeHash() external pure returns (bytes32){\n        return WinterswapV2Library.pairCodeHash();\n    }\n}\n",
  "sourcePath": "/home/lycrus/WebstormProjects/WinterSwap/contracts/swap/WinterswapV2Router02.sol",
  "compiler": {
    "name": "solc",
    "version": "0.7.5+commit.eb77ed08.Emscripten.clang"
  },
  "schemaVersion": "3.3.2",
  "updatedAt": "2020-12-15T12:04:12.558Z",
  "networkType": "ethereum",
  "devdoc": {
    "kind": "dev",
    "methods": {},
    "version": 1
  },
  "userdoc": {
    "kind": "user",
    "methods": {},
    "version": 1
  }
}