{
  "contractName": "WinterswapV2Router02",
  "abi": [
    {
      "inputs": [
        {
          "internalType": "contract IWNS",
          "name": "_wns",
          "type": "address"
        }
      ],
      "stateMutability": "nonpayable",
      "type": "constructor"
    },
    {
      "inputs": [],
      "name": "WHT",
      "outputs": [
        {
          "internalType": "address",
          "name": "",
          "type": "address"
        }
      ],
      "stateMutability": "view",
      "type": "function",
      "constant": true
    },
    {
      "inputs": [],
      "name": "factory",
      "outputs": [
        {
          "internalType": "address",
          "name": "",
          "type": "address"
        }
      ],
      "stateMutability": "view",
      "type": "function",
      "constant": true
    },
    {
      "inputs": [],
      "name": "snowball",
      "outputs": [
        {
          "internalType": "address",
          "name": "",
          "type": "address"
        }
      ],
      "stateMutability": "view",
      "type": "function",
      "constant": true
    },
    {
      "inputs": [],
      "name": "snowman",
      "outputs": [
        {
          "internalType": "address",
          "name": "",
          "type": "address"
        }
      ],
      "stateMutability": "view",
      "type": "function",
      "constant": true
    },
    {
      "stateMutability": "payable",
      "type": "receive",
      "payable": true
    },
    {
      "inputs": [],
      "name": "ETH",
      "outputs": [
        {
          "internalType": "address",
          "name": "",
          "type": "address"
        }
      ],
      "stateMutability": "view",
      "type": "function",
      "constant": true
    },
    {
      "inputs": [],
      "name": "init",
      "outputs": [],
      "stateMutability": "nonpayable",
      "type": "function"
    },
    {
      "inputs": [
        {
          "internalType": "address",
          "name": "tokenA",
          "type": "address"
        },
        {
          "internalType": "address",
          "name": "tokenB",
          "type": "address"
        },
        {
          "internalType": "uint256",
          "name": "amountADesired",
          "type": "uint256"
        },
        {
          "internalType": "uint256",
          "name": "amountBDesired",
          "type": "uint256"
        },
        {
          "internalType": "uint256",
          "name": "amountAMin",
          "type": "uint256"
        },
        {
          "internalType": "uint256",
          "name": "amountBMin",
          "type": "uint256"
        },
        {
          "internalType": "address",
          "name": "to",
          "type": "address"
        },
        {
          "internalType": "uint256",
          "name": "deadline",
          "type": "uint256"
        }
      ],
      "name": "addLiquidity",
      "outputs": [
        {
          "internalType": "uint256",
          "name": "amountA",
          "type": "uint256"
        },
        {
          "internalType": "uint256",
          "name": "amountB",
          "type": "uint256"
        },
        {
          "internalType": "uint256",
          "name": "liquidity",
          "type": "uint256"
        }
      ],
      "stateMutability": "nonpayable",
      "type": "function"
    },
    {
      "inputs": [
        {
          "internalType": "address",
          "name": "token",
          "type": "address"
        },
        {
          "internalType": "uint256",
          "name": "amountTokenDesired",
          "type": "uint256"
        },
        {
          "internalType": "uint256",
          "name": "amountTokenMin",
          "type": "uint256"
        },
        {
          "internalType": "uint256",
          "name": "amountETHMin",
          "type": "uint256"
        },
        {
          "internalType": "address",
          "name": "to",
          "type": "address"
        },
        {
          "internalType": "uint256",
          "name": "deadline",
          "type": "uint256"
        }
      ],
      "name": "addLiquidityETH",
      "outputs": [
        {
          "internalType": "uint256",
          "name": "amountToken",
          "type": "uint256"
        },
        {
          "internalType": "uint256",
          "name": "amountETH",
          "type": "uint256"
        },
        {
          "internalType": "uint256",
          "name": "liquidity",
          "type": "uint256"
        }
      ],
      "stateMutability": "payable",
      "type": "function",
      "payable": true
    },
    {
      "inputs": [
        {
          "internalType": "address",
          "name": "tokenA",
          "type": "address"
        },
        {
          "internalType": "address",
          "name": "tokenB",
          "type": "address"
        },
        {
          "internalType": "uint256",
          "name": "liquidity",
          "type": "uint256"
        },
        {
          "internalType": "uint256",
          "name": "amountAMin",
          "type": "uint256"
        },
        {
          "internalType": "uint256",
          "name": "amountBMin",
          "type": "uint256"
        },
        {
          "internalType": "address",
          "name": "to",
          "type": "address"
        },
        {
          "internalType": "uint256",
          "name": "deadline",
          "type": "uint256"
        }
      ],
      "name": "removeLiquidity",
      "outputs": [
        {
          "internalType": "uint256",
          "name": "amountA",
          "type": "uint256"
        },
        {
          "internalType": "uint256",
          "name": "amountB",
          "type": "uint256"
        }
      ],
      "stateMutability": "nonpayable",
      "type": "function"
    },
    {
      "inputs": [
        {
          "internalType": "address",
          "name": "token",
          "type": "address"
        },
        {
          "internalType": "uint256",
          "name": "liquidity",
          "type": "uint256"
        },
        {
          "internalType": "uint256",
          "name": "amountTokenMin",
          "type": "uint256"
        },
        {
          "internalType": "uint256",
          "name": "amountETHMin",
          "type": "uint256"
        },
        {
          "internalType": "address",
          "name": "to",
          "type": "address"
        },
        {
          "internalType": "uint256",
          "name": "deadline",
          "type": "uint256"
        }
      ],
      "name": "removeLiquidityETH",
      "outputs": [
        {
          "internalType": "uint256",
          "name": "amountToken",
          "type": "uint256"
        },
        {
          "internalType": "uint256",
          "name": "amountETH",
          "type": "uint256"
        }
      ],
      "stateMutability": "nonpayable",
      "type": "function"
    },
    {
      "inputs": [
        {
          "internalType": "address",
          "name": "tokenA",
          "type": "address"
        },
        {
          "internalType": "address",
          "name": "tokenB",
          "type": "address"
        },
        {
          "internalType": "uint256",
          "name": "liquidity",
          "type": "uint256"
        },
        {
          "internalType": "uint256",
          "name": "amountAMin",
          "type": "uint256"
        },
        {
          "internalType": "uint256",
          "name": "amountBMin",
          "type": "uint256"
        },
        {
          "internalType": "address",
          "name": "to",
          "type": "address"
        },
        {
          "internalType": "uint256",
          "name": "deadline",
          "type": "uint256"
        },
        {
          "internalType": "bool",
          "name": "approveMax",
          "type": "bool"
        },
        {
          "internalType": "uint8",
          "name": "v",
          "type": "uint8"
        },
        {
          "internalType": "bytes32",
          "name": "r",
          "type": "bytes32"
        },
        {
          "internalType": "bytes32",
          "name": "s",
          "type": "bytes32"
        }
      ],
      "name": "removeLiquidityWithPermit",
      "outputs": [
        {
          "internalType": "uint256",
          "name": "amountA",
          "type": "uint256"
        },
        {
          "internalType": "uint256",
          "name": "amountB",
          "type": "uint256"
        }
      ],
      "stateMutability": "nonpayable",
      "type": "function"
    },
    {
      "inputs": [
        {
          "internalType": "address",
          "name": "token",
          "type": "address"
        },
        {
          "internalType": "uint256",
          "name": "liquidity",
          "type": "uint256"
        },
        {
          "internalType": "uint256",
          "name": "amountTokenMin",
          "type": "uint256"
        },
        {
          "internalType": "uint256",
          "name": "amountETHMin",
          "type": "uint256"
        },
        {
          "internalType": "address",
          "name": "to",
          "type": "address"
        },
        {
          "internalType": "uint256",
          "name": "deadline",
          "type": "uint256"
        },
        {
          "internalType": "bool",
          "name": "approveMax",
          "type": "bool"
        },
        {
          "internalType": "uint8",
          "name": "v",
          "type": "uint8"
        },
        {
          "internalType": "bytes32",
          "name": "r",
          "type": "bytes32"
        },
        {
          "internalType": "bytes32",
          "name": "s",
          "type": "bytes32"
        }
      ],
      "name": "removeLiquidityETHWithPermit",
      "outputs": [
        {
          "internalType": "uint256",
          "name": "amountToken",
          "type": "uint256"
        },
        {
          "internalType": "uint256",
          "name": "amountETH",
          "type": "uint256"
        }
      ],
      "stateMutability": "nonpayable",
      "type": "function"
    },
    {
      "inputs": [
        {
          "internalType": "uint256",
          "name": "amountIn",
          "type": "uint256"
        },
        {
          "internalType": "uint256",
          "name": "amountOutMin",
          "type": "uint256"
        },
        {
          "internalType": "address[]",
          "name": "path",
          "type": "address[]"
        },
        {
          "internalType": "address",
          "name": "to",
          "type": "address"
        },
        {
          "internalType": "uint256",
          "name": "deadline",
          "type": "uint256"
        }
      ],
      "name": "swapExactTokensForTokens",
      "outputs": [
        {
          "internalType": "uint256[]",
          "name": "amounts",
          "type": "uint256[]"
        }
      ],
      "stateMutability": "nonpayable",
      "type": "function"
    },
    {
      "inputs": [
        {
          "internalType": "uint256",
          "name": "amountOut",
          "type": "uint256"
        },
        {
          "internalType": "uint256",
          "name": "amountInMax",
          "type": "uint256"
        },
        {
          "internalType": "address[]",
          "name": "path",
          "type": "address[]"
        },
        {
          "internalType": "address",
          "name": "to",
          "type": "address"
        },
        {
          "internalType": "uint256",
          "name": "deadline",
          "type": "uint256"
        }
      ],
      "name": "swapTokensForExactTokens",
      "outputs": [
        {
          "internalType": "uint256[]",
          "name": "amounts",
          "type": "uint256[]"
        }
      ],
      "stateMutability": "nonpayable",
      "type": "function"
    },
    {
      "inputs": [
        {
          "internalType": "uint256",
          "name": "amountOutMin",
          "type": "uint256"
        },
        {
          "internalType": "address[]",
          "name": "path",
          "type": "address[]"
        },
        {
          "internalType": "address",
          "name": "to",
          "type": "address"
        },
        {
          "internalType": "uint256",
          "name": "deadline",
          "type": "uint256"
        }
      ],
      "name": "swapExactETHForTokens",
      "outputs": [
        {
          "internalType": "uint256[]",
          "name": "amounts",
          "type": "uint256[]"
        }
      ],
      "stateMutability": "payable",
      "type": "function",
      "payable": true
    },
    {
      "inputs": [
        {
          "internalType": "uint256",
          "name": "amountOut",
          "type": "uint256"
        },
        {
          "internalType": "uint256",
          "name": "amountInMax",
          "type": "uint256"
        },
        {
          "internalType": "address[]",
          "name": "path",
          "type": "address[]"
        },
        {
          "internalType": "address",
          "name": "to",
          "type": "address"
        },
        {
          "internalType": "uint256",
          "name": "deadline",
          "type": "uint256"
        }
      ],
      "name": "swapTokensForExactETH",
      "outputs": [
        {
          "internalType": "uint256[]",
          "name": "amounts",
          "type": "uint256[]"
        }
      ],
      "stateMutability": "nonpayable",
      "type": "function"
    },
    {
      "inputs": [
        {
          "internalType": "uint256",
          "name": "amountIn",
          "type": "uint256"
        },
        {
          "internalType": "uint256",
          "name": "amountOutMin",
          "type": "uint256"
        },
        {
          "internalType": "address[]",
          "name": "path",
          "type": "address[]"
        },
        {
          "internalType": "address",
          "name": "to",
          "type": "address"
        },
        {
          "internalType": "uint256",
          "name": "deadline",
          "type": "uint256"
        }
      ],
      "name": "swapExactTokensForETH",
      "outputs": [
        {
          "internalType": "uint256[]",
          "name": "amounts",
          "type": "uint256[]"
        }
      ],
      "stateMutability": "nonpayable",
      "type": "function"
    },
    {
      "inputs": [
        {
          "internalType": "uint256",
          "name": "amountOut",
          "type": "uint256"
        },
        {
          "internalType": "address[]",
          "name": "path",
          "type": "address[]"
        },
        {
          "internalType": "address",
          "name": "to",
          "type": "address"
        },
        {
          "internalType": "uint256",
          "name": "deadline",
          "type": "uint256"
        }
      ],
      "name": "swapETHForExactTokens",
      "outputs": [
        {
          "internalType": "uint256[]",
          "name": "amounts",
          "type": "uint256[]"
        }
      ],
      "stateMutability": "payable",
      "type": "function",
      "payable": true
    },
    {
      "inputs": [
        {
          "internalType": "uint256",
          "name": "amountA",
          "type": "uint256"
        },
        {
          "internalType": "uint256",
          "name": "reserveA",
          "type": "uint256"
        },
        {
          "internalType": "uint256",
          "name": "reserveB",
          "type": "uint256"
        }
      ],
      "name": "quote",
      "outputs": [
        {
          "internalType": "uint256",
          "name": "amountB",
          "type": "uint256"
        }
      ],
      "stateMutability": "pure",
      "type": "function",
      "constant": true
    },
    {
      "inputs": [
        {
          "internalType": "uint256",
          "name": "amountIn",
          "type": "uint256"
        },
        {
          "internalType": "uint256",
          "name": "reserveIn",
          "type": "uint256"
        },
        {
          "internalType": "uint256",
          "name": "reserveOut",
          "type": "uint256"
        }
      ],
      "name": "getAmountOut",
      "outputs": [
        {
          "internalType": "uint256",
          "name": "amountOut",
          "type": "uint256"
        }
      ],
      "stateMutability": "pure",
      "type": "function",
      "constant": true
    },
    {
      "inputs": [
        {
          "internalType": "uint256",
          "name": "amountOut",
          "type": "uint256"
        },
        {
          "internalType": "uint256",
          "name": "reserveIn",
          "type": "uint256"
        },
        {
          "internalType": "uint256",
          "name": "reserveOut",
          "type": "uint256"
        }
      ],
      "name": "getAmountIn",
      "outputs": [
        {
          "internalType": "uint256",
          "name": "amountIn",
          "type": "uint256"
        }
      ],
      "stateMutability": "pure",
      "type": "function",
      "constant": true
    },
    {
      "inputs": [
        {
          "internalType": "uint256",
          "name": "amountIn",
          "type": "uint256"
        },
        {
          "internalType": "address[]",
          "name": "path",
          "type": "address[]"
        }
      ],
      "name": "getAmountsOut",
      "outputs": [
        {
          "internalType": "uint256[]",
          "name": "amounts",
          "type": "uint256[]"
        }
      ],
      "stateMutability": "view",
      "type": "function",
      "constant": true
    },
    {
      "inputs": [
        {
          "internalType": "uint256",
          "name": "amountOut",
          "type": "uint256"
        },
        {
          "internalType": "address[]",
          "name": "path",
          "type": "address[]"
        }
      ],
      "name": "getAmountsIn",
      "outputs": [
        {
          "internalType": "uint256[]",
          "name": "amounts",
          "type": "uint256[]"
        }
      ],
      "stateMutability": "view",
      "type": "function",
      "constant": true
    },
    {
      "inputs": [
        {
          "internalType": "address",
          "name": "tokenA",
          "type": "address"
        },
        {
          "internalType": "address",
          "name": "tokenB",
          "type": "address"
        }
      ],
      "name": "pairFor",
      "outputs": [
        {
          "internalType": "address",
          "name": "pair",
          "type": "address"
        }
      ],
      "stateMutability": "view",
      "type": "function",
      "constant": true
    }
  ],
  "bytecode": "0x608060405234801561001057600080fd5b50604051613ac3380380613ac38339818101604052602081101561003357600080fd5b5051600480546001600160a01b0319166001600160a01b03909216919091179055613a60806100636000396000f3fe60806040526004361061014f5760003560e01c806385f8c259116100b6578063d06ca61f1161006f578063d06ca61f1461080b578063ded9382a146108c0578063e1c7392a14610933578063e8e3370014610948578063f305d719146109c8578063fb3bdb4114610a0e5761016a565b806385f8c2591461065c5780638803dbee1461069257806396ed28f914610728578063ad615dec14610763578063baa2abde14610799578063c45a0155146107f65761016a565b806338ed17391161010857806338ed17391461046d5780634a25d94a146105035780635cb48592146105995780636b9c1856146105ae5780637ff36ab5146105c35780638322fff2146106475761016a565b806302751cec1461016f578063054d50d4146101db57806318cbafe5146102235780631f00ca74146103095780632195995c146103be57806328f2642f1461043c5761016a565b3661016a576000546001600160a01b0316331461016857fe5b005b600080fd5b34801561017b57600080fd5b506101c2600480360360c081101561019257600080fd5b506001600160a01b0381358116916020810135916040820135916060810135916080820135169060a00135610a92565b6040805192835260208301919091528051918290030190f35b3480156101e757600080fd5b50610211600480360360608110156101fe57600080fd5b5080359060208101359060400135610b7b565b60408051918252519081900360200190f35b34801561022f57600080fd5b506102b9600480360360a081101561024657600080fd5b813591602081013591810190606081016040820135600160201b81111561026c57600080fd5b82018360208201111561027e57600080fd5b803590602001918460208302840111600160201b8311171561029f57600080fd5b91935091506001600160a01b038135169060200135610b90565b60408051602080825283518183015283519192839290830191858101910280838360005b838110156102f55781810151838201526020016102dd565b505050509050019250505060405180910390f35b34801561031557600080fd5b506102b96004803603604081101561032c57600080fd5b81359190810190604081016020820135600160201b81111561034d57600080fd5b82018360208201111561035f57600080fd5b803590602001918460208302840111600160201b8311171561038057600080fd5b919080806020026020016040519081016040528093929190818152602001838360200280828437600092019190915250929550610ea5945050505050565b3480156103ca57600080fd5b506101c260048036036101608110156103e257600080fd5b506001600160a01b038135811691602081013582169160408201359160608101359160808201359160a08101359091169060c08101359060e081013515159060ff6101008201351690610120810135906101400135610ec8565b34801561044857600080fd5b50610451610fb0565b604080516001600160a01b039092168252519081900360200190f35b34801561047957600080fd5b506102b9600480360360a081101561049057600080fd5b813591602081013591810190606081016040820135600160201b8111156104b657600080fd5b8201836020820111156104c857600080fd5b803590602001918460208302840111600160201b831117156104e957600080fd5b91935091506001600160a01b038135169060200135610fbf565b34801561050f57600080fd5b506102b9600480360360a081101561052657600080fd5b813591602081013591810190606081016040820135600160201b81111561054c57600080fd5b82018360208201111561055e57600080fd5b803590602001918460208302840111600160201b8311171561057f57600080fd5b91935091506001600160a01b0381351690602001356110f6565b3480156105a557600080fd5b50610451611250565b3480156105ba57600080fd5b5061045161125f565b6102b9600480360360808110156105d957600080fd5b81359190810190604081016020820135600160201b8111156105fa57600080fd5b82018360208201111561060c57600080fd5b803590602001918460208302840111600160201b8311171561062d57600080fd5b91935091506001600160a01b03813516906020013561126e565b34801561065357600080fd5b5061045161158f565b34801561066857600080fd5b506102116004803603606081101561067f57600080fd5b508035906020810135906040013561159e565b34801561069e57600080fd5b506102b9600480360360a08110156106b557600080fd5b813591602081013591810190606081016040820135600160201b8111156106db57600080fd5b8201836020820111156106ed57600080fd5b803590602001918460208302840111600160201b8311171561070e57600080fd5b91935091506001600160a01b0381351690602001356115ab565b34801561073457600080fd5b506104516004803603604081101561074b57600080fd5b506001600160a01b0381358116916020013516611690565b34801561076f57600080fd5b506102116004803603606081101561078657600080fd5b50803590602081013590604001356116aa565b3480156107a557600080fd5b506101c2600480360360e08110156107bc57600080fd5b506001600160a01b038135811691602081013582169160408201359160608101359160808201359160a08101359091169060c001356116b7565b34801561080257600080fd5b506104516118e8565b34801561081757600080fd5b506102b96004803603604081101561082e57600080fd5b81359190810190604081016020820135600160201b81111561084f57600080fd5b82018360208201111561086157600080fd5b803590602001918460208302840111600160201b8311171561088257600080fd5b9190808060200260200160405190810160405280939291908181526020018383602002808284376000920191909152509295506118f7945050505050565b3480156108cc57600080fd5b506101c260048036036101408110156108e457600080fd5b506001600160a01b0381358116916020810135916040820135916060810135916080820135169060a08101359060c081013515159060ff60e08201351690610100810135906101200135611911565b34801561093f57600080fd5b50610168611a0d565b34801561095457600080fd5b506109aa600480360361010081101561096c57600080fd5b506001600160a01b038135811691602081013582169160408201359160608101359160808201359160a08101359160c0820135169060e00135611c2b565b60408051938452602084019290925282820152519081900360600190f35b6109aa600480360360c08110156109de57600080fd5b506001600160a01b0381358116916020810135916040820135916060810135916080820135169060a00135611d4b565b6102b960048036036080811015610a2457600080fd5b81359190810190604081016020820135600160201b811115610a4557600080fd5b820183602082011115610a5757600080fd5b803590602001918460208302840111600160201b83111715610a7857600080fd5b91935091506001600160a01b038135169060200135611f73565b6000808242811015610ad9576040805162461bcd60e51b815260206004820152601b60248201526000805160206137f9833981519152604482015290519081900360640190fd5b600054610af5908a906001600160a01b03168a8a8a308a6116b7565b9093509150610b05898685612269565b6000805460408051632e1a7d4d60e01b81526004810186905290516001600160a01b0390921692632e1a7d4d9260248084019382900301818387803b158015610b4d57600080fd5b505af1158015610b61573d6000803e3d6000fd5b50505050610b6f85836123d3565b50965096945050505050565b6000610b888484846124cb565b949350505050565b60608142811015610bd6576040805162461bcd60e51b815260206004820152601b60248201526000805160206137f9833981519152604482015290519081900360640190fd5b6000546001600160a01b031686866000198101818110610bf257fe5b905060200201356001600160a01b03166001600160a01b031614610c4b576040805162461bcd60e51b81526020600482018190526024820152600080516020613a0b833981519152604482015290519081900360640190fd5b6001546040805160208089028281018201909352888252610c95936001600160a01b0316928c92918b918b918291908501908490808284376000920191909152506125a392505050565b91508682600184510381518110610ca857fe5b60200260200101511015610ced5760405162461bcd60e51b815260040180806020018281038252602e815260200180613819602e913960400191505060405180910390fd5b610d8086866000818110610cfd57fe5b905060200201356001600160a01b031633610d66600160009054906101000a90046001600160a01b03168a8a6000818110610d3457fe5b905060200201356001600160a01b03168b8b6001818110610d5157fe5b905060200201356001600160a01b03166126d9565b85600081518110610d7357fe5b6020026020010151612799565b610dbf828787808060200260200160405190810160405280939291908181526020018383602002808284376000920191909152503092506128f6915050565b60005482516001600160a01b0390911690632e1a7d4d9084906000198101908110610de657fe5b60200260200101516040518263ffffffff1660e01b815260040180828152602001915050600060405180830381600087803b158015610e2457600080fd5b505af1158015610e38573d6000803e3d6000fd5b50505050610e5d8483600185510381518110610e5057fe5b60200260200101516123d3565b610e9a82878780806020026020016040519081016040528093929190818152602001838360200280828437600092019190915250612b1092505050565b509695505050505050565b600154606090610ebf906001600160a01b03168484612f64565b90505b92915050565b60015460009081908190610ee6906001600160a01b03168f8f6126d9565b9050600087610ef5578c610ef9565b6000195b6040805163d505accf60e01b815233600482015230602482015260448101839052606481018c905260ff8a16608482015260a4810189905260c4810188905290519192506001600160a01b0384169163d505accf9160e48082019260009290919082900301818387803b158015610f6f57600080fd5b505af1158015610f83573d6000803e3d6000fd5b50505050610f968f8f8f8f8f8f8f6116b7565b809450819550505050509b509b9950505050505050505050565b6002546001600160a01b031681565b60608142811015611005576040805162461bcd60e51b815260206004820152601b60248201526000805160206137f9833981519152604482015290519081900360640190fd5b600154604080516020808902828101820190935288825261104f936001600160a01b0316928c92918b918b918291908501908490808284376000920191909152506125a392505050565b9150868260018451038151811061106257fe5b602002602001015110156110a75760405162461bcd60e51b815260040180806020018281038252602e815260200180613819602e913960400191505060405180910390fd5b6110b786866000818110610cfd57fe5b610e5d828787808060200260200160405190810160405280939291908181526020018383602002808284376000920191909152508992506128f6915050565b6060814281101561113c576040805162461bcd60e51b815260206004820152601b60248201526000805160206137f9833981519152604482015290519081900360640190fd5b6000546001600160a01b03168686600019810181811061115857fe5b905060200201356001600160a01b03166001600160a01b0316146111b1576040805162461bcd60e51b81526020600482018190526024820152600080516020613a0b833981519152604482015290519081900360640190fd5b60015460408051602080890282810182019093528882526111fb936001600160a01b0316928c92918b918b91829190850190849080828437600092019190915250612f6492505050565b9150868260008151811061120b57fe5b60200260200101511115610ced5760405162461bcd60e51b815260040180806020018281038252602a8152602001806138be602a913960400191505060405180910390fd5b6000546001600160a01b031681565b6003546001600160a01b031681565b606081428110156112b4576040805162461bcd60e51b815260206004820152601b60248201526000805160206137f9833981519152604482015290519081900360640190fd5b600080546001600160a01b03169087908790816112cd57fe5b905060200201356001600160a01b03166001600160a01b031614611326576040805162461bcd60e51b81526020600482018190526024820152600080516020613a0b833981519152604482015290519081900360640190fd5b6001546040805160208089028281018201909352888252611370936001600160a01b0316923492918b918b918291908501908490808284376000920191909152506125a392505050565b9150868260018451038151811061138357fe5b602002602001015110156113c85760405162461bcd60e51b815260040180806020018281038252602e815260200180613819602e913960400191505060405180910390fd5b6000805483516001600160a01b039091169163d0e30db0918591906113e957fe5b60200260200101516040518263ffffffff1660e01b81526004016000604051808303818588803b15801561141c57600080fd5b505af1158015611430573d6000803e3d6000fd5b5050600080546001546001600160a01b03918216955063a9059cbb945061147c935016908a908a908161145f57fe5b905060200201356001600160a01b03168a8a6001818110610d5157fe5b8460008151811061148957fe5b60200260200101516040518363ffffffff1660e01b815260040180836001600160a01b0316815260200182815260200192505050602060405180830381600087803b1580156114d757600080fd5b505af11580156114eb573d6000803e3d6000fd5b505050506040513d602081101561150157600080fd5b505161150957fe5b611548828787808060200260200160405190810160405280939291908181526020018383602002808284376000920191909152508992506128f6915050565b61158582878780806020026020016040519081016040528093929190818152602001838360200280828437600092019190915250612b1092505050565b5095945050505050565b6000546001600160a01b031690565b6000610b88848484613086565b606081428110156115f1576040805162461bcd60e51b815260206004820152601b60248201526000805160206137f9833981519152604482015290519081900360640190fd5b600154604080516020808902828101820190935288825261163b936001600160a01b0316928c92918b918b91829190850190849080828437600092019190915250612f6492505050565b9150868260008151811061164b57fe5b602002602001015111156110a75760405162461bcd60e51b815260040180806020018281038252602a8152602001806138be602a913960400191505060405180910390fd5b600154600090610ebf906001600160a01b031684846126d9565b6000610b8884848461315e565b60008082428110156116fe576040805162461bcd60e51b815260206004820152601b60248201526000805160206137f9833981519152604482015290519081900360640190fd5b600154600090611718906001600160a01b03168c8c6126d9565b604080516323b872dd60e01b81523360048201526001600160a01b03831660248201819052604482018d9052915192935090916323b872dd916064808201926020929091908290030181600087803b15801561177357600080fd5b505af1158015611787573d6000803e3d6000fd5b505050506040513d602081101561179d57600080fd5b50506040805163226bf2d160e21b81526001600160a01b03888116600483015282516000938493928616926389afcb44926024808301939282900301818787803b1580156117ea57600080fd5b505af11580156117fe573d6000803e3d6000fd5b505050506040513d604081101561181457600080fd5b5080516020909101519092509050600061182e8e8e613204565b509050806001600160a01b03168e6001600160a01b031614611851578183611854565b82825b90975095508a8710156118985760405162461bcd60e51b815260040180806020018281038252602981526020018061399b6029913960400191505060405180910390fd5b898610156118d75760405162461bcd60e51b81526004018080602001828103825260298152602001806139136029913960400191505060405180910390fd5b505050505097509795505050505050565b6001546001600160a01b031681565b600154606090610ebf906001600160a01b031684846125a3565b6000806000611949600160009054906101000a90046001600160a01b03168e60008054906101000a90046001600160a01b03166126d9565b9050600087611958578c61195c565b6000195b6040805163d505accf60e01b815233600482015230602482015260448101839052606481018c905260ff8a16608482015260a4810189905260c4810188905290519192506001600160a01b0384169163d505accf9160e48082019260009290919082900301818387803b1580156119d257600080fd5b505af11580156119e6573d6000803e3d6000fd5b505050506119f88e8e8e8e8e8e610a92565b909f909e509c50505050505050505050505050565b600480546040805163785f349960e01b815290516001600160a01b039092169263785f3499928282019260209290829003018186803b158015611a4f57600080fd5b505afa158015611a63573d6000803e3d6000fd5b505050506040513d6020811015611a7957600080fd5b5051600080546001600160a01b0319166001600160a01b03928316179055600480546040805163cad631b560e01b81529051919093169263cad631b59281810192602092909190829003018186803b158015611ad457600080fd5b505afa158015611ae8573d6000803e3d6000fd5b505050506040513d6020811015611afe57600080fd5b5051600180546001600160a01b0319166001600160a01b0392831617905560048054604080516328f2642f60e01b8152905191909316926328f2642f9281810192602092909190829003018186803b158015611b5957600080fd5b505afa158015611b6d573d6000803e3d6000fd5b505050506040513d6020811015611b8357600080fd5b5051600280546001600160a01b0319166001600160a01b0392831617905560048054604080516335ce0c2b60e11b815290519190931692636b9c18569281810192602092909190829003018186803b158015611bde57600080fd5b505afa158015611bf2573d6000803e3d6000fd5b505050506040513d6020811015611c0857600080fd5b5051600380546001600160a01b0319166001600160a01b03909216919091179055565b60008060008342811015611c74576040805162461bcd60e51b815260206004820152601b60248201526000805160206137f9833981519152604482015290519081900360640190fd5b611c828c8c8c8c8c8c6132cc565b6001549195509350600090611ca1906001600160a01b03168e8e6126d9565b9050611caf8d338388612799565b611cbb8c338387612799565b806001600160a01b0316636a627842886040518263ffffffff1660e01b815260040180826001600160a01b03168152602001915050602060405180830381600087803b158015611d0a57600080fd5b505af1158015611d1e573d6000803e3d6000fd5b505050506040513d6020811015611d3457600080fd5b5051949d939c50939a509198505050505050505050565b60008060008342811015611d94576040805162461bcd60e51b815260206004820152601b60248201526000805160206137f9833981519152604482015290519081900360640190fd5b600054611daf908b906001600160a01b03168b348c8c6132cc565b600154600080549397509195509091611dd6916001600160a01b03908116918e91166126d9565b9050611de48b338388612799565b60008054906101000a90046001600160a01b03166001600160a01b031663d0e30db0856040518263ffffffff1660e01b81526004016000604051808303818588803b158015611e3257600080fd5b505af1158015611e46573d6000803e3d6000fd5b5050600080546040805163a9059cbb60e01b81526001600160a01b038881166004830152602482018c9052915191909216955063a9059cbb94506044808301945060209391928390030190829087803b158015611ea257600080fd5b505af1158015611eb6573d6000803e3d6000fd5b505050506040513d6020811015611ecc57600080fd5b5051611ed457fe5b806001600160a01b0316636a627842886040518263ffffffff1660e01b815260040180826001600160a01b03168152602001915050602060405180830381600087803b158015611f2357600080fd5b505af1158015611f37573d6000803e3d6000fd5b505050506040513d6020811015611f4d57600080fd5b5051925034841015611f6557611f65338534036123d3565b505096509650969350505050565b60608142811015611fb9576040805162461bcd60e51b815260206004820152601b60248201526000805160206137f9833981519152604482015290519081900360640190fd5b600080546001600160a01b0316908790879081611fd257fe5b905060200201356001600160a01b03166001600160a01b03161461202b576040805162461bcd60e51b81526020600482018190526024820152600080516020613a0b833981519152604482015290519081900360640190fd5b6001546040805160208089028281018201909352888252612075936001600160a01b0316928b92918b918b91829190850190849080828437600092019190915250612f6492505050565b9150348260008151811061208557fe5b602002602001015111156120ca5760405162461bcd60e51b815260040180806020018281038252602a8152602001806138be602a913960400191505060405180910390fd5b6000805483516001600160a01b039091169163d0e30db0918591906120eb57fe5b60200260200101516040518263ffffffff1660e01b81526004016000604051808303818588803b15801561211e57600080fd5b505af1158015612132573d6000803e3d6000fd5b5050600080546001546001600160a01b03918216955063a9059cbb9450612161935016908a908a908161145f57fe5b8460008151811061216e57fe5b60200260200101516040518363ffffffff1660e01b815260040180836001600160a01b0316815260200182815260200192505050602060405180830381600087803b1580156121bc57600080fd5b505af11580156121d0573d6000803e3d6000fd5b505050506040513d60208110156121e657600080fd5b50516121ee57fe5b61222d828787808060200260200160405190810160405280939291908181526020018383602002808284376000920191909152508992506128f6915050565b8160008151811061223a57fe5b602002602001015134111561154857611548338360008151811061225a57fe5b602002602001015134036123d3565b604080516001600160a01b038481166024830152604480830185905283518084039091018152606490920183526020820180516001600160e01b031663a9059cbb60e01b178152925182516000946060949389169392918291908083835b602083106122e65780518252601f1990920191602091820191016122c7565b6001836020036101000a0380198251168184511680821785525050505050509050019150506000604051808303816000865af19150503d8060008114612348576040519150601f19603f3d011682016040523d82523d6000602084013e61234d565b606091505b509150915081801561237b57508051158061237b575080806020019051602081101561237857600080fd5b50515b6123cc576040805162461bcd60e51b815260206004820152601f60248201527f5472616e7366657248656c7065723a205452414e534645525f4641494c454400604482015290519081900360640190fd5b5050505050565b604080516000808252602082019092526001600160a01b0384169083906040518082805190602001908083835b6020831061241f5780518252601f199092019160209182019101612400565b6001836020036101000a03801982511681845116808217855250505050505090500191505060006040518083038185875af1925050503d8060008114612481576040519150601f19603f3d011682016040523d82523d6000602084013e612486565b606091505b50509050806124c65760405162461bcd60e51b81526004018080602001828103825260238152602001806139e86023913960400191505060405180910390fd5b505050565b600080841161250b5760405162461bcd60e51b815260040180806020018281038252602e815260200180613847602e913960400191505060405180910390fd5b60008311801561251b5750600082115b6125565760405162461bcd60e51b815260040180806020018281038252602b8152602001806138e8602b913960400191505060405180910390fd5b6000612564856103e36134f1565b9050600061257282856134f1565b9050600061258c83612586886103e86134f1565b90613554565b905080828161259757fe5b04979650505050505050565b60606002825110156125e65760405162461bcd60e51b815260040180806020018281038252602181526020018061389d6021913960400191505060405180910390fd5b815167ffffffffffffffff811180156125fe57600080fd5b50604051908082528060200260200182016040528015612628578160200160208202803683370190505b509050828160008151811061263957fe5b60200260200101818152505060005b60018351038110156126d15760008061268b8786858151811061266757fe5b602002602001015187866001018151811061267e57fe5b60200260200101516135a3565b915091506126ad84848151811061269e57fe5b602002602001015183836124cb565b8484600101815181106126bc57fe5b60209081029190910101525050600101612648565b509392505050565b60008060006126e88585613204565b604080516bffffffffffffffffffffffff19606094851b811660208084019190915293851b81166034830152825160288184030181526048830184528051908501206001600160f81b031960688401529a90941b9093166069840152607d8301989098527f4c861e095f1c6b63c757eec3212753c355890388fc13bc18223333f08190cc29609d808401919091528851808403909101815260bd909201909752805196019590952095945050505050565b604080516001600160a01b0385811660248301528481166044830152606480830185905283518084039091018152608490920183526020820180516001600160e01b03166323b872dd60e01b17815292518251600094606094938a169392918291908083835b6020831061281e5780518252601f1990920191602091820191016127ff565b6001836020036101000a0380198251168184511680821785525050505050509050019150506000604051808303816000865af19150503d8060008114612880576040519150601f19603f3d011682016040523d82523d6000602084013e612885565b606091505b50915091508180156128b35750805115806128b357508080602001905160208110156128b057600080fd5b50515b6128ee5760405162461bcd60e51b81526004018080602001828103825260248152602001806139c46024913960400191505060405180910390fd5b505050505050565b60005b6001835103811015612b0a5760008084838151811061291457fe5b602002602001015185846001018151811061292b57fe5b60200260200101519150915060006129438383613204565b509050600087856001018151811061295757fe5b60200260200101519050600080836001600160a01b0316866001600160a01b03161461298557826000612989565b6000835b91509150600060028a510388106129a057886129d1565b6001548a516129d1916001600160a01b03169088908d9060028d019081106129c457fe5b60200260200101516126d9565b6001549091506129eb906001600160a01b031688886126d9565b6001600160a01b031663022c0d9f84848460006040519080825280601f01601f191660200182016040528015612a28576020820181803683370190505b506040518563ffffffff1660e01b815260040180858152602001848152602001836001600160a01b0316815260200180602001828103825283818151815260200191508051906020019080838360005b83811015612a90578181015183820152602001612a78565b50505050905090810190601f168015612abd5780820380516001836020036101000a031916815260200191505b5095505050505050600060405180830381600087803b158015612adf57600080fd5b505af1158015612af3573d6000803e3d6000fd5b5050600190990198506128f9975050505050505050565b50505050565b60005b60018251038110156124c65760006103e8612b4b6002868581518110612b3557fe5b60200260200101516134f190919063ffffffff16565b81612b5257fe5b60025485519290910492506001600160a01b031690849084908110612b7357fe5b60200260200101516001600160a01b03161415612c67576000612bc8600160009054906101000a90046001600160a01b0316858581518110612bb157fe5b60200260200101518686600101815181106129c457fe5b9050806001600160a01b031663867f8a2583868681518110612be657fe5b6020908102919091010151600354604080516001600160e01b031960e087901b16815260048101949094526001600160a01b0392831660248501529116604483015251606480830192600092919082900301818387803b158015612c4957600080fd5b505af1158015612c5d573d6000803e3d6000fd5b5050505050612f57565b6000612c8e600160009054906101000a90046001600160a01b0316858581518110612bb157fe5b9050806001600160a01b031663867f8a2583868681518110612cac57fe5b6020026020010151306040518463ffffffff1660e01b815260040180848152602001836001600160a01b03168152602001826001600160a01b031681526020019350505050600060405180830381600087803b158015612d0b57600080fd5b505af1158015612d1f573d6000803e3d6000fd5b50505050600080858581518110612d3257fe5b6020908102919091018101516002546001546040805163e6a4390560e01b81526001600160a01b038086166004830152938416602482018190529151949750909550600094919092169263e6a43905926044808201939291829003018186803b158015612d9e57600080fd5b505afa158015612db2573d6000803e3d6000fd5b505050506040513d6020811015612dc857600080fd5b505190506001600160a01b038116612de557505050505050612f60565b6001546000908190612e01906001600160a01b031686866135a3565b915091506000612e12888484613671565b90506000612e208787613204565b509050600080826001600160a01b0316896001600160a01b031614612e4757836000612e4b565b6000845b91509150612e5b8930898e612799565b6003546040805160008082526020820192839052634077f5f960e11b835260248201868152604483018690526001600160a01b0394851660648401819052608060848501908152845160a48601819052968e16966380efebf2968a968a969495909490939260c4860192918190849084905b83811015612ee5578181015183820152602001612ecd565b50505050905090810190601f168015612f125780820380516001836020036101000a031916815260200191505b5095505050505050600060405180830381600087803b158015612f3457600080fd5b505af1158015612f48573d6000803e3d6000fd5b50505050505050505050505050505b50600101612b13565b5050565b6060600282511015612fa75760405162461bcd60e51b815260040180806020018281038252602181526020018061389d6021913960400191505060405180910390fd5b815167ffffffffffffffff81118015612fbf57600080fd5b50604051908082528060200260200182016040528015612fe9578160200160208202803683370190505b5090508281600183510381518110612ffd57fe5b60209081029190910101528151600019015b80156126d15760008061303f8786600186038151811061302b57fe5b602002602001015187868151811061267e57fe5b9150915061306184848151811061305257fe5b60200260200101518383613086565b84600185038151811061307057fe5b602090810291909101015250506000190161300f565b60008084116130c65760405162461bcd60e51b815260040180806020018281038252602f81526020018061393c602f913960400191505060405180910390fd5b6000831180156130d65750600082115b6131115760405162461bcd60e51b815260040180806020018281038252602b8152602001806138e8602b913960400191505060405180910390fd5b60006131296103e861312386886134f1565b906134f1565b9050600061313d6103e3613123868961372c565b9050613154600182848161314d57fe5b0490613554565b9695505050505050565b600080841161319e5760405162461bcd60e51b81526004018080602001828103825260288152602001806138756028913960400191505060405180910390fd5b6000831180156131ae5750600082115b6131e95760405162461bcd60e51b815260040180806020018281038252602b8152602001806138e8602b913960400191505060405180910390fd5b826131f485846134f1565b816131fb57fe5b04949350505050565b600080826001600160a01b0316846001600160a01b031614156132585760405162461bcd60e51b815260040180806020018281038252602881526020018061377d6028913960400191505060405180910390fd5b826001600160a01b0316846001600160a01b03161061327857828461327b565b83835b90925090506001600160a01b0382166132c55760405162461bcd60e51b81526004018080602001828103825260218152602001806137a56021913960400191505060405180910390fd5b9250929050565b6001546040805163e6a4390560e01b81526001600160a01b038981166004830152888116602483015291516000938493849391169163e6a4390591604480820192602092909190829003018186803b15801561332757600080fd5b505afa15801561333b573d6000803e3d6000fd5b505050506040513d602081101561335157600080fd5b50516001600160a01b031614156133e657600154604080516364e329cb60e11b81526001600160a01b038b811660048301528a811660248301529151919092169163c9c653969160448083019260209291908290030181600087803b1580156133b957600080fd5b505af11580156133cd573d6000803e3d6000fd5b505050506040513d60208110156133e357600080fd5b50505b6001546000908190613402906001600160a01b03168b8b6135a3565b91509150816000148015613414575080155b15613424578793508692506134e4565b600061343189848461315e565b905087811161348457858110156134795760405162461bcd60e51b81526004018080602001828103825260298152602001806139136029913960400191505060405180910390fd5b8894509250826134e2565b600061349189848661315e565b90508981111561349d57fe5b878110156134dc5760405162461bcd60e51b815260040180806020018281038252602981526020018061399b6029913960400191505060405180910390fd5b94508793505b505b5050965096945050505050565b600081158061350c5750508082028282828161350957fe5b04145b610ec2576040805162461bcd60e51b815260206004820152601460248201527364732d6d6174682d6d756c2d6f766572666c6f7760601b604482015290519081900360640190fd5b80820182811015610ec2576040805162461bcd60e51b815260206004820152601460248201527364732d6d6174682d6164642d6f766572666c6f7760601b604482015290519081900360640190fd5b60008060006135b28585613204565b5090506000806135c38888886126d9565b6001600160a01b0316630902f1ac6040518163ffffffff1660e01b815260040160606040518083038186803b1580156135fb57600080fd5b505afa15801561360f573d6000803e3d6000fd5b505050506040513d606081101561362557600080fd5b5080516020909101516dffffffffffffffffffffffffffff91821693501690506001600160a01b038781169084161461365f578082613662565b81815b90999098509650505050505050565b60008084116136b15760405162461bcd60e51b81526004018080602001828103825260338152602001806137c66033913960400191505060405180910390fd5b6000831180156136c15750600082115b6136fc5760405162461bcd60e51b815260040180806020018281038252603081526020018061396b6030913960400191505060405180910390fd5b600061370885846134f1565b905060006137168587613554565b905080828161372157fe5b049695505050505050565b80820382811115610ec2576040805162461bcd60e51b815260206004820152601560248201527464732d6d6174682d7375622d756e646572666c6f7760581b604482015290519081900360640190fdfe57696e7465727377617056324c6962726172793a204944454e544943414c5f41444452455353455357696e7465727377617056324c6962726172793a205a45524f5f4144445245535357696e7465727377617056324c6962726172793a20494e53554646494349454e545f494e5055545f414d4f554e545f4652454557696e746572737761705632526f757465723a2045585049524544000000000057696e746572737761705632526f757465723a20494e53554646494349454e545f4f55545055545f414d4f554e5457696e7465727377617056324c6962726172793a20494e53554646494349454e545f494e5055545f414d4f554e5457696e7465727377617056324c6962726172793a20494e53554646494349454e545f414d4f554e5457696e7465727377617056324c6962726172793a20494e56414c49445f5041544857696e746572737761705632526f757465723a204558434553534956455f494e5055545f414d4f554e5457696e7465727377617056324c6962726172793a20494e53554646494349454e545f4c495155494449545957696e746572737761705632526f757465723a20494e53554646494349454e545f425f414d4f554e5457696e7465727377617056324c6962726172793a20494e53554646494349454e545f4f55545055545f414d4f554e5457696e7465727377617056324c6962726172793a20494e53554646494349454e545f4c49515549444954595f4652454557696e746572737761705632526f757465723a20494e53554646494349454e545f415f414d4f554e545472616e7366657248656c7065723a205452414e534645525f46524f4d5f4641494c45445472616e7366657248656c7065723a205748545f5452414e534645525f4641494c454457696e746572737761705632526f757465723a20494e56414c49445f50415448a2646970667358221220ee7b5e528499862b334d8fb2e3beb16bba1f874d34f5dea2d284e37467ae33ee64736f6c63430007050033",
  "immutableReferences": {},
  "source": "// SPDX-License-Identifier: GPL-3.0-or-later\n\npragma solidity ^0.7.0;\n\nimport './interfaces/IWinterswapV2Factory.sol';\nimport './libraries/TransferHelper.sol';\n\nimport './interfaces/IWinterswapV2Router02.sol';\nimport './libraries/WinterswapV2Library.sol';\nimport './libraries/SafeMathSwap.sol';\nimport '../openzeppelin/token/HRC20/IHRC20.sol';\nimport '../wht/IWHT.sol';\nimport '../wns/IWNS.sol';\nimport \"../snowball/Snowball.sol\";\nimport \"../snowman/Snowman.sol\";\n\ncontract WinterswapV2Router02 is IWinterswapV2Router01 {\n    using SafeMathSwap for uint;\n\n\n    uint256 constant PERMILLE = 1000;\n    uint256 constant SWAP_FEE_PERMILLE = 5;\n    uint256 constant SWAP_FEE_TO_GOV_PERMILLE = 2;\n\n    //except for WHT, due to 2300 :)\n    address public WHT;\n    address public override factory;\n    address public snowball;\n    address public snowman;\n\n    IWNS wns;\n\n    function ETH() override public view returns (address){\n        return WHT;\n    }\n\n    modifier ensure(uint deadline) {\n        require(deadline >= block.timestamp, 'WinterswapV2Router: EXPIRED');\n        _;\n    }\n\n    constructor(IWNS _wns) {\n        wns = _wns;\n    }\n\n    function init() external{\n        WHT = wns.wht();\n        factory = wns.swap_factory();\n        snowball = wns.snowball();\n        snowman = wns.snowman();\n    }\n\n    receive() external payable {\n        assert(msg.sender == WHT); // only accept WHT via fallback from the WHT contract\n    }\n\n    // **** ADD LIQUIDITY ****\n    function _addLiquidity(\n        address tokenA,\n        address tokenB,\n        uint amountADesired,\n        uint amountBDesired,\n        uint amountAMin,\n        uint amountBMin\n    ) internal virtual returns (uint amountA, uint amountB) {\n        // create the pair if it doesn't exist yet\n        if (IWinterswapV2Factory(factory).getPair(tokenA, tokenB) == address(0)) {\n            IWinterswapV2Factory(factory).createPair(tokenA, tokenB);\n        }\n        (uint reserveA, uint reserveB) = WinterswapV2Library.getReserves(factory, tokenA, tokenB);\n        if (reserveA == 0 && reserveB == 0) {\n            (amountA, amountB) = (amountADesired, amountBDesired);\n        } else {\n            uint amountBOptimal = WinterswapV2Library.quote(amountADesired, reserveA, reserveB);\n            if (amountBOptimal <= amountBDesired) {\n                require(amountBOptimal >= amountBMin, 'WinterswapV2Router: INSUFFICIENT_B_AMOUNT');\n                (amountA, amountB) = (amountADesired, amountBOptimal);\n            } else {\n                uint amountAOptimal = WinterswapV2Library.quote(amountBDesired, reserveB, reserveA);\n                assert(amountAOptimal <= amountADesired);\n                require(amountAOptimal >= amountAMin, 'WinterswapV2Router: INSUFFICIENT_A_AMOUNT');\n                (amountA, amountB) = (amountAOptimal, amountBDesired);\n            }\n        }\n    }\n    function addLiquidity(\n        address tokenA,\n        address tokenB,\n        uint amountADesired,\n        uint amountBDesired,\n        uint amountAMin,\n        uint amountBMin,\n        address to,\n        uint deadline\n    ) external virtual override ensure(deadline) returns (uint amountA, uint amountB, uint liquidity) {\n        (amountA, amountB) = _addLiquidity(tokenA, tokenB, amountADesired, amountBDesired, amountAMin, amountBMin);\n        address pair = WinterswapV2Library.pairFor(factory, tokenA, tokenB);\n        TransferHelper.safeTransferFrom(tokenA, msg.sender, pair, amountA);\n        TransferHelper.safeTransferFrom(tokenB, msg.sender, pair, amountB);\n        liquidity = IWinterswapV2Pair(pair).mint(to);\n    }\n    function addLiquidityETH(\n        address token,\n        uint amountTokenDesired,\n        uint amountTokenMin,\n        uint amountETHMin,\n        address to,\n        uint deadline\n    ) external virtual override payable ensure(deadline) returns (uint amountToken, uint amountETH, uint liquidity) {\n        (amountToken, amountETH) = _addLiquidity(\n            token,\n            WHT,\n            amountTokenDesired,\n            msg.value,\n            amountTokenMin,\n            amountETHMin\n        );\n        address pair = WinterswapV2Library.pairFor(factory, token, WHT);\n        TransferHelper.safeTransferFrom(token, msg.sender, pair, amountToken);\n        IWHT(WHT).deposit{value: amountETH}();\n        assert(IWHT(WHT).transfer(pair, amountETH));\n        liquidity = IWinterswapV2Pair(pair).mint(to);\n        // refund dust eth, if any\n        if (msg.value > amountETH) TransferHelper.safeTransferWHT(msg.sender, msg.value - amountETH);\n    }\n\n    // **** REMOVE LIQUIDITY ****\n    function removeLiquidity(\n        address tokenA,\n        address tokenB,\n        uint liquidity,\n        uint amountAMin,\n        uint amountBMin,\n        address to,\n        uint deadline\n    ) public virtual override ensure(deadline) returns (uint amountA, uint amountB) {\n        address pair = WinterswapV2Library.pairFor(factory, tokenA, tokenB);\n        IWinterswapV2Pair(pair).transferFrom(msg.sender, pair, liquidity); // send liquidity to pair\n        (uint amount0, uint amount1) = IWinterswapV2Pair(pair).burn(to);\n        (address token0,) = WinterswapV2Library.sortTokens(tokenA, tokenB);\n        (amountA, amountB) = tokenA == token0 ? (amount0, amount1) : (amount1, amount0);\n        require(amountA >= amountAMin, 'WinterswapV2Router: INSUFFICIENT_A_AMOUNT');\n        require(amountB >= amountBMin, 'WinterswapV2Router: INSUFFICIENT_B_AMOUNT');\n    }\n    function removeLiquidityETH(\n        address token,\n        uint liquidity,\n        uint amountTokenMin,\n        uint amountETHMin,\n        address to,\n        uint deadline\n    ) public virtual override ensure(deadline) returns (uint amountToken, uint amountETH) {\n        (amountToken, amountETH) = removeLiquidity(\n            token,\n            WHT,\n            liquidity,\n            amountTokenMin,\n            amountETHMin,\n            address(this),\n            deadline\n        );\n        TransferHelper.safeTransfer(token, to, amountToken);\n        IWHT(WHT).withdraw(amountETH);\n        TransferHelper.safeTransferWHT(to, amountETH);\n    }\n    function removeLiquidityWithPermit(\n        address tokenA,\n        address tokenB,\n        uint liquidity,\n        uint amountAMin,\n        uint amountBMin,\n        address to,\n        uint deadline,\n        bool approveMax, uint8 v, bytes32 r, bytes32 s\n    ) external virtual override returns (uint amountA, uint amountB) {\n        address pair = WinterswapV2Library.pairFor(factory, tokenA, tokenB);\n        uint value = approveMax ? uint(-1) : liquidity;\n        IWinterswapV2Pair(pair).permit(msg.sender, address(this), value, deadline, v, r, s);\n        (amountA, amountB) = removeLiquidity(tokenA, tokenB, liquidity, amountAMin, amountBMin, to, deadline);\n    }\n    function removeLiquidityETHWithPermit(\n        address token,\n        uint liquidity,\n        uint amountTokenMin,\n        uint amountETHMin,\n        address to,\n        uint deadline,\n        bool approveMax, uint8 v, bytes32 r, bytes32 s\n    ) external virtual override returns (uint amountToken, uint amountETH) {\n        address pair = WinterswapV2Library.pairFor(factory, token, WHT);\n        uint value = approveMax ? uint(-1) : liquidity;\n        IWinterswapV2Pair(pair).permit(msg.sender, address(this), value, deadline, v, r, s);\n        (amountToken, amountETH) = removeLiquidityETH(token, liquidity, amountTokenMin, amountETHMin, to, deadline);\n    }\n\n    // **** REMOVE LIQUIDITY (supporting fee-on-transfer tokens) ****\n//    function removeLiquidityETHSupportingFeeOnTransferTokens(\n//        address token,\n//        uint liquidity,\n//        uint amountTokenMin,\n//        uint amountETHMin,\n//        address to,\n//        uint deadline\n//    ) public virtual override ensure(deadline) returns (uint amountETH) {\n//        (, amountETH) = removeLiquidity(\n//            token,\n//            WHT,\n//            liquidity,\n//            amountTokenMin,\n//            amountETHMin,\n//            address(this),\n//            deadline\n//        );\n//        TransferHelper.safeTransfer(token, to, IHRC20(token).balanceOf(address(this)));\n//        IWHT(WHT).withdraw(amountETH);\n//        TransferHelper.safeTransferWHT(to, amountETH);\n//    }\n//    function removeLiquidityETHWithPermitSupportingFeeOnTransferTokens(\n//        address token,\n//        uint liquidity,\n//        uint amountTokenMin,\n//        uint amountETHMin,\n//        address to,\n//        uint deadline,\n//        bool approveMax, uint8 v, bytes32 r, bytes32 s\n//    ) external virtual override returns (uint amountETH) {\n//        address pair = WinterswapV2Library.pairFor(factory, token, WHT);\n//        uint value = approveMax ? uint(-1) : liquidity;\n//        IWinterswapV2Pair(pair).permit(msg.sender, address(this), value, deadline, v, r, s);\n//        amountETH = removeLiquidityETHSupportingFeeOnTransferTokens(\n//            token, liquidity, amountTokenMin, amountETHMin, to, deadline\n//        );\n//    }\n\n    // **** SWAP ****\n    // requires the initial amount to have already been sent to the first pair\n    function _swap(uint[] memory amounts, address[] memory path, address _to) internal virtual {\n        for (uint i; i < path.length - 1; i++) {\n            (address input, address output) = (path[i], path[i + 1]);\n            (address token0,) = WinterswapV2Library.sortTokens(input, output);\n            uint amountOut = amounts[i + 1];\n            (uint amount0Out, uint amount1Out) = input == token0 ? (uint(0), amountOut) : (amountOut, uint(0));\n            address to = i < path.length - 2 ? WinterswapV2Library.pairFor(factory, output, path[i + 2]) : _to;\n            IWinterswapV2Pair(WinterswapV2Library.pairFor(factory, input, output)).swap(\n                amount0Out, amount1Out, to, new bytes(0)\n            );\n        }\n    }\n    // transfer the 2/1000 of the 5/1000 from the pair to the snow factory\n    // limited to Router\n    function _swapFee(uint[] memory amounts, address[] memory path) internal virtual {\n        for (uint i; i < path.length - 1; i++) {\n            uint fee = amounts[i].mul(SWAP_FEE_TO_GOV_PERMILLE) / PERMILLE;\n\n            if(path[i] == snowball){\n                //transfer snowball to snowman_factory\n                address pair = WinterswapV2Library.pairFor(factory, path[i], path[i + 1]);\n                IWinterswapV2Pair(pair).transfer_tx_fee(fee,path[i],snowman);\n            }else{\n                //swap the token to snowball and then transfer to snowman_factory\n                //maybe the pair is XXXtoken<>snowball, we still need get it back and then swap_free it again\n                //because get it back will update the K\n                address pair = WinterswapV2Library.pairFor(factory, path[i], path[i + 1]);\n                //token,from,to,value\n                //this will update reserves and the K\n                IWinterswapV2Pair(pair).transfer_tx_fee(fee,path[i],address(this));\n\n                //now swap_free into snowball\n                (address input, address output) = (path[i], snowball);\n\n                IWinterswapV2Pair pair_free = IWinterswapV2Pair(IWinterswapV2Factory(factory).getPair(input, output));\n                if (address(pair_free) == address(0)) {\n                    return;\n                }\n\n\n\n                (uint reserveIn, uint reserveOut) = WinterswapV2Library.getReserves(factory, input, output);\n                uint amountOut = WinterswapV2Library.getAmountOutFree(fee, reserveIn, reserveOut);\n                (address token0,) = WinterswapV2Library.sortTokens(input, output);\n                (uint amount0Out, uint amount1Out) = input == token0 ? (uint(0), amountOut) : (amountOut, uint(0));\n                TransferHelper.safeTransferFrom(\n                    input, address(this), address(pair_free), fee\n                );\n                pair_free.swap_free(\n                    amount0Out, amount1Out, snowman, new bytes(0)\n                );\n            }\n\n        }\n    }\n    function swapExactTokensForTokens(\n        uint amountIn,\n        uint amountOutMin,\n        address[] calldata path,\n        address to,\n        uint deadline\n    ) external virtual override ensure(deadline) returns (uint[] memory amounts) {\n        amounts = WinterswapV2Library.getAmountsOut(factory, amountIn, path);\n        require(amounts[amounts.length - 1] >= amountOutMin, 'WinterswapV2Router: INSUFFICIENT_OUTPUT_AMOUNT');\n        TransferHelper.safeTransferFrom(\n            path[0], msg.sender, WinterswapV2Library.pairFor(factory, path[0], path[1]), amounts[0]\n        );\n        _swap(amounts, path, to);\n        _swapFee(amounts, path);\n    }\n    function swapTokensForExactTokens(\n        uint amountOut,\n        uint amountInMax,\n        address[] calldata path,\n        address to,\n        uint deadline\n    ) external virtual override ensure(deadline) returns (uint[] memory amounts) {\n        amounts = WinterswapV2Library.getAmountsIn(factory, amountOut, path);\n        require(amounts[0] <= amountInMax, 'WinterswapV2Router: EXCESSIVE_INPUT_AMOUNT');\n        TransferHelper.safeTransferFrom(\n            path[0], msg.sender, WinterswapV2Library.pairFor(factory, path[0], path[1]), amounts[0]\n        );\n        _swap(amounts, path, to);\n        _swapFee(amounts, path);\n    }\n    function swapExactETHForTokens(uint amountOutMin, address[] calldata path, address to, uint deadline)\n        external\n        virtual\n        override\n        payable\n        ensure(deadline)\n        returns (uint[] memory amounts)\n    {\n        require(path[0] == WHT, 'WinterswapV2Router: INVALID_PATH');\n        amounts = WinterswapV2Library.getAmountsOut(factory, msg.value, path);\n        require(amounts[amounts.length - 1] >= amountOutMin, 'WinterswapV2Router: INSUFFICIENT_OUTPUT_AMOUNT');\n        IWHT(WHT).deposit{value: amounts[0]}();\n        assert(IWHT(WHT).transfer(WinterswapV2Library.pairFor(factory, path[0], path[1]), amounts[0]));\n        _swap(amounts, path, to);\n        _swapFee(amounts, path);\n    }\n    function swapTokensForExactETH(uint amountOut, uint amountInMax, address[] calldata path, address to, uint deadline)\n        external\n        virtual\n        override\n        ensure(deadline)\n        returns (uint[] memory amounts)\n    {\n        require(path[path.length - 1] == WHT, 'WinterswapV2Router: INVALID_PATH');\n        amounts = WinterswapV2Library.getAmountsIn(factory, amountOut, path);\n        require(amounts[0] <= amountInMax, 'WinterswapV2Router: EXCESSIVE_INPUT_AMOUNT');\n        TransferHelper.safeTransferFrom(\n            path[0], msg.sender, WinterswapV2Library.pairFor(factory, path[0], path[1]), amounts[0]\n        );\n        _swap(amounts, path, address(this));\n        IWHT(WHT).withdraw(amounts[amounts.length - 1]);\n        TransferHelper.safeTransferWHT(to, amounts[amounts.length - 1]);\n        _swapFee(amounts, path);\n    }\n    function swapExactTokensForETH(uint amountIn, uint amountOutMin, address[] calldata path, address to, uint deadline)\n        external\n        virtual\n        override\n        ensure(deadline)\n        returns (uint[] memory amounts)\n    {\n        require(path[path.length - 1] == WHT, 'WinterswapV2Router: INVALID_PATH');\n        amounts = WinterswapV2Library.getAmountsOut(factory, amountIn, path);\n        require(amounts[amounts.length - 1] >= amountOutMin, 'WinterswapV2Router: INSUFFICIENT_OUTPUT_AMOUNT');\n        TransferHelper.safeTransferFrom(\n            path[0], msg.sender, WinterswapV2Library.pairFor(factory, path[0], path[1]), amounts[0]\n        );\n        _swap(amounts, path, address(this));\n        IWHT(WHT).withdraw(amounts[amounts.length - 1]);\n        TransferHelper.safeTransferWHT(to, amounts[amounts.length - 1]);\n        _swapFee(amounts, path);\n    }\n    function swapETHForExactTokens(uint amountOut, address[] calldata path, address to, uint deadline)\n        external\n        virtual\n        override\n        payable\n        ensure(deadline)\n        returns (uint[] memory amounts)\n    {\n        require(path[0] == WHT, 'WinterswapV2Router: INVALID_PATH');\n        amounts = WinterswapV2Library.getAmountsIn(factory, amountOut, path);\n        require(amounts[0] <= msg.value, 'WinterswapV2Router: EXCESSIVE_INPUT_AMOUNT');\n        IWHT(WHT).deposit{value: amounts[0]}();\n        assert(IWHT(WHT).transfer(WinterswapV2Library.pairFor(factory, path[0], path[1]), amounts[0]));\n        _swap(amounts, path, to);\n        // refund dust eth, if any\n        if (msg.value > amounts[0]) TransferHelper.safeTransferWHT(msg.sender, msg.value - amounts[0]);\n        _swapFee(amounts, path);\n    }\n\n    // **** SWAP (supporting fee-on-transfer tokens) ****\n    // requires the initial amount to have already been sent to the first pair\n//    function _swapSupportingFeeOnTransferTokens(address[] memory path, address _to) internal virtual {\n//        for (uint i; i < path.length - 1; i++) {\n//            (address input, address output) = (path[i], path[i + 1]);\n//            (address token0,) = WinterswapV2Library.sortTokens(input, output);\n//            IWinterswapV2Pair pair = IWinterswapV2Pair(WinterswapV2Library.pairFor(factory, input, output));\n//            uint amountInput;\n//            uint amountOutput;\n//            { // scope to avoid stack too deep errors\n//            (uint reserve0, uint reserve1,) = pair.getReserves();\n//            (uint reserveInput, uint reserveOutput) = input == token0 ? (reserve0, reserve1) : (reserve1, reserve0);\n//            amountInput = IHRC20(input).balanceOf(address(pair)).sub(reserveInput);\n//            amountOutput = WinterswapV2Library.getAmountOut(amountInput, reserveInput, reserveOutput);\n//            }\n//            (uint amount0Out, uint amount1Out) = input == token0 ? (uint(0), amountOutput) : (amountOutput, uint(0));\n//            address to = i < path.length - 2 ? WinterswapV2Library.pairFor(factory, output, path[i + 2]) : _to;\n//            pair.swap(amount0Out, amount1Out, to, new bytes(0));\n//        }\n//    }\n//    function swapExactTokensForTokensSupportingFeeOnTransferTokens(\n//        uint amountIn,\n//        uint amountOutMin,\n//        address[] calldata path,\n//        address to,\n//        uint deadline\n//    ) external virtual override ensure(deadline) {\n//        TransferHelper.safeTransferFrom(\n//            path[0], msg.sender, WinterswapV2Library.pairFor(factory, path[0], path[1]), amountIn\n//        );\n//        uint balanceBefore = IHRC20(path[path.length - 1]).balanceOf(to);\n//        _swapSupportingFeeOnTransferTokens(path, to);\n//        require(\n//            IHRC20(path[path.length - 1]).balanceOf(to).sub(balanceBefore) >= amountOutMin,\n//            'WinterswapV2Router: INSUFFICIENT_OUTPUT_AMOUNT'\n//        );\n//\n//    }\n//    function swapExactETHForTokensSupportingFeeOnTransferTokens(\n//        uint amountOutMin,\n//        address[] calldata path,\n//        address to,\n//        uint deadline\n//    )\n//        external\n//        virtual\n//        override\n//        payable\n//        ensure(deadline)\n//    {\n//        require(path[0] == WHT, 'WinterswapV2Router: INVALID_PATH');\n//        uint amountIn = msg.value;\n//        IWHT(WHT).deposit{value: amountIn}();\n//        assert(IWHT(WHT).transfer(WinterswapV2Library.pairFor(factory, path[0], path[1]), amountIn));\n//        uint balanceBefore = IHRC20(path[path.length - 1]).balanceOf(to);\n//        _swapSupportingFeeOnTransferTokens(path, to);\n//        require(\n//            IHRC20(path[path.length - 1]).balanceOf(to).sub(balanceBefore) >= amountOutMin,\n//            'WinterswapV2Router: INSUFFICIENT_OUTPUT_AMOUNT'\n//        );\n//    }\n//    function swapExactTokensForETHSupportingFeeOnTransferTokens(\n//        uint amountIn,\n//        uint amountOutMin,\n//        address[] calldata path,\n//        address to,\n//        uint deadline\n//    )\n//        external\n//        virtual\n//        override\n//        ensure(deadline)\n//    {\n//        require(path[path.length - 1] == WHT, 'WinterswapV2Router: INVALID_PATH');\n//        TransferHelper.safeTransferFrom(\n//            path[0], msg.sender, WinterswapV2Library.pairFor(factory, path[0], path[1]), amountIn\n//        );\n//        _swapSupportingFeeOnTransferTokens(path, address(this));\n//        uint amountOut = IHRC20(WHT).balanceOf(address(this));\n//        require(amountOut >= amountOutMin, 'WinterswapV2Router: INSUFFICIENT_OUTPUT_AMOUNT');\n//        IWHT(WHT).withdraw(amountOut);\n//        TransferHelper.safeTransferWHT(to, amountOut);\n//    }\n\n    // **** LIBRARY FUNCTIONS ****\n    function quote(uint amountA, uint reserveA, uint reserveB) public pure virtual override returns (uint amountB) {\n        return WinterswapV2Library.quote(amountA, reserveA, reserveB);\n    }\n\n    function getAmountOut(uint amountIn, uint reserveIn, uint reserveOut)\n        public\n        pure\n        virtual\n        override\n        returns (uint amountOut)\n    {\n        return WinterswapV2Library.getAmountOut(amountIn, reserveIn, reserveOut);\n    }\n\n    function getAmountIn(uint amountOut, uint reserveIn, uint reserveOut)\n        public\n        pure\n        virtual\n        override\n        returns (uint amountIn)\n    {\n        return WinterswapV2Library.getAmountIn(amountOut, reserveIn, reserveOut);\n    }\n\n    function getAmountsOut(uint amountIn, address[] memory path)\n        public\n        view\n        virtual\n        override\n        returns (uint[] memory amounts)\n    {\n        return WinterswapV2Library.getAmountsOut(factory, amountIn, path);\n    }\n\n    function getAmountsIn(uint amountOut, address[] memory path)\n        public\n        view\n        virtual\n        override\n        returns (uint[] memory amounts)\n    {\n        return WinterswapV2Library.getAmountsIn(factory, amountOut, path);\n    }\n\n    function pairFor(address tokenA, address tokenB) external view override returns (address pair){\n        return WinterswapV2Library.pairFor(factory, tokenA, tokenB);\n    }\n}\n",
  "sourcePath": "/home/lycrus/WebstormProjects/WinterSwap/contracts/swap/WinterswapV2Router02.sol",
  "compiler": {
    "name": "solc",
    "version": "0.7.5+commit.eb77ed08.Emscripten.clang"
  },
  "schemaVersion": "3.3.2",
  "updatedAt": "2020-12-14T18:08:05.828Z",
  "networkType": "ethereum",
  "devdoc": {
    "kind": "dev",
    "methods": {},
    "version": 1
  },
  "userdoc": {
    "kind": "user",
    "methods": {},
    "version": 1
  }
}