{
  "contractName": "WinterswapV2Router02",
  "abi": [
    {
      "inputs": [
        {
          "internalType": "address",
          "name": "_factory",
          "type": "address"
        },
        {
          "internalType": "address",
          "name": "_WHT",
          "type": "address"
        }
      ],
      "stateMutability": "nonpayable",
      "type": "constructor"
    },
    {
      "inputs": [],
      "name": "WHT",
      "outputs": [
        {
          "internalType": "address",
          "name": "",
          "type": "address"
        }
      ],
      "stateMutability": "view",
      "type": "function",
      "constant": true
    },
    {
      "inputs": [],
      "name": "factory",
      "outputs": [
        {
          "internalType": "address",
          "name": "",
          "type": "address"
        }
      ],
      "stateMutability": "view",
      "type": "function",
      "constant": true
    },
    {
      "stateMutability": "payable",
      "type": "receive",
      "payable": true
    },
    {
      "inputs": [],
      "name": "ETH",
      "outputs": [
        {
          "internalType": "address",
          "name": "",
          "type": "address"
        }
      ],
      "stateMutability": "view",
      "type": "function",
      "constant": true
    },
    {
      "inputs": [
        {
          "internalType": "address",
          "name": "tokenA",
          "type": "address"
        },
        {
          "internalType": "address",
          "name": "tokenB",
          "type": "address"
        },
        {
          "internalType": "uint256",
          "name": "amountADesired",
          "type": "uint256"
        },
        {
          "internalType": "uint256",
          "name": "amountBDesired",
          "type": "uint256"
        },
        {
          "internalType": "uint256",
          "name": "amountAMin",
          "type": "uint256"
        },
        {
          "internalType": "uint256",
          "name": "amountBMin",
          "type": "uint256"
        },
        {
          "internalType": "address",
          "name": "to",
          "type": "address"
        },
        {
          "internalType": "uint256",
          "name": "deadline",
          "type": "uint256"
        }
      ],
      "name": "addLiquidity",
      "outputs": [
        {
          "internalType": "uint256",
          "name": "amountA",
          "type": "uint256"
        },
        {
          "internalType": "uint256",
          "name": "amountB",
          "type": "uint256"
        },
        {
          "internalType": "uint256",
          "name": "liquidity",
          "type": "uint256"
        }
      ],
      "stateMutability": "nonpayable",
      "type": "function"
    },
    {
      "inputs": [
        {
          "internalType": "address",
          "name": "token",
          "type": "address"
        },
        {
          "internalType": "uint256",
          "name": "amountTokenDesired",
          "type": "uint256"
        },
        {
          "internalType": "uint256",
          "name": "amountTokenMin",
          "type": "uint256"
        },
        {
          "internalType": "uint256",
          "name": "amountETHMin",
          "type": "uint256"
        },
        {
          "internalType": "address",
          "name": "to",
          "type": "address"
        },
        {
          "internalType": "uint256",
          "name": "deadline",
          "type": "uint256"
        }
      ],
      "name": "addLiquidityETH",
      "outputs": [
        {
          "internalType": "uint256",
          "name": "amountToken",
          "type": "uint256"
        },
        {
          "internalType": "uint256",
          "name": "amountETH",
          "type": "uint256"
        },
        {
          "internalType": "uint256",
          "name": "liquidity",
          "type": "uint256"
        }
      ],
      "stateMutability": "payable",
      "type": "function",
      "payable": true
    },
    {
      "inputs": [
        {
          "internalType": "address",
          "name": "tokenA",
          "type": "address"
        },
        {
          "internalType": "address",
          "name": "tokenB",
          "type": "address"
        },
        {
          "internalType": "uint256",
          "name": "liquidity",
          "type": "uint256"
        },
        {
          "internalType": "uint256",
          "name": "amountAMin",
          "type": "uint256"
        },
        {
          "internalType": "uint256",
          "name": "amountBMin",
          "type": "uint256"
        },
        {
          "internalType": "address",
          "name": "to",
          "type": "address"
        },
        {
          "internalType": "uint256",
          "name": "deadline",
          "type": "uint256"
        }
      ],
      "name": "removeLiquidity",
      "outputs": [
        {
          "internalType": "uint256",
          "name": "amountA",
          "type": "uint256"
        },
        {
          "internalType": "uint256",
          "name": "amountB",
          "type": "uint256"
        }
      ],
      "stateMutability": "nonpayable",
      "type": "function"
    },
    {
      "inputs": [
        {
          "internalType": "address",
          "name": "token",
          "type": "address"
        },
        {
          "internalType": "uint256",
          "name": "liquidity",
          "type": "uint256"
        },
        {
          "internalType": "uint256",
          "name": "amountTokenMin",
          "type": "uint256"
        },
        {
          "internalType": "uint256",
          "name": "amountETHMin",
          "type": "uint256"
        },
        {
          "internalType": "address",
          "name": "to",
          "type": "address"
        },
        {
          "internalType": "uint256",
          "name": "deadline",
          "type": "uint256"
        }
      ],
      "name": "removeLiquidityETH",
      "outputs": [
        {
          "internalType": "uint256",
          "name": "amountToken",
          "type": "uint256"
        },
        {
          "internalType": "uint256",
          "name": "amountETH",
          "type": "uint256"
        }
      ],
      "stateMutability": "nonpayable",
      "type": "function"
    },
    {
      "inputs": [
        {
          "internalType": "address",
          "name": "tokenA",
          "type": "address"
        },
        {
          "internalType": "address",
          "name": "tokenB",
          "type": "address"
        },
        {
          "internalType": "uint256",
          "name": "liquidity",
          "type": "uint256"
        },
        {
          "internalType": "uint256",
          "name": "amountAMin",
          "type": "uint256"
        },
        {
          "internalType": "uint256",
          "name": "amountBMin",
          "type": "uint256"
        },
        {
          "internalType": "address",
          "name": "to",
          "type": "address"
        },
        {
          "internalType": "uint256",
          "name": "deadline",
          "type": "uint256"
        },
        {
          "internalType": "bool",
          "name": "approveMax",
          "type": "bool"
        },
        {
          "internalType": "uint8",
          "name": "v",
          "type": "uint8"
        },
        {
          "internalType": "bytes32",
          "name": "r",
          "type": "bytes32"
        },
        {
          "internalType": "bytes32",
          "name": "s",
          "type": "bytes32"
        }
      ],
      "name": "removeLiquidityWithPermit",
      "outputs": [
        {
          "internalType": "uint256",
          "name": "amountA",
          "type": "uint256"
        },
        {
          "internalType": "uint256",
          "name": "amountB",
          "type": "uint256"
        }
      ],
      "stateMutability": "nonpayable",
      "type": "function"
    },
    {
      "inputs": [
        {
          "internalType": "address",
          "name": "token",
          "type": "address"
        },
        {
          "internalType": "uint256",
          "name": "liquidity",
          "type": "uint256"
        },
        {
          "internalType": "uint256",
          "name": "amountTokenMin",
          "type": "uint256"
        },
        {
          "internalType": "uint256",
          "name": "amountETHMin",
          "type": "uint256"
        },
        {
          "internalType": "address",
          "name": "to",
          "type": "address"
        },
        {
          "internalType": "uint256",
          "name": "deadline",
          "type": "uint256"
        },
        {
          "internalType": "bool",
          "name": "approveMax",
          "type": "bool"
        },
        {
          "internalType": "uint8",
          "name": "v",
          "type": "uint8"
        },
        {
          "internalType": "bytes32",
          "name": "r",
          "type": "bytes32"
        },
        {
          "internalType": "bytes32",
          "name": "s",
          "type": "bytes32"
        }
      ],
      "name": "removeLiquidityETHWithPermit",
      "outputs": [
        {
          "internalType": "uint256",
          "name": "amountToken",
          "type": "uint256"
        },
        {
          "internalType": "uint256",
          "name": "amountETH",
          "type": "uint256"
        }
      ],
      "stateMutability": "nonpayable",
      "type": "function"
    },
    {
      "inputs": [
        {
          "internalType": "address",
          "name": "token",
          "type": "address"
        },
        {
          "internalType": "uint256",
          "name": "liquidity",
          "type": "uint256"
        },
        {
          "internalType": "uint256",
          "name": "amountTokenMin",
          "type": "uint256"
        },
        {
          "internalType": "uint256",
          "name": "amountETHMin",
          "type": "uint256"
        },
        {
          "internalType": "address",
          "name": "to",
          "type": "address"
        },
        {
          "internalType": "uint256",
          "name": "deadline",
          "type": "uint256"
        }
      ],
      "name": "removeLiquidityETHSupportingFeeOnTransferTokens",
      "outputs": [
        {
          "internalType": "uint256",
          "name": "amountETH",
          "type": "uint256"
        }
      ],
      "stateMutability": "nonpayable",
      "type": "function"
    },
    {
      "inputs": [
        {
          "internalType": "address",
          "name": "token",
          "type": "address"
        },
        {
          "internalType": "uint256",
          "name": "liquidity",
          "type": "uint256"
        },
        {
          "internalType": "uint256",
          "name": "amountTokenMin",
          "type": "uint256"
        },
        {
          "internalType": "uint256",
          "name": "amountETHMin",
          "type": "uint256"
        },
        {
          "internalType": "address",
          "name": "to",
          "type": "address"
        },
        {
          "internalType": "uint256",
          "name": "deadline",
          "type": "uint256"
        },
        {
          "internalType": "bool",
          "name": "approveMax",
          "type": "bool"
        },
        {
          "internalType": "uint8",
          "name": "v",
          "type": "uint8"
        },
        {
          "internalType": "bytes32",
          "name": "r",
          "type": "bytes32"
        },
        {
          "internalType": "bytes32",
          "name": "s",
          "type": "bytes32"
        }
      ],
      "name": "removeLiquidityETHWithPermitSupportingFeeOnTransferTokens",
      "outputs": [
        {
          "internalType": "uint256",
          "name": "amountETH",
          "type": "uint256"
        }
      ],
      "stateMutability": "nonpayable",
      "type": "function"
    },
    {
      "inputs": [
        {
          "internalType": "uint256",
          "name": "amountIn",
          "type": "uint256"
        },
        {
          "internalType": "uint256",
          "name": "amountOutMin",
          "type": "uint256"
        },
        {
          "internalType": "address[]",
          "name": "path",
          "type": "address[]"
        },
        {
          "internalType": "address",
          "name": "to",
          "type": "address"
        },
        {
          "internalType": "uint256",
          "name": "deadline",
          "type": "uint256"
        }
      ],
      "name": "swapExactTokensForTokens",
      "outputs": [
        {
          "internalType": "uint256[]",
          "name": "amounts",
          "type": "uint256[]"
        }
      ],
      "stateMutability": "nonpayable",
      "type": "function"
    },
    {
      "inputs": [
        {
          "internalType": "uint256",
          "name": "amountOut",
          "type": "uint256"
        },
        {
          "internalType": "uint256",
          "name": "amountInMax",
          "type": "uint256"
        },
        {
          "internalType": "address[]",
          "name": "path",
          "type": "address[]"
        },
        {
          "internalType": "address",
          "name": "to",
          "type": "address"
        },
        {
          "internalType": "uint256",
          "name": "deadline",
          "type": "uint256"
        }
      ],
      "name": "swapTokensForExactTokens",
      "outputs": [
        {
          "internalType": "uint256[]",
          "name": "amounts",
          "type": "uint256[]"
        }
      ],
      "stateMutability": "nonpayable",
      "type": "function"
    },
    {
      "inputs": [
        {
          "internalType": "uint256",
          "name": "amountOutMin",
          "type": "uint256"
        },
        {
          "internalType": "address[]",
          "name": "path",
          "type": "address[]"
        },
        {
          "internalType": "address",
          "name": "to",
          "type": "address"
        },
        {
          "internalType": "uint256",
          "name": "deadline",
          "type": "uint256"
        }
      ],
      "name": "swapExactETHForTokens",
      "outputs": [
        {
          "internalType": "uint256[]",
          "name": "amounts",
          "type": "uint256[]"
        }
      ],
      "stateMutability": "payable",
      "type": "function",
      "payable": true
    },
    {
      "inputs": [
        {
          "internalType": "uint256",
          "name": "amountOut",
          "type": "uint256"
        },
        {
          "internalType": "uint256",
          "name": "amountInMax",
          "type": "uint256"
        },
        {
          "internalType": "address[]",
          "name": "path",
          "type": "address[]"
        },
        {
          "internalType": "address",
          "name": "to",
          "type": "address"
        },
        {
          "internalType": "uint256",
          "name": "deadline",
          "type": "uint256"
        }
      ],
      "name": "swapTokensForExactETH",
      "outputs": [
        {
          "internalType": "uint256[]",
          "name": "amounts",
          "type": "uint256[]"
        }
      ],
      "stateMutability": "nonpayable",
      "type": "function"
    },
    {
      "inputs": [
        {
          "internalType": "uint256",
          "name": "amountIn",
          "type": "uint256"
        },
        {
          "internalType": "uint256",
          "name": "amountOutMin",
          "type": "uint256"
        },
        {
          "internalType": "address[]",
          "name": "path",
          "type": "address[]"
        },
        {
          "internalType": "address",
          "name": "to",
          "type": "address"
        },
        {
          "internalType": "uint256",
          "name": "deadline",
          "type": "uint256"
        }
      ],
      "name": "swapExactTokensForETH",
      "outputs": [
        {
          "internalType": "uint256[]",
          "name": "amounts",
          "type": "uint256[]"
        }
      ],
      "stateMutability": "nonpayable",
      "type": "function"
    },
    {
      "inputs": [
        {
          "internalType": "uint256",
          "name": "amountOut",
          "type": "uint256"
        },
        {
          "internalType": "address[]",
          "name": "path",
          "type": "address[]"
        },
        {
          "internalType": "address",
          "name": "to",
          "type": "address"
        },
        {
          "internalType": "uint256",
          "name": "deadline",
          "type": "uint256"
        }
      ],
      "name": "swapETHForExactTokens",
      "outputs": [
        {
          "internalType": "uint256[]",
          "name": "amounts",
          "type": "uint256[]"
        }
      ],
      "stateMutability": "payable",
      "type": "function",
      "payable": true
    },
    {
      "inputs": [
        {
          "internalType": "uint256",
          "name": "amountIn",
          "type": "uint256"
        },
        {
          "internalType": "uint256",
          "name": "amountOutMin",
          "type": "uint256"
        },
        {
          "internalType": "address[]",
          "name": "path",
          "type": "address[]"
        },
        {
          "internalType": "address",
          "name": "to",
          "type": "address"
        },
        {
          "internalType": "uint256",
          "name": "deadline",
          "type": "uint256"
        }
      ],
      "name": "swapExactTokensForTokensSupportingFeeOnTransferTokens",
      "outputs": [],
      "stateMutability": "nonpayable",
      "type": "function"
    },
    {
      "inputs": [
        {
          "internalType": "uint256",
          "name": "amountOutMin",
          "type": "uint256"
        },
        {
          "internalType": "address[]",
          "name": "path",
          "type": "address[]"
        },
        {
          "internalType": "address",
          "name": "to",
          "type": "address"
        },
        {
          "internalType": "uint256",
          "name": "deadline",
          "type": "uint256"
        }
      ],
      "name": "swapExactETHForTokensSupportingFeeOnTransferTokens",
      "outputs": [],
      "stateMutability": "payable",
      "type": "function",
      "payable": true
    },
    {
      "inputs": [
        {
          "internalType": "uint256",
          "name": "amountIn",
          "type": "uint256"
        },
        {
          "internalType": "uint256",
          "name": "amountOutMin",
          "type": "uint256"
        },
        {
          "internalType": "address[]",
          "name": "path",
          "type": "address[]"
        },
        {
          "internalType": "address",
          "name": "to",
          "type": "address"
        },
        {
          "internalType": "uint256",
          "name": "deadline",
          "type": "uint256"
        }
      ],
      "name": "swapExactTokensForETHSupportingFeeOnTransferTokens",
      "outputs": [],
      "stateMutability": "nonpayable",
      "type": "function"
    },
    {
      "inputs": [
        {
          "internalType": "uint256",
          "name": "amountA",
          "type": "uint256"
        },
        {
          "internalType": "uint256",
          "name": "reserveA",
          "type": "uint256"
        },
        {
          "internalType": "uint256",
          "name": "reserveB",
          "type": "uint256"
        }
      ],
      "name": "quote",
      "outputs": [
        {
          "internalType": "uint256",
          "name": "amountB",
          "type": "uint256"
        }
      ],
      "stateMutability": "pure",
      "type": "function",
      "constant": true
    },
    {
      "inputs": [
        {
          "internalType": "uint256",
          "name": "amountIn",
          "type": "uint256"
        },
        {
          "internalType": "uint256",
          "name": "reserveIn",
          "type": "uint256"
        },
        {
          "internalType": "uint256",
          "name": "reserveOut",
          "type": "uint256"
        }
      ],
      "name": "getAmountOut",
      "outputs": [
        {
          "internalType": "uint256",
          "name": "amountOut",
          "type": "uint256"
        }
      ],
      "stateMutability": "pure",
      "type": "function",
      "constant": true
    },
    {
      "inputs": [
        {
          "internalType": "uint256",
          "name": "amountOut",
          "type": "uint256"
        },
        {
          "internalType": "uint256",
          "name": "reserveIn",
          "type": "uint256"
        },
        {
          "internalType": "uint256",
          "name": "reserveOut",
          "type": "uint256"
        }
      ],
      "name": "getAmountIn",
      "outputs": [
        {
          "internalType": "uint256",
          "name": "amountIn",
          "type": "uint256"
        }
      ],
      "stateMutability": "pure",
      "type": "function",
      "constant": true
    },
    {
      "inputs": [
        {
          "internalType": "uint256",
          "name": "amountIn",
          "type": "uint256"
        },
        {
          "internalType": "address[]",
          "name": "path",
          "type": "address[]"
        }
      ],
      "name": "getAmountsOut",
      "outputs": [
        {
          "internalType": "uint256[]",
          "name": "amounts",
          "type": "uint256[]"
        }
      ],
      "stateMutability": "view",
      "type": "function",
      "constant": true
    },
    {
      "inputs": [
        {
          "internalType": "uint256",
          "name": "amountOut",
          "type": "uint256"
        },
        {
          "internalType": "address[]",
          "name": "path",
          "type": "address[]"
        }
      ],
      "name": "getAmountsIn",
      "outputs": [
        {
          "internalType": "uint256[]",
          "name": "amounts",
          "type": "uint256[]"
        }
      ],
      "stateMutability": "view",
      "type": "function",
      "constant": true
    }
  ],
  "bytecode": "0x60c060405234801561001057600080fd5b506040516200475b3803806200475b8339818101604052604081101561003557600080fd5b5080516020909101516001600160601b0319606092831b8116608052911b1660a05260805160601c60a05160601c6145d16200018a6000398061017a5280610d145280610d4f5280610e46528061106452806113ee528061155452806118b752806119275280611a025280611adc5280611baa5280611cf05280611d785280611eae528061202f52806120e352806121af528061224452806122b8528061279b5280612a055280612a5b5280612a8f5280612b035280612c915280612dd45280612e5c525080610ed45280610fab528061112a5280611163528061129e528061147c528061153252806116a25280611c3d5280611daa5280611f2852806122ea528061252852806127205280612749528061277952806128e65280612a395280612d245280612e8e52806136fe52806137415280613a055280613b7b5280613f56528061400f52806140c252506145d16000f3fe60806040526004361061016a5760003560e01c80638322fff2116100d1578063baa2abde1161008a578063ded9382a11610064578063ded9382a14610b0a578063e8e3370014610b7d578063f305d71914610bfd578063fb3bdb4114610c43576101a3565b8063baa2abde146109e3578063c45a015514610a40578063d06ca61f14610a55576101a3565b80638322fff2146107f557806385f8c2591461080a5780638803dbee14610840578063ad615dec146108d6578063af2979eb1461090c578063b6f9de951461095f576101a3565b80634a25d94a116101235780634a25d94a1461050b5780635b0d5984146105a15780635c11d795146106145780635cb48592146106aa578063791ac947146106db5780637ff36ab514610771576101a3565b806302751cec146101a8578063054d50d41461021457806318cbafe51461025c5780631f00ca74146103425780632195995c146103f757806338ed173914610475576101a3565b366101a357336001600160a01b037f000000000000000000000000000000000000000000000000000000000000000016146101a157fe5b005b600080fd5b3480156101b457600080fd5b506101fb600480360360c08110156101cb57600080fd5b506001600160a01b0381358116916020810135916040820135916060810135916080820135169060a00135610cc7565b6040805192835260208301919091528051918290030190f35b34801561022057600080fd5b5061024a6004803603606081101561023757600080fd5b5080359060208101359060400135610de1565b60408051918252519081900360200190f35b34801561026857600080fd5b506102f2600480360360a081101561027f57600080fd5b813591602081013591810190606081016040820135600160201b8111156102a557600080fd5b8201836020820111156102b757600080fd5b803590602001918460208302840111600160201b831117156102d857600080fd5b91935091506001600160a01b038135169060200135610df6565b60408051602080825283518183015283519192839290830191858101910280838360005b8381101561032e578181015183820152602001610316565b505050509050019250505060405180910390f35b34801561034e57600080fd5b506102f26004803603604081101561036557600080fd5b81359190810190604081016020820135600160201b81111561038657600080fd5b82018360208201111561039857600080fd5b803590602001918460208302840111600160201b831117156103b957600080fd5b919080806020026020016040519081016040528093929190818152602001838360200280828437600092019190915250929550611123945050505050565b34801561040357600080fd5b506101fb600480360361016081101561041b57600080fd5b506001600160a01b038135811691602081013582169160408201359160608101359160808201359160a08101359091169060c08101359060e081013515159060ff6101008201351690610120810135906101400135611159565b34801561048157600080fd5b506102f2600480360360a081101561049857600080fd5b813591602081013591810190606081016040820135600160201b8111156104be57600080fd5b8201836020820111156104d057600080fd5b803590602001918460208302840111600160201b831117156104f157600080fd5b91935091506001600160a01b038135169060200135611253565b34801561051757600080fd5b506102f2600480360360a081101561052e57600080fd5b813591602081013591810190606081016040820135600160201b81111561055457600080fd5b82018360208201111561056657600080fd5b803590602001918460208302840111600160201b8311171561058757600080fd5b91935091506001600160a01b03813516906020013561139e565b3480156105ad57600080fd5b5061024a60048036036101408110156105c557600080fd5b506001600160a01b0381358116916020810135916040820135916060810135916080820135169060a08101359060c081013515159060ff60e0820135169061010081013590610120013561152a565b34801561062057600080fd5b506101a1600480360360a081101561063757600080fd5b813591602081013591810190606081016040820135600160201b81111561065d57600080fd5b82018360208201111561066f57600080fd5b803590602001918460208302840111600160201b8311171561069057600080fd5b91935091506001600160a01b038135169060200135611638565b3480156106b657600080fd5b506106bf6118b5565b604080516001600160a01b039092168252519081900360200190f35b3480156106e757600080fd5b506101a1600480360360a08110156106fe57600080fd5b813591602081013591810190606081016040820135600160201b81111561072457600080fd5b82018360208201111561073657600080fd5b803590602001918460208302840111600160201b8311171561075757600080fd5b91935091506001600160a01b0381351690602001356118d9565b6102f26004803603608081101561078757600080fd5b81359190810190604081016020820135600160201b8111156107a857600080fd5b8201836020820111156107ba57600080fd5b803590602001918460208302840111600160201b831117156107db57600080fd5b91935091506001600160a01b038135169060200135611b62565b34801561080157600080fd5b506106bf611eac565b34801561081657600080fd5b5061024a6004803603606081101561082d57600080fd5b5080359060208101359060400135611ed0565b34801561084c57600080fd5b506102f2600480360360a081101561086357600080fd5b813591602081013591810190606081016040820135600160201b81111561088957600080fd5b82018360208201111561089b57600080fd5b803590602001918460208302840111600160201b831117156108bc57600080fd5b91935091506001600160a01b038135169060200135611edd565b3480156108e257600080fd5b5061024a600480360360608110156108f957600080fd5b5080359060208101359060400135611fd6565b34801561091857600080fd5b5061024a600480360360c081101561092f57600080fd5b506001600160a01b0381358116916020810135916040820135916060810135916080820135169060a00135611fe3565b6101a16004803603608081101561097557600080fd5b81359190810190604081016020820135600160201b81111561099657600080fd5b8201836020820111156109a857600080fd5b803590602001918460208302840111600160201b831117156109c957600080fd5b91935091506001600160a01b038135169060200135612169565b3480156109ef57600080fd5b506101fb600480360360e0811015610a0657600080fd5b506001600160a01b038135811691602081013582169160408201359160608101359160808201359160a08101359091169060c001356124da565b348015610a4c57600080fd5b506106bf61271e565b348015610a6157600080fd5b506102f260048036036040811015610a7857600080fd5b81359190810190604081016020820135600160201b811115610a9957600080fd5b820183602082011115610aab57600080fd5b803590602001918460208302840111600160201b83111715610acc57600080fd5b919080806020026020016040519081016040528093929190818152602001838360200280828437600092019190915250929550612742945050505050565b348015610b1657600080fd5b506101fb6004803603610140811015610b2e57600080fd5b506001600160a01b0381358116916020810135916040820135916060810135916080820135169060a08101359060c081013515159060ff60e0820135169061010081013590610120013561276f565b348015610b8957600080fd5b50610bdf6004803603610100811015610ba157600080fd5b506001600160a01b038135811691602081013582169160408201359160608101359160808201359160a08101359160c0820135169060e00135612883565b60408051938452602084019290925282820152519081900360600190f35b610bdf600480360360c0811015610c1357600080fd5b506001600160a01b0381358116916020810135916040820135916060810135916080820135169060a001356129b6565b6102f260048036036080811015610c5957600080fd5b81359190810190604081016020820135600160201b811115610c7a57600080fd5b820183602082011115610c8c57600080fd5b803590602001918460208302840111600160201b83111715610cad57600080fd5b91935091506001600160a01b038135169060200135612c49565b6000808242811015610d0e576040805162461bcd60e51b815260206004820152601b602482015260008051602061439a833981519152604482015290519081900360640190fd5b610d3d897f00000000000000000000000000000000000000000000000000000000000000008a8a8a308a6124da565b9093509150610d4d898685612fc2565b7f00000000000000000000000000000000000000000000000000000000000000006001600160a01b0316632e1a7d4d836040518263ffffffff1660e01b815260040180828152602001915050600060405180830381600087803b158015610db357600080fd5b505af1158015610dc7573d6000803e3d6000fd5b50505050610dd5858361312c565b50965096945050505050565b6000610dee848484613224565b949350505050565b60608142811015610e3c576040805162461bcd60e51b815260206004820152601b602482015260008051602061439a833981519152604482015290519081900360640190fd5b6001600160a01b037f00000000000000000000000000000000000000000000000000000000000000001686866000198101818110610e7657fe5b905060200201356001600160a01b03166001600160a01b031614610ecf576040805162461bcd60e51b8152602060048201819052602482015260008051602061457c833981519152604482015290519081900360640190fd5b610f2d7f0000000000000000000000000000000000000000000000000000000000000000898888808060200260200160405190810160405280939291908181526020018383602002808284376000920191909152506132fc92505050565b91508682600184510381518110610f4057fe5b60200260200101511015610f855760405162461bcd60e51b815260040180806020018281038252602e8152602001806143ba602e913960400191505060405180910390fd5b61102386866000818110610f9557fe5b905060200201356001600160a01b0316336110097f00000000000000000000000000000000000000000000000000000000000000008a8a6000818110610fd757fe5b905060200201356001600160a01b03168b8b6001818110610ff457fe5b905060200201356001600160a01b0316613432565b8560008151811061101657fe5b60200260200101516134f2565b6110628287878080602002602001604051908101604052809392919081815260200183836020028082843760009201919091525030925061364f915050565b7f00000000000000000000000000000000000000000000000000000000000000006001600160a01b0316632e1a7d4d836001855103815181106110a157fe5b60200260200101516040518263ffffffff1660e01b815260040180828152602001915050600060405180830381600087803b1580156110df57600080fd5b505af11580156110f3573d6000803e3d6000fd5b50505050611118848360018551038151811061110b57fe5b602002602001015161312c565b509695505050505050565b60606111507f0000000000000000000000000000000000000000000000000000000000000000848461388c565b90505b92915050565b60008060006111897f00000000000000000000000000000000000000000000000000000000000000008f8f613432565b9050600087611198578c61119c565b6000195b6040805163d505accf60e01b815233600482015230602482015260448101839052606481018c905260ff8a16608482015260a4810189905260c4810188905290519192506001600160a01b0384169163d505accf9160e48082019260009290919082900301818387803b15801561121257600080fd5b505af1158015611226573d6000803e3d6000fd5b505050506112398f8f8f8f8f8f8f6124da565b809450819550505050509b509b9950505050505050505050565b60608142811015611299576040805162461bcd60e51b815260206004820152601b602482015260008051602061439a833981519152604482015290519081900360640190fd5b6112f77f0000000000000000000000000000000000000000000000000000000000000000898888808060200260200160405190810160405280939291908181526020018383602002808284376000920191909152506132fc92505050565b9150868260018451038151811061130a57fe5b6020026020010151101561134f5760405162461bcd60e51b815260040180806020018281038252602e8152602001806143ba602e913960400191505060405180910390fd5b61135f86866000818110610f9557fe5b6111188287878080602002602001604051908101604052809392919081815260200183836020028082843760009201919091525089925061364f915050565b606081428110156113e4576040805162461bcd60e51b815260206004820152601b602482015260008051602061439a833981519152604482015290519081900360640190fd5b6001600160a01b037f0000000000000000000000000000000000000000000000000000000000000000168686600019810181811061141e57fe5b905060200201356001600160a01b03166001600160a01b031614611477576040805162461bcd60e51b8152602060048201819052602482015260008051602061457c833981519152604482015290519081900360640190fd5b6114d57f00000000000000000000000000000000000000000000000000000000000000008988888080602002602001604051908101604052809392919081815260200183836020028082843760009201919091525061388c92505050565b915086826000815181106114e557fe5b60200260200101511115610f855760405162461bcd60e51b815260040180806020018281038252602a81526020018061445f602a913960400191505060405180910390fd5b6000806115787f00000000000000000000000000000000000000000000000000000000000000008d7f0000000000000000000000000000000000000000000000000000000000000000613432565b9050600086611587578b61158b565b6000195b6040805163d505accf60e01b815233600482015230602482015260448101839052606481018b905260ff8916608482015260a4810188905260c4810187905290519192506001600160a01b0384169163d505accf9160e48082019260009290919082900301818387803b15801561160157600080fd5b505af1158015611615573d6000803e3d6000fd5b505050506116278d8d8d8d8d8d611fe3565b9d9c50505050505050505050505050565b804281101561167c576040805162461bcd60e51b815260206004820152601b602482015260008051602061439a833981519152604482015290519081900360640190fd5b6116f18585600081811061168c57fe5b905060200201356001600160a01b0316336116eb7f0000000000000000000000000000000000000000000000000000000000000000898960008181106116ce57fe5b905060200201356001600160a01b03168a8a6001818110610ff457fe5b8a6134f2565b60008585600019810181811061170357fe5b905060200201356001600160a01b03166001600160a01b03166370a08231856040518263ffffffff1660e01b815260040180826001600160a01b0316815260200191505060206040518083038186803b15801561175f57600080fd5b505afa158015611773573d6000803e3d6000fd5b505050506040513d602081101561178957600080fd5b505160408051602088810282810182019093528882529293506117cb9290918991899182918501908490808284376000920191909152508892506139ae915050565b8661186e82888860001981018181106117e057fe5b905060200201356001600160a01b03166001600160a01b03166370a08231886040518263ffffffff1660e01b815260040180826001600160a01b0316815260200191505060206040518083038186803b15801561183c57600080fd5b505afa158015611850573d6000803e3d6000fd5b505050506040513d602081101561186657600080fd5b505190613cb0565b10156118ab5760405162461bcd60e51b815260040180806020018281038252602e8152602001806143ba602e913960400191505060405180910390fd5b5050505050505050565b7f000000000000000000000000000000000000000000000000000000000000000081565b804281101561191d576040805162461bcd60e51b815260206004820152601b602482015260008051602061439a833981519152604482015290519081900360640190fd5b6001600160a01b037f0000000000000000000000000000000000000000000000000000000000000000168585600019810181811061195757fe5b905060200201356001600160a01b03166001600160a01b0316146119b0576040805162461bcd60e51b8152602060048201819052602482015260008051602061457c833981519152604482015290519081900360640190fd5b6119c08585600081811061168c57fe5b6119fe8585808060200260200160405190810160405280939291908181526020018383602002808284376000920191909152503092506139ae915050565b60007f00000000000000000000000000000000000000000000000000000000000000006001600160a01b03166370a08231306040518263ffffffff1660e01b815260040180826001600160a01b0316815260200191505060206040518083038186803b158015611a6d57600080fd5b505afa158015611a81573d6000803e3d6000fd5b505050506040513d6020811015611a9757600080fd5b5051905086811015611ada5760405162461bcd60e51b815260040180806020018281038252602e8152602001806143ba602e913960400191505060405180910390fd5b7f00000000000000000000000000000000000000000000000000000000000000006001600160a01b0316632e1a7d4d826040518263ffffffff1660e01b815260040180828152602001915050600060405180830381600087803b158015611b4057600080fd5b505af1158015611b54573d6000803e3d6000fd5b505050506118ab848261312c565b60608142811015611ba8576040805162461bcd60e51b815260206004820152601b602482015260008051602061439a833981519152604482015290519081900360640190fd5b7f00000000000000000000000000000000000000000000000000000000000000006001600160a01b031686866000818110611bdf57fe5b905060200201356001600160a01b03166001600160a01b031614611c38576040805162461bcd60e51b8152602060048201819052602482015260008051602061457c833981519152604482015290519081900360640190fd5b611c967f0000000000000000000000000000000000000000000000000000000000000000348888808060200260200160405190810160405280939291908181526020018383602002808284376000920191909152506132fc92505050565b91508682600184510381518110611ca957fe5b60200260200101511015611cee5760405162461bcd60e51b815260040180806020018281038252602e8152602001806143ba602e913960400191505060405180910390fd5b7f00000000000000000000000000000000000000000000000000000000000000006001600160a01b031663d0e30db083600081518110611d2a57fe5b60200260200101516040518263ffffffff1660e01b81526004016000604051808303818588803b158015611d5d57600080fd5b505af1158015611d71573d6000803e3d6000fd5b50505050507f00000000000000000000000000000000000000000000000000000000000000006001600160a01b031663a9059cbb611dd67f0000000000000000000000000000000000000000000000000000000000000000898960008181106116ce57fe5b84600081518110611de357fe5b60200260200101516040518363ffffffff1660e01b815260040180836001600160a01b0316815260200182815260200192505050602060405180830381600087803b158015611e3157600080fd5b505af1158015611e45573d6000803e3d6000fd5b505050506040513d6020811015611e5b57600080fd5b5051611e6357fe5b611ea28287878080602002602001604051908101604052809392919081815260200183836020028082843760009201919091525089925061364f915050565b5095945050505050565b7f000000000000000000000000000000000000000000000000000000000000000090565b6000610dee848484613d00565b60608142811015611f23576040805162461bcd60e51b815260206004820152601b602482015260008051602061439a833981519152604482015290519081900360640190fd5b611f817f00000000000000000000000000000000000000000000000000000000000000008988888080602002602001604051908101604052809392919081815260200183836020028082843760009201919091525061388c92505050565b91508682600081518110611f9157fe5b6020026020010151111561134f5760405162461bcd60e51b815260040180806020018281038252602a81526020018061445f602a913960400191505060405180910390fd5b6000610dee848484613dd8565b60008142811015612029576040805162461bcd60e51b815260206004820152601b602482015260008051602061439a833981519152604482015290519081900360640190fd5b612058887f000000000000000000000000000000000000000000000000000000000000000089898930896124da565b9050809250506120e188858a6001600160a01b03166370a08231306040518263ffffffff1660e01b815260040180826001600160a01b0316815260200191505060206040518083038186803b1580156120b057600080fd5b505afa1580156120c4573d6000803e3d6000fd5b505050506040513d60208110156120da57600080fd5b5051612fc2565b7f00000000000000000000000000000000000000000000000000000000000000006001600160a01b0316632e1a7d4d836040518263ffffffff1660e01b815260040180828152602001915050600060405180830381600087803b15801561214757600080fd5b505af115801561215b573d6000803e3d6000fd5b50505050611118848361312c565b80428110156121ad576040805162461bcd60e51b815260206004820152601b602482015260008051602061439a833981519152604482015290519081900360640190fd5b7f00000000000000000000000000000000000000000000000000000000000000006001600160a01b0316858560008181106121e457fe5b905060200201356001600160a01b03166001600160a01b03161461223d576040805162461bcd60e51b8152602060048201819052602482015260008051602061457c833981519152604482015290519081900360640190fd5b60003490507f00000000000000000000000000000000000000000000000000000000000000006001600160a01b031663d0e30db0826040518263ffffffff1660e01b81526004016000604051808303818588803b15801561229d57600080fd5b505af11580156122b1573d6000803e3d6000fd5b50505050507f00000000000000000000000000000000000000000000000000000000000000006001600160a01b031663a9059cbb6123167f0000000000000000000000000000000000000000000000000000000000000000898960008181106116ce57fe5b836040518363ffffffff1660e01b815260040180836001600160a01b0316815260200182815260200192505050602060405180830381600087803b15801561235d57600080fd5b505af1158015612371573d6000803e3d6000fd5b505050506040513d602081101561238757600080fd5b505161238f57fe5b6000868660001981018181106123a157fe5b905060200201356001600160a01b03166001600160a01b03166370a08231866040518263ffffffff1660e01b815260040180826001600160a01b0316815260200191505060206040518083038186803b1580156123fd57600080fd5b505afa158015612411573d6000803e3d6000fd5b505050506040513d602081101561242757600080fd5b505160408051602089810282810182019093528982529293506124699290918a918a9182918501908490808284376000920191909152508992506139ae915050565b8761186e828989600019810181811061247e57fe5b905060200201356001600160a01b03166001600160a01b03166370a08231896040518263ffffffff1660e01b815260040180826001600160a01b0316815260200191505060206040518083038186803b15801561183c57600080fd5b6000808242811015612521576040805162461bcd60e51b815260206004820152601b602482015260008051602061439a833981519152604482015290519081900360640190fd5b600061254e7f00000000000000000000000000000000000000000000000000000000000000008c8c613432565b604080516323b872dd60e01b81523360048201526001600160a01b03831660248201819052604482018d9052915192935090916323b872dd916064808201926020929091908290030181600087803b1580156125a957600080fd5b505af11580156125bd573d6000803e3d6000fd5b505050506040513d60208110156125d357600080fd5b50506040805163226bf2d160e21b81526001600160a01b03888116600483015282516000938493928616926389afcb44926024808301939282900301818787803b15801561262057600080fd5b505af1158015612634573d6000803e3d6000fd5b505050506040513d604081101561264a57600080fd5b508051602090910151909250905060006126648e8e613e7e565b509050806001600160a01b03168e6001600160a01b03161461268757818361268a565b82825b90975095508a8710156126ce5760405162461bcd60e51b815260040180806020018281038252602981526020018061450c6029913960400191505060405180910390fd5b8986101561270d5760405162461bcd60e51b81526004018080602001828103825260298152602001806144b46029913960400191505060405180910390fd5b505050505097509795505050505050565b7f000000000000000000000000000000000000000000000000000000000000000081565b60606111507f000000000000000000000000000000000000000000000000000000000000000084846132fc565b60008060006127bf7f00000000000000000000000000000000000000000000000000000000000000008e7f0000000000000000000000000000000000000000000000000000000000000000613432565b90506000876127ce578c6127d2565b6000195b6040805163d505accf60e01b815233600482015230602482015260448101839052606481018c905260ff8a16608482015260a4810189905260c4810188905290519192506001600160a01b0384169163d505accf9160e48082019260009290919082900301818387803b15801561284857600080fd5b505af115801561285c573d6000803e3d6000fd5b5050505061286e8e8e8e8e8e8e610cc7565b909f909e509c50505050505050505050505050565b600080600083428110156128cc576040805162461bcd60e51b815260206004820152601b602482015260008051602061439a833981519152604482015290519081900360640190fd5b6128da8c8c8c8c8c8c613f46565b9094509250600061290c7f00000000000000000000000000000000000000000000000000000000000000008e8e613432565b905061291a8d3383886134f2565b6129268c3383876134f2565b806001600160a01b0316636a627842886040518263ffffffff1660e01b815260040180826001600160a01b03168152602001915050602060405180830381600087803b15801561297557600080fd5b505af1158015612989573d6000803e3d6000fd5b505050506040513d602081101561299f57600080fd5b5051949d939c50939a509198505050505050505050565b600080600083428110156129ff576040805162461bcd60e51b815260206004820152601b602482015260008051602061439a833981519152604482015290519081900360640190fd5b612a2d8a7f00000000000000000000000000000000000000000000000000000000000000008b348c8c613f46565b90945092506000612a7f7f00000000000000000000000000000000000000000000000000000000000000008c7f0000000000000000000000000000000000000000000000000000000000000000613432565b9050612a8d8b3383886134f2565b7f00000000000000000000000000000000000000000000000000000000000000006001600160a01b031663d0e30db0856040518263ffffffff1660e01b81526004016000604051808303818588803b158015612ae857600080fd5b505af1158015612afc573d6000803e3d6000fd5b50505050507f00000000000000000000000000000000000000000000000000000000000000006001600160a01b031663a9059cbb82866040518363ffffffff1660e01b815260040180836001600160a01b0316815260200182815260200192505050602060405180830381600087803b158015612b7857600080fd5b505af1158015612b8c573d6000803e3d6000fd5b505050506040513d6020811015612ba257600080fd5b5051612baa57fe5b806001600160a01b0316636a627842886040518263ffffffff1660e01b815260040180826001600160a01b03168152602001915050602060405180830381600087803b158015612bf957600080fd5b505af1158015612c0d573d6000803e3d6000fd5b505050506040513d6020811015612c2357600080fd5b5051925034841015612c3b57612c3b3385340361312c565b505096509650969350505050565b60608142811015612c8f576040805162461bcd60e51b815260206004820152601b602482015260008051602061439a833981519152604482015290519081900360640190fd5b7f00000000000000000000000000000000000000000000000000000000000000006001600160a01b031686866000818110612cc657fe5b905060200201356001600160a01b03166001600160a01b031614612d1f576040805162461bcd60e51b8152602060048201819052602482015260008051602061457c833981519152604482015290519081900360640190fd5b612d7d7f00000000000000000000000000000000000000000000000000000000000000008888888080602002602001604051908101604052809392919081815260200183836020028082843760009201919091525061388c92505050565b91503482600081518110612d8d57fe5b60200260200101511115612dd25760405162461bcd60e51b815260040180806020018281038252602a81526020018061445f602a913960400191505060405180910390fd5b7f00000000000000000000000000000000000000000000000000000000000000006001600160a01b031663d0e30db083600081518110612e0e57fe5b60200260200101516040518263ffffffff1660e01b81526004016000604051808303818588803b158015612e4157600080fd5b505af1158015612e55573d6000803e3d6000fd5b50505050507f00000000000000000000000000000000000000000000000000000000000000006001600160a01b031663a9059cbb612eba7f0000000000000000000000000000000000000000000000000000000000000000898960008181106116ce57fe5b84600081518110612ec757fe5b60200260200101516040518363ffffffff1660e01b815260040180836001600160a01b0316815260200182815260200192505050602060405180830381600087803b158015612f1557600080fd5b505af1158015612f29573d6000803e3d6000fd5b505050506040513d6020811015612f3f57600080fd5b5051612f4757fe5b612f868287878080602002602001604051908101604052809392919081815260200183836020028082843760009201919091525089925061364f915050565b81600081518110612f9357fe5b6020026020010151341115611ea257611ea23383600081518110612fb357fe5b6020026020010151340361312c565b604080516001600160a01b038481166024830152604480830185905283518084039091018152606490920183526020820180516001600160e01b031663a9059cbb60e01b178152925182516000946060949389169392918291908083835b6020831061303f5780518252601f199092019160209182019101613020565b6001836020036101000a0380198251168184511680821785525050505050509050019150506000604051808303816000865af19150503d80600081146130a1576040519150601f19603f3d011682016040523d82523d6000602084013e6130a6565b606091505b50915091508180156130d45750805115806130d457508080602001905160208110156130d157600080fd5b50515b613125576040805162461bcd60e51b815260206004820152601f60248201527f5472616e7366657248656c7065723a205452414e534645525f4641494c454400604482015290519081900360640190fd5b5050505050565b604080516000808252602082019092526001600160a01b0384169083906040518082805190602001908083835b602083106131785780518252601f199092019160209182019101613159565b6001836020036101000a03801982511681845116808217855250505050505090500191505060006040518083038185875af1925050503d80600081146131da576040519150601f19603f3d011682016040523d82523d6000602084013e6131df565b606091505b505090508061321f5760405162461bcd60e51b81526004018080602001828103825260238152602001806145596023913960400191505060405180910390fd5b505050565b60008084116132645760405162461bcd60e51b815260040180806020018281038252602e8152602001806143e8602e913960400191505060405180910390fd5b6000831180156132745750600082115b6132af5760405162461bcd60e51b815260040180806020018281038252602b815260200180614489602b913960400191505060405180910390fd5b60006132bd856103e56141d7565b905060006132cb82856141d7565b905060006132e5836132df886103e86141d7565b9061423a565b90508082816132f057fe5b04979650505050505050565b606060028251101561333f5760405162461bcd60e51b815260040180806020018281038252602181526020018061443e6021913960400191505060405180910390fd5b815167ffffffffffffffff8111801561335757600080fd5b50604051908082528060200260200182016040528015613381578160200160208202803683370190505b509050828160008151811061339257fe5b60200260200101818152505060005b600183510381101561342a576000806133e4878685815181106133c057fe5b60200260200101518786600101815181106133d757fe5b6020026020010151614289565b915091506134068484815181106133f757fe5b60200260200101518383613224565b84846001018151811061341557fe5b602090810291909101015250506001016133a1565b509392505050565b60008060006134418585613e7e565b604080516bffffffffffffffffffffffff19606094851b811660208084019190915293851b81166034830152825160288184030181526048830184528051908501206001600160f81b031960688401529a90941b9093166069840152607d8301989098527f350bac35df54ee1d290ea04add79e768b5d3d034bef410497991499407bbbc7c609d808401919091528851808403909101815260bd909201909752805196019590952095945050505050565b604080516001600160a01b0385811660248301528481166044830152606480830185905283518084039091018152608490920183526020820180516001600160e01b03166323b872dd60e01b17815292518251600094606094938a169392918291908083835b602083106135775780518252601f199092019160209182019101613558565b6001836020036101000a0380198251168184511680821785525050505050509050019150506000604051808303816000865af19150503d80600081146135d9576040519150601f19603f3d011682016040523d82523d6000602084013e6135de565b606091505b509150915081801561360c57508051158061360c575080806020019051602081101561360957600080fd5b50515b6136475760405162461bcd60e51b81526004018080602001828103825260248152602001806145356024913960400191505060405180910390fd5b505050505050565b60005b60018351038110156138865760008084838151811061366d57fe5b602002602001015185846001018151811061368457fe5b602002602001015191509150600061369c8383613e7e565b50905060008785600101815181106136b057fe5b60200260200101519050600080836001600160a01b0316866001600160a01b0316146136de578260006136e2565b6000835b91509150600060028a510388106136f9578861373a565b61373a7f0000000000000000000000000000000000000000000000000000000000000000878c8b6002018151811061372d57fe5b6020026020010151613432565b90506137677f00000000000000000000000000000000000000000000000000000000000000008888613432565b6001600160a01b031663022c0d9f84848460006040519080825280601f01601f1916602001820160405280156137a4576020820181803683370190505b506040518563ffffffff1660e01b815260040180858152602001848152602001836001600160a01b0316815260200180602001828103825283818151815260200191508051906020019080838360005b8381101561380c5781810151838201526020016137f4565b50505050905090810190601f1680156138395780820380516001836020036101000a031916815260200191505b5095505050505050600060405180830381600087803b15801561385b57600080fd5b505af115801561386f573d6000803e3d6000fd5b505060019099019850613652975050505050505050565b50505050565b60606002825110156138cf5760405162461bcd60e51b815260040180806020018281038252602181526020018061443e6021913960400191505060405180910390fd5b815167ffffffffffffffff811180156138e757600080fd5b50604051908082528060200260200182016040528015613911578160200160208202803683370190505b509050828160018351038151811061392557fe5b60209081029190910101528151600019015b801561342a576000806139678786600186038151811061395357fe5b60200260200101518786815181106133d757fe5b9150915061398984848151811061397a57fe5b60200260200101518383613d00565b84600185038151811061399857fe5b6020908102919091010152505060001901613937565b60005b600183510381101561321f576000808483815181106139cc57fe5b60200260200101518584600101815181106139e357fe5b60200260200101519150915060006139fb8383613e7e565b5090506000613a2b7f00000000000000000000000000000000000000000000000000000000000000008585613432565b9050600080600080846001600160a01b0316630902f1ac6040518163ffffffff1660e01b815260040160606040518083038186803b158015613a6c57600080fd5b505afa158015613a80573d6000803e3d6000fd5b505050506040513d6060811015613a9657600080fd5b5080516020909101516001600160701b0391821693501690506000806001600160a01b038a811690891614613acc578284613acf565b83835b91509150613b24828b6001600160a01b03166370a082318a6040518263ffffffff1660e01b815260040180826001600160a01b0316815260200191505060206040518083038186803b15801561183c57600080fd5b9550613b31868383613224565b945050505050600080856001600160a01b0316886001600160a01b031614613b5b57826000613b5f565b6000835b91509150600060028c51038a10613b76578a613baa565b613baa7f0000000000000000000000000000000000000000000000000000000000000000898e8d6002018151811061372d57fe5b604080516000808252602082019283905263022c0d9f60e01b835260248201878152604483018790526001600160a01b038086166064850152608060848501908152845160a48601819052969750908c169563022c0d9f958a958a958a9591949193919260c486019290918190849084905b83811015613c34578181015183820152602001613c1c565b50505050905090810190601f168015613c615780820380516001836020036101000a031916815260200191505b5095505050505050600060405180830381600087803b158015613c8357600080fd5b505af1158015613c97573d6000803e3d6000fd5b50506001909b019a506139b19950505050505050505050565b80820382811115611153576040805162461bcd60e51b815260206004820152601560248201527464732d6d6174682d7375622d756e646572666c6f7760581b604482015290519081900360640190fd5b6000808411613d405760405162461bcd60e51b815260040180806020018281038252602f8152602001806144dd602f913960400191505060405180910390fd5b600083118015613d505750600082115b613d8b5760405162461bcd60e51b815260040180806020018281038252602b815260200180614489602b913960400191505060405180910390fd5b6000613da36103e8613d9d86886141d7565b906141d7565b90506000613db76103e5613d9d8689613cb0565b9050613dce6001828481613dc757fe5b049061423a565b9695505050505050565b6000808411613e185760405162461bcd60e51b81526004018080602001828103825260288152602001806144166028913960400191505060405180910390fd5b600083118015613e285750600082115b613e635760405162461bcd60e51b815260040180806020018281038252602b815260200180614489602b913960400191505060405180910390fd5b82613e6e85846141d7565b81613e7557fe5b04949350505050565b600080826001600160a01b0316846001600160a01b03161415613ed25760405162461bcd60e51b81526004018080602001828103825260288152602001806143516028913960400191505060405180910390fd5b826001600160a01b0316846001600160a01b031610613ef2578284613ef5565b83835b90925090506001600160a01b038216613f3f5760405162461bcd60e51b81526004018080602001828103825260218152602001806143796021913960400191505060405180910390fd5b9250929050565b60008060006001600160a01b03167f00000000000000000000000000000000000000000000000000000000000000006001600160a01b031663e6a439058a8a6040518363ffffffff1660e01b815260040180836001600160a01b03168152602001826001600160a01b031681526020019250505060206040518083038186803b158015613fd257600080fd5b505afa158015613fe6573d6000803e3d6000fd5b505050506040513d6020811015613ffc57600080fd5b50516001600160a01b031614156140ba577f00000000000000000000000000000000000000000000000000000000000000006001600160a01b031663c9c6539689896040518363ffffffff1660e01b815260040180836001600160a01b03168152602001826001600160a01b0316815260200192505050602060405180830381600087803b15801561408d57600080fd5b505af11580156140a1573d6000803e3d6000fd5b505050506040513d60208110156140b757600080fd5b50505b6000806140e87f00000000000000000000000000000000000000000000000000000000000000008b8b614289565b915091508160001480156140fa575080155b1561410a578793508692506141ca565b6000614117898484613dd8565b905087811161416a578581101561415f5760405162461bcd60e51b81526004018080602001828103825260298152602001806144b46029913960400191505060405180910390fd5b8894509250826141c8565b6000614177898486613dd8565b90508981111561418357fe5b878110156141c25760405162461bcd60e51b815260040180806020018281038252602981526020018061450c6029913960400191505060405180910390fd5b94508793505b505b5050965096945050505050565b60008115806141f2575050808202828282816141ef57fe5b04145b611153576040805162461bcd60e51b815260206004820152601460248201527364732d6d6174682d6d756c2d6f766572666c6f7760601b604482015290519081900360640190fd5b80820182811015611153576040805162461bcd60e51b815260206004820152601460248201527364732d6d6174682d6164642d6f766572666c6f7760601b604482015290519081900360640190fd5b60008060006142988585613e7e565b5090506000806142a9888888613432565b6001600160a01b0316630902f1ac6040518163ffffffff1660e01b815260040160606040518083038186803b1580156142e157600080fd5b505afa1580156142f5573d6000803e3d6000fd5b505050506040513d606081101561430b57600080fd5b5080516020909101516001600160701b0391821693501690506001600160a01b038781169084161461433e578082614341565b81815b9099909850965050505050505056fe57696e7465727377617056324c6962726172793a204944454e544943414c5f41444452455353455357696e7465727377617056324c6962726172793a205a45524f5f4144445245535357696e746572737761705632526f757465723a2045585049524544000000000057696e746572737761705632526f757465723a20494e53554646494349454e545f4f55545055545f414d4f554e5457696e7465727377617056324c6962726172793a20494e53554646494349454e545f494e5055545f414d4f554e5457696e7465727377617056324c6962726172793a20494e53554646494349454e545f414d4f554e5457696e7465727377617056324c6962726172793a20494e56414c49445f5041544857696e746572737761705632526f757465723a204558434553534956455f494e5055545f414d4f554e5457696e7465727377617056324c6962726172793a20494e53554646494349454e545f4c495155494449545957696e746572737761705632526f757465723a20494e53554646494349454e545f425f414d4f554e5457696e7465727377617056324c6962726172793a20494e53554646494349454e545f4f55545055545f414d4f554e5457696e746572737761705632526f757465723a20494e53554646494349454e545f415f414d4f554e545472616e7366657248656c7065723a205452414e534645525f46524f4d5f4641494c45445472616e7366657248656c7065723a205748545f5452414e534645525f4641494c454457696e746572737761705632526f757465723a20494e56414c49445f50415448a26469706673582212204012a06afb38c838f49d71c7d8f8231c97e6e6e09143b0a1df6e7462e1f51a2264736f6c63430007050033",
  "immutableReferences": {
    "9811": [
      {
        "length": 32,
        "start": 3796
      },
      {
        "length": 32,
        "start": 4011
      },
      {
        "length": 32,
        "start": 4394
      },
      {
        "length": 32,
        "start": 4451
      },
      {
        "length": 32,
        "start": 4766
      },
      {
        "length": 32,
        "start": 5244
      },
      {
        "length": 32,
        "start": 5426
      },
      {
        "length": 32,
        "start": 5794
      },
      {
        "length": 32,
        "start": 7229
      },
      {
        "length": 32,
        "start": 7594
      },
      {
        "length": 32,
        "start": 7976
      },
      {
        "length": 32,
        "start": 8938
      },
      {
        "length": 32,
        "start": 9512
      },
      {
        "length": 32,
        "start": 10016
      },
      {
        "length": 32,
        "start": 10057
      },
      {
        "length": 32,
        "start": 10105
      },
      {
        "length": 32,
        "start": 10470
      },
      {
        "length": 32,
        "start": 10809
      },
      {
        "length": 32,
        "start": 11556
      },
      {
        "length": 32,
        "start": 11918
      },
      {
        "length": 32,
        "start": 14078
      },
      {
        "length": 32,
        "start": 14145
      },
      {
        "length": 32,
        "start": 14853
      },
      {
        "length": 32,
        "start": 15227
      },
      {
        "length": 32,
        "start": 16214
      },
      {
        "length": 32,
        "start": 16399
      },
      {
        "length": 32,
        "start": 16578
      }
    ],
    "9813": [
      {
        "length": 32,
        "start": 378
      },
      {
        "length": 32,
        "start": 3348
      },
      {
        "length": 32,
        "start": 3407
      },
      {
        "length": 32,
        "start": 3654
      },
      {
        "length": 32,
        "start": 4196
      },
      {
        "length": 32,
        "start": 5102
      },
      {
        "length": 32,
        "start": 5460
      },
      {
        "length": 32,
        "start": 6327
      },
      {
        "length": 32,
        "start": 6439
      },
      {
        "length": 32,
        "start": 6658
      },
      {
        "length": 32,
        "start": 6876
      },
      {
        "length": 32,
        "start": 7082
      },
      {
        "length": 32,
        "start": 7408
      },
      {
        "length": 32,
        "start": 7544
      },
      {
        "length": 32,
        "start": 7854
      },
      {
        "length": 32,
        "start": 8239
      },
      {
        "length": 32,
        "start": 8419
      },
      {
        "length": 32,
        "start": 8623
      },
      {
        "length": 32,
        "start": 8772
      },
      {
        "length": 32,
        "start": 8888
      },
      {
        "length": 32,
        "start": 10139
      },
      {
        "length": 32,
        "start": 10757
      },
      {
        "length": 32,
        "start": 10843
      },
      {
        "length": 32,
        "start": 10895
      },
      {
        "length": 32,
        "start": 11011
      },
      {
        "length": 32,
        "start": 11409
      },
      {
        "length": 32,
        "start": 11732
      },
      {
        "length": 32,
        "start": 11868
      }
    ]
  },
  "source": "// SPDX-License-Identifier: GPL-3.0-or-later\n\npragma solidity ^0.7.0;\n\nimport './interfaces/IWinterswapV2Factory.sol';\nimport './libraries/TransferHelper.sol';\n\nimport './interfaces/IWinterswapV2Router02.sol';\nimport './libraries/WinterswapV2Library.sol';\nimport './libraries/SafeMathSwap.sol';\nimport '../openzeppelin/token/HRC20/IHRC20.sol';\nimport '../wht/IWHT.sol';\n\ncontract WinterswapV2Router02 is IWinterswapV2Router02 {\n    using SafeMathSwap for uint;\n\n    address public immutable override factory;\n    address public immutable WHT;\n\n    function ETH() override external view returns (address){\n        return WHT;\n    }\n\n\n    modifier ensure(uint deadline) {\n        require(deadline >= block.timestamp, 'WinterswapV2Router: EXPIRED');\n        _;\n    }\n\n    constructor(address _factory, address _WHT) {\n        factory = _factory;\n        WHT = _WHT;\n    }\n\n    receive() external payable {\n        assert(msg.sender == WHT); // only accept WHT via fallback from the WHT contract\n    }\n\n    // **** ADD LIQUIDITY ****\n    function _addLiquidity(\n        address tokenA,\n        address tokenB,\n        uint amountADesired,\n        uint amountBDesired,\n        uint amountAMin,\n        uint amountBMin\n    ) internal virtual returns (uint amountA, uint amountB) {\n        // create the pair if it doesn't exist yet\n        if (IWinterswapV2Factory(factory).getPair(tokenA, tokenB) == address(0)) {\n            IWinterswapV2Factory(factory).createPair(tokenA, tokenB);\n        }\n        (uint reserveA, uint reserveB) = WinterswapV2Library.getReserves(factory, tokenA, tokenB);\n        if (reserveA == 0 && reserveB == 0) {\n            (amountA, amountB) = (amountADesired, amountBDesired);\n        } else {\n            uint amountBOptimal = WinterswapV2Library.quote(amountADesired, reserveA, reserveB);\n            if (amountBOptimal <= amountBDesired) {\n                require(amountBOptimal >= amountBMin, 'WinterswapV2Router: INSUFFICIENT_B_AMOUNT');\n                (amountA, amountB) = (amountADesired, amountBOptimal);\n            } else {\n                uint amountAOptimal = WinterswapV2Library.quote(amountBDesired, reserveB, reserveA);\n                assert(amountAOptimal <= amountADesired);\n                require(amountAOptimal >= amountAMin, 'WinterswapV2Router: INSUFFICIENT_A_AMOUNT');\n                (amountA, amountB) = (amountAOptimal, amountBDesired);\n            }\n        }\n    }\n    function addLiquidity(\n        address tokenA,\n        address tokenB,\n        uint amountADesired,\n        uint amountBDesired,\n        uint amountAMin,\n        uint amountBMin,\n        address to,\n        uint deadline\n    ) external virtual override ensure(deadline) returns (uint amountA, uint amountB, uint liquidity) {\n        (amountA, amountB) = _addLiquidity(tokenA, tokenB, amountADesired, amountBDesired, amountAMin, amountBMin);\n        address pair = WinterswapV2Library.pairFor(factory, tokenA, tokenB);\n        TransferHelper.safeTransferFrom(tokenA, msg.sender, pair, amountA);\n        TransferHelper.safeTransferFrom(tokenB, msg.sender, pair, amountB);\n        liquidity = IWinterswapV2Pair(pair).mint(to);\n    }\n    function addLiquidityETH(\n        address token,\n        uint amountTokenDesired,\n        uint amountTokenMin,\n        uint amountETHMin,\n        address to,\n        uint deadline\n    ) external virtual override payable ensure(deadline) returns (uint amountToken, uint amountETH, uint liquidity) {\n        (amountToken, amountETH) = _addLiquidity(\n            token,\n            WHT,\n            amountTokenDesired,\n            msg.value,\n            amountTokenMin,\n            amountETHMin\n        );\n        address pair = WinterswapV2Library.pairFor(factory, token, WHT);\n        TransferHelper.safeTransferFrom(token, msg.sender, pair, amountToken);\n        IWHT(WHT).deposit{value: amountETH}();\n        assert(IWHT(WHT).transfer(pair, amountETH));\n        liquidity = IWinterswapV2Pair(pair).mint(to);\n        // refund dust eth, if any\n        if (msg.value > amountETH) TransferHelper.safeTransferWHT(msg.sender, msg.value - amountETH);\n    }\n\n    // **** REMOVE LIQUIDITY ****\n    function removeLiquidity(\n        address tokenA,\n        address tokenB,\n        uint liquidity,\n        uint amountAMin,\n        uint amountBMin,\n        address to,\n        uint deadline\n    ) public virtual override ensure(deadline) returns (uint amountA, uint amountB) {\n        address pair = WinterswapV2Library.pairFor(factory, tokenA, tokenB);\n        IWinterswapV2Pair(pair).transferFrom(msg.sender, pair, liquidity); // send liquidity to pair\n        (uint amount0, uint amount1) = IWinterswapV2Pair(pair).burn(to);\n        (address token0,) = WinterswapV2Library.sortTokens(tokenA, tokenB);\n        (amountA, amountB) = tokenA == token0 ? (amount0, amount1) : (amount1, amount0);\n        require(amountA >= amountAMin, 'WinterswapV2Router: INSUFFICIENT_A_AMOUNT');\n        require(amountB >= amountBMin, 'WinterswapV2Router: INSUFFICIENT_B_AMOUNT');\n    }\n    function removeLiquidityETH(\n        address token,\n        uint liquidity,\n        uint amountTokenMin,\n        uint amountETHMin,\n        address to,\n        uint deadline\n    ) public virtual override ensure(deadline) returns (uint amountToken, uint amountETH) {\n        (amountToken, amountETH) = removeLiquidity(\n            token,\n            WHT,\n            liquidity,\n            amountTokenMin,\n            amountETHMin,\n            address(this),\n            deadline\n        );\n        TransferHelper.safeTransfer(token, to, amountToken);\n        IWHT(WHT).withdraw(amountETH);\n        TransferHelper.safeTransferWHT(to, amountETH);\n    }\n    function removeLiquidityWithPermit(\n        address tokenA,\n        address tokenB,\n        uint liquidity,\n        uint amountAMin,\n        uint amountBMin,\n        address to,\n        uint deadline,\n        bool approveMax, uint8 v, bytes32 r, bytes32 s\n    ) external virtual override returns (uint amountA, uint amountB) {\n        address pair = WinterswapV2Library.pairFor(factory, tokenA, tokenB);\n        uint value = approveMax ? uint(-1) : liquidity;\n        IWinterswapV2Pair(pair).permit(msg.sender, address(this), value, deadline, v, r, s);\n        (amountA, amountB) = removeLiquidity(tokenA, tokenB, liquidity, amountAMin, amountBMin, to, deadline);\n    }\n    function removeLiquidityETHWithPermit(\n        address token,\n        uint liquidity,\n        uint amountTokenMin,\n        uint amountETHMin,\n        address to,\n        uint deadline,\n        bool approveMax, uint8 v, bytes32 r, bytes32 s\n    ) external virtual override returns (uint amountToken, uint amountETH) {\n        address pair = WinterswapV2Library.pairFor(factory, token, WHT);\n        uint value = approveMax ? uint(-1) : liquidity;\n        IWinterswapV2Pair(pair).permit(msg.sender, address(this), value, deadline, v, r, s);\n        (amountToken, amountETH) = removeLiquidityETH(token, liquidity, amountTokenMin, amountETHMin, to, deadline);\n    }\n\n    // **** REMOVE LIQUIDITY (supporting fee-on-transfer tokens) ****\n    function removeLiquidityETHSupportingFeeOnTransferTokens(\n        address token,\n        uint liquidity,\n        uint amountTokenMin,\n        uint amountETHMin,\n        address to,\n        uint deadline\n    ) public virtual override ensure(deadline) returns (uint amountETH) {\n        (, amountETH) = removeLiquidity(\n            token,\n            WHT,\n            liquidity,\n            amountTokenMin,\n            amountETHMin,\n            address(this),\n            deadline\n        );\n        TransferHelper.safeTransfer(token, to, IHRC20(token).balanceOf(address(this)));\n        IWHT(WHT).withdraw(amountETH);\n        TransferHelper.safeTransferWHT(to, amountETH);\n    }\n    function removeLiquidityETHWithPermitSupportingFeeOnTransferTokens(\n        address token,\n        uint liquidity,\n        uint amountTokenMin,\n        uint amountETHMin,\n        address to,\n        uint deadline,\n        bool approveMax, uint8 v, bytes32 r, bytes32 s\n    ) external virtual override returns (uint amountETH) {\n        address pair = WinterswapV2Library.pairFor(factory, token, WHT);\n        uint value = approveMax ? uint(-1) : liquidity;\n        IWinterswapV2Pair(pair).permit(msg.sender, address(this), value, deadline, v, r, s);\n        amountETH = removeLiquidityETHSupportingFeeOnTransferTokens(\n            token, liquidity, amountTokenMin, amountETHMin, to, deadline\n        );\n    }\n\n    // **** SWAP ****\n    // requires the initial amount to have already been sent to the first pair\n    function _swap(uint[] memory amounts, address[] memory path, address _to) internal virtual {\n        for (uint i; i < path.length - 1; i++) {\n            (address input, address output) = (path[i], path[i + 1]);\n            (address token0,) = WinterswapV2Library.sortTokens(input, output);\n            uint amountOut = amounts[i + 1];\n            (uint amount0Out, uint amount1Out) = input == token0 ? (uint(0), amountOut) : (amountOut, uint(0));\n            address to = i < path.length - 2 ? WinterswapV2Library.pairFor(factory, output, path[i + 2]) : _to;\n            IWinterswapV2Pair(WinterswapV2Library.pairFor(factory, input, output)).swap(\n                amount0Out, amount1Out, to, new bytes(0)\n            );\n        }\n    }\n    function swapExactTokensForTokens(\n        uint amountIn,\n        uint amountOutMin,\n        address[] calldata path,\n        address to,\n        uint deadline\n    ) external virtual override ensure(deadline) returns (uint[] memory amounts) {\n        amounts = WinterswapV2Library.getAmountsOut(factory, amountIn, path);\n        require(amounts[amounts.length - 1] >= amountOutMin, 'WinterswapV2Router: INSUFFICIENT_OUTPUT_AMOUNT');\n        TransferHelper.safeTransferFrom(\n            path[0], msg.sender, WinterswapV2Library.pairFor(factory, path[0], path[1]), amounts[0]\n        );\n        _swap(amounts, path, to);\n    }\n    function swapTokensForExactTokens(\n        uint amountOut,\n        uint amountInMax,\n        address[] calldata path,\n        address to,\n        uint deadline\n    ) external virtual override ensure(deadline) returns (uint[] memory amounts) {\n        amounts = WinterswapV2Library.getAmountsIn(factory, amountOut, path);\n        require(amounts[0] <= amountInMax, 'WinterswapV2Router: EXCESSIVE_INPUT_AMOUNT');\n        TransferHelper.safeTransferFrom(\n            path[0], msg.sender, WinterswapV2Library.pairFor(factory, path[0], path[1]), amounts[0]\n        );\n        _swap(amounts, path, to);\n    }\n    function swapExactETHForTokens(uint amountOutMin, address[] calldata path, address to, uint deadline)\n        external\n        virtual\n        override\n        payable\n        ensure(deadline)\n        returns (uint[] memory amounts)\n    {\n        require(path[0] == WHT, 'WinterswapV2Router: INVALID_PATH');\n        amounts = WinterswapV2Library.getAmountsOut(factory, msg.value, path);\n        require(amounts[amounts.length - 1] >= amountOutMin, 'WinterswapV2Router: INSUFFICIENT_OUTPUT_AMOUNT');\n        IWHT(WHT).deposit{value: amounts[0]}();\n        assert(IWHT(WHT).transfer(WinterswapV2Library.pairFor(factory, path[0], path[1]), amounts[0]));\n        _swap(amounts, path, to);\n    }\n    function swapTokensForExactETH(uint amountOut, uint amountInMax, address[] calldata path, address to, uint deadline)\n        external\n        virtual\n        override\n        ensure(deadline)\n        returns (uint[] memory amounts)\n    {\n        require(path[path.length - 1] == WHT, 'WinterswapV2Router: INVALID_PATH');\n        amounts = WinterswapV2Library.getAmountsIn(factory, amountOut, path);\n        require(amounts[0] <= amountInMax, 'WinterswapV2Router: EXCESSIVE_INPUT_AMOUNT');\n        TransferHelper.safeTransferFrom(\n            path[0], msg.sender, WinterswapV2Library.pairFor(factory, path[0], path[1]), amounts[0]\n        );\n        _swap(amounts, path, address(this));\n        IWHT(WHT).withdraw(amounts[amounts.length - 1]);\n        TransferHelper.safeTransferWHT(to, amounts[amounts.length - 1]);\n    }\n    function swapExactTokensForETH(uint amountIn, uint amountOutMin, address[] calldata path, address to, uint deadline)\n        external\n        virtual\n        override\n        ensure(deadline)\n        returns (uint[] memory amounts)\n    {\n        require(path[path.length - 1] == WHT, 'WinterswapV2Router: INVALID_PATH');\n        amounts = WinterswapV2Library.getAmountsOut(factory, amountIn, path);\n        require(amounts[amounts.length - 1] >= amountOutMin, 'WinterswapV2Router: INSUFFICIENT_OUTPUT_AMOUNT');\n        TransferHelper.safeTransferFrom(\n            path[0], msg.sender, WinterswapV2Library.pairFor(factory, path[0], path[1]), amounts[0]\n        );\n        _swap(amounts, path, address(this));\n        IWHT(WHT).withdraw(amounts[amounts.length - 1]);\n        TransferHelper.safeTransferWHT(to, amounts[amounts.length - 1]);\n    }\n    function swapETHForExactTokens(uint amountOut, address[] calldata path, address to, uint deadline)\n        external\n        virtual\n        override\n        payable\n        ensure(deadline)\n        returns (uint[] memory amounts)\n    {\n        require(path[0] == WHT, 'WinterswapV2Router: INVALID_PATH');\n        amounts = WinterswapV2Library.getAmountsIn(factory, amountOut, path);\n        require(amounts[0] <= msg.value, 'WinterswapV2Router: EXCESSIVE_INPUT_AMOUNT');\n        IWHT(WHT).deposit{value: amounts[0]}();\n        assert(IWHT(WHT).transfer(WinterswapV2Library.pairFor(factory, path[0], path[1]), amounts[0]));\n        _swap(amounts, path, to);\n        // refund dust eth, if any\n        if (msg.value > amounts[0]) TransferHelper.safeTransferWHT(msg.sender, msg.value - amounts[0]);\n    }\n\n    // **** SWAP (supporting fee-on-transfer tokens) ****\n    // requires the initial amount to have already been sent to the first pair\n    function _swapSupportingFeeOnTransferTokens(address[] memory path, address _to) internal virtual {\n        for (uint i; i < path.length - 1; i++) {\n            (address input, address output) = (path[i], path[i + 1]);\n            (address token0,) = WinterswapV2Library.sortTokens(input, output);\n            IWinterswapV2Pair pair = IWinterswapV2Pair(WinterswapV2Library.pairFor(factory, input, output));\n            uint amountInput;\n            uint amountOutput;\n            { // scope to avoid stack too deep errors\n            (uint reserve0, uint reserve1,) = pair.getReserves();\n            (uint reserveInput, uint reserveOutput) = input == token0 ? (reserve0, reserve1) : (reserve1, reserve0);\n            amountInput = IHRC20(input).balanceOf(address(pair)).sub(reserveInput);\n            amountOutput = WinterswapV2Library.getAmountOut(amountInput, reserveInput, reserveOutput);\n            }\n            (uint amount0Out, uint amount1Out) = input == token0 ? (uint(0), amountOutput) : (amountOutput, uint(0));\n            address to = i < path.length - 2 ? WinterswapV2Library.pairFor(factory, output, path[i + 2]) : _to;\n            pair.swap(amount0Out, amount1Out, to, new bytes(0));\n        }\n    }\n    function swapExactTokensForTokensSupportingFeeOnTransferTokens(\n        uint amountIn,\n        uint amountOutMin,\n        address[] calldata path,\n        address to,\n        uint deadline\n    ) external virtual override ensure(deadline) {\n        TransferHelper.safeTransferFrom(\n            path[0], msg.sender, WinterswapV2Library.pairFor(factory, path[0], path[1]), amountIn\n        );\n        uint balanceBefore = IHRC20(path[path.length - 1]).balanceOf(to);\n        _swapSupportingFeeOnTransferTokens(path, to);\n        require(\n            IHRC20(path[path.length - 1]).balanceOf(to).sub(balanceBefore) >= amountOutMin,\n            'WinterswapV2Router: INSUFFICIENT_OUTPUT_AMOUNT'\n        );\n    }\n    function swapExactETHForTokensSupportingFeeOnTransferTokens(\n        uint amountOutMin,\n        address[] calldata path,\n        address to,\n        uint deadline\n    )\n        external\n        virtual\n        override\n        payable\n        ensure(deadline)\n    {\n        require(path[0] == WHT, 'WinterswapV2Router: INVALID_PATH');\n        uint amountIn = msg.value;\n        IWHT(WHT).deposit{value: amountIn}();\n        assert(IWHT(WHT).transfer(WinterswapV2Library.pairFor(factory, path[0], path[1]), amountIn));\n        uint balanceBefore = IHRC20(path[path.length - 1]).balanceOf(to);\n        _swapSupportingFeeOnTransferTokens(path, to);\n        require(\n            IHRC20(path[path.length - 1]).balanceOf(to).sub(balanceBefore) >= amountOutMin,\n            'WinterswapV2Router: INSUFFICIENT_OUTPUT_AMOUNT'\n        );\n    }\n    function swapExactTokensForETHSupportingFeeOnTransferTokens(\n        uint amountIn,\n        uint amountOutMin,\n        address[] calldata path,\n        address to,\n        uint deadline\n    )\n        external\n        virtual\n        override\n        ensure(deadline)\n    {\n        require(path[path.length - 1] == WHT, 'WinterswapV2Router: INVALID_PATH');\n        TransferHelper.safeTransferFrom(\n            path[0], msg.sender, WinterswapV2Library.pairFor(factory, path[0], path[1]), amountIn\n        );\n        _swapSupportingFeeOnTransferTokens(path, address(this));\n        uint amountOut = IHRC20(WHT).balanceOf(address(this));\n        require(amountOut >= amountOutMin, 'WinterswapV2Router: INSUFFICIENT_OUTPUT_AMOUNT');\n        IWHT(WHT).withdraw(amountOut);\n        TransferHelper.safeTransferWHT(to, amountOut);\n    }\n\n    // **** LIBRARY FUNCTIONS ****\n    function quote(uint amountA, uint reserveA, uint reserveB) public pure virtual override returns (uint amountB) {\n        return WinterswapV2Library.quote(amountA, reserveA, reserveB);\n    }\n\n    function getAmountOut(uint amountIn, uint reserveIn, uint reserveOut)\n        public\n        pure\n        virtual\n        override\n        returns (uint amountOut)\n    {\n        return WinterswapV2Library.getAmountOut(amountIn, reserveIn, reserveOut);\n    }\n\n    function getAmountIn(uint amountOut, uint reserveIn, uint reserveOut)\n        public\n        pure\n        virtual\n        override\n        returns (uint amountIn)\n    {\n        return WinterswapV2Library.getAmountIn(amountOut, reserveIn, reserveOut);\n    }\n\n    function getAmountsOut(uint amountIn, address[] memory path)\n        public\n        view\n        virtual\n        override\n        returns (uint[] memory amounts)\n    {\n        return WinterswapV2Library.getAmountsOut(factory, amountIn, path);\n    }\n\n    function getAmountsIn(uint amountOut, address[] memory path)\n        public\n        view\n        virtual\n        override\n        returns (uint[] memory amounts)\n    {\n        return WinterswapV2Library.getAmountsIn(factory, amountOut, path);\n    }\n}\n",
  "sourcePath": "/home/lycrus/WebstormProjects/WinterSwap/contracts/swap/WinterswapV2Router02.sol",
  "compiler": {
    "name": "solc",
    "version": "0.7.5+commit.eb77ed08.Emscripten.clang"
  },
  "schemaVersion": "3.3.2",
  "updatedAt": "2020-12-13T09:14:03.362Z",
  "networkType": "ethereum",
  "devdoc": {
    "kind": "dev",
    "methods": {},
    "version": 1
  },
  "userdoc": {
    "kind": "user",
    "methods": {},
    "version": 1
  }
}