{
  "contractName": "WNS",
  "abi": [
    {
      "inputs": [
        {
          "internalType": "address",
          "name": "_admin",
          "type": "address"
        }
      ],
      "stateMutability": "nonpayable",
      "type": "constructor"
    },
    {
      "anonymous": false,
      "inputs": [
        {
          "indexed": true,
          "internalType": "address",
          "name": "previousOwner",
          "type": "address"
        },
        {
          "indexed": true,
          "internalType": "address",
          "name": "newOwner",
          "type": "address"
        }
      ],
      "name": "OwnershipTransferred",
      "type": "event"
    },
    {
      "inputs": [],
      "name": "farm",
      "outputs": [
        {
          "internalType": "address",
          "name": "",
          "type": "address"
        }
      ],
      "stateMutability": "view",
      "type": "function",
      "constant": true
    },
    {
      "inputs": [],
      "name": "owner",
      "outputs": [
        {
          "internalType": "address",
          "name": "",
          "type": "address"
        }
      ],
      "stateMutability": "view",
      "type": "function",
      "constant": true
    },
    {
      "inputs": [],
      "name": "renounceOwnership",
      "outputs": [],
      "stateMutability": "nonpayable",
      "type": "function"
    },
    {
      "inputs": [],
      "name": "router",
      "outputs": [
        {
          "internalType": "address",
          "name": "",
          "type": "address"
        }
      ],
      "stateMutability": "view",
      "type": "function",
      "constant": true
    },
    {
      "inputs": [],
      "name": "snowball",
      "outputs": [
        {
          "internalType": "address",
          "name": "",
          "type": "address"
        }
      ],
      "stateMutability": "view",
      "type": "function",
      "constant": true
    },
    {
      "inputs": [],
      "name": "snowman",
      "outputs": [
        {
          "internalType": "address",
          "name": "",
          "type": "address"
        }
      ],
      "stateMutability": "view",
      "type": "function",
      "constant": true
    },
    {
      "inputs": [],
      "name": "swap_factory",
      "outputs": [
        {
          "internalType": "address",
          "name": "",
          "type": "address"
        }
      ],
      "stateMutability": "view",
      "type": "function",
      "constant": true
    },
    {
      "inputs": [
        {
          "internalType": "address",
          "name": "newOwner",
          "type": "address"
        }
      ],
      "name": "transferOwnership",
      "outputs": [],
      "stateMutability": "nonpayable",
      "type": "function"
    },
    {
      "inputs": [],
      "name": "wht",
      "outputs": [
        {
          "internalType": "address",
          "name": "",
          "type": "address"
        }
      ],
      "stateMutability": "view",
      "type": "function",
      "constant": true
    },
    {
      "inputs": [
        {
          "internalType": "address",
          "name": "_router",
          "type": "address"
        },
        {
          "internalType": "address",
          "name": "_swap_factory",
          "type": "address"
        },
        {
          "internalType": "address",
          "name": "_wht",
          "type": "address"
        },
        {
          "internalType": "address",
          "name": "_snowman",
          "type": "address"
        },
        {
          "internalType": "address",
          "name": "_snowball",
          "type": "address"
        },
        {
          "internalType": "address",
          "name": "_farm",
          "type": "address"
        }
      ],
      "name": "setAll",
      "outputs": [],
      "stateMutability": "nonpayable",
      "type": "function"
    }
  ],
  "bytecode": "0x608060405234801561001057600080fd5b506040516106ac3803806106ac8339818101604052602081101561003357600080fd5b5051600061003f610086565b600080546001600160a01b0319166001600160a01b03831690811782556040519293509160008051602061068c833981519152908290a3506100808161008a565b50610182565b3390565b610092610086565b6000546001600160a01b039081169116146100f4576040805162461bcd60e51b815260206004820181905260248201527f4f776e61626c653a2063616c6c6572206973206e6f7420746865206f776e6572604482015290519081900360640190fd5b6001600160a01b0381166101395760405162461bcd60e51b81526004018080602001828103825260268152602001806106666026913960400191505060405180910390fd5b600080546040516001600160a01b038085169392169160008051602061068c83398151915291a3600080546001600160a01b0319166001600160a01b0392909216919091179055565b6104d5806101916000396000f3fe608060405234801561001057600080fd5b506004361061009e5760003560e01c80638da5cb5b116100665780638da5cb5b146100e9578063cad631b5146100f1578063d736f8a6146100f9578063f2fde38b14610147578063f887ea401461016d5761009e565b806328f2642f146100a357806336e9332d146100c75780636b9c1856146100cf578063715018a6146100d7578063785f3499146100e1575b600080fd5b6100ab610175565b604080516001600160a01b039092168252519081900360200190f35b6100ab610184565b6100ab610193565b6100df6101a2565b005b6100ab610256565b6100ab610265565b6100ab610274565b6100df600480360360c081101561010f57600080fd5b506001600160a01b038135811691602081013582169160408201358116916060810135821691608082013581169160a0013516610283565b6100df6004803603602081101561015d57600080fd5b50356001600160a01b031661035c565b6100ab610466565b6005546001600160a01b031681565b6006546001600160a01b031681565b6004546001600160a01b031681565b6101aa610475565b6000546001600160a01b0390811691161461020c576040805162461bcd60e51b815260206004820181905260248201527f4f776e61626c653a2063616c6c6572206973206e6f7420746865206f776e6572604482015290519081900360640190fd5b600080546040516001600160a01b03909116907f8be0079c531659141344cd1fd0a4f28419497f9722a3daafe3b4186f6b6457e0908390a3600080546001600160a01b0319169055565b6003546001600160a01b031681565b6000546001600160a01b031690565b6002546001600160a01b031681565b61028b610475565b6000546001600160a01b039081169116146102ed576040805162461bcd60e51b815260206004820181905260248201527f4f776e61626c653a2063616c6c6572206973206e6f7420746865206f776e6572604482015290519081900360640190fd5b600180546001600160a01b03199081166001600160a01b0398891617909155600280548216968816969096179095556003805486169487169490941790935560048054851692861692909217909155600580548416918516919091179055600680549092169216919091179055565b610364610475565b6000546001600160a01b039081169116146103c6576040805162461bcd60e51b815260206004820181905260248201527f4f776e61626c653a2063616c6c6572206973206e6f7420746865206f776e6572604482015290519081900360640190fd5b6001600160a01b03811661040b5760405162461bcd60e51b815260040180806020018281038252602681526020018061047a6026913960400191505060405180910390fd5b600080546040516001600160a01b03808516939216917f8be0079c531659141344cd1fd0a4f28419497f9722a3daafe3b4186f6b6457e091a3600080546001600160a01b0319166001600160a01b0392909216919091179055565b6001546001600160a01b031681565b339056fe4f776e61626c653a206e6577206f776e657220697320746865207a65726f2061646472657373a2646970667358221220b46276bd54653e08fbc2c4b81ab14828d405e211a00085b55169f547467e0eee64736f6c634300070500334f776e61626c653a206e6577206f776e657220697320746865207a65726f20616464726573738be0079c531659141344cd1fd0a4f28419497f9722a3daafe3b4186f6b6457e0",
  "immutableReferences": {},
  "source": "// SPDX-License-Identifier: GPL-3.0-or-later\n\npragma solidity ^0.7.0;\n\nimport \"../openzeppelin/access/Ownable.sol\";\nimport \"./IWNS.sol\";\n\ncontract WNS is IWNS, Ownable{\n\n    constructor(address _admin){\n        transferOwnership(_admin);\n    }\n\n    address public override router;\n    address public override swap_factory;\n    address public override wht;\n    address public override snowman;\n    address public override snowball;\n    address public override farm;\n\n    function setAll(address _router, address _swap_factory, address _wht, address _snowman, address _snowball, address _farm) external onlyOwner{\n        router = _router;\n        swap_factory = _swap_factory;\n        wht = _wht;\n        snowman = _snowman;\n        snowball = _snowball;\n        farm = _farm;\n    }\n}\n",
  "sourcePath": "/home/lycrus/WebstormProjects/WinterSwap/contracts/wns/WNS.sol",
  "compiler": {
    "name": "solc",
    "version": "0.7.5+commit.eb77ed08.Emscripten.clang"
  },
  "schemaVersion": "3.3.2",
  "updatedAt": "2020-12-14T18:08:05.848Z",
  "networkType": "ethereum",
  "devdoc": {
    "kind": "dev",
    "methods": {
      "owner()": {
        "details": "Returns the address of the current owner."
      },
      "renounceOwnership()": {
        "details": "Leaves the contract without owner. It will not be possible to call `onlyOwner` functions anymore. Can only be called by the current owner. NOTE: Renouncing ownership will leave the contract without an owner, thereby removing any functionality that is only available to the owner."
      },
      "transferOwnership(address)": {
        "details": "Transfers ownership of the contract to a new account (`newOwner`). Can only be called by the current owner."
      }
    },
    "version": 1
  },
  "userdoc": {
    "kind": "user",
    "methods": {},
    "version": 1
  }
}