{
  "contractName": "WNS",
  "abi": [
    {
      "inputs": [
        {
          "internalType": "address",
          "name": "_admin",
          "type": "address"
        }
      ],
      "stateMutability": "nonpayable",
      "type": "constructor"
    },
    {
      "anonymous": false,
      "inputs": [
        {
          "indexed": true,
          "internalType": "address",
          "name": "previousOwner",
          "type": "address"
        },
        {
          "indexed": true,
          "internalType": "address",
          "name": "newOwner",
          "type": "address"
        }
      ],
      "name": "OwnershipTransferred",
      "type": "event"
    },
    {
      "inputs": [],
      "name": "farm",
      "outputs": [
        {
          "internalType": "address",
          "name": "",
          "type": "address"
        }
      ],
      "stateMutability": "view",
      "type": "function",
      "constant": true
    },
    {
      "inputs": [],
      "name": "lottery",
      "outputs": [
        {
          "internalType": "address",
          "name": "",
          "type": "address"
        }
      ],
      "stateMutability": "view",
      "type": "function",
      "constant": true
    },
    {
      "inputs": [],
      "name": "owner",
      "outputs": [
        {
          "internalType": "address",
          "name": "",
          "type": "address"
        }
      ],
      "stateMutability": "view",
      "type": "function",
      "constant": true
    },
    {
      "inputs": [],
      "name": "renounceOwnership",
      "outputs": [],
      "stateMutability": "nonpayable",
      "type": "function"
    },
    {
      "inputs": [],
      "name": "router",
      "outputs": [
        {
          "internalType": "address",
          "name": "",
          "type": "address"
        }
      ],
      "stateMutability": "view",
      "type": "function",
      "constant": true
    },
    {
      "inputs": [],
      "name": "snowball",
      "outputs": [
        {
          "internalType": "address",
          "name": "",
          "type": "address"
        }
      ],
      "stateMutability": "view",
      "type": "function",
      "constant": true
    },
    {
      "inputs": [],
      "name": "snowman",
      "outputs": [
        {
          "internalType": "address",
          "name": "",
          "type": "address"
        }
      ],
      "stateMutability": "view",
      "type": "function",
      "constant": true
    },
    {
      "inputs": [],
      "name": "swap_factory",
      "outputs": [
        {
          "internalType": "address",
          "name": "",
          "type": "address"
        }
      ],
      "stateMutability": "view",
      "type": "function",
      "constant": true
    },
    {
      "inputs": [
        {
          "internalType": "address",
          "name": "newOwner",
          "type": "address"
        }
      ],
      "name": "transferOwnership",
      "outputs": [],
      "stateMutability": "nonpayable",
      "type": "function"
    },
    {
      "inputs": [],
      "name": "wht",
      "outputs": [
        {
          "internalType": "address",
          "name": "",
          "type": "address"
        }
      ],
      "stateMutability": "view",
      "type": "function",
      "constant": true
    },
    {
      "inputs": [
        {
          "internalType": "address",
          "name": "_router",
          "type": "address"
        },
        {
          "internalType": "address",
          "name": "_swap_factory",
          "type": "address"
        },
        {
          "internalType": "address",
          "name": "_wht",
          "type": "address"
        },
        {
          "internalType": "address",
          "name": "_snowman",
          "type": "address"
        },
        {
          "internalType": "address",
          "name": "_snowball",
          "type": "address"
        },
        {
          "internalType": "address",
          "name": "_farm",
          "type": "address"
        },
        {
          "internalType": "address",
          "name": "_lottery",
          "type": "address"
        }
      ],
      "name": "setAll",
      "outputs": [],
      "stateMutability": "nonpayable",
      "type": "function"
    }
  ],
  "bytecode": "0x608060405234801561001057600080fd5b506040516106e73803806106e78339818101604052602081101561003357600080fd5b5051600061003f610086565b600080546001600160a01b0319166001600160a01b0383169081178255604051929350916000805160206106c7833981519152908290a3506100808161008a565b50610182565b3390565b610092610086565b6000546001600160a01b039081169116146100f4576040805162461bcd60e51b815260206004820181905260248201527f4f776e61626c653a2063616c6c6572206973206e6f7420746865206f776e6572604482015290519081900360640190fd5b6001600160a01b0381166101395760405162461bcd60e51b81526004018080602001828103825260268152602001806106a16026913960400191505060405180910390fd5b600080546040516001600160a01b03808516939216916000805160206106c783398151915291a3600080546001600160a01b0319166001600160a01b0392909216919091179055565b610510806101916000396000f3fe608060405234801561001057600080fd5b50600436106100a95760003560e01c8063785f349911610071578063785f3499146101445780638da5cb5b1461014c578063ba13a57214610154578063cad631b51461015c578063f2fde38b14610164578063f887ea401461018a576100a9565b806328f2642f146100ae57806336e9332d146100d257806355c1d8b0146100da5780636b9c185614610134578063715018a61461013c575b600080fd5b6100b6610192565b604080516001600160a01b039092168252519081900360200190f35b6100b66101a1565b610132600480360360e08110156100f057600080fd5b506001600160a01b038135811691602081013582169160408201358116916060810135821691608082013581169160a081013582169160c090910135166101b0565b005b6100b6610298565b6101326102a7565b6100b661035b565b6100b661036a565b6100b6610379565b6100b6610388565b6101326004803603602081101561017a57600080fd5b50356001600160a01b0316610397565b6100b66104a1565b6005546001600160a01b031681565b6006546001600160a01b031681565b6101b86104b0565b6000546001600160a01b0390811691161461021a576040805162461bcd60e51b815260206004820181905260248201527f4f776e61626c653a2063616c6c6572206973206e6f7420746865206f776e6572604482015290519081900360640190fd5b600180546001600160a01b03199081166001600160a01b03998a1617909155600280548216978916979097179096556003805487169588169590951790945560048054861693871693909317909255600580548516918616919091179055600680548416918516919091179055600780549092169216919091179055565b6004546001600160a01b031681565b6102af6104b0565b6000546001600160a01b03908116911614610311576040805162461bcd60e51b815260206004820181905260248201527f4f776e61626c653a2063616c6c6572206973206e6f7420746865206f776e6572604482015290519081900360640190fd5b600080546040516001600160a01b03909116907f8be0079c531659141344cd1fd0a4f28419497f9722a3daafe3b4186f6b6457e0908390a3600080546001600160a01b0319169055565b6003546001600160a01b031681565b6000546001600160a01b031690565b6007546001600160a01b031681565b6002546001600160a01b031681565b61039f6104b0565b6000546001600160a01b03908116911614610401576040805162461bcd60e51b815260206004820181905260248201527f4f776e61626c653a2063616c6c6572206973206e6f7420746865206f776e6572604482015290519081900360640190fd5b6001600160a01b0381166104465760405162461bcd60e51b81526004018080602001828103825260268152602001806104b56026913960400191505060405180910390fd5b600080546040516001600160a01b03808516939216917f8be0079c531659141344cd1fd0a4f28419497f9722a3daafe3b4186f6b6457e091a3600080546001600160a01b0319166001600160a01b0392909216919091179055565b6001546001600160a01b031681565b339056fe4f776e61626c653a206e6577206f776e657220697320746865207a65726f2061646472657373a264697066735822122001af6acccc341997506119db83ad70cb635d416192d1c949ca2bcf4a5995c80c64736f6c634300070500334f776e61626c653a206e6577206f776e657220697320746865207a65726f20616464726573738be0079c531659141344cd1fd0a4f28419497f9722a3daafe3b4186f6b6457e0",
  "immutableReferences": {},
  "source": "// SPDX-License-Identifier: GPL-3.0-or-later\n\npragma solidity ^0.7.0;\n\nimport \"../openzeppelin/access/Ownable.sol\";\nimport \"./IWNS.sol\";\n\ncontract WNS is IWNS, Ownable{\n\n    constructor(address _admin){\n        transferOwnership(_admin);\n    }\n\n    address public override router;\n    address public override swap_factory;\n    address public override wht;\n    address public override snowman;\n    address public override snowball;\n    address public override farm;\n    address public override lottery;\n\n    function setAll(address _router, address _swap_factory, address _wht,\n        address _snowman, address _snowball, address _farm, address _lottery) external onlyOwner{\n        router = _router;\n        swap_factory = _swap_factory;\n        wht = _wht;\n        snowman = _snowman;\n        snowball = _snowball;\n        farm = _farm;\n        lottery = _lottery;\n    }\n}\n",
  "sourcePath": "/home/lycrus/WebstormProjects/WinterSwap/contracts/wns/WNS.sol",
  "compiler": {
    "name": "solc",
    "version": "0.7.5+commit.eb77ed08.Emscripten.clang"
  },
  "schemaVersion": "3.3.2",
  "updatedAt": "2020-12-15T12:04:12.582Z",
  "networkType": "ethereum",
  "devdoc": {
    "kind": "dev",
    "methods": {
      "owner()": {
        "details": "Returns the address of the current owner."
      },
      "renounceOwnership()": {
        "details": "Leaves the contract without owner. It will not be possible to call `onlyOwner` functions anymore. Can only be called by the current owner. NOTE: Renouncing ownership will leave the contract without an owner, thereby removing any functionality that is only available to the owner."
      },
      "transferOwnership(address)": {
        "details": "Transfers ownership of the contract to a new account (`newOwner`). Can only be called by the current owner."
      }
    },
    "version": 1
  },
  "userdoc": {
    "kind": "user",
    "methods": {},
    "version": 1
  }
}