{
  "contractName": "WNSKey",
  "abi": [
    {
      "inputs": [],
      "name": "FARM",
      "outputs": [
        {
          "internalType": "bytes32",
          "name": "",
          "type": "bytes32"
        }
      ],
      "stateMutability": "view",
      "type": "function"
    },
    {
      "inputs": [],
      "name": "Router",
      "outputs": [
        {
          "internalType": "bytes32",
          "name": "",
          "type": "bytes32"
        }
      ],
      "stateMutability": "view",
      "type": "function"
    },
    {
      "inputs": [],
      "name": "SNOWBALL",
      "outputs": [
        {
          "internalType": "bytes32",
          "name": "",
          "type": "bytes32"
        }
      ],
      "stateMutability": "view",
      "type": "function"
    },
    {
      "inputs": [],
      "name": "SNOWMAN",
      "outputs": [
        {
          "internalType": "bytes32",
          "name": "",
          "type": "bytes32"
        }
      ],
      "stateMutability": "view",
      "type": "function"
    },
    {
      "inputs": [],
      "name": "SWAP_FACTORY",
      "outputs": [
        {
          "internalType": "bytes32",
          "name": "",
          "type": "bytes32"
        }
      ],
      "stateMutability": "view",
      "type": "function"
    },
    {
      "inputs": [],
      "name": "WHT",
      "outputs": [
        {
          "internalType": "bytes32",
          "name": "",
          "type": "bytes32"
        }
      ],
      "stateMutability": "view",
      "type": "function"
    }
  ],
  "bytecode": "0x61016b610026600b82828239805160001a60731461001957fe5b30600052607381538281f3fe730000000000000000000000000000000000000000301460806040526004361061006c5760003560e01c80635cb4859214610071578063b3a9992e1461008b578063c4a0c25a14610093578063eaf0f2271461009b578063ecb7347f146100a3578063f6d7eade146100ab575b600080fd5b6100796100b3565b60408051918252519081900360200190f35b6100796100c5565b6100796100d8565b6100796100f3565b610079610109565b610079610120565b6a5748545f4144445245535360a81b81565b6b4641524d5f4144445245535360a01b81565b73535741505f464143544f52595f4144445245535360601b81565b6e534e4f574d414e5f4144445245535360881b81565b6f534e4f5742414c4c5f4144445245535360801b81565b6d524f555445525f4144445245535360901b8156fea2646970667358221220fdb924b4d5ba01c8a233c0ecd205cf0c35cd5303e294a99162dc32976123ac9264736f6c63430007050033",
  "immutableReferences": {},
  "source": "// SPDX-License-Identifier: GPL-3.0-or-later\n\npragma solidity ^0.7.0;\n\nlibrary WNSKey {\n\n    bytes32 public constant Router = bytes32('ROUTER_ADDRESS');\n    bytes32 public constant SWAP_FACTORY = bytes32('SWAP_FACTORY_ADDRESS');\n    bytes32 public constant WHT = bytes32('WHT_ADDRESS');\n    bytes32 public constant SNOWMAN = bytes32('SNOWMAN_ADDRESS');\n    bytes32 public constant SNOWBALL = bytes32('SNOWBALL_ADDRESS');\n    bytes32 public constant FARM = bytes32('FARM_ADDRESS');\n}\n",
  "sourcePath": "/home/lycrus/WebstormProjects/WinterSwap/contracts/wns/WNSKey.sol",
  "compiler": {
    "name": "solc",
    "version": "0.7.5+commit.eb77ed08.Emscripten.clang"
  },
  "schemaVersion": "3.3.2",
  "updatedAt": "2020-12-14T16:55:49.792Z",
  "devdoc": {
    "kind": "dev",
    "methods": {},
    "version": 1
  },
  "userdoc": {
    "kind": "user",
    "methods": {},
    "version": 1
  }
}